{
  "contractName": "BankLiability",
  "abi": [
    {
      "inputs": [
        {
          "internalType": "address",
          "name": "RPTokenAddr",
          "type": "address"
        }
      ],
      "stateMutability": "nonpayable",
      "type": "constructor"
    },
    {
      "anonymous": false,
      "inputs": [
        {
          "indexed": true,
          "internalType": "address",
          "name": "sender",
          "type": "address"
        },
        {
          "indexed": true,
          "internalType": "address",
          "name": "recipient",
          "type": "address"
        },
        {
          "indexed": false,
          "internalType": "uint256",
          "name": "amount",
          "type": "uint256"
        }
      ],
      "name": "Accept",
      "type": "event"
    },
    {
      "anonymous": false,
      "inputs": [
        {
          "indexed": true,
          "internalType": "address",
          "name": "sender",
          "type": "address"
        },
        {
          "indexed": true,
          "internalType": "address",
          "name": "recipient",
          "type": "address"
        }
      ],
      "name": "RevokeRequest",
      "type": "event"
    },
    {
      "anonymous": false,
      "inputs": [
        {
          "indexed": true,
          "internalType": "address",
          "name": "sender",
          "type": "address"
        },
        {
          "indexed": true,
          "internalType": "address",
          "name": "recipient",
          "type": "address"
        },
        {
          "indexed": false,
          "internalType": "uint256",
          "name": "amount",
          "type": "uint256"
        }
      ],
      "name": "TransferRequest",
      "type": "event"
    },
    {
      "inputs": [],
      "name": "_RPToken",
      "outputs": [
        {
          "internalType": "address",
          "name": "",
          "type": "address"
        }
      ],
      "stateMutability": "view",
      "type": "function",
      "constant": true
    },
    {
      "inputs": [
        {
          "internalType": "address",
          "name": "",
          "type": "address"
        }
      ],
      "name": "_liabilities",
      "outputs": [
        {
          "internalType": "int256",
          "name": "",
          "type": "int256"
        }
      ],
      "stateMutability": "view",
      "type": "function",
      "constant": true
    },
    {
      "inputs": [],
      "name": "_owner",
      "outputs": [
        {
          "internalType": "address",
          "name": "",
          "type": "address"
        }
      ],
      "stateMutability": "view",
      "type": "function",
      "constant": true
    },
    {
      "inputs": [],
      "name": "_totalLiability",
      "outputs": [
        {
          "internalType": "int256",
          "name": "",
          "type": "int256"
        }
      ],
      "stateMutability": "view",
      "type": "function",
      "constant": true
    },
    {
      "inputs": [
        {
          "internalType": "address",
          "name": "recipient",
          "type": "address"
        },
        {
          "internalType": "uint256",
          "name": "amount",
          "type": "uint256"
        }
      ],
      "name": "transferRequest",
      "outputs": [
        {
          "internalType": "bool",
          "name": "",
          "type": "bool"
        }
      ],
      "stateMutability": "nonpayable",
      "type": "function"
    },
    {
      "inputs": [
        {
          "internalType": "address",
          "name": "recipient",
          "type": "address"
        }
      ],
      "name": "revokeRequest",
      "outputs": [
        {
          "internalType": "bool",
          "name": "",
          "type": "bool"
        }
      ],
      "stateMutability": "nonpayable",
      "type": "function"
    },
    {
      "inputs": [
        {
          "internalType": "address",
          "name": "sender",
          "type": "address"
        }
      ],
      "name": "accept",
      "outputs": [
        {
          "internalType": "bool",
          "name": "",
          "type": "bool"
        }
      ],
      "stateMutability": "nonpayable",
      "type": "function"
    },
    {
      "inputs": [
        {
          "internalType": "address",
          "name": "recipient",
          "type": "address"
        }
      ],
      "name": "getTransferRequest",
      "outputs": [
        {
          "internalType": "uint256",
          "name": "",
          "type": "uint256"
        }
      ],
      "stateMutability": "view",
      "type": "function",
      "constant": true
    },
    {
      "inputs": [],
      "name": "getTransferRequestKeys",
      "outputs": [
        {
          "internalType": "address[]",
          "name": "",
          "type": "address[]"
        }
      ],
      "stateMutability": "view",
      "type": "function",
      "constant": true
    },
    {
      "inputs": [
        {
          "internalType": "address",
          "name": "sender",
          "type": "address"
        }
      ],
      "name": "getConfirmRemittance",
      "outputs": [
        {
          "internalType": "uint256",
          "name": "",
          "type": "uint256"
        }
      ],
      "stateMutability": "view",
      "type": "function",
      "constant": true
    },
    {
      "inputs": [],
      "name": "getConfirmRemittanceKeys",
      "outputs": [
        {
          "internalType": "address[]",
          "name": "",
          "type": "address[]"
        }
      ],
      "stateMutability": "view",
      "type": "function",
      "constant": true
    },
    {
      "inputs": [
        {
          "internalType": "address",
          "name": "addr",
          "type": "address"
        },
        {
          "internalType": "uint256",
          "name": "amount",
          "type": "uint256"
        }
      ],
      "name": "increaseLiability",
      "outputs": [],
      "stateMutability": "nonpayable",
      "type": "function"
    },
    {
      "inputs": [
        {
          "internalType": "address",
          "name": "addr",
          "type": "address"
        },
        {
          "internalType": "uint256",
          "name": "amount",
          "type": "uint256"
        }
      ],
      "name": "decreaseLiability",
      "outputs": [],
      "stateMutability": "nonpayable",
      "type": "function"
    }
  ],
  "bytecode": "0x60806040523480156200001157600080fd5b5060405162002b0738038062002b07833981810160405281019062000037919062000181565b620000476200010f60201b60201c565b6000806101000a81548173ffffffffffffffffffffffffffffffffffffffff021916908373ffffffffffffffffffffffffffffffffffffffff16021790555080600160006101000a81548173ffffffffffffffffffffffffffffffffffffffff021916908373ffffffffffffffffffffffffffffffffffffffff16021790555080600260006101000a81548173ffffffffffffffffffffffffffffffffffffffff021916908373ffffffffffffffffffffffffffffffffffffffff16021790555050620001b3565b600033905090565b600080fd5b600073ffffffffffffffffffffffffffffffffffffffff82169050919050565b600062000149826200011c565b9050919050565b6200015b816200013c565b81146200016757600080fd5b50565b6000815190506200017b8162000150565b92915050565b6000602082840312156200019a576200019962000117565b5b6000620001aa848285016200016a565b91505092915050565b61294480620001c36000396000f3fe608060405234801561001057600080fd5b50600436106100cf5760003560e01c8063a84df2011161008c578063b9ff644a11610066578063b9ff644a1461023a578063c2456fce14610256578063ddd404fe14610274578063ed03a553146102a4576100cf565b8063a84df201146101ce578063b1843602146101fe578063b2bdfa7b1461021c576100cf565b80633d8576cc146100d4578063531b117f1461010457806371349647146101225780638408ab85146101525780639c23c86a146101825780639f0059201461019e575b600080fd5b6100ee60048036038101906100e99190611f38565b6102c2565b6040516100fb9190611f7e565b60405180910390f35b61010c610434565b6040516101199190611fb2565b60405180910390f35b61013c60048036038101906101379190611ff9565b61043a565b6040516101499190612054565b60405180910390f35b61016c60048036038101906101679190611f38565b610a2c565b6040516101799190611fb2565b60405180910390f35b61019c60048036038101906101979190611ff9565b610a44565b005b6101b860048036038101906101b39190611f38565b610bb9565b6040516101c59190612054565b60405180910390f35b6101e860048036038101906101e39190611f38565b610f81565b6040516101f59190612054565b60405180910390f35b610206611284565b604051610213919061212d565b60405180910390f35b610224611438565b604051610231919061215e565b60405180910390f35b610254600480360381019061024f9190611ff9565b61145c565b005b61025e6115d1565b60405161026b919061215e565b60405180910390f35b61028e60048036038101906102899190611f38565b6115f7565b60405161029b9190611f7e565b60405180910390f35b6102ac611769565b6040516102b9919061212d565b60405180910390f35b6000600260009054906101000a900473ffffffffffffffffffffffffffffffffffffffff1673ffffffffffffffffffffffffffffffffffffffff166349d407c961030a61191d565b6040518263ffffffff1660e01b8152600401610326919061215e565b602060405180830381865afa158015610343573d6000803e3d6000fd5b505050506040513d601f19601f8201168201806040525081019061036791906121a5565b6103a6576040517f08c379a000000000000000000000000000000000000000000000000000000000815260040161039d9061222f565b60405180910390fd5b600560006103b261191d565b73ffffffffffffffffffffffffffffffffffffffff1673ffffffffffffffffffffffffffffffffffffffff16815260200190815260200160002060008373ffffffffffffffffffffffffffffffffffffffff1673ffffffffffffffffffffffffffffffffffffffff168152602001908152602001600020600001549050919050565b60035481565b6000600260009054906101000a900473ffffffffffffffffffffffffffffffffffffffff1673ffffffffffffffffffffffffffffffffffffffff166349d407c961048261191d565b6040518263ffffffff1660e01b815260040161049e919061215e565b602060405180830381865afa1580156104bb573d6000803e3d6000fd5b505050506040513d601f19601f820116820180604052508101906104df91906121a5565b61051e576040517f08c379a00000000000000000000000000000000000000000000000000000000081526004016105159061222f565b60405180910390fd5b600260009054906101000a900473ffffffffffffffffffffffffffffffffffffffff1673ffffffffffffffffffffffffffffffffffffffff166349d407c9846040518263ffffffff1660e01b8152600401610579919061215e565b602060405180830381865afa158015610596573d6000803e3d6000fd5b505050506040513d601f19601f820116820180604052508101906105ba91906121a5565b6105f9576040517f08c379a00000000000000000000000000000000000000000000000000000000081526004016105f0906122c1565b60405180910390fd5b600082141561063d576040517f08c379a00000000000000000000000000000000000000000000000000000000081526004016106349061232d565b60405180910390fd5b60006005600061064b61191d565b73ffffffffffffffffffffffffffffffffffffffff1673ffffffffffffffffffffffffffffffffffffffff16815260200190815260200160002060008573ffffffffffffffffffffffffffffffffffffffff1673ffffffffffffffffffffffffffffffffffffffff1681526020019081526020016000206000015414610706576040517f08c379a00000000000000000000000000000000000000000000000000000000081526004016106fd906123bf565b60405180910390fd5b6006600061071261191d565b73ffffffffffffffffffffffffffffffffffffffff1673ffffffffffffffffffffffffffffffffffffffff168152602001908152602001600020839080600181540180825580915050600190039060005260206000200160009091909190916101000a81548173ffffffffffffffffffffffffffffffffffffffff021916908373ffffffffffffffffffffffffffffffffffffffff160217905550600760008473ffffffffffffffffffffffffffffffffffffffff1673ffffffffffffffffffffffffffffffffffffffff1681526020019081526020016000206107f461191d565b9080600181540180825580915050600190039060005260206000200160009091909190916101000a81548173ffffffffffffffffffffffffffffffffffffffff021916908373ffffffffffffffffffffffffffffffffffffffff160217905550604051806060016040528083815260200160016006600061087361191d565b73ffffffffffffffffffffffffffffffffffffffff1673ffffffffffffffffffffffffffffffffffffffff168152602001908152602001600020805490506108bb919061240e565b81526020016001600760008773ffffffffffffffffffffffffffffffffffffffff1673ffffffffffffffffffffffffffffffffffffffff1681526020019081526020016000208054905061090f919061240e565b8152506005600061091e61191d565b73ffffffffffffffffffffffffffffffffffffffff1673ffffffffffffffffffffffffffffffffffffffff16815260200190815260200160002060008573ffffffffffffffffffffffffffffffffffffffff1673ffffffffffffffffffffffffffffffffffffffff1681526020019081526020016000206000820151816000015560208201518160010155604082015181600201559050508273ffffffffffffffffffffffffffffffffffffffff166109d561191d565b73ffffffffffffffffffffffffffffffffffffffff167fb22781db7a1c1a87b86b7215e93e2ad8791bb8cc984291af99060086f14f0b4a84604051610a1a9190611f7e565b60405180910390a36001905092915050565b60046020528060005260406000206000915090505481565b60008054906101000a900473ffffffffffffffffffffffffffffffffffffffff1673ffffffffffffffffffffffffffffffffffffffff16610a8361191d565b73ffffffffffffffffffffffffffffffffffffffff161480610af95750600160009054906101000a900473ffffffffffffffffffffffffffffffffffffffff1673ffffffffffffffffffffffffffffffffffffffff16610ae161191d565b73ffffffffffffffffffffffffffffffffffffffff16145b610b0257600080fd5b6000811415610b46576040517f08c379a0000000000000000000000000000000000000000000000000000000008152600401610b3d9061248e565b60405180910390fd5b80600460008473ffffffffffffffffffffffffffffffffffffffff1673ffffffffffffffffffffffffffffffffffffffff1681526020019081526020016000206000828254610b9591906124ae565b925050819055508060036000828254610bae91906124ae565b925050819055505050565b6000600260009054906101000a900473ffffffffffffffffffffffffffffffffffffffff1673ffffffffffffffffffffffffffffffffffffffff166349d407c9610c0161191d565b6040518263ffffffff1660e01b8152600401610c1d919061215e565b602060405180830381865afa158015610c3a573d6000803e3d6000fd5b505050506040513d601f19601f82011682018060405250810190610c5e91906121a5565b610c9d576040517f08c379a0000000000000000000000000000000000000000000000000000000008152600401610c949061222f565b60405180910390fd5b600260009054906101000a900473ffffffffffffffffffffffffffffffffffffffff1673ffffffffffffffffffffffffffffffffffffffff166349d407c9836040518263ffffffff1660e01b8152600401610cf8919061215e565b602060405180830381865afa158015610d15573d6000803e3d6000fd5b505050506040513d601f19601f82011682018060405250810190610d3991906121a5565b610d78576040517f08c379a0000000000000000000000000000000000000000000000000000000008152600401610d6f906125b4565b60405180910390fd5b6000600560008473ffffffffffffffffffffffffffffffffffffffff1673ffffffffffffffffffffffffffffffffffffffff1681526020019081526020016000206000610dc361191d565b73ffffffffffffffffffffffffffffffffffffffff1673ffffffffffffffffffffffffffffffffffffffff1681526020019081526020016000206000015490506000811415610e47576040517f08c379a0000000000000000000000000000000000000000000000000000000008152600401610e3e90612646565b60405180910390fd5b80600460008573ffffffffffffffffffffffffffffffffffffffff1673ffffffffffffffffffffffffffffffffffffffff1681526020019081526020016000206000828254610e9691906124ae565b925050819055508060046000610eaa61191d565b73ffffffffffffffffffffffffffffffffffffffff1673ffffffffffffffffffffffffffffffffffffffff1681526020019081526020016000206000828254610ef39190612666565b92505081905550610f0b83610f0661191d565b611925565b8273ffffffffffffffffffffffffffffffffffffffff16610f2a61191d565b73ffffffffffffffffffffffffffffffffffffffff167ffd21f523f83f9e9994366516baa84b6ce04a7400fc3cbe841ac50bfe9f02ee2d83604051610f6f9190611f7e565b60405180910390a36001915050919050565b6000600260009054906101000a900473ffffffffffffffffffffffffffffffffffffffff1673ffffffffffffffffffffffffffffffffffffffff166349d407c9610fc961191d565b6040518263ffffffff1660e01b8152600401610fe5919061215e565b602060405180830381865afa158015611002573d6000803e3d6000fd5b505050506040513d601f19601f8201168201806040525081019061102691906121a5565b611065576040517f08c379a000000000000000000000000000000000000000000000000000000000815260040161105c9061222f565b60405180910390fd5b600260009054906101000a900473ffffffffffffffffffffffffffffffffffffffff1673ffffffffffffffffffffffffffffffffffffffff166349d407c9836040518263ffffffff1660e01b81526004016110c0919061215e565b602060405180830381865afa1580156110dd573d6000803e3d6000fd5b505050506040513d601f19601f8201168201806040525081019061110191906121a5565b611140576040517f08c379a00000000000000000000000000000000000000000000000000000000081526004016111379061276c565b60405180910390fd5b60006005600061114e61191d565b73ffffffffffffffffffffffffffffffffffffffff1673ffffffffffffffffffffffffffffffffffffffff16815260200190815260200160002060008473ffffffffffffffffffffffffffffffffffffffff1673ffffffffffffffffffffffffffffffffffffffff1681526020019081526020016000206000015411611209576040517f08c379a000000000000000000000000000000000000000000000000000000000815260040161120090612824565b60405180910390fd5b61121a61121461191d565b83611925565b8173ffffffffffffffffffffffffffffffffffffffff1661123961191d565b73ffffffffffffffffffffffffffffffffffffffff167fc352649e1359e533bb72bc2288978e87cec95fbc70a4ed34dad23581885ddc6460405160405180910390a360019050919050565b6060600260009054906101000a900473ffffffffffffffffffffffffffffffffffffffff1673ffffffffffffffffffffffffffffffffffffffff166349d407c96112cc61191d565b6040518263ffffffff1660e01b81526004016112e8919061215e565b602060405180830381865afa158015611305573d6000803e3d6000fd5b505050506040513d601f19601f8201168201806040525081019061132991906121a5565b611368576040517f08c379a000000000000000000000000000000000000000000000000000000000815260040161135f9061222f565b60405180910390fd5b6007600061137461191d565b73ffffffffffffffffffffffffffffffffffffffff1673ffffffffffffffffffffffffffffffffffffffff16815260200190815260200160002080548060200260200160405190810160405280929190818152602001828054801561142e57602002820191906000526020600020905b8160009054906101000a900473ffffffffffffffffffffffffffffffffffffffff1673ffffffffffffffffffffffffffffffffffffffff16815260200190600101908083116113e4575b5050505050905090565b60008054906101000a900473ffffffffffffffffffffffffffffffffffffffff1681565b60008054906101000a900473ffffffffffffffffffffffffffffffffffffffff1673ffffffffffffffffffffffffffffffffffffffff1661149b61191d565b73ffffffffffffffffffffffffffffffffffffffff1614806115115750600160009054906101000a900473ffffffffffffffffffffffffffffffffffffffff1673ffffffffffffffffffffffffffffffffffffffff166114f961191d565b73ffffffffffffffffffffffffffffffffffffffff16145b61151a57600080fd5b600081141561155e576040517f08c379a000000000000000000000000000000000000000000000000000000000815260040161155590612890565b60405180910390fd5b80600460008473ffffffffffffffffffffffffffffffffffffffff1673ffffffffffffffffffffffffffffffffffffffff16815260200190815260200160002060008282546115ad9190612666565b9250508190555080600360008282546115c69190612666565b925050819055505050565b600160009054906101000a900473ffffffffffffffffffffffffffffffffffffffff1681565b6000600260009054906101000a900473ffffffffffffffffffffffffffffffffffffffff1673ffffffffffffffffffffffffffffffffffffffff166349d407c961163f61191d565b6040518263ffffffff1660e01b815260040161165b919061215e565b602060405180830381865afa158015611678573d6000803e3d6000fd5b505050506040513d601f19601f8201168201806040525081019061169c91906121a5565b6116db576040517f08c379a00000000000000000000000000000000000000000000000000000000081526004016116d29061222f565b60405180910390fd5b600560008373ffffffffffffffffffffffffffffffffffffffff1673ffffffffffffffffffffffffffffffffffffffff168152602001908152602001600020600061172461191d565b73ffffffffffffffffffffffffffffffffffffffff1673ffffffffffffffffffffffffffffffffffffffff168152602001908152602001600020600001549050919050565b6060600260009054906101000a900473ffffffffffffffffffffffffffffffffffffffff1673ffffffffffffffffffffffffffffffffffffffff166349d407c96117b161191d565b6040518263ffffffff1660e01b81526004016117cd919061215e565b602060405180830381865afa1580156117ea573d6000803e3d6000fd5b505050506040513d601f19601f8201168201806040525081019061180e91906121a5565b61184d576040517f08c379a00000000000000000000000000000000000000000000000000000000081526004016118449061222f565b60405180910390fd5b6006600061185961191d565b73ffffffffffffffffffffffffffffffffffffffff1673ffffffffffffffffffffffffffffffffffffffff16815260200190815260200160002080548060200260200160405190810160405280929190818152602001828054801561191357602002820191906000526020600020905b8160009054906101000a900473ffffffffffffffffffffffffffffffffffffffff1673ffffffffffffffffffffffffffffffffffffffff16815260200190600101908083116118c9575b5050505050905090565b600033905090565b6000600660008473ffffffffffffffffffffffffffffffffffffffff1673ffffffffffffffffffffffffffffffffffffffff16815260200190815260200160002090506000600560008573ffffffffffffffffffffffffffffffffffffffff1673ffffffffffffffffffffffffffffffffffffffff16815260200190815260200160002060008473ffffffffffffffffffffffffffffffffffffffff1673ffffffffffffffffffffffffffffffffffffffff16815260200190815260200160002060010154905060008260018480549050611a00919061240e565b81548110611a1157611a106128b0565b5b9060005260206000200160009054906101000a900473ffffffffffffffffffffffffffffffffffffffff1690508260018480549050611a50919061240e565b81548110611a6157611a606128b0565b5b9060005260206000200160009054906101000a900473ffffffffffffffffffffffffffffffffffffffff16838381548110611a9f57611a9e6128b0565b5b9060005260206000200160006101000a81548173ffffffffffffffffffffffffffffffffffffffff021916908373ffffffffffffffffffffffffffffffffffffffff16021790555081600560008773ffffffffffffffffffffffffffffffffffffffff1673ffffffffffffffffffffffffffffffffffffffff16815260200190815260200160002060008373ffffffffffffffffffffffffffffffffffffffff1673ffffffffffffffffffffffffffffffffffffffff1681526020019081526020016000206001018190555082805480611b7c57611b7b6128df565b5b6001900381819060005260206000200160006101000a81549073ffffffffffffffffffffffffffffffffffffffff02191690559055600760008573ffffffffffffffffffffffffffffffffffffffff1673ffffffffffffffffffffffffffffffffffffffff1681526020019081526020016000209250600560008673ffffffffffffffffffffffffffffffffffffffff1673ffffffffffffffffffffffffffffffffffffffff16815260200190815260200160002060008573ffffffffffffffffffffffffffffffffffffffff1673ffffffffffffffffffffffffffffffffffffffff1681526020019081526020016000206002015491508260018480549050611c86919061240e565b81548110611c9757611c966128b0565b5b9060005260206000200160009054906101000a900473ffffffffffffffffffffffffffffffffffffffff1690508260018480549050611cd6919061240e565b81548110611ce757611ce66128b0565b5b9060005260206000200160009054906101000a900473ffffffffffffffffffffffffffffffffffffffff16838381548110611d2557611d246128b0565b5b9060005260206000200160006101000a81548173ffffffffffffffffffffffffffffffffffffffff021916908373ffffffffffffffffffffffffffffffffffffffff16021790555081600560008373ffffffffffffffffffffffffffffffffffffffff1673ffffffffffffffffffffffffffffffffffffffff16815260200190815260200160002060008673ffffffffffffffffffffffffffffffffffffffff1673ffffffffffffffffffffffffffffffffffffffff1681526020019081526020016000206002018190555082805480611e0257611e016128df565b5b6001900381819060005260206000200160006101000a81549073ffffffffffffffffffffffffffffffffffffffff02191690559055600560008673ffffffffffffffffffffffffffffffffffffffff1673ffffffffffffffffffffffffffffffffffffffff16815260200190815260200160002060008573ffffffffffffffffffffffffffffffffffffffff1673ffffffffffffffffffffffffffffffffffffffff1681526020019081526020016000206000808201600090556001820160009055600282016000905550505050505050565b600080fd5b600073ffffffffffffffffffffffffffffffffffffffff82169050919050565b6000611f0582611eda565b9050919050565b611f1581611efa565b8114611f2057600080fd5b50565b600081359050611f3281611f0c565b92915050565b600060208284031215611f4e57611f4d611ed5565b5b6000611f5c84828501611f23565b91505092915050565b6000819050919050565b611f7881611f65565b82525050565b6000602082019050611f936000830184611f6f565b92915050565b6000819050919050565b611fac81611f99565b82525050565b6000602082019050611fc76000830184611fa3565b92915050565b611fd681611f65565b8114611fe157600080fd5b50565b600081359050611ff381611fcd565b92915050565b600080604083850312156120105761200f611ed5565b5b600061201e85828601611f23565b925050602061202f85828601611fe4565b9150509250929050565b60008115159050919050565b61204e81612039565b82525050565b60006020820190506120696000830184612045565b92915050565b600081519050919050565b600082825260208201905092915050565b6000819050602082019050919050565b6120a481611efa565b82525050565b60006120b6838361209b565b60208301905092915050565b6000602082019050919050565b60006120da8261206f565b6120e4818561207a565b93506120ef8361208b565b8060005b8381101561212057815161210788826120aa565b9750612112836120c2565b9250506001810190506120f3565b5085935050505092915050565b6000602082019050818103600083015261214781846120cf565b905092915050565b61215881611efa565b82525050565b6000602082019050612173600083018461214f565b92915050565b61218281612039565b811461218d57600080fd5b50565b60008151905061219f81612179565b92915050565b6000602082840312156121bb576121ba611ed5565b5b60006121c984828501612190565b91505092915050565b600082825260208201905092915050565b7f596f7520617265206e6f7420612062616e6b0000000000000000000000000000600082015250565b60006122196012836121d2565b9150612224826121e3565b602082019050919050565b600060208201905081810360008301526122488161220c565b9050919050565b7f4c696162696c6974793a20596f752063616e206f6e6c7920726571756573742060008201527f746f207472616e73666572206c696162696c69747920746f2062616e6b730000602082015250565b60006122ab603e836121d2565b91506122b68261224f565b604082019050919050565b600060208201905081810360008301526122da8161229e565b9050919050565b7f4c696162696c6974793a207472616e73666572207a65726f20616d6f756e7400600082015250565b6000612317601f836121d2565b9150612322826122e1565b602082019050919050565b600060208201905081810360008301526123468161230a565b9050919050565b7f4c696162696c6974793a20596f752063616e6e6f742073656e64206d756c746960008201527f706c6520726571756573747320746f207468652073616d652062616e6b000000602082015250565b60006123a9603d836121d2565b91506123b48261234d565b604082019050919050565b600060208201905081810360008301526123d88161239c565b9050919050565b7f4e487b7100000000000000000000000000000000000000000000000000000000600052601160045260246000fd5b600061241982611f65565b915061242483611f65565b925082821015612437576124366123df565b5b828203905092915050565b7f4c696162696c6974793a206465637265617365207a65726f20616d6f756e7400600082015250565b6000612478601f836121d2565b915061248382612442565b602082019050919050565b600060208201905081810360008301526124a78161246b565b9050919050565b60006124b982611f99565b91506124c483611f99565b9250817f7fffffffffffffffffffffffffffffffffffffffffffffffffffffffffffffff038313600083121516156124ff576124fe6123df565b5b817f8000000000000000000000000000000000000000000000000000000000000000038312600083121615612537576125366123df565b5b828201905092915050565b7f4c696162696c6974793a20596f752063616e206f6e6c7920616363657074207460008201527f686520726571756573742066726f6d2062616e6b730000000000000000000000602082015250565b600061259e6035836121d2565b91506125a982612542565b604082019050919050565b600060208201905081810360008301526125cd81612591565b9050919050565b7f4c696162696c6974793a205468652073656e646572206469646e27742073656e60008201527f6420746865207472616e73666572207265717565737400000000000000000000602082015250565b60006126306036836121d2565b915061263b826125d4565b604082019050919050565b6000602082019050818103600083015261265f81612623565b9050919050565b600061267182611f99565b915061267c83611f99565b9250827f8000000000000000000000000000000000000000000000000000000000000000018212600084121516156126b7576126b66123df565b5b827f7fffffffffffffffffffffffffffffffffffffffffffffffffffffffffffffff0182136000841216156126ef576126ee6123df565b5b828203905092915050565b7f4c696162696c6974793a20596f752063616e206f6e6c79207265766f6b65207460008201527f6865207265717565737420746f2062616e6b7300000000000000000000000000602082015250565b60006127566033836121d2565b9150612761826126fa565b604082019050919050565b6000602082019050818103600083015261278581612749565b9050919050565b7f4c696162696c6974793a20596f752063616e6e6f74207265766f6b652074686560008201527f2072657175657374206265666f72652073656e64696e6720746865207265717560208201527f6573740000000000000000000000000000000000000000000000000000000000604082015250565b600061280e6043836121d2565b91506128198261278c565b606082019050919050565b6000602082019050818103600083015261283d81612801565b9050919050565b7f4c696162696c6974793a20696e637265617365207a65726f20616d6f756e7400600082015250565b600061287a601f836121d2565b915061288582612844565b602082019050919050565b600060208201905081810360008301526128a98161286d565b9050919050565b7f4e487b7100000000000000000000000000000000000000000000000000000000600052603260045260246000fd5b7f4e487b7100000000000000000000000000000000000000000000000000000000600052603160045260246000fdfea26469706673582212209e6304d54504f583dc2f487c26c8a509a0e44854f4312d1acabab548a8b2043864736f6c634300080a0033",
  "immutableReferences": {},
  "source": "// SPDX-License-Identifier: UNLICENSED\n\npragma solidity ^0.8.0;\n\nimport \"@openzeppelin/contracts/utils/Context.sol\";\n\ncontract BankLiability is Context {\n    address public _owner;\n    address public _RPToken;\n    BL_RPToken private _rp;\n    // BL_Credit private _credit;\n    int256 public _totalLiability;\n\n    mapping(address => int256) public _liabilities;\n\n    struct Request {\n        uint256 amount;\n        uint transferKeysIdx;\n        uint confirmKeysIdx;\n    }\n\n    mapping(address => mapping(address => Request)) private _transferRequest;\n    mapping(address => address[]) private _transferRequestKeys;\n    // mapping(address => mapping(address => Request)) private _confirmRemittance;\n    mapping(address => address[]) private _confirmRemittanceKeys;\n\n    event TransferRequest(\n        address indexed sender,\n        address indexed recipient,\n        uint256 amount\n    );\n    event RevokeRequest(address indexed sender, address indexed recipient);\n    event Accept(\n        address indexed sender,\n        address indexed recipient,\n        uint256 amount\n    );\n\n    modifier onlyOwner() {\n        require(_msgSender() == _owner);\n        _;\n    }\n\n    modifier onlyBank() {\n        require(_rp._banks(_msgSender()), \"You are not a bank\");\n        _;\n    }\n\n    constructor(address RPTokenAddr) {\n        _owner = _msgSender();\n        _RPToken = RPTokenAddr;\n        _rp = BL_RPToken(RPTokenAddr);\n    }\n\n    /* function loadCredit(address addr) public onlyOwner {\n        _credit = BL_Credit(addr);\n    } */\n\n    function transferRequest(address recipient, uint256 amount) public onlyBank returns (bool)\n    {\n        require(_rp._banks(recipient), \"Liability: You can only request to transfer liability to banks\");\n        require(amount != 0, \"Liability: transfer zero amount\");\n        require(_transferRequest[_msgSender()][recipient].amount == 0, \"Liability: You cannot send multiple requests to the same bank\");\n        /* _transferRequest[_msgSender()][recipient] = amount;\n        _transferRequestKeys[_msgSender()].push(recipient);\n        _confirmRemittance[recipient][_msgSender()] = amount;\n        _confirmRemittanceKeys[recipient].push(_msgSender()); */\n\n        _transferRequestKeys[_msgSender()].push(recipient);\n        _confirmRemittanceKeys[recipient].push(_msgSender());\n        _transferRequest[_msgSender()][recipient] = Request(amount, _transferRequestKeys[_msgSender()].length - 1, _confirmRemittanceKeys[recipient].length - 1);\n        // _confirmRemittance[recipient][_msgSender()] = Request(amount, _confirmRemittanceKeys[recipient].length - 1);\n\n        emit TransferRequest(_msgSender(), recipient, amount);\n        return true;\n    }\n\n    function deleteRequest(address sender, address recipient) internal {\n        address[] storage keys = _transferRequestKeys[sender];\n        uint rowToDelete = _transferRequest[sender][recipient].transferKeysIdx;\n        address keyToMove = keys[keys.length-1];\n        keys[rowToDelete] = keys[keys.length-1];\n        _transferRequest[sender][keyToMove].transferKeysIdx = rowToDelete;\n        keys.pop();\n\n        keys = _confirmRemittanceKeys[recipient];\n        rowToDelete = _transferRequest[sender][recipient].confirmKeysIdx;\n        keyToMove = keys[keys.length-1];\n        keys[rowToDelete] = keys[keys.length-1];\n        _transferRequest[keyToMove][recipient].confirmKeysIdx = rowToDelete;\n        keys.pop();\n        delete _transferRequest[sender][recipient];\n    }\n\n    function revokeRequest(address recipient) public onlyBank returns (bool) {\n        require(_rp._banks(recipient), \"Liability: You can only revoke the request to banks\");\n        require(_transferRequest[_msgSender()][recipient].amount > 0, \"Liability: You cannot revoke the request before sending the request\");\n\n        deleteRequest(_msgSender(), recipient);\n\n        emit RevokeRequest(_msgSender(), recipient);\n        return true;\n    }\n\n    function accept(address sender) public onlyBank returns (bool) {\n        require(_rp._banks(sender), \"Liability: You can only accept the request from banks\");\n        uint256 amount = _transferRequest[sender][_msgSender()].amount;\n        require(amount != 0, \"Liability: The sender didn't send the transfer request\");\n        _liabilities[sender] += int256(amount);\n        _liabilities[_msgSender()] -= int256(amount);\n        \n        deleteRequest(sender, _msgSender());\n\n        // _credit.changeLoanLender(sender, _msgSender());\n\n        emit Accept(_msgSender(), sender, amount);\n        return true;\n    }\n\n    function getTransferRequest(address recipient) public view onlyBank returns (uint256) {\n        return _transferRequest[_msgSender()][recipient].amount;\n    }\n\n    function getTransferRequestKeys() public view onlyBank returns (address[] memory) {\n        return _transferRequestKeys[_msgSender()];\n    }\n\n    function getConfirmRemittance(address sender) public view onlyBank returns (uint256) {\n        return _transferRequest[sender][_msgSender()].amount;\n    }\n\n    function getConfirmRemittanceKeys() public view onlyBank returns (address[] memory) {\n        return _confirmRemittanceKeys[_msgSender()];\n    }\n\n    function increaseLiability(address addr, uint256 amount) public {\n        require(_msgSender() == _owner || _msgSender() == _RPToken);\n        require(amount != 0, \"Liability: increase zero amount\");\n        _liabilities[addr] -= int256(amount);\n        _totalLiability -= int256(amount);\n    }\n\n    function decreaseLiability(address addr, uint256 amount) public {\n        require(_msgSender() == _owner || _msgSender() == _RPToken);\n        require(amount != 0, \"Liability: decrease zero amount\");\n        _liabilities[addr] += int256(amount);\n        _totalLiability += int256(amount);\n    }\n}\n\ncontract BL_RPToken {\n    function _banks(address) public view returns (bool) {}\n}\n\n/* contract BL_Credit {\n    function changeLoanLender(address, address) public {}\n} */\n",
  "sourcePath": "/Users/hc/Projects/BCOIP PRO/src/contracts/BankLiability.sol",
  "compiler": {
    "name": "solc",
    "version": "0.8.10+commit.fc410830.Emscripten.clang"
  },
  "schemaVersion": "3.4.3",
  "updatedAt": "2021-12-05T06:14:43.275Z",
  "networkType": "ethereum",
  "devdoc": {
    "kind": "dev",
    "methods": {},
    "version": 1
  },
  "userdoc": {
    "kind": "user",
    "methods": {},
    "version": 1
  }
}