{
  "contractName": "BankLiability",
  "abi": [
    {
      "inputs": [
        {
          "internalType": "address",
          "name": "RPTokenAddr",
          "type": "address"
        }
      ],
      "stateMutability": "nonpayable",
      "type": "constructor"
    },
    {
      "anonymous": false,
      "inputs": [
        {
          "indexed": true,
          "internalType": "address",
          "name": "sender",
          "type": "address"
        },
        {
          "indexed": true,
          "internalType": "address",
          "name": "recipient",
          "type": "address"
        },
        {
          "indexed": false,
          "internalType": "uint256",
          "name": "amount",
          "type": "uint256"
        }
      ],
      "name": "Accept",
      "type": "event"
    },
    {
      "anonymous": false,
      "inputs": [
        {
          "indexed": true,
          "internalType": "address",
          "name": "sender",
          "type": "address"
        },
        {
          "indexed": true,
          "internalType": "address",
          "name": "recipient",
          "type": "address"
        }
      ],
      "name": "RevokeRequest",
      "type": "event"
    },
    {
      "anonymous": false,
      "inputs": [
        {
          "indexed": true,
          "internalType": "address",
          "name": "sender",
          "type": "address"
        },
        {
          "indexed": true,
          "internalType": "address",
          "name": "recipient",
          "type": "address"
        },
        {
          "indexed": false,
          "internalType": "uint256",
          "name": "amount",
          "type": "uint256"
        }
      ],
      "name": "TransferRequest",
      "type": "event"
    },
    {
      "inputs": [],
      "name": "_RPToken",
      "outputs": [
        {
          "internalType": "address",
          "name": "",
          "type": "address"
        }
      ],
      "stateMutability": "view",
      "type": "function",
      "constant": true
    },
    {
      "inputs": [
        {
          "internalType": "address",
          "name": "",
          "type": "address"
        }
      ],
      "name": "_liabilities",
      "outputs": [
        {
          "internalType": "int256",
          "name": "",
          "type": "int256"
        }
      ],
      "stateMutability": "view",
      "type": "function",
      "constant": true
    },
    {
      "inputs": [],
      "name": "_owner",
      "outputs": [
        {
          "internalType": "address",
          "name": "",
          "type": "address"
        }
      ],
      "stateMutability": "view",
      "type": "function",
      "constant": true
    },
    {
      "inputs": [],
      "name": "_totalLiability",
      "outputs": [
        {
          "internalType": "int256",
          "name": "",
          "type": "int256"
        }
      ],
      "stateMutability": "view",
      "type": "function",
      "constant": true
    },
    {
      "inputs": [
        {
          "internalType": "address",
          "name": "recipient",
          "type": "address"
        },
        {
          "internalType": "uint256",
          "name": "amount",
          "type": "uint256"
        }
      ],
      "name": "transferRequest",
      "outputs": [
        {
          "internalType": "bool",
          "name": "",
          "type": "bool"
        }
      ],
      "stateMutability": "nonpayable",
      "type": "function"
    },
    {
      "inputs": [
        {
          "internalType": "address",
          "name": "recipient",
          "type": "address"
        }
      ],
      "name": "revokeRequest",
      "outputs": [
        {
          "internalType": "bool",
          "name": "",
          "type": "bool"
        }
      ],
      "stateMutability": "nonpayable",
      "type": "function"
    },
    {
      "inputs": [
        {
          "internalType": "address",
          "name": "sender",
          "type": "address"
        }
      ],
      "name": "accept",
      "outputs": [
        {
          "internalType": "bool",
          "name": "",
          "type": "bool"
        }
      ],
      "stateMutability": "nonpayable",
      "type": "function"
    },
    {
      "inputs": [
        {
          "internalType": "address",
          "name": "recipient",
          "type": "address"
        }
      ],
      "name": "getTransferRequest",
      "outputs": [
        {
          "internalType": "uint256",
          "name": "",
          "type": "uint256"
        }
      ],
      "stateMutability": "view",
      "type": "function",
      "constant": true
    },
    {
      "inputs": [],
      "name": "getTransferRequestKeys",
      "outputs": [
        {
          "internalType": "address[]",
          "name": "",
          "type": "address[]"
        }
      ],
      "stateMutability": "view",
      "type": "function",
      "constant": true
    },
    {
      "inputs": [
        {
          "internalType": "address",
          "name": "sender",
          "type": "address"
        }
      ],
      "name": "getConfirmRemittance",
      "outputs": [
        {
          "internalType": "uint256",
          "name": "",
          "type": "uint256"
        }
      ],
      "stateMutability": "view",
      "type": "function",
      "constant": true
    },
    {
      "inputs": [],
      "name": "getConfirmRemittanceKeys",
      "outputs": [
        {
          "internalType": "address[]",
          "name": "",
          "type": "address[]"
        }
      ],
      "stateMutability": "view",
      "type": "function",
      "constant": true
    },
    {
      "inputs": [
        {
          "internalType": "address",
          "name": "addr",
          "type": "address"
        },
        {
          "internalType": "uint256",
          "name": "amount",
          "type": "uint256"
        }
      ],
      "name": "increaseLiability",
      "outputs": [],
      "stateMutability": "nonpayable",
      "type": "function"
    },
    {
      "inputs": [
        {
          "internalType": "address",
          "name": "addr",
          "type": "address"
        },
        {
          "internalType": "uint256",
          "name": "amount",
          "type": "uint256"
        }
      ],
      "name": "decreaseLiability",
      "outputs": [],
      "stateMutability": "nonpayable",
      "type": "function"
    }
  ],
  "bytecode": "0x60806040523480156200001157600080fd5b5060405162002a6d38038062002a6d833981810160405281019062000037919062000181565b620000476200010f60201b60201c565b6000806101000a81548173ffffffffffffffffffffffffffffffffffffffff021916908373ffffffffffffffffffffffffffffffffffffffff16021790555080600160006101000a81548173ffffffffffffffffffffffffffffffffffffffff021916908373ffffffffffffffffffffffffffffffffffffffff16021790555080600260006101000a81548173ffffffffffffffffffffffffffffffffffffffff021916908373ffffffffffffffffffffffffffffffffffffffff16021790555050620001b3565b600033905090565b600080fd5b600073ffffffffffffffffffffffffffffffffffffffff82169050919050565b600062000149826200011c565b9050919050565b6200015b816200013c565b81146200016757600080fd5b50565b6000815190506200017b8162000150565b92915050565b6000602082840312156200019a576200019962000117565b5b6000620001aa848285016200016a565b91505092915050565b6128aa80620001c36000396000f3fe608060405234801561001057600080fd5b50600436106100cf5760003560e01c8063a84df2011161008c578063b9ff644a11610066578063b9ff644a1461023a578063c2456fce14610256578063ddd404fe14610274578063ed03a553146102a4576100cf565b8063a84df201146101ce578063b1843602146101fe578063b2bdfa7b1461021c576100cf565b80633d8576cc146100d4578063531b117f1461010457806371349647146101225780638408ab85146101525780639c23c86a146101825780639f0059201461019e575b600080fd5b6100ee60048036038101906100e99190611e9e565b6102c2565b6040516100fb9190611ee4565b60405180910390f35b61010c610434565b6040516101199190611f18565b60405180910390f35b61013c60048036038101906101379190611f5f565b61043a565b6040516101499190611fba565b60405180910390f35b61016c60048036038101906101679190611e9e565b610a2c565b6040516101799190611f18565b60405180910390f35b61019c60048036038101906101979190611f5f565b610a44565b005b6101b860048036038101906101b39190611e9e565b610bb9565b6040516101c59190611fba565b60405180910390f35b6101e860048036038101906101e39190611e9e565b610f81565b6040516101f59190611fba565b60405180910390f35b610206611284565b6040516102139190612093565b60405180910390f35b610224611438565b60405161023191906120c4565b60405180910390f35b610254600480360381019061024f9190611f5f565b61145c565b005b61025e6115d1565b60405161026b91906120c4565b60405180910390f35b61028e60048036038101906102899190611e9e565b6115f7565b60405161029b9190611ee4565b60405180910390f35b6102ac611769565b6040516102b99190612093565b60405180910390f35b6000600260009054906101000a900473ffffffffffffffffffffffffffffffffffffffff1673ffffffffffffffffffffffffffffffffffffffff166349d407c961030a61191d565b6040518263ffffffff1660e01b815260040161032691906120c4565b602060405180830381865afa158015610343573d6000803e3d6000fd5b505050506040513d601f19601f82011682018060405250810190610367919061210b565b6103a6576040517f08c379a000000000000000000000000000000000000000000000000000000000815260040161039d90612195565b60405180910390fd5b600560006103b261191d565b73ffffffffffffffffffffffffffffffffffffffff1673ffffffffffffffffffffffffffffffffffffffff16815260200190815260200160002060008373ffffffffffffffffffffffffffffffffffffffff1673ffffffffffffffffffffffffffffffffffffffff168152602001908152602001600020600001549050919050565b60035481565b6000600260009054906101000a900473ffffffffffffffffffffffffffffffffffffffff1673ffffffffffffffffffffffffffffffffffffffff166349d407c961048261191d565b6040518263ffffffff1660e01b815260040161049e91906120c4565b602060405180830381865afa1580156104bb573d6000803e3d6000fd5b505050506040513d601f19601f820116820180604052508101906104df919061210b565b61051e576040517f08c379a000000000000000000000000000000000000000000000000000000000815260040161051590612195565b60405180910390fd5b600260009054906101000a900473ffffffffffffffffffffffffffffffffffffffff1673ffffffffffffffffffffffffffffffffffffffff166349d407c9846040518263ffffffff1660e01b815260040161057991906120c4565b602060405180830381865afa158015610596573d6000803e3d6000fd5b505050506040513d601f19601f820116820180604052508101906105ba919061210b565b6105f9576040517f08c379a00000000000000000000000000000000000000000000000000000000081526004016105f090612227565b60405180910390fd5b600082141561063d576040517f08c379a000000000000000000000000000000000000000000000000000000000815260040161063490612293565b60405180910390fd5b60006005600061064b61191d565b73ffffffffffffffffffffffffffffffffffffffff1673ffffffffffffffffffffffffffffffffffffffff16815260200190815260200160002060008573ffffffffffffffffffffffffffffffffffffffff1673ffffffffffffffffffffffffffffffffffffffff1681526020019081526020016000206000015414610706576040517f08c379a00000000000000000000000000000000000000000000000000000000081526004016106fd90612325565b60405180910390fd5b6006600061071261191d565b73ffffffffffffffffffffffffffffffffffffffff1673ffffffffffffffffffffffffffffffffffffffff168152602001908152602001600020839080600181540180825580915050600190039060005260206000200160009091909190916101000a81548173ffffffffffffffffffffffffffffffffffffffff021916908373ffffffffffffffffffffffffffffffffffffffff160217905550600760008473ffffffffffffffffffffffffffffffffffffffff1673ffffffffffffffffffffffffffffffffffffffff1681526020019081526020016000206107f461191d565b9080600181540180825580915050600190039060005260206000200160009091909190916101000a81548173ffffffffffffffffffffffffffffffffffffffff021916908373ffffffffffffffffffffffffffffffffffffffff160217905550604051806060016040528083815260200160016006600061087361191d565b73ffffffffffffffffffffffffffffffffffffffff1673ffffffffffffffffffffffffffffffffffffffff168152602001908152602001600020805490506108bb9190612374565b81526020016001600760008773ffffffffffffffffffffffffffffffffffffffff1673ffffffffffffffffffffffffffffffffffffffff1681526020019081526020016000208054905061090f9190612374565b8152506005600061091e61191d565b73ffffffffffffffffffffffffffffffffffffffff1673ffffffffffffffffffffffffffffffffffffffff16815260200190815260200160002060008573ffffffffffffffffffffffffffffffffffffffff1673ffffffffffffffffffffffffffffffffffffffff1681526020019081526020016000206000820151816000015560208201518160010155604082015181600201559050508273ffffffffffffffffffffffffffffffffffffffff166109d561191d565b73ffffffffffffffffffffffffffffffffffffffff167fb22781db7a1c1a87b86b7215e93e2ad8791bb8cc984291af99060086f14f0b4a84604051610a1a9190611ee4565b60405180910390a36001905092915050565b60046020528060005260406000206000915090505481565b60008054906101000a900473ffffffffffffffffffffffffffffffffffffffff1673ffffffffffffffffffffffffffffffffffffffff16610a8361191d565b73ffffffffffffffffffffffffffffffffffffffff161480610af95750600160009054906101000a900473ffffffffffffffffffffffffffffffffffffffff1673ffffffffffffffffffffffffffffffffffffffff16610ae161191d565b73ffffffffffffffffffffffffffffffffffffffff16145b610b0257600080fd5b6000811415610b46576040517f08c379a0000000000000000000000000000000000000000000000000000000008152600401610b3d906123f4565b60405180910390fd5b80600460008473ffffffffffffffffffffffffffffffffffffffff1673ffffffffffffffffffffffffffffffffffffffff1681526020019081526020016000206000828254610b959190612414565b925050819055508060036000828254610bae9190612414565b925050819055505050565b6000600260009054906101000a900473ffffffffffffffffffffffffffffffffffffffff1673ffffffffffffffffffffffffffffffffffffffff166349d407c9610c0161191d565b6040518263ffffffff1660e01b8152600401610c1d91906120c4565b602060405180830381865afa158015610c3a573d6000803e3d6000fd5b505050506040513d601f19601f82011682018060405250810190610c5e919061210b565b610c9d576040517f08c379a0000000000000000000000000000000000000000000000000000000008152600401610c9490612195565b60405180910390fd5b600260009054906101000a900473ffffffffffffffffffffffffffffffffffffffff1673ffffffffffffffffffffffffffffffffffffffff166349d407c9836040518263ffffffff1660e01b8152600401610cf891906120c4565b602060405180830381865afa158015610d15573d6000803e3d6000fd5b505050506040513d601f19601f82011682018060405250810190610d39919061210b565b610d78576040517f08c379a0000000000000000000000000000000000000000000000000000000008152600401610d6f9061251a565b60405180910390fd5b6000600560008473ffffffffffffffffffffffffffffffffffffffff1673ffffffffffffffffffffffffffffffffffffffff1681526020019081526020016000206000610dc361191d565b73ffffffffffffffffffffffffffffffffffffffff1673ffffffffffffffffffffffffffffffffffffffff1681526020019081526020016000206000015490506000811415610e47576040517f08c379a0000000000000000000000000000000000000000000000000000000008152600401610e3e906125ac565b60405180910390fd5b80600460008573ffffffffffffffffffffffffffffffffffffffff1673ffffffffffffffffffffffffffffffffffffffff1681526020019081526020016000206000828254610e969190612414565b925050819055508060046000610eaa61191d565b73ffffffffffffffffffffffffffffffffffffffff1673ffffffffffffffffffffffffffffffffffffffff1681526020019081526020016000206000828254610ef391906125cc565b92505081905550610f0b83610f0661191d565b611925565b8273ffffffffffffffffffffffffffffffffffffffff16610f2a61191d565b73ffffffffffffffffffffffffffffffffffffffff167ffd21f523f83f9e9994366516baa84b6ce04a7400fc3cbe841ac50bfe9f02ee2d83604051610f6f9190611ee4565b60405180910390a36001915050919050565b6000600260009054906101000a900473ffffffffffffffffffffffffffffffffffffffff1673ffffffffffffffffffffffffffffffffffffffff166349d407c9610fc961191d565b6040518263ffffffff1660e01b8152600401610fe591906120c4565b602060405180830381865afa158015611002573d6000803e3d6000fd5b505050506040513d601f19601f82011682018060405250810190611026919061210b565b611065576040517f08c379a000000000000000000000000000000000000000000000000000000000815260040161105c90612195565b60405180910390fd5b600260009054906101000a900473ffffffffffffffffffffffffffffffffffffffff1673ffffffffffffffffffffffffffffffffffffffff166349d407c9836040518263ffffffff1660e01b81526004016110c091906120c4565b602060405180830381865afa1580156110dd573d6000803e3d6000fd5b505050506040513d601f19601f82011682018060405250810190611101919061210b565b611140576040517f08c379a0000000000000000000000000000000000000000000000000000000008152600401611137906126d2565b60405180910390fd5b60006005600061114e61191d565b73ffffffffffffffffffffffffffffffffffffffff1673ffffffffffffffffffffffffffffffffffffffff16815260200190815260200160002060008473ffffffffffffffffffffffffffffffffffffffff1673ffffffffffffffffffffffffffffffffffffffff1681526020019081526020016000206000015411611209576040517f08c379a00000000000000000000000000000000000000000000000000000000081526004016112009061278a565b60405180910390fd5b61121a61121461191d565b83611925565b8173ffffffffffffffffffffffffffffffffffffffff1661123961191d565b73ffffffffffffffffffffffffffffffffffffffff167fc352649e1359e533bb72bc2288978e87cec95fbc70a4ed34dad23581885ddc6460405160405180910390a360019050919050565b6060600260009054906101000a900473ffffffffffffffffffffffffffffffffffffffff1673ffffffffffffffffffffffffffffffffffffffff166349d407c96112cc61191d565b6040518263ffffffff1660e01b81526004016112e891906120c4565b602060405180830381865afa158015611305573d6000803e3d6000fd5b505050506040513d601f19601f82011682018060405250810190611329919061210b565b611368576040517f08c379a000000000000000000000000000000000000000000000000000000000815260040161135f90612195565b60405180910390fd5b6007600061137461191d565b73ffffffffffffffffffffffffffffffffffffffff1673ffffffffffffffffffffffffffffffffffffffff16815260200190815260200160002080548060200260200160405190810160405280929190818152602001828054801561142e57602002820191906000526020600020905b8160009054906101000a900473ffffffffffffffffffffffffffffffffffffffff1673ffffffffffffffffffffffffffffffffffffffff16815260200190600101908083116113e4575b5050505050905090565b60008054906101000a900473ffffffffffffffffffffffffffffffffffffffff1681565b60008054906101000a900473ffffffffffffffffffffffffffffffffffffffff1673ffffffffffffffffffffffffffffffffffffffff1661149b61191d565b73ffffffffffffffffffffffffffffffffffffffff1614806115115750600160009054906101000a900473ffffffffffffffffffffffffffffffffffffffff1673ffffffffffffffffffffffffffffffffffffffff166114f961191d565b73ffffffffffffffffffffffffffffffffffffffff16145b61151a57600080fd5b600081141561155e576040517f08c379a0000000000000000000000000000000000000000000000000000000008152600401611555906127f6565b60405180910390fd5b80600460008473ffffffffffffffffffffffffffffffffffffffff1673ffffffffffffffffffffffffffffffffffffffff16815260200190815260200160002060008282546115ad91906125cc565b9250508190555080600360008282546115c691906125cc565b925050819055505050565b600160009054906101000a900473ffffffffffffffffffffffffffffffffffffffff1681565b6000600260009054906101000a900473ffffffffffffffffffffffffffffffffffffffff1673ffffffffffffffffffffffffffffffffffffffff166349d407c961163f61191d565b6040518263ffffffff1660e01b815260040161165b91906120c4565b602060405180830381865afa158015611678573d6000803e3d6000fd5b505050506040513d601f19601f8201168201806040525081019061169c919061210b565b6116db576040517f08c379a00000000000000000000000000000000000000000000000000000000081526004016116d290612195565b60405180910390fd5b600560008373ffffffffffffffffffffffffffffffffffffffff1673ffffffffffffffffffffffffffffffffffffffff168152602001908152602001600020600061172461191d565b73ffffffffffffffffffffffffffffffffffffffff1673ffffffffffffffffffffffffffffffffffffffff168152602001908152602001600020600001549050919050565b6060600260009054906101000a900473ffffffffffffffffffffffffffffffffffffffff1673ffffffffffffffffffffffffffffffffffffffff166349d407c96117b161191d565b6040518263ffffffff1660e01b81526004016117cd91906120c4565b602060405180830381865afa1580156117ea573d6000803e3d6000fd5b505050506040513d601f19601f8201168201806040525081019061180e919061210b565b61184d576040517f08c379a000000000000000000000000000000000000000000000000000000000815260040161184490612195565b60405180910390fd5b6006600061185961191d565b73ffffffffffffffffffffffffffffffffffffffff1673ffffffffffffffffffffffffffffffffffffffff16815260200190815260200160002080548060200260200160405190810160405280929190818152602001828054801561191357602002820191906000526020600020905b8160009054906101000a900473ffffffffffffffffffffffffffffffffffffffff1673ffffffffffffffffffffffffffffffffffffffff16815260200190600101908083116118c9575b5050505050905090565b600033905090565b6000600660008473ffffffffffffffffffffffffffffffffffffffff1673ffffffffffffffffffffffffffffffffffffffff16815260200190815260200160002090506000600560008573ffffffffffffffffffffffffffffffffffffffff1673ffffffffffffffffffffffffffffffffffffffff16815260200190815260200160002060008473ffffffffffffffffffffffffffffffffffffffff1673ffffffffffffffffffffffffffffffffffffffff16815260200190815260200160002060010154905060008260018480549050611a009190612374565b81548110611a1157611a10612816565b5b9060005260206000200160009054906101000a900473ffffffffffffffffffffffffffffffffffffffff16905080838381548110611a5257611a51612816565b5b9060005260206000200160006101000a81548173ffffffffffffffffffffffffffffffffffffffff021916908373ffffffffffffffffffffffffffffffffffffffff16021790555081600560008773ffffffffffffffffffffffffffffffffffffffff1673ffffffffffffffffffffffffffffffffffffffff16815260200190815260200160002060008373ffffffffffffffffffffffffffffffffffffffff1673ffffffffffffffffffffffffffffffffffffffff1681526020019081526020016000206001018190555082805480611b2f57611b2e612845565b5b6001900381819060005260206000200160006101000a81549073ffffffffffffffffffffffffffffffffffffffff02191690559055600760008573ffffffffffffffffffffffffffffffffffffffff1673ffffffffffffffffffffffffffffffffffffffff1681526020019081526020016000209250600560008673ffffffffffffffffffffffffffffffffffffffff1673ffffffffffffffffffffffffffffffffffffffff16815260200190815260200160002060008573ffffffffffffffffffffffffffffffffffffffff1673ffffffffffffffffffffffffffffffffffffffff1681526020019081526020016000206002015491508260018480549050611c399190612374565b81548110611c4a57611c49612816565b5b9060005260206000200160009054906101000a900473ffffffffffffffffffffffffffffffffffffffff16905080838381548110611c8b57611c8a612816565b5b9060005260206000200160006101000a81548173ffffffffffffffffffffffffffffffffffffffff021916908373ffffffffffffffffffffffffffffffffffffffff16021790555081600560008373ffffffffffffffffffffffffffffffffffffffff1673ffffffffffffffffffffffffffffffffffffffff16815260200190815260200160002060008673ffffffffffffffffffffffffffffffffffffffff1673ffffffffffffffffffffffffffffffffffffffff1681526020019081526020016000206002018190555082805480611d6857611d67612845565b5b6001900381819060005260206000200160006101000a81549073ffffffffffffffffffffffffffffffffffffffff02191690559055600560008673ffffffffffffffffffffffffffffffffffffffff1673ffffffffffffffffffffffffffffffffffffffff16815260200190815260200160002060008573ffffffffffffffffffffffffffffffffffffffff1673ffffffffffffffffffffffffffffffffffffffff1681526020019081526020016000206000808201600090556001820160009055600282016000905550505050505050565b600080fd5b600073ffffffffffffffffffffffffffffffffffffffff82169050919050565b6000611e6b82611e40565b9050919050565b611e7b81611e60565b8114611e8657600080fd5b50565b600081359050611e9881611e72565b92915050565b600060208284031215611eb457611eb3611e3b565b5b6000611ec284828501611e89565b91505092915050565b6000819050919050565b611ede81611ecb565b82525050565b6000602082019050611ef96000830184611ed5565b92915050565b6000819050919050565b611f1281611eff565b82525050565b6000602082019050611f2d6000830184611f09565b92915050565b611f3c81611ecb565b8114611f4757600080fd5b50565b600081359050611f5981611f33565b92915050565b60008060408385031215611f7657611f75611e3b565b5b6000611f8485828601611e89565b9250506020611f9585828601611f4a565b9150509250929050565b60008115159050919050565b611fb481611f9f565b82525050565b6000602082019050611fcf6000830184611fab565b92915050565b600081519050919050565b600082825260208201905092915050565b6000819050602082019050919050565b61200a81611e60565b82525050565b600061201c8383612001565b60208301905092915050565b6000602082019050919050565b600061204082611fd5565b61204a8185611fe0565b935061205583611ff1565b8060005b8381101561208657815161206d8882612010565b975061207883612028565b925050600181019050612059565b5085935050505092915050565b600060208201905081810360008301526120ad8184612035565b905092915050565b6120be81611e60565b82525050565b60006020820190506120d960008301846120b5565b92915050565b6120e881611f9f565b81146120f357600080fd5b50565b600081519050612105816120df565b92915050565b60006020828403121561212157612120611e3b565b5b600061212f848285016120f6565b91505092915050565b600082825260208201905092915050565b7f596f7520617265206e6f7420612062616e6b0000000000000000000000000000600082015250565b600061217f601283612138565b915061218a82612149565b602082019050919050565b600060208201905081810360008301526121ae81612172565b9050919050565b7f4c696162696c6974793a20596f752063616e206f6e6c7920726571756573742060008201527f746f207472616e73666572206c696162696c69747920746f2062616e6b730000602082015250565b6000612211603e83612138565b915061221c826121b5565b604082019050919050565b6000602082019050818103600083015261224081612204565b9050919050565b7f4c696162696c6974793a207472616e73666572207a65726f20616d6f756e7400600082015250565b600061227d601f83612138565b915061228882612247565b602082019050919050565b600060208201905081810360008301526122ac81612270565b9050919050565b7f4c696162696c6974793a20596f752063616e6e6f742073656e64206d756c746960008201527f706c6520726571756573747320746f207468652073616d652062616e6b000000602082015250565b600061230f603d83612138565b915061231a826122b3565b604082019050919050565b6000602082019050818103600083015261233e81612302565b9050919050565b7f4e487b7100000000000000000000000000000000000000000000000000000000600052601160045260246000fd5b600061237f82611ecb565b915061238a83611ecb565b92508282101561239d5761239c612345565b5b828203905092915050565b7f4c696162696c6974793a206465637265617365207a65726f20616d6f756e7400600082015250565b60006123de601f83612138565b91506123e9826123a8565b602082019050919050565b6000602082019050818103600083015261240d816123d1565b9050919050565b600061241f82611eff565b915061242a83611eff565b9250817f7fffffffffffffffffffffffffffffffffffffffffffffffffffffffffffffff0383136000831215161561246557612464612345565b5b817f800000000000000000000000000000000000000000000000000000000000000003831260008312161561249d5761249c612345565b5b828201905092915050565b7f4c696162696c6974793a20596f752063616e206f6e6c7920616363657074207460008201527f686520726571756573742066726f6d2062616e6b730000000000000000000000602082015250565b6000612504603583612138565b915061250f826124a8565b604082019050919050565b60006020820190508181036000830152612533816124f7565b9050919050565b7f4c696162696c6974793a205468652073656e646572206469646e27742073656e60008201527f6420746865207472616e73666572207265717565737400000000000000000000602082015250565b6000612596603683612138565b91506125a18261253a565b604082019050919050565b600060208201905081810360008301526125c581612589565b9050919050565b60006125d782611eff565b91506125e283611eff565b9250827f80000000000000000000000000000000000000000000000000000000000000000182126000841215161561261d5761261c612345565b5b827f7fffffffffffffffffffffffffffffffffffffffffffffffffffffffffffffff01821360008412161561265557612654612345565b5b828203905092915050565b7f4c696162696c6974793a20596f752063616e206f6e6c79207265766f6b65207460008201527f6865207265717565737420746f2062616e6b7300000000000000000000000000602082015250565b60006126bc603383612138565b91506126c782612660565b604082019050919050565b600060208201905081810360008301526126eb816126af565b9050919050565b7f4c696162696c6974793a20596f752063616e6e6f74207265766f6b652074686560008201527f2072657175657374206265666f72652073656e64696e6720746865207265717560208201527f6573740000000000000000000000000000000000000000000000000000000000604082015250565b6000612774604383612138565b915061277f826126f2565b606082019050919050565b600060208201905081810360008301526127a381612767565b9050919050565b7f4c696162696c6974793a20696e637265617365207a65726f20616d6f756e7400600082015250565b60006127e0601f83612138565b91506127eb826127aa565b602082019050919050565b6000602082019050818103600083015261280f816127d3565b9050919050565b7f4e487b7100000000000000000000000000000000000000000000000000000000600052603260045260246000fd5b7f4e487b7100000000000000000000000000000000000000000000000000000000600052603160045260246000fdfea264697066735822122025d6afabe920c52bb14ba6c494900c92e7d2d62e79f6b84e70109a822084157764736f6c634300080b0033",
  "immutableReferences": {},
  "source": "// SPDX-License-Identifier: UNLICENSED\n\npragma solidity ^0.8.0;\n\nimport \"@openzeppelin/contracts/utils/Context.sol\";\n\ncontract BankLiability is Context {\n    address public _owner;\n    address public _RPToken;\n    BL_RPToken private _rp;\n    // BL_Credit private _credit;\n    int256 public _totalLiability;\n\n    mapping(address => int256) public _liabilities;\n\n    struct Request {\n        uint256 amount;\n        uint transferKeysIdx;\n        uint confirmKeysIdx;\n    }\n\n    mapping(address => mapping(address => Request)) private _transferRequest;\n    mapping(address => address[]) private _transferRequestKeys;\n    mapping(address => address[]) private _confirmRemittanceKeys;\n\n    event TransferRequest(\n        address indexed sender,\n        address indexed recipient,\n        uint256 amount\n    );\n    event RevokeRequest(address indexed sender, address indexed recipient);\n    event Accept(\n        address indexed sender,\n        address indexed recipient,\n        uint256 amount\n    );\n\n    modifier onlyOwner() {\n        require(_msgSender() == _owner);\n        _;\n    }\n\n    modifier onlyBank() {\n        require(_rp._banks(_msgSender()), \"You are not a bank\");\n        _;\n    }\n\n    constructor(address RPTokenAddr) {\n        _owner = _msgSender();\n        _RPToken = RPTokenAddr;\n        _rp = BL_RPToken(RPTokenAddr);\n    }\n\n    /* function loadCredit(address addr) public onlyOwner {\n        _credit = BL_Credit(addr);\n    } */\n\n    function transferRequest(address recipient, uint256 amount) public onlyBank returns (bool) {\n        require(_rp._banks(recipient), \"Liability: You can only request to transfer liability to banks\");\n        require(amount != 0, \"Liability: transfer zero amount\");\n        require(_transferRequest[_msgSender()][recipient].amount == 0, \"Liability: You cannot send multiple requests to the same bank\");\n\n        _transferRequestKeys[_msgSender()].push(recipient);\n        _confirmRemittanceKeys[recipient].push(_msgSender());\n        _transferRequest[_msgSender()][recipient] = Request(amount, _transferRequestKeys[_msgSender()].length - 1, _confirmRemittanceKeys[recipient].length - 1);\n\n        emit TransferRequest(_msgSender(), recipient, amount);\n        return true;\n    }\n\n    function deleteRequest(address sender, address recipient) internal {\n        address[] storage keys = _transferRequestKeys[sender];\n        uint rowToDelete = _transferRequest[sender][recipient].transferKeysIdx;\n        address keyToMove = keys[keys.length-1];\n        keys[rowToDelete] = keyToMove;\n        _transferRequest[sender][keyToMove].transferKeysIdx = rowToDelete;\n        keys.pop();\n\n        keys = _confirmRemittanceKeys[recipient];\n        rowToDelete = _transferRequest[sender][recipient].confirmKeysIdx;\n        keyToMove = keys[keys.length-1];\n        keys[rowToDelete] = keyToMove;\n        _transferRequest[keyToMove][recipient].confirmKeysIdx = rowToDelete;\n        keys.pop();\n        delete _transferRequest[sender][recipient];\n    }\n\n    function revokeRequest(address recipient) public onlyBank returns (bool) {\n        require(_rp._banks(recipient), \"Liability: You can only revoke the request to banks\");\n        require(_transferRequest[_msgSender()][recipient].amount > 0, \"Liability: You cannot revoke the request before sending the request\");\n\n        deleteRequest(_msgSender(), recipient);\n\n        emit RevokeRequest(_msgSender(), recipient);\n        return true;\n    }\n\n    function accept(address sender) public onlyBank returns (bool) {\n        require(_rp._banks(sender), \"Liability: You can only accept the request from banks\");\n        uint256 amount = _transferRequest[sender][_msgSender()].amount;\n        require(amount != 0, \"Liability: The sender didn't send the transfer request\");\n        _liabilities[sender] += int256(amount);\n        _liabilities[_msgSender()] -= int256(amount);\n        \n        deleteRequest(sender, _msgSender());\n\n        // _credit.changeLoanLender(sender, _msgSender());\n\n        emit Accept(_msgSender(), sender, amount);\n        return true;\n    }\n\n    function getTransferRequest(address recipient) public view onlyBank returns (uint256) {\n        return _transferRequest[_msgSender()][recipient].amount;\n    }\n\n    function getTransferRequestKeys() public view onlyBank returns (address[] memory) {\n        return _transferRequestKeys[_msgSender()];\n    }\n\n    function getConfirmRemittance(address sender) public view onlyBank returns (uint256) {\n        return _transferRequest[sender][_msgSender()].amount;\n    }\n\n    function getConfirmRemittanceKeys() public view onlyBank returns (address[] memory) {\n        return _confirmRemittanceKeys[_msgSender()];\n    }\n\n    function increaseLiability(address addr, uint256 amount) public {\n        require(_msgSender() == _owner || _msgSender() == _RPToken);\n        require(amount != 0, \"Liability: increase zero amount\");\n        _liabilities[addr] -= int256(amount);\n        _totalLiability -= int256(amount);\n    }\n\n    function decreaseLiability(address addr, uint256 amount) public {\n        require(_msgSender() == _owner || _msgSender() == _RPToken);\n        require(amount != 0, \"Liability: decrease zero amount\");\n        _liabilities[addr] += int256(amount);\n        _totalLiability += int256(amount);\n    }\n}\n\ncontract BL_RPToken {\n    function _banks(address) public view returns (bool) {}\n}\n\n/* contract BL_Credit {\n    function changeLoanLender(address, address) public {}\n} */\n",
  "sourcePath": "/Users/hc/Projects/BCOIP PRO/src/contracts/BankLiability.sol",
  "compiler": {
    "name": "solc",
    "version": "0.8.11+commit.d7f03943.Emscripten.clang"
  },
  "schemaVersion": "3.4.3",
  "updatedAt": "2021-12-25T03:49:53.112Z",
  "networkType": "ethereum",
  "devdoc": {
    "kind": "dev",
    "methods": {},
    "version": 1
  },
  "userdoc": {
    "kind": "user",
    "methods": {},
    "version": 1
  }
}