{
  "contractName": "BankLiability",
  "abi": [
    {
      "inputs": [
        {
          "internalType": "address",
          "name": "RPTokenAddr",
          "type": "address"
        }
      ],
      "stateMutability": "nonpayable",
      "type": "constructor"
    },
    {
      "anonymous": false,
      "inputs": [
        {
          "indexed": true,
          "internalType": "address",
          "name": "sender",
          "type": "address"
        },
        {
          "indexed": true,
          "internalType": "address",
          "name": "recipient",
          "type": "address"
        },
        {
          "indexed": false,
          "internalType": "uint256",
          "name": "amount",
          "type": "uint256"
        }
      ],
      "name": "Accept",
      "type": "event"
    },
    {
      "anonymous": false,
      "inputs": [
        {
          "indexed": true,
          "internalType": "address",
          "name": "sender",
          "type": "address"
        },
        {
          "indexed": true,
          "internalType": "address",
          "name": "recipient",
          "type": "address"
        }
      ],
      "name": "RevokeRequest",
      "type": "event"
    },
    {
      "anonymous": false,
      "inputs": [
        {
          "indexed": true,
          "internalType": "address",
          "name": "sender",
          "type": "address"
        },
        {
          "indexed": true,
          "internalType": "address",
          "name": "recipient",
          "type": "address"
        },
        {
          "indexed": false,
          "internalType": "uint256",
          "name": "amount",
          "type": "uint256"
        }
      ],
      "name": "TransferRequest",
      "type": "event"
    },
    {
      "inputs": [],
      "name": "_RPToken",
      "outputs": [
        {
          "internalType": "address",
          "name": "",
          "type": "address"
        }
      ],
      "stateMutability": "view",
      "type": "function",
      "constant": true
    },
    {
      "inputs": [
        {
          "internalType": "address",
          "name": "",
          "type": "address"
        }
      ],
      "name": "_liabilities",
      "outputs": [
        {
          "internalType": "int256",
          "name": "",
          "type": "int256"
        }
      ],
      "stateMutability": "view",
      "type": "function",
      "constant": true
    },
    {
      "inputs": [],
      "name": "_owner",
      "outputs": [
        {
          "internalType": "address",
          "name": "",
          "type": "address"
        }
      ],
      "stateMutability": "view",
      "type": "function",
      "constant": true
    },
    {
      "inputs": [],
      "name": "_totalLiability",
      "outputs": [
        {
          "internalType": "int256",
          "name": "",
          "type": "int256"
        }
      ],
      "stateMutability": "view",
      "type": "function",
      "constant": true
    },
    {
      "inputs": [
        {
          "internalType": "address",
          "name": "recipient",
          "type": "address"
        },
        {
          "internalType": "uint256",
          "name": "amount",
          "type": "uint256"
        }
      ],
      "name": "transferRequest",
      "outputs": [
        {
          "internalType": "bool",
          "name": "",
          "type": "bool"
        }
      ],
      "stateMutability": "nonpayable",
      "type": "function"
    },
    {
      "inputs": [
        {
          "internalType": "address",
          "name": "recipient",
          "type": "address"
        }
      ],
      "name": "revokeRequest",
      "outputs": [
        {
          "internalType": "bool",
          "name": "",
          "type": "bool"
        }
      ],
      "stateMutability": "nonpayable",
      "type": "function"
    },
    {
      "inputs": [
        {
          "internalType": "address",
          "name": "sender",
          "type": "address"
        }
      ],
      "name": "accept",
      "outputs": [
        {
          "internalType": "bool",
          "name": "",
          "type": "bool"
        }
      ],
      "stateMutability": "nonpayable",
      "type": "function"
    },
    {
      "inputs": [
        {
          "internalType": "address",
          "name": "addr",
          "type": "address"
        },
        {
          "internalType": "uint256",
          "name": "amount",
          "type": "uint256"
        }
      ],
      "name": "increaseLiability",
      "outputs": [],
      "stateMutability": "nonpayable",
      "type": "function"
    },
    {
      "inputs": [
        {
          "internalType": "address",
          "name": "addr",
          "type": "address"
        },
        {
          "internalType": "uint256",
          "name": "amount",
          "type": "uint256"
        }
      ],
      "name": "decreaseLiability",
      "outputs": [],
      "stateMutability": "nonpayable",
      "type": "function"
    }
  ],
  "bytecode": "0x60806040523480156200001157600080fd5b5060405162001b7e38038062001b7e833981810160405281019062000037919062000181565b620000476200010f60201b60201c565b6000806101000a81548173ffffffffffffffffffffffffffffffffffffffff021916908373ffffffffffffffffffffffffffffffffffffffff16021790555080600160006101000a81548173ffffffffffffffffffffffffffffffffffffffff021916908373ffffffffffffffffffffffffffffffffffffffff16021790555080600260006101000a81548173ffffffffffffffffffffffffffffffffffffffff021916908373ffffffffffffffffffffffffffffffffffffffff16021790555050620001b3565b600033905090565b600080fd5b600073ffffffffffffffffffffffffffffffffffffffff82169050919050565b600062000149826200011c565b9050919050565b6200015b816200013c565b81146200016757600080fd5b50565b6000815190506200017b8162000150565b92915050565b6000602082840312156200019a576200019962000117565b5b6000620001aa848285016200016a565b91505092915050565b6119bb80620001c36000396000f3fe608060405234801561001057600080fd5b50600436106100935760003560e01c80639f005920116100665780639f00592014610132578063a84df20114610162578063b2bdfa7b14610192578063b9ff644a146101b0578063c2456fce146101cc57610093565b8063531b117f1461009857806371349647146100b65780638408ab85146100e65780639c23c86a14610116575b600080fd5b6100a06101ea565b6040516100ad91906110d7565b60405180910390f35b6100d060048036038101906100cb919061118b565b6101f0565b6040516100dd91906111e6565b60405180910390f35b61010060048036038101906100fb9190611201565b6105b7565b60405161010d91906110d7565b60405180910390f35b610130600480360381019061012b919061118b565b6105cf565b005b61014c60048036038101906101479190611201565b610744565b60405161015991906111e6565b60405180910390f35b61017c60048036038101906101779190611201565b610b7f565b60405161018991906111e6565b60405180910390f35b61019a610ef7565b6040516101a7919061123d565b60405180910390f35b6101ca60048036038101906101c5919061118b565b610f1b565b005b6101d4611090565b6040516101e1919061123d565b60405180910390f35b60035481565b6000600260009054906101000a900473ffffffffffffffffffffffffffffffffffffffff1673ffffffffffffffffffffffffffffffffffffffff166349d407c96102386110b6565b6040518263ffffffff1660e01b8152600401610254919061123d565b602060405180830381865afa158015610271573d6000803e3d6000fd5b505050506040513d601f19601f820116820180604052508101906102959190611284565b6102d4576040517f08c379a00000000000000000000000000000000000000000000000000000000081526004016102cb9061130e565b60405180910390fd5b600260009054906101000a900473ffffffffffffffffffffffffffffffffffffffff1673ffffffffffffffffffffffffffffffffffffffff166349d407c9846040518263ffffffff1660e01b815260040161032f919061123d565b602060405180830381865afa15801561034c573d6000803e3d6000fd5b505050506040513d601f19601f820116820180604052508101906103709190611284565b6103af576040517f08c379a00000000000000000000000000000000000000000000000000000000081526004016103a6906113a0565b60405180910390fd5b60008214156103f3576040517f08c379a00000000000000000000000000000000000000000000000000000000081526004016103ea9061140c565b60405180910390fd5b6000600560006104016110b6565b73ffffffffffffffffffffffffffffffffffffffff1673ffffffffffffffffffffffffffffffffffffffff16815260200190815260200160002060008573ffffffffffffffffffffffffffffffffffffffff1673ffffffffffffffffffffffffffffffffffffffff16815260200190815260200160002054146104b9576040517f08c379a00000000000000000000000000000000000000000000000000000000081526004016104b09061149e565b60405180910390fd5b81600560006104c66110b6565b73ffffffffffffffffffffffffffffffffffffffff1673ffffffffffffffffffffffffffffffffffffffff16815260200190815260200160002060008573ffffffffffffffffffffffffffffffffffffffff1673ffffffffffffffffffffffffffffffffffffffff168152602001908152602001600020819055508273ffffffffffffffffffffffffffffffffffffffff166105606110b6565b73ffffffffffffffffffffffffffffffffffffffff167fb22781db7a1c1a87b86b7215e93e2ad8791bb8cc984291af99060086f14f0b4a846040516105a591906114cd565b60405180910390a36001905092915050565b60046020528060005260406000206000915090505481565b60008054906101000a900473ffffffffffffffffffffffffffffffffffffffff1673ffffffffffffffffffffffffffffffffffffffff1661060e6110b6565b73ffffffffffffffffffffffffffffffffffffffff1614806106845750600160009054906101000a900473ffffffffffffffffffffffffffffffffffffffff1673ffffffffffffffffffffffffffffffffffffffff1661066c6110b6565b73ffffffffffffffffffffffffffffffffffffffff16145b61068d57600080fd5b60008114156106d1576040517f08c379a00000000000000000000000000000000000000000000000000000000081526004016106c890611534565b60405180910390fd5b80600460008473ffffffffffffffffffffffffffffffffffffffff1673ffffffffffffffffffffffffffffffffffffffff16815260200190815260200160002060008282546107209190611583565b9250508190555080600360008282546107399190611583565b925050819055505050565b6000600260009054906101000a900473ffffffffffffffffffffffffffffffffffffffff1673ffffffffffffffffffffffffffffffffffffffff166349d407c961078c6110b6565b6040518263ffffffff1660e01b81526004016107a8919061123d565b602060405180830381865afa1580156107c5573d6000803e3d6000fd5b505050506040513d601f19601f820116820180604052508101906107e99190611284565b610828576040517f08c379a000000000000000000000000000000000000000000000000000000000815260040161081f9061130e565b60405180910390fd5b600260009054906101000a900473ffffffffffffffffffffffffffffffffffffffff1673ffffffffffffffffffffffffffffffffffffffff166349d407c9836040518263ffffffff1660e01b8152600401610883919061123d565b602060405180830381865afa1580156108a0573d6000803e3d6000fd5b505050506040513d601f19601f820116820180604052508101906108c49190611284565b610903576040517f08c379a00000000000000000000000000000000000000000000000000000000081526004016108fa90611689565b60405180910390fd5b6000600560008473ffffffffffffffffffffffffffffffffffffffff1673ffffffffffffffffffffffffffffffffffffffff168152602001908152602001600020600061094e6110b6565b73ffffffffffffffffffffffffffffffffffffffff1673ffffffffffffffffffffffffffffffffffffffff16815260200190815260200160002054905060008114156109cf576040517f08c379a00000000000000000000000000000000000000000000000000000000081526004016109c69061171b565b60405180910390fd5b80600460008573ffffffffffffffffffffffffffffffffffffffff1673ffffffffffffffffffffffffffffffffffffffff1681526020019081526020016000206000828254610a1e9190611583565b925050819055508060046000610a326110b6565b73ffffffffffffffffffffffffffffffffffffffff1673ffffffffffffffffffffffffffffffffffffffff1681526020019081526020016000206000828254610a7b919061173b565b92505081905550600560008473ffffffffffffffffffffffffffffffffffffffff1673ffffffffffffffffffffffffffffffffffffffff1681526020019081526020016000206000610acb6110b6565b73ffffffffffffffffffffffffffffffffffffffff1673ffffffffffffffffffffffffffffffffffffffff168152602001908152602001600020600090558273ffffffffffffffffffffffffffffffffffffffff16610b286110b6565b73ffffffffffffffffffffffffffffffffffffffff167ffd21f523f83f9e9994366516baa84b6ce04a7400fc3cbe841ac50bfe9f02ee2d83604051610b6d91906114cd565b60405180910390a36001915050919050565b6000600260009054906101000a900473ffffffffffffffffffffffffffffffffffffffff1673ffffffffffffffffffffffffffffffffffffffff166349d407c9610bc76110b6565b6040518263ffffffff1660e01b8152600401610be3919061123d565b602060405180830381865afa158015610c00573d6000803e3d6000fd5b505050506040513d601f19601f82011682018060405250810190610c249190611284565b610c63576040517f08c379a0000000000000000000000000000000000000000000000000000000008152600401610c5a9061130e565b60405180910390fd5b600260009054906101000a900473ffffffffffffffffffffffffffffffffffffffff1673ffffffffffffffffffffffffffffffffffffffff166349d407c9836040518263ffffffff1660e01b8152600401610cbe919061123d565b602060405180830381865afa158015610cdb573d6000803e3d6000fd5b505050506040513d601f19601f82011682018060405250810190610cff9190611284565b610d3e576040517f08c379a0000000000000000000000000000000000000000000000000000000008152600401610d3590611841565b60405180910390fd5b600060056000610d4c6110b6565b73ffffffffffffffffffffffffffffffffffffffff1673ffffffffffffffffffffffffffffffffffffffff16815260200190815260200160002060008473ffffffffffffffffffffffffffffffffffffffff1673ffffffffffffffffffffffffffffffffffffffff1681526020019081526020016000205411610e04576040517f08c379a0000000000000000000000000000000000000000000000000000000008152600401610dfb906118f9565b60405180910390fd5b600060056000610e126110b6565b73ffffffffffffffffffffffffffffffffffffffff1673ffffffffffffffffffffffffffffffffffffffff16815260200190815260200160002060008473ffffffffffffffffffffffffffffffffffffffff1673ffffffffffffffffffffffffffffffffffffffff168152602001908152602001600020819055508173ffffffffffffffffffffffffffffffffffffffff16610eac6110b6565b73ffffffffffffffffffffffffffffffffffffffff167fc352649e1359e533bb72bc2288978e87cec95fbc70a4ed34dad23581885ddc6460405160405180910390a360019050919050565b60008054906101000a900473ffffffffffffffffffffffffffffffffffffffff1681565b60008054906101000a900473ffffffffffffffffffffffffffffffffffffffff1673ffffffffffffffffffffffffffffffffffffffff16610f5a6110b6565b73ffffffffffffffffffffffffffffffffffffffff161480610fd05750600160009054906101000a900473ffffffffffffffffffffffffffffffffffffffff1673ffffffffffffffffffffffffffffffffffffffff16610fb86110b6565b73ffffffffffffffffffffffffffffffffffffffff16145b610fd957600080fd5b600081141561101d576040517f08c379a000000000000000000000000000000000000000000000000000000000815260040161101490611965565b60405180910390fd5b80600460008473ffffffffffffffffffffffffffffffffffffffff1673ffffffffffffffffffffffffffffffffffffffff168152602001908152602001600020600082825461106c919061173b565b925050819055508060036000828254611085919061173b565b925050819055505050565b600160009054906101000a900473ffffffffffffffffffffffffffffffffffffffff1681565b600033905090565b6000819050919050565b6110d1816110be565b82525050565b60006020820190506110ec60008301846110c8565b92915050565b600080fd5b600073ffffffffffffffffffffffffffffffffffffffff82169050919050565b6000611122826110f7565b9050919050565b61113281611117565b811461113d57600080fd5b50565b60008135905061114f81611129565b92915050565b6000819050919050565b61116881611155565b811461117357600080fd5b50565b6000813590506111858161115f565b92915050565b600080604083850312156111a2576111a16110f2565b5b60006111b085828601611140565b92505060206111c185828601611176565b9150509250929050565b60008115159050919050565b6111e0816111cb565b82525050565b60006020820190506111fb60008301846111d7565b92915050565b600060208284031215611217576112166110f2565b5b600061122584828501611140565b91505092915050565b61123781611117565b82525050565b6000602082019050611252600083018461122e565b92915050565b611261816111cb565b811461126c57600080fd5b50565b60008151905061127e81611258565b92915050565b60006020828403121561129a576112996110f2565b5b60006112a88482850161126f565b91505092915050565b600082825260208201905092915050565b7f596f7520617265206e6f7420612062616e6b0000000000000000000000000000600082015250565b60006112f86012836112b1565b9150611303826112c2565b602082019050919050565b60006020820190508181036000830152611327816112eb565b9050919050565b7f4c696162696c6974793a20596f752063616e206f6e6c7920726571756573742060008201527f746f207472616e73666572206c696162696c69747920746f2062616e6b730000602082015250565b600061138a603e836112b1565b91506113958261132e565b604082019050919050565b600060208201905081810360008301526113b98161137d565b9050919050565b7f4c696162696c6974793a207472616e73666572207a65726f20616d6f756e7400600082015250565b60006113f6601f836112b1565b9150611401826113c0565b602082019050919050565b60006020820190508181036000830152611425816113e9565b9050919050565b7f4c696162696c6974793a20596f752063616e6e6f742073656e64206d756c746960008201527f706c6520726571756573747320746f207468652073616d652062616e6b000000602082015250565b6000611488603d836112b1565b91506114938261142c565b604082019050919050565b600060208201905081810360008301526114b78161147b565b9050919050565b6114c781611155565b82525050565b60006020820190506114e260008301846114be565b92915050565b7f4c696162696c6974793a206465637265617365207a65726f20616d6f756e7400600082015250565b600061151e601f836112b1565b9150611529826114e8565b602082019050919050565b6000602082019050818103600083015261154d81611511565b9050919050565b7f4e487b7100000000000000000000000000000000000000000000000000000000600052601160045260246000fd5b600061158e826110be565b9150611599836110be565b9250817f7fffffffffffffffffffffffffffffffffffffffffffffffffffffffffffffff038313600083121516156115d4576115d3611554565b5b817f800000000000000000000000000000000000000000000000000000000000000003831260008312161561160c5761160b611554565b5b828201905092915050565b7f4c696162696c6974793a20596f752063616e206f6e6c7920616363657074207460008201527f686520726571756573742066726f6d2062616e6b730000000000000000000000602082015250565b60006116736035836112b1565b915061167e82611617565b604082019050919050565b600060208201905081810360008301526116a281611666565b9050919050565b7f4c696162696c6974793a205468652073656e646572206469646e27742073656e60008201527f6420746865207472616e73666572207265717565737400000000000000000000602082015250565b60006117056036836112b1565b9150611710826116a9565b604082019050919050565b60006020820190508181036000830152611734816116f8565b9050919050565b6000611746826110be565b9150611751836110be565b9250827f80000000000000000000000000000000000000000000000000000000000000000182126000841215161561178c5761178b611554565b5b827f7fffffffffffffffffffffffffffffffffffffffffffffffffffffffffffffff0182136000841216156117c4576117c3611554565b5b828203905092915050565b7f4c696162696c6974793a20596f752063616e206f6e6c79207265766f6b65207460008201527f6865207265717565737420746f2062616e6b7300000000000000000000000000602082015250565b600061182b6033836112b1565b9150611836826117cf565b604082019050919050565b6000602082019050818103600083015261185a8161181e565b9050919050565b7f4c696162696c6974793a20596f752063616e6e6f74207265766f6b652074686560008201527f2072657175657374206265666f72652073656e64696e6720746865207265717560208201527f6573740000000000000000000000000000000000000000000000000000000000604082015250565b60006118e36043836112b1565b91506118ee82611861565b606082019050919050565b60006020820190508181036000830152611912816118d6565b9050919050565b7f4c696162696c6974793a20696e637265617365207a65726f20616d6f756e7400600082015250565b600061194f601f836112b1565b915061195a82611919565b602082019050919050565b6000602082019050818103600083015261197e81611942565b905091905056fea26469706673582212205b4ff0adee8083438b8309145e0e11dac9959192ca6221c452dd12981da514dc64736f6c634300080a0033",
  "immutableReferences": {},
  "source": "// SPDX-License-Identifier: UNLICENSED\n\npragma solidity ^0.8.0;\n\nimport \"@openzeppelin/contracts/utils/Context.sol\";\n\ncontract BankLiability is Context {\n    address public _owner;\n    address public _RPToken;\n    BL_RPToken private _rp;\n    // BL_Credit private _credit;\n    int256 public _totalLiability;\n\n    mapping(address => int256) public _liabilities;\n    mapping(address => mapping(address => uint256)) private _confirmRemittance;\n\n    event TransferRequest(\n        address indexed sender,\n        address indexed recipient,\n        uint256 amount\n    );\n    event RevokeRequest(address indexed sender, address indexed recipient);\n    event Accept(\n        address indexed sender,\n        address indexed recipient,\n        uint256 amount\n    );\n\n    modifier onlyOwner() {\n        require(_msgSender() == _owner);\n        _;\n    }\n\n    modifier onlyBank() {\n        require(_rp._banks(_msgSender()), \"You are not a bank\");\n        _;\n    }\n\n    constructor(address RPTokenAddr) {\n        _owner = _msgSender();\n        _RPToken = RPTokenAddr;\n        _rp = BL_RPToken(RPTokenAddr);\n    }\n\n    /* function loadCredit(address addr) public onlyOwner {\n        _credit = BL_Credit(addr);\n    } */\n\n    function transferRequest(address recipient, uint256 amount) public onlyBank returns (bool)\n    {\n        require(_rp._banks(recipient), \"Liability: You can only request to transfer liability to banks\");\n        require(amount != 0, \"Liability: transfer zero amount\");\n        require(_confirmRemittance[_msgSender()][recipient] == 0, \"Liability: You cannot send multiple requests to the same bank\");\n        _confirmRemittance[_msgSender()][recipient] = amount;\n\n        emit TransferRequest(_msgSender(), recipient, amount);\n        return true;\n    }\n\n    function revokeRequest(address recipient) public onlyBank returns (bool) {\n        require(_rp._banks(recipient), \"Liability: You can only revoke the request to banks\");\n        require(_confirmRemittance[_msgSender()][recipient] > 0, \"Liability: You cannot revoke the request before sending the request\");\n        _confirmRemittance[_msgSender()][recipient] = 0;\n\n        emit RevokeRequest(_msgSender(), recipient);\n        return true;\n    }\n\n    function accept(address sender) public onlyBank returns (bool) {\n        require(_rp._banks(sender), \"Liability: You can only accept the request from banks\");\n        uint256 amount = _confirmRemittance[sender][_msgSender()];\n        require(amount != 0, \"Liability: The sender didn't send the transfer request\");\n        _liabilities[sender] += int256(amount);\n        _liabilities[_msgSender()] -= int256(amount);\n        delete _confirmRemittance[sender][_msgSender()];\n\n        // _credit.changeLoanLender(sender, _msgSender());\n\n        emit Accept(_msgSender(), sender, amount);\n        return true;\n    }\n\n    function increaseLiability(address addr, uint256 amount) public {\n        require(_msgSender() == _owner || _msgSender() == _RPToken);\n        require(amount != 0, \"Liability: increase zero amount\");\n        _liabilities[addr] -= int256(amount);\n        _totalLiability -= int256(amount);\n    }\n\n    function decreaseLiability(address addr, uint256 amount) public {\n        require(_msgSender() == _owner || _msgSender() == _RPToken);\n        require(amount != 0, \"Liability: decrease zero amount\");\n        _liabilities[addr] += int256(amount);\n        _totalLiability += int256(amount);\n    }\n}\n\ncontract BL_RPToken {\n    function _banks(address) public view returns (bool) {}\n}\n\n/* contract BL_Credit {\n    function changeLoanLender(address, address) public {}\n} */\n",
  "sourcePath": "/Users/hc/Projects/BCOIP PRO/src/contracts/BankLiability.sol",
  "compiler": {
    "name": "solc",
    "version": "0.8.10+commit.fc410830.Emscripten.clang"
  },
  "schemaVersion": "3.4.3",
  "updatedAt": "2021-11-27T06:11:44.333Z",
  "networkType": "ethereum",
  "devdoc": {
    "kind": "dev",
    "methods": {},
    "version": 1
  },
  "userdoc": {
    "kind": "user",
    "methods": {},
    "version": 1
  }
}