{
  "contractName": "BL_Credit",
  "abi": [
    {
      "inputs": [
        {
          "internalType": "address",
          "name": "",
          "type": "address"
        },
        {
          "internalType": "address",
          "name": "",
          "type": "address"
        }
      ],
      "name": "changeLoanLender",
      "outputs": [],
      "stateMutability": "nonpayable",
      "type": "function"
    }
  ],
  "bytecode": "0x608060405234801561001057600080fd5b50610114806100206000396000f3fe6080604052348015600f57600080fd5b506004361060285760003560e01c80636c44f25514602d575b600080fd5b60436004803603810190603f919060a5565b6045565b005b5050565b600080fd5b600073ffffffffffffffffffffffffffffffffffffffff82169050919050565b6000607782604e565b9050919050565b608581606e565b8114608f57600080fd5b50565b600081359050609f81607e565b92915050565b6000806040838503121560b95760b86049565b5b600060c5858286016092565b925050602060d4858286016092565b915050925092905056fea2646970667358221220906320a0f3ba0bc7824fcedc8e09ca987cda4bf032421504faebb56835d674c964736f6c63430008090033",
  "immutableReferences": {},
  "source": "// SPDX-License-Identifier: UNLICENSED\n\npragma solidity ^0.8.0;\n\nimport \"@openzeppelin/contracts/utils/Context.sol\";\n\ncontract BankLiability is Context {\n    address public _owner;\n    address public _RPToken;\n    BL_RPToken private _rp;\n    BL_Credit private _credit;\n    int256 public _totalLiability;\n\n    mapping(address => int256) public _liabilities;\n    mapping(address => mapping(address => uint256)) private _confirmRemittance;\n\n    event TransferRequest(\n        address indexed sender,\n        address indexed recipient,\n        uint256 amount\n    );\n    event RevokeRequest(address indexed sender, address indexed recipient);\n    event Accept(\n        address indexed sender,\n        address indexed recipient,\n        uint256 amount\n    );\n\n    modifier onlyOwner() {\n        require(_msgSender() == _owner);\n        _;\n    }\n\n    modifier onlyBank() {\n        require(_rp._banks(_msgSender()), \"You are not a bank\");\n        _;\n    }\n\n    constructor(address RPTokenAddr) {\n        _owner = _msgSender();\n        _RPToken = RPTokenAddr;\n        _rp = BL_RPToken(RPTokenAddr);\n    }\n\n    function loadCredit(address addr) public onlyOwner {\n        _credit = BL_Credit(addr);\n    }\n\n    function transferRequest(address recipient, uint256 amount)\n        public\n        onlyBank\n        returns (bool)\n    {\n        require(\n            _rp._banks(recipient),\n            \"Liability: You can only request to transfer liability to banks\"\n        );\n        require(amount != 0, \"Liability: transfer zero amount\");\n        require(\n            _confirmRemittance[_msgSender()][recipient] == 0,\n            \"Liability: You cannot send multiple requests to the same bank\"\n        );\n        _confirmRemittance[_msgSender()][recipient] = amount;\n\n        emit TransferRequest(_msgSender(), recipient, amount);\n        return true;\n    }\n\n    function revokeRequest(address recipient) public onlyBank returns (bool) {\n        require(\n            _rp._banks(recipient),\n            \"Liability: You can only revoke request to banks\"\n        );\n        require(\n            _confirmRemittance[_msgSender()][recipient] > 0,\n            \"Liability: You cannot revoke requests before sending requests\"\n        );\n        _confirmRemittance[_msgSender()][recipient] = 0;\n\n        emit RevokeRequest(_msgSender(), recipient);\n        return true;\n    }\n\n    function accept(address sender) public onlyBank returns (bool) {\n        require(\n            _rp._banks(sender),\n            \"Liability: You can only accept the request from banks\"\n        );\n        uint256 amount = _confirmRemittance[sender][_msgSender()];\n        require(\n            amount != 0,\n            \"Liability: The sender didn't send the transfer request\"\n        );\n        _liabilities[sender] += int256(amount);\n        _liabilities[_msgSender()] -= int256(amount);\n        delete _confirmRemittance[sender][_msgSender()];\n\n        _credit.changeLoanLender(sender, _msgSender());\n        \n        emit Accept(_msgSender(), sender, amount);\n        return true;\n    }\n\n    function increaseLiability(address addr, uint256 amount) public {\n        require(_msgSender() == _owner || _msgSender() == _RPToken);\n        require(amount != 0, \"Liability: increase zero amount\");\n        _liabilities[addr] -= int256(amount);\n        _totalLiability -= int256(amount);\n    }\n\n    function decreaseLiability(address addr, uint256 amount) public {\n        require(_msgSender() == _owner || _msgSender() == _RPToken);\n        require(amount != 0, \"Liability: decrease zero amount\");\n        _liabilities[addr] += int256(amount);\n        _totalLiability += int256(amount);\n    }\n}\n\ncontract BL_RPToken {\n    function _banks(address) public view returns (bool) {}\n}\n\ncontract BL_Credit {\n    function changeLoanLender(address, address) public {}\n}\n",
  "sourcePath": "/Users/hc/Projects/BCOIP PRO/src/contracts/BankLiability.sol",
  "compiler": {
    "name": "solc",
    "version": "0.8.9+commit.e5eed63a.Emscripten.clang"
  },
  "schemaVersion": "3.4.3",
  "updatedAt": "2021-11-05T11:12:42.843Z",
  "devdoc": {
    "kind": "dev",
    "methods": {},
    "version": 1
  },
  "userdoc": {
    "kind": "user",
    "methods": {},
    "version": 1
  }
}