{
  "contractName": "BL_RPToken",
  "abi": [
    {
      "inputs": [
        {
          "internalType": "address",
          "name": "",
          "type": "address"
        }
      ],
      "name": "_banks",
      "outputs": [
        {
          "internalType": "bool",
          "name": "",
          "type": "bool"
        }
      ],
      "stateMutability": "view",
      "type": "function"
    }
  ],
  "bytecode": "0x608060405234801561001057600080fd5b50610163806100206000396000f3fe608060405234801561001057600080fd5b506004361061002b5760003560e01c806349d407c914610030575b600080fd5b61004a600480360381019061004591906100ca565b610060565b6040516100579190610112565b60405180910390f35b6000919050565b600080fd5b600073ffffffffffffffffffffffffffffffffffffffff82169050919050565b60006100978261006c565b9050919050565b6100a78161008c565b81146100b257600080fd5b50565b6000813590506100c48161009e565b92915050565b6000602082840312156100e0576100df610067565b5b60006100ee848285016100b5565b91505092915050565b60008115159050919050565b61010c816100f7565b82525050565b60006020820190506101276000830184610103565b9291505056fea26469706673582212203dfd4ae42038c24c84d2ddad4df38cb34dd372f73ab642e9444924354c70d97364736f6c634300080a0033",
  "immutableReferences": {},
  "source": "// SPDX-License-Identifier: UNLICENSED\n\npragma solidity ^0.8.0;\n\nimport \"@openzeppelin/contracts/utils/Context.sol\";\n\ncontract BankLiability is Context {\n    address public _owner;\n    address public _RPToken;\n    BL_RPToken private _rp;\n    // BL_Credit private _credit;\n    int256 public _totalLiability;\n\n    mapping(address => int256) public _liabilities;\n    mapping(address => mapping(address => uint256)) private _confirmRemittance;\n\n    event TransferRequest(\n        address indexed sender,\n        address indexed recipient,\n        uint256 amount\n    );\n    event RevokeRequest(address indexed sender, address indexed recipient);\n    event Accept(\n        address indexed sender,\n        address indexed recipient,\n        uint256 amount\n    );\n\n    modifier onlyOwner() {\n        require(_msgSender() == _owner);\n        _;\n    }\n\n    modifier onlyBank() {\n        require(_rp._banks(_msgSender()), \"You are not a bank\");\n        _;\n    }\n\n    constructor(address RPTokenAddr) {\n        _owner = _msgSender();\n        _RPToken = RPTokenAddr;\n        _rp = BL_RPToken(RPTokenAddr);\n    }\n\n    /* function loadCredit(address addr) public onlyOwner {\n        _credit = BL_Credit(addr);\n    } */\n\n    function transferRequest(address recipient, uint256 amount) public onlyBank returns (bool)\n    {\n        require(_rp._banks(recipient), \"Liability: You can only request to transfer liability to banks\");\n        require(amount != 0, \"Liability: transfer zero amount\");\n        require(_confirmRemittance[_msgSender()][recipient] == 0, \"Liability: You cannot send multiple requests to the same bank\");\n        _confirmRemittance[_msgSender()][recipient] = amount;\n\n        emit TransferRequest(_msgSender(), recipient, amount);\n        return true;\n    }\n\n    function revokeRequest(address recipient) public onlyBank returns (bool) {\n        require(_rp._banks(recipient), \"Liability: You can only revoke the request to banks\");\n        require(_confirmRemittance[_msgSender()][recipient] > 0, \"Liability: You cannot revoke the request before sending the request\");\n        _confirmRemittance[_msgSender()][recipient] = 0;\n\n        emit RevokeRequest(_msgSender(), recipient);\n        return true;\n    }\n\n    function accept(address sender) public onlyBank returns (bool) {\n        require(_rp._banks(sender), \"Liability: You can only accept the request from banks\");\n        uint256 amount = _confirmRemittance[sender][_msgSender()];\n        require(amount != 0, \"Liability: The sender didn't send the transfer request\");\n        _liabilities[sender] += int256(amount);\n        _liabilities[_msgSender()] -= int256(amount);\n        delete _confirmRemittance[sender][_msgSender()];\n\n        // _credit.changeLoanLender(sender, _msgSender());\n\n        emit Accept(_msgSender(), sender, amount);\n        return true;\n    }\n\n    function increaseLiability(address addr, uint256 amount) public {\n        require(_msgSender() == _owner || _msgSender() == _RPToken);\n        require(amount != 0, \"Liability: increase zero amount\");\n        _liabilities[addr] -= int256(amount);\n        _totalLiability -= int256(amount);\n    }\n\n    function decreaseLiability(address addr, uint256 amount) public {\n        require(_msgSender() == _owner || _msgSender() == _RPToken);\n        require(amount != 0, \"Liability: decrease zero amount\");\n        _liabilities[addr] += int256(amount);\n        _totalLiability += int256(amount);\n    }\n}\n\ncontract BL_RPToken {\n    function _banks(address) public view returns (bool) {}\n}\n\n/* contract BL_Credit {\n    function changeLoanLender(address, address) public {}\n} */\n",
  "sourcePath": "/Users/hc/Projects/BCOIP PRO/src/contracts/BankLiability.sol",
  "compiler": {
    "name": "solc",
    "version": "0.8.10+commit.fc410830.Emscripten.clang"
  },
  "schemaVersion": "3.4.3",
  "updatedAt": "2021-11-22T15:47:32.880Z",
  "devdoc": {
    "kind": "dev",
    "methods": {},
    "version": 1
  },
  "userdoc": {
    "kind": "user",
    "methods": {},
    "version": 1
  }
}