{
  "contractName": "Credit",
  "abi": [
    {
      "inputs": [
        {
          "internalType": "address",
          "name": "RPTokenAddr",
          "type": "address"
        }
      ],
      "stateMutability": "nonpayable",
      "type": "constructor"
    },
    {
      "anonymous": false,
      "inputs": [
        {
          "indexed": true,
          "internalType": "address",
          "name": "borrower",
          "type": "address"
        },
        {
          "indexed": true,
          "internalType": "address",
          "name": "bank",
          "type": "address"
        },
        {
          "indexed": false,
          "internalType": "uint256",
          "name": "loanAmount",
          "type": "uint256"
        },
        {
          "indexed": false,
          "internalType": "uint256",
          "name": "pointsAmount",
          "type": "uint256"
        },
        {
          "indexed": false,
          "internalType": "uint256",
          "name": "timestamp",
          "type": "uint256"
        },
        {
          "indexed": false,
          "internalType": "uint16",
          "name": "monthN",
          "type": "uint16"
        },
        {
          "indexed": false,
          "internalType": "uint16",
          "name": "annualInterestRate",
          "type": "uint16"
        },
        {
          "indexed": false,
          "internalType": "uint256",
          "name": "loanBalance",
          "type": "uint256"
        }
      ],
      "name": "Loan",
      "type": "event"
    },
    {
      "anonymous": false,
      "inputs": [
        {
          "indexed": true,
          "internalType": "address",
          "name": "borrower",
          "type": "address"
        },
        {
          "indexed": true,
          "internalType": "address",
          "name": "bank",
          "type": "address"
        },
        {
          "indexed": false,
          "internalType": "uint16",
          "name": "index",
          "type": "uint16"
        },
        {
          "indexed": false,
          "internalType": "uint256",
          "name": "amount",
          "type": "uint256"
        }
      ],
      "name": "Repay",
      "type": "event"
    },
    {
      "inputs": [],
      "name": "_BankLiabilityAddr",
      "outputs": [
        {
          "internalType": "address",
          "name": "",
          "type": "address"
        }
      ],
      "stateMutability": "view",
      "type": "function"
    },
    {
      "inputs": [],
      "name": "_owner",
      "outputs": [
        {
          "internalType": "address",
          "name": "",
          "type": "address"
        }
      ],
      "stateMutability": "view",
      "type": "function"
    },
    {
      "inputs": [
        {
          "internalType": "address",
          "name": "addr",
          "type": "address"
        }
      ],
      "name": "setBankLiabilityAddr",
      "outputs": [],
      "stateMutability": "nonpayable",
      "type": "function"
    },
    {
      "inputs": [
        {
          "internalType": "address",
          "name": "borrower",
          "type": "address"
        },
        {
          "internalType": "uint256",
          "name": "loanAmount",
          "type": "uint256"
        },
        {
          "internalType": "uint256",
          "name": "pointsAmount",
          "type": "uint256"
        },
        {
          "internalType": "uint16",
          "name": "monthN",
          "type": "uint16"
        },
        {
          "internalType": "uint16",
          "name": "annualInterestRate",
          "type": "uint16"
        },
        {
          "internalType": "string",
          "name": "option",
          "type": "string"
        }
      ],
      "name": "loan",
      "outputs": [],
      "stateMutability": "nonpayable",
      "type": "function"
    },
    {
      "inputs": [
        {
          "internalType": "address",
          "name": "borrower",
          "type": "address"
        },
        {
          "internalType": "uint16",
          "name": "index",
          "type": "uint16"
        },
        {
          "internalType": "uint256",
          "name": "amount",
          "type": "uint256"
        }
      ],
      "name": "repay",
      "outputs": [],
      "stateMutability": "nonpayable",
      "type": "function"
    },
    {
      "inputs": [
        {
          "internalType": "address",
          "name": "oldBank",
          "type": "address"
        },
        {
          "internalType": "address",
          "name": "newBank",
          "type": "address"
        }
      ],
      "name": "changeLoanLender",
      "outputs": [],
      "stateMutability": "nonpayable",
      "type": "function"
    },
    {
      "inputs": [],
      "name": "getLoanBalanceOfBank",
      "outputs": [
        {
          "internalType": "uint256",
          "name": "",
          "type": "uint256"
        }
      ],
      "stateMutability": "view",
      "type": "function"
    },
    {
      "inputs": [
        {
          "internalType": "address",
          "name": "bank",
          "type": "address"
        },
        {
          "internalType": "address",
          "name": "borrower",
          "type": "address"
        },
        {
          "internalType": "uint16",
          "name": "index",
          "type": "uint16"
        }
      ],
      "name": "getLoanRecord",
      "outputs": [
        {
          "components": [
            {
              "internalType": "uint256",
              "name": "loanAmount",
              "type": "uint256"
            },
            {
              "internalType": "uint256",
              "name": "pointsAmount",
              "type": "uint256"
            },
            {
              "internalType": "uint256",
              "name": "timestamp",
              "type": "uint256"
            },
            {
              "internalType": "uint16",
              "name": "monthN",
              "type": "uint16"
            },
            {
              "internalType": "uint16",
              "name": "annualInterestRate",
              "type": "uint16"
            },
            {
              "internalType": "uint256",
              "name": "loanBalance",
              "type": "uint256"
            },
            {
              "internalType": "string",
              "name": "option",
              "type": "string"
            }
          ],
          "internalType": "struct Credit.loanRecord",
          "name": "",
          "type": "tuple"
        }
      ],
      "stateMutability": "view",
      "type": "function"
    }
  ],
  "bytecode": "0x60806040523480156200001157600080fd5b50604051620024e2380380620024e2833981810160405281019062000037919062000140565b62000047620000ce60201b60201c565b6000806101000a81548173ffffffffffffffffffffffffffffffffffffffff021916908373ffffffffffffffffffffffffffffffffffffffff16021790555080600260006101000a81548173ffffffffffffffffffffffffffffffffffffffff021916908373ffffffffffffffffffffffffffffffffffffffff1602179055505062000172565b600033905090565b600080fd5b600073ffffffffffffffffffffffffffffffffffffffff82169050919050565b60006200010882620000db565b9050919050565b6200011a81620000fb565b81146200012657600080fd5b50565b6000815190506200013a816200010f565b92915050565b600060208284031215620001595762000158620000d6565b5b6000620001698482850162000129565b91505092915050565b61236080620001826000396000f3fe608060405234801561001057600080fd5b50600436106100885760003560e01c8063a580bb4b1161005b578063a580bb4b14610101578063b2bdfa7b14610131578063ccb46ac21461014f578063e0656d601461016b57610088565b8063227c35011461008d5780636c44f255146100a9578063781445e8146100c55780637a3661f8146100e3575b600080fd5b6100a760048036038101906100a291906119c2565b610187565b005b6100c360048036038101906100be9190611a15565b61048a565b005b6100cd610867565b6040516100da9190611a64565b60405180910390f35b6100eb610c84565b6040516100f89190611a8e565b60405180910390f35b61011b60048036038101906101169190611aa9565b610caa565b6040516101289190611c4f565b60405180910390f35b610139610f12565b6040516101469190611a8e565b60405180910390f35b61016960048036038101906101649190611da6565b610f36565b005b61018560048036038101906101809190611e4f565b611492565b005b600260009054906101000a900473ffffffffffffffffffffffffffffffffffffffff1673ffffffffffffffffffffffffffffffffffffffff166349d407c96101cd61156b565b6040518263ffffffff1660e01b81526004016101e99190611a8e565b602060405180830381865afa158015610206573d6000803e3d6000fd5b505050506040513d601f19601f8201168201806040525081019061022a9190611eb4565b610269576040517f08c379a000000000000000000000000000000000000000000000000000000000815260040161026090611f3e565b60405180910390fd5b806003600061027661156b565b73ffffffffffffffffffffffffffffffffffffffff1673ffffffffffffffffffffffffffffffffffffffff16815260200190815260200160002060008573ffffffffffffffffffffffffffffffffffffffff1673ffffffffffffffffffffffffffffffffffffffff1681526020019081526020016000208361ffff168154811061030357610302611f5e565b5b9060005260206000209060060201600401541015610356576040517f08c379a000000000000000000000000000000000000000000000000000000000815260040161034d90611fd9565b60405180910390fd5b806003600061036361156b565b73ffffffffffffffffffffffffffffffffffffffff1673ffffffffffffffffffffffffffffffffffffffff16815260200190815260200160002060008573ffffffffffffffffffffffffffffffffffffffff1673ffffffffffffffffffffffffffffffffffffffff1681526020019081526020016000208361ffff16815481106103f0576103ef611f5e565b5b906000526020600020906006020160040160008282546104109190612028565b9250508190555061041f61156b565b73ffffffffffffffffffffffffffffffffffffffff168373ffffffffffffffffffffffffffffffffffffffff167fdcc1c192d2b06c55ab569f8495ac5f109275855bcf259069d55816718bba8a93848460405161047d92919061206b565b60405180910390a3505050565b60008054906101000a900473ffffffffffffffffffffffffffffffffffffffff1673ffffffffffffffffffffffffffffffffffffffff166104c961156b565b73ffffffffffffffffffffffffffffffffffffffff16148061053f5750600160009054906101000a900473ffffffffffffffffffffffffffffffffffffffff1673ffffffffffffffffffffffffffffffffffffffff1661052761156b565b73ffffffffffffffffffffffffffffffffffffffff16145b61054857600080fd5b6000600460008473ffffffffffffffffffffffffffffffffffffffff1673ffffffffffffffffffffffffffffffffffffffff16815260200190815260200160002060000180548060200260200160405190810160405280929190818152602001828054801561060c57602002820191906000526020600020905b8160009054906101000a900473ffffffffffffffffffffffffffffffffffffffff1673ffffffffffffffffffffffffffffffffffffffff16815260200190600101908083116105c2575b5050505050905060005b815181101561080f57600360008573ffffffffffffffffffffffffffffffffffffffff1673ffffffffffffffffffffffffffffffffffffffff168152602001908152602001600020600083838151811061067357610672611f5e565b5b602002602001015173ffffffffffffffffffffffffffffffffffffffff1673ffffffffffffffffffffffffffffffffffffffff168152602001908152602001600020600360008573ffffffffffffffffffffffffffffffffffffffff1673ffffffffffffffffffffffffffffffffffffffff168152602001908152602001600020600084848151811061070957610708611f5e565b5b602002602001015173ffffffffffffffffffffffffffffffffffffffff1673ffffffffffffffffffffffffffffffffffffffff168152602001908152602001600020908054610759929190611573565b50600360008573ffffffffffffffffffffffffffffffffffffffff1673ffffffffffffffffffffffffffffffffffffffff16815260200190815260200160002060008383815181106107ae576107ad611f5e565b5b602002602001015173ffffffffffffffffffffffffffffffffffffffff1673ffffffffffffffffffffffffffffffffffffffff16815260200190815260200160002060006107fc9190611675565b808061080790612094565b915050610616565b50600460008473ffffffffffffffffffffffffffffffffffffffff1673ffffffffffffffffffffffffffffffffffffffff168152602001908152602001600020600080820160006108609190611699565b5050505050565b6000600260009054906101000a900473ffffffffffffffffffffffffffffffffffffffff1673ffffffffffffffffffffffffffffffffffffffff166349d407c96108af61156b565b6040518263ffffffff1660e01b81526004016108cb9190611a8e565b602060405180830381865afa1580156108e8573d6000803e3d6000fd5b505050506040513d601f19601f8201168201806040525081019061090c9190611eb4565b61094b576040517f08c379a000000000000000000000000000000000000000000000000000000000815260040161094290611f3e565b60405180910390fd5b6000806004600061095a61156b565b73ffffffffffffffffffffffffffffffffffffffff1673ffffffffffffffffffffffffffffffffffffffff168152602001908152602001600020600001805480602002602001604051908101604052809291908181526020018280548015610a1757602002820191906000526020600020905b8160009054906101000a900473ffffffffffffffffffffffffffffffffffffffff1673ffffffffffffffffffffffffffffffffffffffff16815260200190600101908083116109cd575b5050505050905060005b8151811015610c7b57600060036000610a3861156b565b73ffffffffffffffffffffffffffffffffffffffff1673ffffffffffffffffffffffffffffffffffffffff1681526020019081526020016000206000848481518110610a8757610a86611f5e565b5b602002602001015173ffffffffffffffffffffffffffffffffffffffff1673ffffffffffffffffffffffffffffffffffffffff168152602001908152602001600020805480602002602001604051908101604052809291908181526020016000905b82821015610c1557838290600052602060002090600602016040518060e00160405290816000820154815260200160018201548152602001600282015481526020016003820160009054906101000a900461ffff1661ffff1661ffff1681526020016003820160029054906101000a900461ffff1661ffff1661ffff16815260200160048201548152602001600582018054610b849061210c565b80601f0160208091040260200160405190810160405280929190818152602001828054610bb09061210c565b8015610bfd5780601f10610bd257610100808354040283529160200191610bfd565b820191906000526020600020905b815481529060010190602001808311610be057829003601f168201915b50505050508152505081526020019060010190610ae9565b50505050905060005b8151811015610c6657818181518110610c3a57610c39611f5e565b5b602002602001015160a0015185610c51919061213e565b94508080610c5e90612094565b915050610c1e565b50508080610c7390612094565b915050610a21565b50819250505090565b600160009054906101000a900473ffffffffffffffffffffffffffffffffffffffff1681565b610cb26116ba565b8373ffffffffffffffffffffffffffffffffffffffff16610cd161156b565b73ffffffffffffffffffffffffffffffffffffffff161480610d2557508273ffffffffffffffffffffffffffffffffffffffff16610d0d61156b565b73ffffffffffffffffffffffffffffffffffffffff16145b610d64576040517f08c379a0000000000000000000000000000000000000000000000000000000008152600401610d5b90612206565b60405180910390fd5b600360008573ffffffffffffffffffffffffffffffffffffffff1673ffffffffffffffffffffffffffffffffffffffff16815260200190815260200160002060008473ffffffffffffffffffffffffffffffffffffffff1673ffffffffffffffffffffffffffffffffffffffff1681526020019081526020016000208261ffff1681548110610df657610df5611f5e565b5b90600052602060002090600602016040518060e00160405290816000820154815260200160018201548152602001600282015481526020016003820160009054906101000a900461ffff1661ffff1661ffff1681526020016003820160029054906101000a900461ffff1661ffff1661ffff16815260200160048201548152602001600582018054610e879061210c565b80601f0160208091040260200160405190810160405280929190818152602001828054610eb39061210c565b8015610f005780601f10610ed557610100808354040283529160200191610f00565b820191906000526020600020905b815481529060010190602001808311610ee357829003601f168201915b50505050508152505090509392505050565b60008054906101000a900473ffffffffffffffffffffffffffffffffffffffff1681565b600260009054906101000a900473ffffffffffffffffffffffffffffffffffffffff1673ffffffffffffffffffffffffffffffffffffffff166349d407c9610f7c61156b565b6040518263ffffffff1660e01b8152600401610f989190611a8e565b602060405180830381865afa158015610fb5573d6000803e3d6000fd5b505050506040513d601f19601f82011682018060405250810190610fd99190611eb4565b611018576040517f08c379a000000000000000000000000000000000000000000000000000000000815260040161100f90611f3e565b60405180910390fd5b60004290506040518060e001604052808781526020018681526020018281526020018561ffff1681526020018461ffff168152602001878152602001838152506003600061106461156b565b73ffffffffffffffffffffffffffffffffffffffff1673ffffffffffffffffffffffffffffffffffffffff16815260200190815260200160002060008973ffffffffffffffffffffffffffffffffffffffff1673ffffffffffffffffffffffffffffffffffffffff16815260200190815260200160002060018160018154018082558091505003906000526020600020906006020160008201518160000155602082015181600101556040820151816002015560608201518160030160006101000a81548161ffff021916908361ffff16021790555060808201518160030160026101000a81548161ffff021916908361ffff16021790555060a0820151816004015560c08201518160050190805190602001906111839291906116ff565b509050506004600061119361156b565b73ffffffffffffffffffffffffffffffffffffffff1673ffffffffffffffffffffffffffffffffffffffff16815260200190815260200160002060010160008873ffffffffffffffffffffffffffffffffffffffff1673ffffffffffffffffffffffffffffffffffffffff16815260200190815260200160002060009054906101000a900460ff16611369576004600061122b61156b565b73ffffffffffffffffffffffffffffffffffffffff1673ffffffffffffffffffffffffffffffffffffffff168152602001908152602001600020600001879080600181540180825580915050600190039060005260206000200160009091909190916101000a81548173ffffffffffffffffffffffffffffffffffffffff021916908373ffffffffffffffffffffffffffffffffffffffff1602179055506001600460006112d761156b565b73ffffffffffffffffffffffffffffffffffffffff1673ffffffffffffffffffffffffffffffffffffffff16815260200190815260200160002060010160008973ffffffffffffffffffffffffffffffffffffffff1673ffffffffffffffffffffffffffffffffffffffff16815260200190815260200160002060006101000a81548160ff0219169083151502179055505b600260009054906101000a900473ffffffffffffffffffffffffffffffffffffffff1673ffffffffffffffffffffffffffffffffffffffff16639bbedbbc6113af61156b565b89886040518463ffffffff1660e01b81526004016113cf93929190612226565b6020604051808303816000875af11580156113ee573d6000803e3d6000fd5b505050506040513d601f19601f820116820180604052508101906114129190611eb4565b5061141b61156b565b73ffffffffffffffffffffffffffffffffffffffff168773ffffffffffffffffffffffffffffffffffffffff167f61524df0464e62268163fba3e1b510645c13c2ea497d76d5ae49988543787b9188888589898d6040516114819695949392919061225d565b60405180910390a350505050505050565b60008054906101000a900473ffffffffffffffffffffffffffffffffffffffff1673ffffffffffffffffffffffffffffffffffffffff166114d161156b565b73ffffffffffffffffffffffffffffffffffffffff1614611527576040517f08c379a000000000000000000000000000000000000000000000000000000000815260040161151e9061230a565b60405180910390fd5b80600160006101000a81548173ffffffffffffffffffffffffffffffffffffffff021916908373ffffffffffffffffffffffffffffffffffffffff16021790555050565b600033905090565b8280548282559060005260206000209060060281019282156116645760005260206000209160060282015b828111156116635782826000820154816000015560018201548160010155600282015481600201556003820160009054906101000a900461ffff168160030160006101000a81548161ffff021916908361ffff1602179055506003820160029054906101000a900461ffff168160030160026101000a81548161ffff021916908361ffff1602179055506004820154816004015560058201816005019080546116469061210c565b611651929190611785565b5050509160060191906006019061159e565b5b5090506116719190611812565b5090565b50805460008255600602906000526020600020908101906116969190611812565b50565b50805460008255906000526020600020908101906116b79190611883565b50565b6040518060e00160405280600081526020016000815260200160008152602001600061ffff168152602001600061ffff16815260200160008152602001606081525090565b82805461170b9061210c565b90600052602060002090601f01602090048101928261172d5760008555611774565b82601f1061174657805160ff1916838001178555611774565b82800160010185558215611774579182015b82811115611773578251825591602001919060010190611758565b5b5090506117819190611883565b5090565b8280546117919061210c565b90600052602060002090601f0160209004810192826117b35760008555611801565b82601f106117c45780548555611801565b8280016001018555821561180157600052602060002091601f016020900482015b828111156118005782548255916001019190600101906117e5565b5b50905061180e9190611883565b5090565b5b8082111561187f57600080820160009055600182016000905560028201600090556003820160006101000a81549061ffff02191690556003820160026101000a81549061ffff0219169055600482016000905560058201600061187691906118a0565b50600601611813565b5090565b5b8082111561189c576000816000905550600101611884565b5090565b5080546118ac9061210c565b6000825580601f106118be57506118dd565b601f0160209004906000526020600020908101906118dc9190611883565b5b50565b6000604051905090565b600080fd5b600080fd5b600073ffffffffffffffffffffffffffffffffffffffff82169050919050565b600061191f826118f4565b9050919050565b61192f81611914565b811461193a57600080fd5b50565b60008135905061194c81611926565b92915050565b600061ffff82169050919050565b61196981611952565b811461197457600080fd5b50565b60008135905061198681611960565b92915050565b6000819050919050565b61199f8161198c565b81146119aa57600080fd5b50565b6000813590506119bc81611996565b92915050565b6000806000606084860312156119db576119da6118ea565b5b60006119e98682870161193d565b93505060206119fa86828701611977565b9250506040611a0b868287016119ad565b9150509250925092565b60008060408385031215611a2c57611a2b6118ea565b5b6000611a3a8582860161193d565b9250506020611a4b8582860161193d565b9150509250929050565b611a5e8161198c565b82525050565b6000602082019050611a796000830184611a55565b92915050565b611a8881611914565b82525050565b6000602082019050611aa36000830184611a7f565b92915050565b600080600060608486031215611ac257611ac16118ea565b5b6000611ad08682870161193d565b9350506020611ae18682870161193d565b9250506040611af286828701611977565b9150509250925092565b611b058161198c565b82525050565b611b1481611952565b82525050565b600081519050919050565b600082825260208201905092915050565b60005b83811015611b54578082015181840152602081019050611b39565b83811115611b63576000848401525b50505050565b6000601f19601f8301169050919050565b6000611b8582611b1a565b611b8f8185611b25565b9350611b9f818560208601611b36565b611ba881611b69565b840191505092915050565b600060e083016000830151611bcb6000860182611afc565b506020830151611bde6020860182611afc565b506040830151611bf16040860182611afc565b506060830151611c046060860182611b0b565b506080830151611c176080860182611b0b565b5060a0830151611c2a60a0860182611afc565b5060c083015184820360c0860152611c428282611b7a565b9150508091505092915050565b60006020820190508181036000830152611c698184611bb3565b905092915050565b600080fd5b600080fd5b7f4e487b7100000000000000000000000000000000000000000000000000000000600052604160045260246000fd5b611cb382611b69565b810181811067ffffffffffffffff82111715611cd257611cd1611c7b565b5b80604052505050565b6000611ce56118e0565b9050611cf18282611caa565b919050565b600067ffffffffffffffff821115611d1157611d10611c7b565b5b611d1a82611b69565b9050602081019050919050565b82818337600083830152505050565b6000611d49611d4484611cf6565b611cdb565b905082815260208101848484011115611d6557611d64611c76565b5b611d70848285611d27565b509392505050565b600082601f830112611d8d57611d8c611c71565b5b8135611d9d848260208601611d36565b91505092915050565b60008060008060008060c08789031215611dc357611dc26118ea565b5b6000611dd189828a0161193d565b9650506020611de289828a016119ad565b9550506040611df389828a016119ad565b9450506060611e0489828a01611977565b9350506080611e1589828a01611977565b92505060a087013567ffffffffffffffff811115611e3657611e356118ef565b5b611e4289828a01611d78565b9150509295509295509295565b600060208284031215611e6557611e646118ea565b5b6000611e738482850161193d565b91505092915050565b60008115159050919050565b611e9181611e7c565b8114611e9c57600080fd5b50565b600081519050611eae81611e88565b92915050565b600060208284031215611eca57611ec96118ea565b5b6000611ed884828501611e9f565b91505092915050565b600082825260208201905092915050565b7f596f7520617265206e6f7420612062616e6b0000000000000000000000000000600082015250565b6000611f28601283611ee1565b9150611f3382611ef2565b602082019050919050565b60006020820190508181036000830152611f5781611f1b565b9050919050565b7f4e487b7100000000000000000000000000000000000000000000000000000000600052603260045260246000fd5b7f526570617920746f6f206d756368206d6f6e6579000000000000000000000000600082015250565b6000611fc3601483611ee1565b9150611fce82611f8d565b602082019050919050565b60006020820190508181036000830152611ff281611fb6565b9050919050565b7f4e487b7100000000000000000000000000000000000000000000000000000000600052601160045260246000fd5b60006120338261198c565b915061203e8361198c565b92508282101561205157612050611ff9565b5b828203905092915050565b61206581611952565b82525050565b6000604082019050612080600083018561205c565b61208d6020830184611a55565b9392505050565b600061209f8261198c565b91507fffffffffffffffffffffffffffffffffffffffffffffffffffffffffffffffff8214156120d2576120d1611ff9565b5b600182019050919050565b7f4e487b7100000000000000000000000000000000000000000000000000000000600052602260045260246000fd5b6000600282049050600182168061212457607f821691505b60208210811415612138576121376120dd565b5b50919050565b60006121498261198c565b91506121548361198c565b9250827fffffffffffffffffffffffffffffffffffffffffffffffffffffffffffffffff0382111561218957612188611ff9565b5b828201905092915050565b7f596f752063616e206f6e6c7920676574207265636f7264732072656c6174656460008201527f20746f20796f757273656c660000000000000000000000000000000000000000602082015250565b60006121f0602c83611ee1565b91506121fb82612194565b604082019050919050565b6000602082019050818103600083015261221f816121e3565b9050919050565b600060608201905061223b6000830186611a7f565b6122486020830185611a7f565b6122556040830184611a55565b949350505050565b600060c0820190506122726000830189611a55565b61227f6020830188611a55565b61228c6040830187611a55565b612299606083018661205c565b6122a6608083018561205c565b6122b360a0830184611a55565b979650505050505050565b7f596f7520617265206e6f74206120636f6e7472616374206f776e657200000000600082015250565b60006122f4601c83611ee1565b91506122ff826122be565b602082019050919050565b60006020820190508181036000830152612323816122e7565b905091905056fea2646970667358221220b83a39a9457069fcd703228000dfb194a72bdfaa7a2874160500384ee694d05264736f6c634300080b0033",
  "immutableReferences": {},
  "source": "// SPDX-License-Identifier: UNLICENSED\n\npragma solidity ^0.8.0;\n\nimport \"@openzeppelin/contracts/utils/Context.sol\";\n\ncontract Credit is Context {\n    struct loanRecord {\n        // address borrower;\n        // address bank;\n        uint256 loanAmount;\n        uint256 pointsAmount;\n        uint256 timestamp;\n        uint16 monthN;\n        uint16 annualInterestRate; // This value should be divided by 1000. Ex: 3% = 30 / 1000\n        uint256 loanBalance;\n        string option; // Loan case or something else\n    }\n\n    struct keyList {\n        address[] keys;\n        mapping(address => bool) existing;\n    }\n\n    address public _owner;\n    address public _BankLiabilityAddr;\n    C_RPToken private _rp;\n\n    mapping(address => mapping(address => loanRecord[])) private _loanRecords;\n    mapping(address => keyList) private _bankToBorrowers;\n\n    event Loan(\n        address indexed borrower,\n        address indexed bank,\n        uint256 loanAmount,\n        uint256 pointsAmount,\n        uint256 timestamp,\n        uint16 monthN,\n        uint16 annualInterestRate,\n        uint256 loanBalance\n    );\n\n    event Repay(address indexed borrower, address indexed bank, uint16 index, uint256 amount);\n\n    modifier onlyOwner() {\n        require(_msgSender() == _owner, \"You are not a contract owner\");\n        _;\n    }\n\n    modifier onlyBank() {\n        require(_rp._banks(_msgSender()), \"You are not a bank\");\n        _;\n    }\n\n    constructor(address RPTokenAddr) {\n        _owner = _msgSender();\n        _rp = C_RPToken(RPTokenAddr);\n    }\n\n    function setBankLiabilityAddr(address addr) public onlyOwner {\n        _BankLiabilityAddr = addr;\n    }\n\n    function loan(\n        address borrower,\n        uint256 loanAmount,\n        uint256 pointsAmount,\n        uint16 monthN,\n        uint16 annualInterestRate,\n        string memory option\n    ) public onlyBank {\n        //uint256 monthlyDueDate = block.timestamp + 30 days;\n        uint256 timestamp = block.timestamp;\n        _loanRecords[_msgSender()][borrower].push() = loanRecord(\n            loanAmount,\n            pointsAmount,\n            timestamp,\n            monthN,\n            annualInterestRate,\n            loanAmount,\n            option\n        );\n        if (!_bankToBorrowers[_msgSender()].existing[borrower]) {\n            _bankToBorrowers[_msgSender()].keys.push(borrower);\n            _bankToBorrowers[_msgSender()].existing[borrower] = true;\n        }\n        _rp.deliver(_msgSender(), borrower, pointsAmount);\n\n        emit Loan(borrower, _msgSender(), loanAmount, pointsAmount, timestamp, monthN, annualInterestRate, loanAmount);\n    }\n\n    function repay(address borrower, uint16 index, uint256 amount) public onlyBank {\n        require(_loanRecords[_msgSender()][borrower][index].loanBalance >= amount, \"Repay too much money\");\n        _loanRecords[_msgSender()][borrower][index].loanBalance -= amount;\n\n        emit Repay(borrower, _msgSender(), index, amount);\n    }\n\n    function changeLoanLender(address oldBank, address newBank) public {\n        require(_msgSender() == _owner || _msgSender() == _BankLiabilityAddr);\n        address[] memory keys = _bankToBorrowers[oldBank].keys;\n        for (uint256 i = 0; i < keys.length; i++) {\n            _loanRecords[newBank][keys[i]] = _loanRecords[oldBank][keys[i]];\n            delete _loanRecords[oldBank][keys[i]];\n        }\n        delete _bankToBorrowers[oldBank];\n    }\n\n    function getLoanBalanceOfBank() public view onlyBank returns (uint256) {\n        uint256 totalLoanBalance;\n        address[] memory keys = _bankToBorrowers[_msgSender()].keys;\n        for (uint256 i = 0; i < keys.length; i++) {\n            loanRecord[] memory loanRecords = _loanRecords[_msgSender()][keys[i]];\n            for (uint256 j = 0; j < loanRecords.length; j++) {\n                totalLoanBalance += loanRecords[j].loanBalance;\n            }\n        }\n        return totalLoanBalance;\n    }\n\n    function getLoanRecord(address bank, address borrower, uint16 index) public view returns (loanRecord memory) {\n        require(_msgSender() == bank || _msgSender() == borrower, \"You can only get records related to yourself\");\n        return _loanRecords[bank][borrower][index];\n    }\n}\n\ncontract C_RPToken {\n    function _banks(address) public view returns (bool) {}\n\n    function deliver(address, address, uint256) public returns (bool) {}\n}\n",
  "sourcePath": "/Users/hc/Projects/BCOIP PRO/src/contracts/Credit.sol",
  "compiler": {
    "name": "solc",
    "version": "0.8.11+commit.d7f03943.Emscripten.clang"
  },
  "schemaVersion": "3.4.3",
  "updatedAt": "2021-12-26T08:06:15.546Z",
  "devdoc": {
    "kind": "dev",
    "methods": {},
    "version": 1
  },
  "userdoc": {
    "kind": "user",
    "methods": {},
    "version": 1
  }
}