{
  "contractName": "Credit",
  "abi": [
    {
      "inputs": [
        {
          "internalType": "address",
          "name": "RPTokenAddr",
          "type": "address"
        }
      ],
      "stateMutability": "nonpayable",
      "type": "constructor"
    },
    {
      "anonymous": false,
      "inputs": [
        {
          "indexed": true,
          "internalType": "address",
          "name": "borrower",
          "type": "address"
        },
        {
          "indexed": true,
          "internalType": "address",
          "name": "bank",
          "type": "address"
        },
        {
          "indexed": false,
          "internalType": "uint256",
          "name": "loanAmount",
          "type": "uint256"
        },
        {
          "indexed": false,
          "internalType": "uint256",
          "name": "pointsAmount",
          "type": "uint256"
        },
        {
          "indexed": false,
          "internalType": "uint256",
          "name": "timestamp",
          "type": "uint256"
        },
        {
          "indexed": false,
          "internalType": "uint16",
          "name": "monthN",
          "type": "uint16"
        },
        {
          "indexed": false,
          "internalType": "uint16",
          "name": "annualInterestRate",
          "type": "uint16"
        },
        {
          "indexed": false,
          "internalType": "uint256",
          "name": "loanBalance",
          "type": "uint256"
        }
      ],
      "name": "Loan",
      "type": "event"
    },
    {
      "anonymous": false,
      "inputs": [
        {
          "indexed": true,
          "internalType": "address",
          "name": "borrower",
          "type": "address"
        },
        {
          "indexed": true,
          "internalType": "address",
          "name": "bank",
          "type": "address"
        },
        {
          "indexed": false,
          "internalType": "uint16",
          "name": "index",
          "type": "uint16"
        },
        {
          "indexed": false,
          "internalType": "uint256",
          "name": "amount",
          "type": "uint256"
        }
      ],
      "name": "Repay",
      "type": "event"
    },
    {
      "inputs": [],
      "name": "_BankLiabilityAddr",
      "outputs": [
        {
          "internalType": "address",
          "name": "",
          "type": "address"
        }
      ],
      "stateMutability": "view",
      "type": "function"
    },
    {
      "inputs": [],
      "name": "_owner",
      "outputs": [
        {
          "internalType": "address",
          "name": "",
          "type": "address"
        }
      ],
      "stateMutability": "view",
      "type": "function"
    },
    {
      "inputs": [
        {
          "internalType": "address",
          "name": "addr",
          "type": "address"
        }
      ],
      "name": "setBankLiabilityAddr",
      "outputs": [],
      "stateMutability": "nonpayable",
      "type": "function"
    },
    {
      "inputs": [
        {
          "internalType": "address",
          "name": "borrower",
          "type": "address"
        },
        {
          "internalType": "uint256",
          "name": "loanAmount",
          "type": "uint256"
        },
        {
          "internalType": "uint256",
          "name": "pointsAmount",
          "type": "uint256"
        },
        {
          "internalType": "uint16",
          "name": "monthN",
          "type": "uint16"
        },
        {
          "internalType": "uint16",
          "name": "annualInterestRate",
          "type": "uint16"
        },
        {
          "internalType": "string",
          "name": "option",
          "type": "string"
        }
      ],
      "name": "loan",
      "outputs": [],
      "stateMutability": "nonpayable",
      "type": "function"
    },
    {
      "inputs": [
        {
          "internalType": "address",
          "name": "borrower",
          "type": "address"
        },
        {
          "internalType": "uint16",
          "name": "index",
          "type": "uint16"
        },
        {
          "internalType": "uint256",
          "name": "amount",
          "type": "uint256"
        }
      ],
      "name": "repay",
      "outputs": [],
      "stateMutability": "nonpayable",
      "type": "function"
    },
    {
      "inputs": [
        {
          "internalType": "address",
          "name": "oldBank",
          "type": "address"
        },
        {
          "internalType": "address",
          "name": "newBank",
          "type": "address"
        }
      ],
      "name": "changeLoanLender",
      "outputs": [],
      "stateMutability": "nonpayable",
      "type": "function"
    },
    {
      "inputs": [],
      "name": "getLoanBalanceOfBank",
      "outputs": [
        {
          "internalType": "uint256",
          "name": "",
          "type": "uint256"
        }
      ],
      "stateMutability": "view",
      "type": "function"
    },
    {
      "inputs": [
        {
          "internalType": "address",
          "name": "bank",
          "type": "address"
        },
        {
          "internalType": "address",
          "name": "borrower",
          "type": "address"
        },
        {
          "internalType": "uint16",
          "name": "index",
          "type": "uint16"
        }
      ],
      "name": "getLoanRecord",
      "outputs": [
        {
          "components": [
            {
              "internalType": "uint256",
              "name": "loanAmount",
              "type": "uint256"
            },
            {
              "internalType": "uint256",
              "name": "pointsAmount",
              "type": "uint256"
            },
            {
              "internalType": "uint256",
              "name": "timestamp",
              "type": "uint256"
            },
            {
              "internalType": "uint16",
              "name": "monthN",
              "type": "uint16"
            },
            {
              "internalType": "uint16",
              "name": "annualInterestRate",
              "type": "uint16"
            },
            {
              "internalType": "uint256",
              "name": "loanBalance",
              "type": "uint256"
            },
            {
              "internalType": "string",
              "name": "option",
              "type": "string"
            }
          ],
          "internalType": "struct Credit.loanRecord",
          "name": "",
          "type": "tuple"
        }
      ],
      "stateMutability": "view",
      "type": "function"
    }
  ],
  "bytecode": "0x60806040523480156200001157600080fd5b506040516200251e3803806200251e833981810160405281019062000037919062000140565b62000047620000ce60201b60201c565b6000806101000a81548173ffffffffffffffffffffffffffffffffffffffff021916908373ffffffffffffffffffffffffffffffffffffffff16021790555080600260006101000a81548173ffffffffffffffffffffffffffffffffffffffff021916908373ffffffffffffffffffffffffffffffffffffffff1602179055505062000172565b600033905090565b600080fd5b600073ffffffffffffffffffffffffffffffffffffffff82169050919050565b60006200010882620000db565b9050919050565b6200011a81620000fb565b81146200012657600080fd5b50565b6000815190506200013a816200010f565b92915050565b600060208284031215620001595762000158620000d6565b5b6000620001698482850162000129565b91505092915050565b61239c80620001826000396000f3fe608060405234801561001057600080fd5b50600436106100885760003560e01c8063a580bb4b1161005b578063a580bb4b14610101578063b2bdfa7b14610131578063ccb46ac21461014f578063e0656d601461016b57610088565b8063227c35011461008d5780636c44f255146100a9578063781445e8146100c55780637a3661f8146100e3575b600080fd5b6100a760048036038101906100a291906119fe565b610187565b005b6100c360048036038101906100be9190611a51565b610499565b005b6100cd610876565b6040516100da9190611aa0565b60405180910390f35b6100eb610ca2565b6040516100f89190611aca565b60405180910390f35b61011b60048036038101906101169190611ae5565b610cc8565b6040516101289190611c8b565b60405180910390f35b610139610f30565b6040516101469190611aca565b60405180910390f35b61016960048036038101906101649190611de2565b610f54565b005b61018560048036038101906101809190611e8b565b6114ce565b005b600260009054906101000a900473ffffffffffffffffffffffffffffffffffffffff1673ffffffffffffffffffffffffffffffffffffffff166349d407c96101cd6115a7565b6040518263ffffffff1660e01b81526004016101e99190611aca565b60206040518083038186803b15801561020157600080fd5b505afa158015610215573d6000803e3d6000fd5b505050506040513d601f19601f820116820180604052508101906102399190611ef0565b610278576040517f08c379a000000000000000000000000000000000000000000000000000000000815260040161026f90611f7a565b60405180910390fd5b80600360006102856115a7565b73ffffffffffffffffffffffffffffffffffffffff1673ffffffffffffffffffffffffffffffffffffffff16815260200190815260200160002060008573ffffffffffffffffffffffffffffffffffffffff1673ffffffffffffffffffffffffffffffffffffffff1681526020019081526020016000208361ffff168154811061031257610311611f9a565b5b9060005260206000209060060201600401541015610365576040517f08c379a000000000000000000000000000000000000000000000000000000000815260040161035c90612015565b60405180910390fd5b80600360006103726115a7565b73ffffffffffffffffffffffffffffffffffffffff1673ffffffffffffffffffffffffffffffffffffffff16815260200190815260200160002060008573ffffffffffffffffffffffffffffffffffffffff1673ffffffffffffffffffffffffffffffffffffffff1681526020019081526020016000208361ffff16815481106103ff576103fe611f9a565b5b9060005260206000209060060201600401600082825461041f9190612064565b9250508190555061042e6115a7565b73ffffffffffffffffffffffffffffffffffffffff168373ffffffffffffffffffffffffffffffffffffffff167fdcc1c192d2b06c55ab569f8495ac5f109275855bcf259069d55816718bba8a93848460405161048c9291906120a7565b60405180910390a3505050565b60008054906101000a900473ffffffffffffffffffffffffffffffffffffffff1673ffffffffffffffffffffffffffffffffffffffff166104d86115a7565b73ffffffffffffffffffffffffffffffffffffffff16148061054e5750600160009054906101000a900473ffffffffffffffffffffffffffffffffffffffff1673ffffffffffffffffffffffffffffffffffffffff166105366115a7565b73ffffffffffffffffffffffffffffffffffffffff16145b61055757600080fd5b6000600460008473ffffffffffffffffffffffffffffffffffffffff1673ffffffffffffffffffffffffffffffffffffffff16815260200190815260200160002060000180548060200260200160405190810160405280929190818152602001828054801561061b57602002820191906000526020600020905b8160009054906101000a900473ffffffffffffffffffffffffffffffffffffffff1673ffffffffffffffffffffffffffffffffffffffff16815260200190600101908083116105d1575b5050505050905060005b815181101561081e57600360008573ffffffffffffffffffffffffffffffffffffffff1673ffffffffffffffffffffffffffffffffffffffff168152602001908152602001600020600083838151811061068257610681611f9a565b5b602002602001015173ffffffffffffffffffffffffffffffffffffffff1673ffffffffffffffffffffffffffffffffffffffff168152602001908152602001600020600360008573ffffffffffffffffffffffffffffffffffffffff1673ffffffffffffffffffffffffffffffffffffffff168152602001908152602001600020600084848151811061071857610717611f9a565b5b602002602001015173ffffffffffffffffffffffffffffffffffffffff1673ffffffffffffffffffffffffffffffffffffffff1681526020019081526020016000209080546107689291906115af565b50600360008573ffffffffffffffffffffffffffffffffffffffff1673ffffffffffffffffffffffffffffffffffffffff16815260200190815260200160002060008383815181106107bd576107bc611f9a565b5b602002602001015173ffffffffffffffffffffffffffffffffffffffff1673ffffffffffffffffffffffffffffffffffffffff168152602001908152602001600020600061080b91906116b1565b8080610816906120d0565b915050610625565b50600460008473ffffffffffffffffffffffffffffffffffffffff1673ffffffffffffffffffffffffffffffffffffffff1681526020019081526020016000206000808201600061086f91906116d5565b5050505050565b6000600260009054906101000a900473ffffffffffffffffffffffffffffffffffffffff1673ffffffffffffffffffffffffffffffffffffffff166349d407c96108be6115a7565b6040518263ffffffff1660e01b81526004016108da9190611aca565b60206040518083038186803b1580156108f257600080fd5b505afa158015610906573d6000803e3d6000fd5b505050506040513d601f19601f8201168201806040525081019061092a9190611ef0565b610969576040517f08c379a000000000000000000000000000000000000000000000000000000000815260040161096090611f7a565b60405180910390fd5b600080600460006109786115a7565b73ffffffffffffffffffffffffffffffffffffffff1673ffffffffffffffffffffffffffffffffffffffff168152602001908152602001600020600001805480602002602001604051908101604052809291908181526020018280548015610a3557602002820191906000526020600020905b8160009054906101000a900473ffffffffffffffffffffffffffffffffffffffff1673ffffffffffffffffffffffffffffffffffffffff16815260200190600101908083116109eb575b5050505050905060005b8151811015610c9957600060036000610a566115a7565b73ffffffffffffffffffffffffffffffffffffffff1673ffffffffffffffffffffffffffffffffffffffff1681526020019081526020016000206000848481518110610aa557610aa4611f9a565b5b602002602001015173ffffffffffffffffffffffffffffffffffffffff1673ffffffffffffffffffffffffffffffffffffffff168152602001908152602001600020805480602002602001604051908101604052809291908181526020016000905b82821015610c3357838290600052602060002090600602016040518060e00160405290816000820154815260200160018201548152602001600282015481526020016003820160009054906101000a900461ffff1661ffff1661ffff1681526020016003820160029054906101000a900461ffff1661ffff1661ffff16815260200160048201548152602001600582018054610ba290612148565b80601f0160208091040260200160405190810160405280929190818152602001828054610bce90612148565b8015610c1b5780601f10610bf057610100808354040283529160200191610c1b565b820191906000526020600020905b815481529060010190602001808311610bfe57829003601f168201915b50505050508152505081526020019060010190610b07565b50505050905060005b8151811015610c8457818181518110610c5857610c57611f9a565b5b602002602001015160a0015185610c6f919061217a565b94508080610c7c906120d0565b915050610c3c565b50508080610c91906120d0565b915050610a3f565b50819250505090565b600160009054906101000a900473ffffffffffffffffffffffffffffffffffffffff1681565b610cd06116f6565b8373ffffffffffffffffffffffffffffffffffffffff16610cef6115a7565b73ffffffffffffffffffffffffffffffffffffffff161480610d4357508273ffffffffffffffffffffffffffffffffffffffff16610d2b6115a7565b73ffffffffffffffffffffffffffffffffffffffff16145b610d82576040517f08c379a0000000000000000000000000000000000000000000000000000000008152600401610d7990612242565b60405180910390fd5b600360008573ffffffffffffffffffffffffffffffffffffffff1673ffffffffffffffffffffffffffffffffffffffff16815260200190815260200160002060008473ffffffffffffffffffffffffffffffffffffffff1673ffffffffffffffffffffffffffffffffffffffff1681526020019081526020016000208261ffff1681548110610e1457610e13611f9a565b5b90600052602060002090600602016040518060e00160405290816000820154815260200160018201548152602001600282015481526020016003820160009054906101000a900461ffff1661ffff1661ffff1681526020016003820160029054906101000a900461ffff1661ffff1661ffff16815260200160048201548152602001600582018054610ea590612148565b80601f0160208091040260200160405190810160405280929190818152602001828054610ed190612148565b8015610f1e5780601f10610ef357610100808354040283529160200191610f1e565b820191906000526020600020905b815481529060010190602001808311610f0157829003601f168201915b50505050508152505090509392505050565b60008054906101000a900473ffffffffffffffffffffffffffffffffffffffff1681565b600260009054906101000a900473ffffffffffffffffffffffffffffffffffffffff1673ffffffffffffffffffffffffffffffffffffffff166349d407c9610f9a6115a7565b6040518263ffffffff1660e01b8152600401610fb69190611aca565b60206040518083038186803b158015610fce57600080fd5b505afa158015610fe2573d6000803e3d6000fd5b505050506040513d601f19601f820116820180604052508101906110069190611ef0565b611045576040517f08c379a000000000000000000000000000000000000000000000000000000000815260040161103c90611f7a565b60405180910390fd5b60004290506040518060e001604052808781526020018681526020018281526020018561ffff1681526020018461ffff16815260200187815260200183815250600360006110916115a7565b73ffffffffffffffffffffffffffffffffffffffff1673ffffffffffffffffffffffffffffffffffffffff16815260200190815260200160002060008973ffffffffffffffffffffffffffffffffffffffff1673ffffffffffffffffffffffffffffffffffffffff16815260200190815260200160002060018160018154018082558091505003906000526020600020906006020160008201518160000155602082015181600101556040820151816002015560608201518160030160006101000a81548161ffff021916908361ffff16021790555060808201518160030160026101000a81548161ffff021916908361ffff16021790555060a0820151816004015560c08201518160050190805190602001906111b092919061173b565b50905050600460006111c06115a7565b73ffffffffffffffffffffffffffffffffffffffff1673ffffffffffffffffffffffffffffffffffffffff16815260200190815260200160002060010160008873ffffffffffffffffffffffffffffffffffffffff1673ffffffffffffffffffffffffffffffffffffffff16815260200190815260200160002060009054906101000a900460ff1661139657600460006112586115a7565b73ffffffffffffffffffffffffffffffffffffffff1673ffffffffffffffffffffffffffffffffffffffff168152602001908152602001600020600001879080600181540180825580915050600190039060005260206000200160009091909190916101000a81548173ffffffffffffffffffffffffffffffffffffffff021916908373ffffffffffffffffffffffffffffffffffffffff1602179055506001600460006113046115a7565b73ffffffffffffffffffffffffffffffffffffffff1673ffffffffffffffffffffffffffffffffffffffff16815260200190815260200160002060010160008973ffffffffffffffffffffffffffffffffffffffff1673ffffffffffffffffffffffffffffffffffffffff16815260200190815260200160002060006101000a81548160ff0219169083151502179055505b600260009054906101000a900473ffffffffffffffffffffffffffffffffffffffff1673ffffffffffffffffffffffffffffffffffffffff16639bbedbbc6113dc6115a7565b89886040518463ffffffff1660e01b81526004016113fc93929190612262565b602060405180830381600087803b15801561141657600080fd5b505af115801561142a573d6000803e3d6000fd5b505050506040513d601f19601f8201168201806040525081019061144e9190611ef0565b506114576115a7565b73ffffffffffffffffffffffffffffffffffffffff168773ffffffffffffffffffffffffffffffffffffffff167f61524df0464e62268163fba3e1b510645c13c2ea497d76d5ae49988543787b9188888589898d6040516114bd96959493929190612299565b60405180910390a350505050505050565b60008054906101000a900473ffffffffffffffffffffffffffffffffffffffff1673ffffffffffffffffffffffffffffffffffffffff1661150d6115a7565b73ffffffffffffffffffffffffffffffffffffffff1614611563576040517f08c379a000000000000000000000000000000000000000000000000000000000815260040161155a90612346565b60405180910390fd5b80600160006101000a81548173ffffffffffffffffffffffffffffffffffffffff021916908373ffffffffffffffffffffffffffffffffffffffff16021790555050565b600033905090565b8280548282559060005260206000209060060281019282156116a05760005260206000209160060282015b8281111561169f5782826000820154816000015560018201548160010155600282015481600201556003820160009054906101000a900461ffff168160030160006101000a81548161ffff021916908361ffff1602179055506003820160029054906101000a900461ffff168160030160026101000a81548161ffff021916908361ffff16021790555060048201548160040155600582018160050190805461168290612148565b61168d9291906117c1565b505050916006019190600601906115da565b5b5090506116ad919061184e565b5090565b50805460008255600602906000526020600020908101906116d2919061184e565b50565b50805460008255906000526020600020908101906116f391906118bf565b50565b6040518060e00160405280600081526020016000815260200160008152602001600061ffff168152602001600061ffff16815260200160008152602001606081525090565b82805461174790612148565b90600052602060002090601f01602090048101928261176957600085556117b0565b82601f1061178257805160ff19168380011785556117b0565b828001600101855582156117b0579182015b828111156117af578251825591602001919060010190611794565b5b5090506117bd91906118bf565b5090565b8280546117cd90612148565b90600052602060002090601f0160209004810192826117ef576000855561183d565b82601f10611800578054855561183d565b8280016001018555821561183d57600052602060002091601f016020900482015b8281111561183c578254825591600101919060010190611821565b5b50905061184a91906118bf565b5090565b5b808211156118bb57600080820160009055600182016000905560028201600090556003820160006101000a81549061ffff02191690556003820160026101000a81549061ffff021916905560048201600090556005820160006118b291906118dc565b5060060161184f565b5090565b5b808211156118d85760008160009055506001016118c0565b5090565b5080546118e890612148565b6000825580601f106118fa5750611919565b601f01602090049060005260206000209081019061191891906118bf565b5b50565b6000604051905090565b600080fd5b600080fd5b600073ffffffffffffffffffffffffffffffffffffffff82169050919050565b600061195b82611930565b9050919050565b61196b81611950565b811461197657600080fd5b50565b60008135905061198881611962565b92915050565b600061ffff82169050919050565b6119a58161198e565b81146119b057600080fd5b50565b6000813590506119c28161199c565b92915050565b6000819050919050565b6119db816119c8565b81146119e657600080fd5b50565b6000813590506119f8816119d2565b92915050565b600080600060608486031215611a1757611a16611926565b5b6000611a2586828701611979565b9350506020611a36868287016119b3565b9250506040611a47868287016119e9565b9150509250925092565b60008060408385031215611a6857611a67611926565b5b6000611a7685828601611979565b9250506020611a8785828601611979565b9150509250929050565b611a9a816119c8565b82525050565b6000602082019050611ab56000830184611a91565b92915050565b611ac481611950565b82525050565b6000602082019050611adf6000830184611abb565b92915050565b600080600060608486031215611afe57611afd611926565b5b6000611b0c86828701611979565b9350506020611b1d86828701611979565b9250506040611b2e868287016119b3565b9150509250925092565b611b41816119c8565b82525050565b611b508161198e565b82525050565b600081519050919050565b600082825260208201905092915050565b60005b83811015611b90578082015181840152602081019050611b75565b83811115611b9f576000848401525b50505050565b6000601f19601f8301169050919050565b6000611bc182611b56565b611bcb8185611b61565b9350611bdb818560208601611b72565b611be481611ba5565b840191505092915050565b600060e083016000830151611c076000860182611b38565b506020830151611c1a6020860182611b38565b506040830151611c2d6040860182611b38565b506060830151611c406060860182611b47565b506080830151611c536080860182611b47565b5060a0830151611c6660a0860182611b38565b5060c083015184820360c0860152611c7e8282611bb6565b9150508091505092915050565b60006020820190508181036000830152611ca58184611bef565b905092915050565b600080fd5b600080fd5b7f4e487b7100000000000000000000000000000000000000000000000000000000600052604160045260246000fd5b611cef82611ba5565b810181811067ffffffffffffffff82111715611d0e57611d0d611cb7565b5b80604052505050565b6000611d2161191c565b9050611d2d8282611ce6565b919050565b600067ffffffffffffffff821115611d4d57611d4c611cb7565b5b611d5682611ba5565b9050602081019050919050565b82818337600083830152505050565b6000611d85611d8084611d32565b611d17565b905082815260208101848484011115611da157611da0611cb2565b5b611dac848285611d63565b509392505050565b600082601f830112611dc957611dc8611cad565b5b8135611dd9848260208601611d72565b91505092915050565b60008060008060008060c08789031215611dff57611dfe611926565b5b6000611e0d89828a01611979565b9650506020611e1e89828a016119e9565b9550506040611e2f89828a016119e9565b9450506060611e4089828a016119b3565b9350506080611e5189828a016119b3565b92505060a087013567ffffffffffffffff811115611e7257611e7161192b565b5b611e7e89828a01611db4565b9150509295509295509295565b600060208284031215611ea157611ea0611926565b5b6000611eaf84828501611979565b91505092915050565b60008115159050919050565b611ecd81611eb8565b8114611ed857600080fd5b50565b600081519050611eea81611ec4565b92915050565b600060208284031215611f0657611f05611926565b5b6000611f1484828501611edb565b91505092915050565b600082825260208201905092915050565b7f596f7520617265206e6f7420612062616e6b0000000000000000000000000000600082015250565b6000611f64601283611f1d565b9150611f6f82611f2e565b602082019050919050565b60006020820190508181036000830152611f9381611f57565b9050919050565b7f4e487b7100000000000000000000000000000000000000000000000000000000600052603260045260246000fd5b7f526570617920746f6f206d756368206d6f6e6579000000000000000000000000600082015250565b6000611fff601483611f1d565b915061200a82611fc9565b602082019050919050565b6000602082019050818103600083015261202e81611ff2565b9050919050565b7f4e487b7100000000000000000000000000000000000000000000000000000000600052601160045260246000fd5b600061206f826119c8565b915061207a836119c8565b92508282101561208d5761208c612035565b5b828203905092915050565b6120a18161198e565b82525050565b60006040820190506120bc6000830185612098565b6120c96020830184611a91565b9392505050565b60006120db826119c8565b91507fffffffffffffffffffffffffffffffffffffffffffffffffffffffffffffffff82141561210e5761210d612035565b5b600182019050919050565b7f4e487b7100000000000000000000000000000000000000000000000000000000600052602260045260246000fd5b6000600282049050600182168061216057607f821691505b6020821081141561217457612173612119565b5b50919050565b6000612185826119c8565b9150612190836119c8565b9250827fffffffffffffffffffffffffffffffffffffffffffffffffffffffffffffffff038211156121c5576121c4612035565b5b828201905092915050565b7f596f752063616e206f6e6c7920676574207265636f7264732072656c6174656460008201527f20746f20796f757273656c660000000000000000000000000000000000000000602082015250565b600061222c602c83611f1d565b9150612237826121d0565b604082019050919050565b6000602082019050818103600083015261225b8161221f565b9050919050565b60006060820190506122776000830186611abb565b6122846020830185611abb565b6122916040830184611a91565b949350505050565b600060c0820190506122ae6000830189611a91565b6122bb6020830188611a91565b6122c86040830187611a91565b6122d56060830186612098565b6122e26080830185612098565b6122ef60a0830184611a91565b979650505050505050565b7f596f7520617265206e6f74206120636f6e7472616374206f776e657200000000600082015250565b6000612330601c83611f1d565b915061233b826122fa565b602082019050919050565b6000602082019050818103600083015261235f81612323565b905091905056fea2646970667358221220fc35f70bf169a4ed7c9e066e4877982e2c5f82cd3c9852c0ead79fb7d595021764736f6c63430008090033",
  "immutableReferences": {},
  "source": "// SPDX-License-Identifier: UNLICENSED\n\npragma solidity ^0.8.0;\n\nimport \"./Context.sol\";\n\ncontract Credit is Context {\n    struct loanRecord {\n        // address borrower;\n        // address bank;\n        uint256 loanAmount;\n        uint256 pointsAmount;\n        uint256 timestamp;\n        uint16 monthN;\n        uint16 annualInterestRate; // This value should be divided by 1000. Ex: 3% = 30 / 1000\n        uint256 loanBalance;\n        string option; // Loan case or something else\n    }\n\n    struct keyList {\n        address[] keys;\n        mapping(address => bool) existing;\n    }\n\n    address public _owner;\n    address public _BankLiabilityAddr;\n    C_RPToken private _rp;\n\n    mapping(address => mapping(address => loanRecord[])) private _loanRecords;\n    mapping(address => keyList) private _bankToBorrowers;\n\n    event Loan(\n        address indexed borrower,\n        address indexed bank,\n        uint256 loanAmount,\n        uint256 pointsAmount,\n        uint256 timestamp,\n        uint16 monthN,\n        uint16 annualInterestRate,\n        uint256 loanBalance\n    );\n\n    event Repay(address indexed borrower, address indexed bank, uint16 index, uint256 amount);\n\n    modifier onlyOwner() {\n        require(_msgSender() == _owner, \"You are not a contract owner\");\n        _;\n    }\n\n    modifier onlyBank() {\n        require(_rp._banks(_msgSender()), \"You are not a bank\");\n        _;\n    }\n\n    constructor(address RPTokenAddr) {\n        _owner = _msgSender();\n        _rp = C_RPToken(RPTokenAddr);\n    }\n\n    function setBankLiabilityAddr(address addr) public onlyOwner {\n        _BankLiabilityAddr = addr;\n    }\n\n    function loan(\n        address borrower,\n        uint256 loanAmount,\n        uint256 pointsAmount,\n        uint16 monthN,\n        uint16 annualInterestRate,\n        string memory option\n    ) public onlyBank {\n        //uint256 monthlyDueDate = block.timestamp + 30 days;\n        uint256 timestamp = block.timestamp;\n        _loanRecords[_msgSender()][borrower].push() = loanRecord(\n            loanAmount,\n            pointsAmount,\n            timestamp,\n            monthN,\n            annualInterestRate,\n            loanAmount,\n            option\n        );\n        if (!_bankToBorrowers[_msgSender()].existing[borrower]) {\n            _bankToBorrowers[_msgSender()].keys.push(borrower);\n            _bankToBorrowers[_msgSender()].existing[borrower] = true;\n        }\n        _rp.deliver(_msgSender(), borrower, pointsAmount);\n\n        emit Loan(borrower, _msgSender(), loanAmount, pointsAmount, timestamp, monthN, annualInterestRate, loanAmount);\n    }\n\n    function repay(address borrower, uint16 index, uint256 amount) public onlyBank {\n        require(_loanRecords[_msgSender()][borrower][index].loanBalance >= amount, \"Repay too much money\");\n        _loanRecords[_msgSender()][borrower][index].loanBalance -= amount;\n\n        emit Repay(borrower, _msgSender(), index, amount);\n    }\n\n    function changeLoanLender(address oldBank, address newBank) public {\n        require(_msgSender() == _owner || _msgSender() == _BankLiabilityAddr);\n        address[] memory keys = _bankToBorrowers[oldBank].keys;\n        for (uint256 i = 0; i < keys.length; i++) {\n            _loanRecords[newBank][keys[i]] = _loanRecords[oldBank][keys[i]];\n            delete _loanRecords[oldBank][keys[i]];\n        }\n        delete _bankToBorrowers[oldBank];\n    }\n\n    function getLoanBalanceOfBank() public view onlyBank returns (uint256) {\n        uint256 totalLoanBalance;\n        address[] memory keys = _bankToBorrowers[_msgSender()].keys;\n        for (uint256 i = 0; i < keys.length; i++) {\n            loanRecord[] memory loanRecords = _loanRecords[_msgSender()][keys[i]];\n            for (uint256 j = 0; j < loanRecords.length; j++) {\n                totalLoanBalance += loanRecords[j].loanBalance;\n            }\n        }\n        return totalLoanBalance;\n    }\n\n    function getLoanRecord(address bank, address borrower, uint16 index) public view returns (loanRecord memory) {\n        require(_msgSender() == bank || _msgSender() == borrower, \"You can only get records related to yourself\");\n        return _loanRecords[bank][borrower][index];\n    }\n}\n\ncontract C_RPToken {\n    function _banks(address) public view returns (bool) {}\n\n    function deliver(address, address, uint256) public returns (bool) {}\n}\n",
  "sourcePath": "/Users/hc/Projects/BCOIP PRO/src/contracts/Credit.sol",
  "compiler": {
    "name": "solc",
    "version": "0.8.9+commit.e5eed63a.Emscripten.clang"
  },
  "schemaVersion": "3.4.3",
  "updatedAt": "2021-11-05T11:10:49.390Z",
  "devdoc": {
    "kind": "dev",
    "methods": {},
    "version": 1
  },
  "userdoc": {
    "kind": "user",
    "methods": {},
    "version": 1
  }
}