{
  "contractName": "PE_RPToken",
  "abi": [
    {
      "inputs": [
        {
          "internalType": "address",
          "name": "",
          "type": "address"
        }
      ],
      "name": "_banks",
      "outputs": [
        {
          "internalType": "bool",
          "name": "",
          "type": "bool"
        }
      ],
      "stateMutability": "view",
      "type": "function"
    },
    {
      "inputs": [
        {
          "internalType": "address",
          "name": "recipient",
          "type": "address"
        },
        {
          "internalType": "uint256",
          "name": "amount",
          "type": "uint256"
        }
      ],
      "name": "transfer",
      "outputs": [
        {
          "internalType": "bool",
          "name": "",
          "type": "bool"
        }
      ],
      "stateMutability": "nonpayable",
      "type": "function"
    },
    {
      "inputs": [
        {
          "internalType": "address",
          "name": "bank",
          "type": "address"
        },
        {
          "internalType": "address",
          "name": "user",
          "type": "address"
        },
        {
          "internalType": "uint256",
          "name": "amount",
          "type": "uint256"
        }
      ],
      "name": "recycle",
      "outputs": [
        {
          "internalType": "bool",
          "name": "",
          "type": "bool"
        }
      ],
      "stateMutability": "nonpayable",
      "type": "function"
    }
  ],
  "bytecode": "0x608060405234801561001057600080fd5b506102b3806100206000396000f3fe608060405234801561001057600080fd5b50600436106100415760003560e01c80633fae1eab1461004657806349d407c914610076578063a9059cbb146100a6575b600080fd5b610060600480360381019061005b9190610187565b6100d6565b60405161006d91906101f5565b60405180910390f35b610090600480360381019061008b9190610210565b6100df565b60405161009d91906101f5565b60405180910390f35b6100c060048036038101906100bb919061023d565b6100e6565b6040516100cd91906101f5565b60405180910390f35b60009392505050565b6000919050565b600092915050565b600080fd5b600073ffffffffffffffffffffffffffffffffffffffff82169050919050565b600061011e826100f3565b9050919050565b61012e81610113565b811461013957600080fd5b50565b60008135905061014b81610125565b92915050565b6000819050919050565b61016481610151565b811461016f57600080fd5b50565b6000813590506101818161015b565b92915050565b6000806000606084860312156101a05761019f6100ee565b5b60006101ae8682870161013c565b93505060206101bf8682870161013c565b92505060406101d086828701610172565b9150509250925092565b60008115159050919050565b6101ef816101da565b82525050565b600060208201905061020a60008301846101e6565b92915050565b600060208284031215610226576102256100ee565b5b60006102348482850161013c565b91505092915050565b60008060408385031215610254576102536100ee565b5b60006102628582860161013c565b925050602061027385828601610172565b915050925092905056fea264697066735822122013759162002729943922adcfd18df7cc13db1a9c6ee2840d13734a9693aae88e64736f6c634300080c0033",
  "immutableReferences": {},
  "source": "// SPDX-License-Identifier: UNLICENSED\n\npragma solidity ^0.8.0;\n\nimport \"@openzeppelin/contracts/utils/Context.sol\";\n\ncontract PointExchange is Context {\n    address public _owner;\n    PE_RPToken private _rp;\n\n    uint public _rateCount = 0;\n\tmapping(uint => Rate) public _rates;\n\tmapping (address => uint[]) private _issuerKeys;\n\n    struct Rate {\n        uint id;\n        string imgHash;\n        string name;\n        uint otherPoint;\n        uint RP;\n        address bank;\n        uint keysIdx;\n    }\n    /* struct Proposal {\n        address proposer;\n        string wantPoint;\n        string givePoint;\n        uint256 wantAmount;\n        uint256 giveAmount;\n    }\n    uint256 public proposalId = 0;\n    mapping(uint256 => Proposal) public proposals;\n    mapping(address => uint256[]) public proposalIds;\n    mapping(uint256 => uint256) proposalIdToIndexes; */\n    // event UpdateRPRate(address indexed bank, uint oldAsset, uint newAsset);\n    event ExchangeRP(address indexed bank, address indexed user, string name, uint oldAmount, uint amount);\n    event ExchangeOther(address indexed bank, address indexed user, string name, uint oldAmount, uint amount);\n\n    modifier onlyOwner() {\n        require(_msgSender() == _owner, \"You are not a contract owner\");\n        _;\n    }\n\n    modifier onlyBank() {\n        require(_rp._banks(_msgSender()), \"You are not a bank\");\n        _;\n    }\n\n    constructor(address RPTokenAddr) {\n        _owner = _msgSender();\n        _rp = PE_RPToken(RPTokenAddr);\n    }\n\n    function addRPRate(string memory imgHash, string memory name, uint otherPoint, uint rp) public onlyBank {\n        // require(bytes(_rpRates[_msgSender()].name).length == 0, \"PointExchange: You can only add point exchange rate for RP once\");\n        require(bytes(imgHash).length > 0, \"PointExchange: Points image hash cannot be empty\");\n        require(bytes(name).length > 0, \"PointExchange: Points name cannot be empty\");\n\t\trequire(otherPoint > 0, \"PointExchange: Point exchange rate cannot be empty\");\n        require(rp > 0, \"PointExchange: Point exchange rate cannot be empty\");\n        _issuerKeys[_msgSender()].push(++_rateCount);\n\t\t_rates[_rateCount] = Rate(_rateCount, imgHash, name, otherPoint, rp, _msgSender(), _issuerKeys[_msgSender()].length - 1);\n    }\n\n    function removeRPRate(uint id) public onlyBank {\n        require(id <= _rateCount, \"PointExchange: No such rate\");\n\t\tRate memory rate = _rates[id];\n\t\trequire(rate.bank == _msgSender(), \"PointExchange: You cannot remove other banks' rate\");\n\t\tuint[] storage keys = _issuerKeys[_msgSender()];\n        uint rowToDelete = rate.keysIdx;\n        uint keyToMove = keys[keys.length-1];\n        keys[rowToDelete] = keyToMove;\n        _rates[keyToMove].keysIdx = rowToDelete;\n        keys.pop();\n\t\tdelete _rates[id];\n    }\n\n    function updateRPRate(uint id, uint otherPoint, uint rp) public onlyBank {\n        require(id <= _rateCount, \"PointExchange: No such rate\");\n\t\trequire(_rates[id].bank == _msgSender(), \"PointExchange: You cannot remove other banks' rate\");\n        _rates[id].otherPoint = otherPoint;\n        _rates[id].RP = rp;\n\n        // emit UpdateRPRate(_msgSender(), otherPoint, rp);\n    }\n\n    function exchangeRP(address bank, address user, string memory name, uint oldAmount, uint amount) public onlyOwner {\n        _rp.transfer(user, amount);\n        emit ExchangeRP(bank, user, name, oldAmount, amount);\n    }\n\n    function exchangeOther(address bank, address user, string memory name, uint oldAmount, uint amount) public onlyOwner {\n        _rp.recycle(bank, user, oldAmount);\n        emit ExchangeOther(bank, user, name, oldAmount, amount);\n    }\n\n    // Get Issuer Keys\n\tfunction getIssuerKeys() public view onlyBank returns (uint[] memory) {\n\t\treturn _issuerKeys[_msgSender()];\n\t}\n\n    /* function propose(\n        string memory wantPoint,\n        string memory givePoint,\n        uint256 wantAmount,\n        uint256 giveAmount\n    ) public {\n        proposals[++proposalId] = Proposal(\n            _msgSender(),\n            wantPoint,\n            givePoint,\n            wantAmount,\n            giveAmount\n        );\n        proposalIds[_msgSender()].push(proposalId);\n        proposalIdToIndexes[proposalId] = proposalIds[_msgSender()].length - 1;\n    }\n\n    function accept(uint256 id) public {\n        uint256[] storage proposerProposalIds = proposalIds[\n            proposals[id].proposer\n        ];\n        proposerProposalIds[proposalIdToIndexes[id]] = proposerProposalIds[\n            proposerProposalIds.length - 1\n        ];\n        proposerProposalIds.pop();\n        delete proposalIdToIndexes[id];\n    } */\n}\n\ncontract PE_RPToken {\n    function _banks(address) public view returns (bool) {}\n    function transfer(address recipient, uint256 amount) public virtual returns (bool) {}\n    function recycle(address bank, address user, uint256 amount) public returns (bool) {}\n}\n",
  "sourcePath": "/Users/hc/Documents/Thesis/BCOIP PRO/src/contracts/PointExchange.sol",
  "compiler": {
    "name": "solc",
    "version": "0.8.12+commit.f00d7308.Emscripten.clang"
  },
  "schemaVersion": "3.4.3",
  "updatedAt": "2022-02-23T07:56:42.187Z",
  "devdoc": {
    "kind": "dev",
    "methods": {},
    "version": 1
  },
  "userdoc": {
    "kind": "user",
    "methods": {},
    "version": 1
  }
}