{
  "contractName": "PE_RPToken",
  "abi": [
    {
      "inputs": [
        {
          "internalType": "address",
          "name": "",
          "type": "address"
        }
      ],
      "name": "_banks",
      "outputs": [
        {
          "internalType": "bool",
          "name": "",
          "type": "bool"
        }
      ],
      "stateMutability": "view",
      "type": "function"
    },
    {
      "inputs": [
        {
          "internalType": "address",
          "name": "recipient",
          "type": "address"
        },
        {
          "internalType": "uint256",
          "name": "amount",
          "type": "uint256"
        }
      ],
      "name": "transfer",
      "outputs": [
        {
          "internalType": "bool",
          "name": "",
          "type": "bool"
        }
      ],
      "stateMutability": "nonpayable",
      "type": "function"
    }
  ],
  "bytecode": "0x608060405234801561001057600080fd5b5061021c806100206000396000f3fe608060405234801561001057600080fd5b50600436106100365760003560e01c806349d407c91461003b578063a9059cbb1461006b575b600080fd5b6100556004803603810190610050919061010d565b61009b565b6040516100629190610155565b60405180910390f35b610085600480360381019061008091906101a6565b6100a2565b6040516100929190610155565b60405180910390f35b6000919050565b600092915050565b600080fd5b600073ffffffffffffffffffffffffffffffffffffffff82169050919050565b60006100da826100af565b9050919050565b6100ea816100cf565b81146100f557600080fd5b50565b600081359050610107816100e1565b92915050565b600060208284031215610123576101226100aa565b5b6000610131848285016100f8565b91505092915050565b60008115159050919050565b61014f8161013a565b82525050565b600060208201905061016a6000830184610146565b92915050565b6000819050919050565b61018381610170565b811461018e57600080fd5b50565b6000813590506101a08161017a565b92915050565b600080604083850312156101bd576101bc6100aa565b5b60006101cb858286016100f8565b92505060206101dc85828601610191565b915050925092905056fea2646970667358221220dcbb5ffed4d3b199e1591b21e3aba7ebac6423cb01f628fc014c7c155f0ab46564736f6c634300080b0033",
  "immutableReferences": {},
  "source": "// SPDX-License-Identifier: UNLICENSED\n\npragma solidity ^0.8.0;\n\nimport \"@openzeppelin/contracts/utils/Context.sol\";\n\ncontract PointsExchange is Context {\n    address public _owner;\n    PE_RPToken private _rp;\n\n    uint public _rateCount = 0;\n\tmapping(uint => Rate) public _rates;\n\tmapping (address => uint[]) private _issuerKeys;\n\n\tmapping(address => Rate[]) public _issuerRates;\n\taddress[] private _existingIssuers; \n\n    struct Rate {\n        uint id;\n        string imgHash;\n        string name;\n        uint otherPoint;\n        uint RP;\n        address bank;\n        uint keysIdx;\n    }\n    /* struct Proposal {\n        address proposer;\n        string wantPoint;\n        string givePoint;\n        uint256 wantAmount;\n        uint256 giveAmount;\n    }\n    uint256 public proposalId = 0;\n    mapping(uint256 => Proposal) public proposals;\n    mapping(address => uint256[]) public proposalIds;\n    mapping(uint256 => uint256) proposalIdToIndexes; */\n    // event UpdateRPRate(address indexed bank, uint oldAsset, uint newAsset);\n    event ExchangeRP(address indexed issuer, address indexed user, string name, uint oldAmount, uint amount);\n\n    modifier onlyOwner() {\n        require(_msgSender() == _owner, \"You are not a contract owner\");\n        _;\n    }\n\n    modifier onlyBank() {\n        require(_rp._banks(_msgSender()), \"You are not a bank\");\n        _;\n    }\n\n    constructor(address RPTokenAddr) {\n        _owner = _msgSender();\n        _rp = PE_RPToken(RPTokenAddr);\n    }\n\n    function addRPRate(string memory imgHash, string memory name, uint otherPoint, uint rp) public onlyBank {\n        // require(bytes(_rpRates[_msgSender()].name).length == 0, \"PointsExchange: You can only add points exchange rate for RP once\");\n        require(bytes(imgHash).length > 0, \"PointsExchange: Points image hash cannot be empty\");\n        require(bytes(name).length > 0, \"PointsExchange: Points name cannot be empty\");\n\t\trequire(otherPoint > 0, \"PointsExchange: Points exchange rate cannot be empty\");\n        require(rp > 0, \"PointsExchange: Points exchange rate cannot be empty\");\n        _issuerKeys[_msgSender()].push(++_rateCount);\n\t\t_rates[_rateCount] = Rate(_rateCount, imgHash, name, otherPoint, rp, _msgSender(), _issuerKeys[_msgSender()].length - 1);\n    }\n\n    function removeRPRate(uint id) public onlyBank {\n        require(id <= _rateCount, \"PointsExchange: No such rate\");\n\t\tRate memory rate = _rates[id];\n\t\trequire(rate.bank == _msgSender(), \"PointsExchange: You cannot remove other banks' rate\");\n\t\tuint[] storage keys = _issuerKeys[_msgSender()];\n        uint rowToDelete = rate.keysIdx;\n        uint keyToMove = keys[keys.length-1];\n        keys[rowToDelete] = keyToMove;\n        _rates[keyToMove].keysIdx = rowToDelete;\n        keys.pop();\n\t\tdelete _rates[id];\n    }\n\n    function updateRPRate(uint id, uint otherPoint, uint rp) public onlyBank {\n        require(id <= _rateCount, \"PointsExchange: No such rate\");\n\t\trequire(_rates[id].bank == _msgSender(), \"PointsExchange: You cannot remove other banks' rate\");\n        _rates[id].otherPoint = otherPoint;\n        _rates[id].RP = rp;\n\n        // emit UpdateRPRate(_msgSender(), otherPoint, rp);\n    }\n\n    function exchangeRP(address issuer, address user, string memory name, uint oldAmount, uint amount) public onlyOwner{\n        _rp.transfer(user, amount);\n        emit ExchangeRP(issuer, user, name, oldAmount, amount);\n    }\n\n    // Get Issuer Keys\n\tfunction getIssuerKeys() public view onlyBank returns (uint[] memory) {\n\t\treturn _issuerKeys[_msgSender()];\n\t}\n\n    /* function propose(\n        string memory wantPoint,\n        string memory givePoint,\n        uint256 wantAmount,\n        uint256 giveAmount\n    ) public {\n        proposals[++proposalId] = Proposal(\n            _msgSender(),\n            wantPoint,\n            givePoint,\n            wantAmount,\n            giveAmount\n        );\n        proposalIds[_msgSender()].push(proposalId);\n        proposalIdToIndexes[proposalId] = proposalIds[_msgSender()].length - 1;\n    }\n\n    function accept(uint256 id) public {\n        uint256[] storage proposerProposalIds = proposalIds[\n            proposals[id].proposer\n        ];\n        proposerProposalIds[proposalIdToIndexes[id]] = proposerProposalIds[\n            proposerProposalIds.length - 1\n        ];\n        proposerProposalIds.pop();\n        delete proposalIdToIndexes[id];\n    } */\n}\n\ncontract PE_RPToken {\n    function _banks(address) public view returns (bool) {}\n    function transfer(address recipient, uint256 amount) public virtual returns (bool) {}\n}\n",
  "sourcePath": "/Users/hc/Documents/Thesis/BCOIP PRO/src/contracts/PointsExchange.sol",
  "compiler": {
    "name": "solc",
    "version": "0.8.11+commit.d7f03943.Emscripten.clang"
  },
  "schemaVersion": "3.4.3",
  "updatedAt": "2022-02-09T10:33:30.194Z",
  "devdoc": {
    "kind": "dev",
    "methods": {},
    "version": 1
  },
  "userdoc": {
    "kind": "user",
    "methods": {},
    "version": 1
  }
}