{
  "contractName": "PE_RPToken",
  "abi": [
    {
      "inputs": [
        {
          "internalType": "address",
          "name": "",
          "type": "address"
        }
      ],
      "name": "_banks",
      "outputs": [
        {
          "internalType": "bool",
          "name": "",
          "type": "bool"
        }
      ],
      "stateMutability": "view",
      "type": "function"
    }
  ],
  "bytecode": "0x608060405234801561001057600080fd5b50610163806100206000396000f3fe608060405234801561001057600080fd5b506004361061002b5760003560e01c806349d407c914610030575b600080fd5b61004a600480360381019061004591906100ca565b610060565b6040516100579190610112565b60405180910390f35b6000919050565b600080fd5b600073ffffffffffffffffffffffffffffffffffffffff82169050919050565b60006100978261006c565b9050919050565b6100a78161008c565b81146100b257600080fd5b50565b6000813590506100c48161009e565b92915050565b6000602082840312156100e0576100df610067565b5b60006100ee848285016100b5565b91505092915050565b60008115159050919050565b61010c816100f7565b82525050565b60006020820190506101276000830184610103565b9291505056fea2646970667358221220fb771d609bee9d29bd7c2ca1b710aed6955223bc89c1b3a714d071a3719380f264736f6c63430008090033",
  "immutableReferences": {},
  "source": "// SPDX-License-Identifier: UNLICENSED\n\npragma solidity ^0.8.0;\n\nimport \"@openzeppelin/contracts/utils/Context.sol\";\n\ncontract PointsExchange is Context {\n    PE_RPToken private _rp;\n    mapping (address => string) _exchangeRates; // Existing points issuer's address => 100 \n                                               // means 100 xx points -> 1 RP \n\n    struct Proposal {\n        address proposer;\n        string wantPoint;\n        string givePoint;\n        uint256 wantAmount;\n        uint256 giveAmount;\n    }\n    uint256 public proposalId = 0;\n    mapping (uint256 => Proposal) public proposals;\n    mapping (address => uint256[]) public proposalIds;\n    mapping (uint256 => uint256) proposalIdToIndexes;\n    event ChangeExchangeRate(address bank, string rate);\n\n    modifier onlyBank() {\n        require(_rp._banks(_msgSender()), \"You are not a bank\");\n        _;\n    }\n\n    constructor(address RPTokenAddr) {\n        _rp = PE_RPToken(RPTokenAddr);\n    }\n\n    function changeExchangeRate(string memory rate) public onlyBank {\n        _exchangeRates[_msgSender()] = rate;\n        emit ChangeExchangeRate(_msgSender(), rate);\n    }\n\n    function propose(string memory wantPoint, string memory givePoint, uint256 wantAmount, uint256 giveAmount) public {\n        proposals[++proposalId] = Proposal(_msgSender(), wantPoint, givePoint, wantAmount, giveAmount);\n        proposalIds[_msgSender()].push(proposalId);\n        proposalIdToIndexes[proposalId] = proposalIds[_msgSender()].length-1;\n    }\n\n    function accept(uint256 id) public {\n        uint256[] storage proposerProposalIds = proposalIds[proposals[id].proposer];\n        proposerProposalIds[proposalIdToIndexes[id]] = proposerProposalIds[proposerProposalIds.length-1];\n        proposerProposalIds.pop();\n        delete proposalIdToIndexes[id];\n    }\n\n}\n\ncontract PE_RPToken {\n    function _banks(address) public view returns (bool) {}\n}\n",
  "sourcePath": "/Users/hc/Projects/BCOIP PRO/src/contracts/PointsExchange.sol",
  "compiler": {
    "name": "solc",
    "version": "0.8.9+commit.e5eed63a.Emscripten.clang"
  },
  "schemaVersion": "3.4.3",
  "updatedAt": "2021-11-08T05:27:15.304Z",
  "devdoc": {
    "kind": "dev",
    "methods": {},
    "version": 1
  },
  "userdoc": {
    "kind": "user",
    "methods": {},
    "version": 1
  }
}