{
  "contractName": "PM_RPToken",
  "abi": [
    {
      "inputs": [
        {
          "internalType": "address",
          "name": "",
          "type": "address"
        }
      ],
      "name": "_merchants",
      "outputs": [
        {
          "internalType": "bool",
          "name": "",
          "type": "bool"
        }
      ],
      "stateMutability": "view",
      "type": "function"
    }
  ],
  "bytecode": "0x608060405234801561001057600080fd5b50610163806100206000396000f3fe608060405234801561001057600080fd5b506004361061002b5760003560e01c80630a76d08d14610030575b600080fd5b61004a600480360381019061004591906100ca565b610060565b6040516100579190610112565b60405180910390f35b6000919050565b600080fd5b600073ffffffffffffffffffffffffffffffffffffffff82169050919050565b60006100978261006c565b9050919050565b6100a78161008c565b81146100b257600080fd5b50565b6000813590506100c48161009e565b92915050565b6000602082840312156100e0576100df610067565b5b60006100ee848285016100b5565b91505092915050565b60008115159050919050565b61010c816100f7565b82525050565b60006020820190506101276000830184610103565b9291505056fea2646970667358221220af3c1818b9e47afcef94514ddfbc0668247a527dea5e36d26324dd8266b026ad64736f6c634300080c0033",
  "immutableReferences": {},
  "source": "// SPDX-License-Identifier: UNLICENSED\n\npragma solidity ^0.8.0;\n\nimport \"@openzeppelin/contracts/utils/Context.sol\";\n\ncontract ProductManager is Context{\n\n    PM_RPToken private _rp;\n\tuint public _productCount = 0;\n\tmapping(uint => Product) public _products;\n\tmapping (address => uint[]) private _merchantKeys;\n\n\tmapping(address => mapping(address => Order[])) private _orders;\n    mapping(address => address[]) private _orderParites;\n\n\t// Store Products\n\tstruct Product {\n\t\tuint id;\n\t\tstring imgHash;\n\t\tstring name;\n\t\tstring description;\n\t\tuint price;\n\t\taddress merchant;\n\t\tuint keysIdx;\n\t}\n\n\tstruct Order {\n\t\tstring name;\n\t\tuint quantity;\n\t\tuint amount;\n\t\tbool isFinished;\n\t\tuint timestamp;\n\t}\n\t\n\t/* event ProductCreated(\n\t\tuint id,\n\t\tstring imgHash,\n\t\tstring name,\n\t\tstring description,\n\t\tuint price,\n\t\taddress merchant\n\t);\n\n\tevent ProductRemoved(\n\t\tuint id,\n\t\tstring imgHash,\n\t\tstring name,\n\t\tstring description,\n\t\tuint price,\n\t\taddress merchant\n\t); */\n\n\tmodifier onlyMerchant() {\n        require(_rp._merchants(_msgSender()), \"You are not a merchant\");\n        _;\n    }\n\t\n\tconstructor (address RPTokenAddr) {\n        _rp = PM_RPToken(RPTokenAddr);\n\t}\n\n\t// Create Products\n\tfunction uploadProduct(string memory imgHash, string memory name, string memory description, uint price) public onlyMerchant {\n\t\trequire(bytes(imgHash).length > 0, \"Product: Product image hash cannot be empty\");\n\t\trequire(bytes(name).length > 0, \"Product: Product name cannot be empty\");\n\t\trequire(price > 0, \"Product: Product price must be greater than zero\");\n\t\t_merchantKeys[_msgSender()].push(++_productCount);\n\t\t_products[_productCount] = Product(_productCount, imgHash, name, description, price, _msgSender(), _merchantKeys[_msgSender()].length - 1);\n\t\t\n\t\t// emit ProductCreated(_productCount, imgHash, name, description, price, _msgSender());\n\t}\n\t// Remove Products\n\tfunction removeProduct(uint id) public onlyMerchant {\n\t\trequire(id <= _productCount, \"Product: No such product\");\n\t\tProduct memory product = _products[id];\n\t\trequire(product.merchant == _msgSender(), \"Product: You cannot remove other merchants' product\");\n\t\tuint[] storage keys = _merchantKeys[_msgSender()];\n        uint rowToDelete = product.keysIdx;\n        uint keyToMove = keys[keys.length-1];\n        keys[rowToDelete] = keyToMove;\n        _products[keyToMove].keysIdx = rowToDelete;\n        keys.pop();\n\t\tdelete _products[id];\n\n\t\t// emit ProductRemoved(_productCount, product.imgHash, product.name, product.description, product.price, product.merchant);\n\t}\n\t// Create Orders\n\tfunction createOrder(address user, address merchant, string memory name, uint quantity, uint amount) public {\n\t\trequire(_msgSender() == address(_rp));\n\t\tif (_orders[user][merchant].length == 0) {\n\t\t\t_orderParites[user].push(merchant);\n\t\t\t_orderParites[merchant].push(user);\n\t\t}\n\t\t_orders[user][merchant].push(Order(name, quantity, amount, false, block.timestamp));\n\t}\n\t// Finish Orders\n\tfunction finishOrder(address user, address merchant, uint idx) public {\n\t\trequire(_msgSender() == address(_rp));\n\t\tOrder[] storage orders = _orders[user][merchant];\n\t\trequire(idx < orders.length, \"Product: No such order\");\n\t\trequire(!orders[idx].isFinished, \"Product: The order is finished\");\n\t\torders[idx].isFinished = true;\n\t}\n\t// Get Merchant Keys\n\tfunction getMerchantKeys() public view onlyMerchant returns (uint[] memory) {\n\t\treturn _merchantKeys[_msgSender()];\n\t}\n\t// Get Orders\n\tfunction getOrders(address user, address merchant) public view returns (Order[] memory) {\n\t\trequire(_msgSender() == user || _msgSender() == merchant);\n\t\treturn _orders[user][merchant];\n\t}\n\t// Get Order Parties\n\tfunction getOrderParties() public view returns (address[] memory){\n\t\treturn _orderParites[_msgSender()];\n\t}\n}\n\ncontract PM_RPToken {\n    function _merchants(address) public view returns (bool) {}\n}",
  "sourcePath": "/Users/hc/Documents/Thesis/BCLP/src/contracts/ProductManager.sol",
  "compiler": {
    "name": "solc",
    "version": "0.8.12+commit.f00d7308.Emscripten.clang"
  },
  "schemaVersion": "3.4.3",
  "updatedAt": "2022-03-03T06:46:04.658Z",
  "devdoc": {
    "kind": "dev",
    "methods": {},
    "version": 1
  },
  "userdoc": {
    "kind": "user",
    "methods": {},
    "version": 1
  }
}