{
  "contractName": "PointsExchange",
  "abi": [
    {
      "inputs": [
        {
          "internalType": "address",
          "name": "RPTokenAddr",
          "type": "address"
        }
      ],
      "stateMutability": "nonpayable",
      "type": "constructor"
    },
    {
      "anonymous": false,
      "inputs": [
        {
          "indexed": false,
          "internalType": "address",
          "name": "bank",
          "type": "address"
        },
        {
          "indexed": false,
          "internalType": "string",
          "name": "rate",
          "type": "string"
        }
      ],
      "name": "ChangeExchangeRate",
      "type": "event"
    },
    {
      "inputs": [],
      "name": "proposalId",
      "outputs": [
        {
          "internalType": "uint256",
          "name": "",
          "type": "uint256"
        }
      ],
      "stateMutability": "view",
      "type": "function",
      "constant": true
    },
    {
      "inputs": [
        {
          "internalType": "address",
          "name": "",
          "type": "address"
        },
        {
          "internalType": "uint256",
          "name": "",
          "type": "uint256"
        }
      ],
      "name": "proposalIds",
      "outputs": [
        {
          "internalType": "uint256",
          "name": "",
          "type": "uint256"
        }
      ],
      "stateMutability": "view",
      "type": "function",
      "constant": true
    },
    {
      "inputs": [
        {
          "internalType": "uint256",
          "name": "",
          "type": "uint256"
        }
      ],
      "name": "proposals",
      "outputs": [
        {
          "internalType": "address",
          "name": "proposer",
          "type": "address"
        },
        {
          "internalType": "string",
          "name": "wantPoint",
          "type": "string"
        },
        {
          "internalType": "string",
          "name": "givePoint",
          "type": "string"
        },
        {
          "internalType": "uint256",
          "name": "wantAmount",
          "type": "uint256"
        },
        {
          "internalType": "uint256",
          "name": "giveAmount",
          "type": "uint256"
        }
      ],
      "stateMutability": "view",
      "type": "function",
      "constant": true
    },
    {
      "inputs": [
        {
          "internalType": "string",
          "name": "rate",
          "type": "string"
        }
      ],
      "name": "changeExchangeRate",
      "outputs": [],
      "stateMutability": "nonpayable",
      "type": "function"
    },
    {
      "inputs": [
        {
          "internalType": "string",
          "name": "wantPoint",
          "type": "string"
        },
        {
          "internalType": "string",
          "name": "givePoint",
          "type": "string"
        },
        {
          "internalType": "uint256",
          "name": "wantAmount",
          "type": "uint256"
        },
        {
          "internalType": "uint256",
          "name": "giveAmount",
          "type": "uint256"
        }
      ],
      "name": "propose",
      "outputs": [],
      "stateMutability": "nonpayable",
      "type": "function"
    },
    {
      "inputs": [
        {
          "internalType": "uint256",
          "name": "id",
          "type": "uint256"
        }
      ],
      "name": "accept",
      "outputs": [],
      "stateMutability": "nonpayable",
      "type": "function"
    }
  ],
  "bytecode": "0x6080604052600060025534801561001557600080fd5b506040516200105738038062001057833981810160405281019061003991906100e2565b806000806101000a81548173ffffffffffffffffffffffffffffffffffffffff021916908373ffffffffffffffffffffffffffffffffffffffff1602179055505061010f565b600080fd5b600073ffffffffffffffffffffffffffffffffffffffff82169050919050565b60006100af82610084565b9050919050565b6100bf816100a4565b81146100ca57600080fd5b50565b6000815190506100dc816100b6565b92915050565b6000602082840312156100f8576100f761007f565b5b6000610106848285016100cd565b91505092915050565b610f38806200011f6000396000f3fe608060405234801561001057600080fd5b50600436106100625760003560e01c8063013cf08b1461006757806319b05f491461009b57806325de0f75146100b75780632dfca445146100d35780639c3a49ba146100f1578063e1a3ca171461010d575b600080fd5b610081600480360381019061007c9190610860565b61013d565b604051610092959493929190610976565b60405180910390f35b6100b560048036038101906100b09190610860565b6102a3565b005b6100d160048036038101906100cc9190610b0c565b6103c0565b005b6100db61054d565b6040516100e89190610b55565b60405180910390f35b61010b60048036038101906101069190610b70565b610553565b005b61012760048036038101906101229190610c3b565b61073a565b6040516101349190610b55565b60405180910390f35b60036020528060005260406000206000915090508060000160009054906101000a900473ffffffffffffffffffffffffffffffffffffffff169080600101805461018690610caa565b80601f01602080910402602001604051908101604052809291908181526020018280546101b290610caa565b80156101ff5780601f106101d4576101008083540402835291602001916101ff565b820191906000526020600020905b8154815290600101906020018083116101e257829003601f168201915b50505050509080600201805461021490610caa565b80601f016020809104026020016040519081016040528092919081815260200182805461024090610caa565b801561028d5780601f106102625761010080835404028352916020019161028d565b820191906000526020600020905b81548152906001019060200180831161027057829003601f168201915b5050505050908060030154908060040154905085565b6000600460006003600085815260200190815260200160002060000160009054906101000a900473ffffffffffffffffffffffffffffffffffffffff1673ffffffffffffffffffffffffffffffffffffffff1673ffffffffffffffffffffffffffffffffffffffff1681526020019081526020016000209050806001828054905061032e9190610d0b565b8154811061033f5761033e610d3f565b5b9060005260206000200154816005600085815260200190815260200160002054815481106103705761036f610d3f565b5b90600052602060002001819055508080548061038f5761038e610d6e565b5b6001900381819060005260206000200160009055905560056000838152602001908152602001600020600090555050565b60008054906101000a900473ffffffffffffffffffffffffffffffffffffffff1673ffffffffffffffffffffffffffffffffffffffff166349d407c961040461076b565b6040518263ffffffff1660e01b81526004016104209190610d9d565b60206040518083038186803b15801561043857600080fd5b505afa15801561044c573d6000803e3d6000fd5b505050506040513d601f19601f820116820180604052508101906104709190610df0565b6104af576040517f08c379a00000000000000000000000000000000000000000000000000000000081526004016104a690610e69565b60405180910390fd5b80600160006104bc61076b565b73ffffffffffffffffffffffffffffffffffffffff1673ffffffffffffffffffffffffffffffffffffffff1681526020019081526020016000209080519060200190610509929190610773565b507fd0492565e1a9316ca7b5713fff1ef8364eb9eb5b1600297ed675e4d930743f2a61053361076b565b82604051610542929190610e89565b60405180910390a150565b60025481565b6040518060a0016040528061056661076b565b73ffffffffffffffffffffffffffffffffffffffff16815260200185815260200184815260200183815260200182815250600360006002600081546105aa90610eb9565b919050819055815260200190815260200160002060008201518160000160006101000a81548173ffffffffffffffffffffffffffffffffffffffff021916908373ffffffffffffffffffffffffffffffffffffffff1602179055506020820151816001019080519060200190610621929190610773565b50604082015181600201908051906020019061063e929190610773565b5060608201518160030155608082015181600401559050506004600061066261076b565b73ffffffffffffffffffffffffffffffffffffffff1673ffffffffffffffffffffffffffffffffffffffff16815260200190815260200160002060025490806001815401808255809150506001900390600052602060002001600090919091909150556001600460006106d361076b565b73ffffffffffffffffffffffffffffffffffffffff1673ffffffffffffffffffffffffffffffffffffffff1681526020019081526020016000208054905061071b9190610d0b565b6005600060025481526020019081526020016000208190555050505050565b6004602052816000526040600020818154811061075657600080fd5b90600052602060002001600091509150505481565b600033905090565b82805461077f90610caa565b90600052602060002090601f0160209004810192826107a157600085556107e8565b82601f106107ba57805160ff19168380011785556107e8565b828001600101855582156107e8579182015b828111156107e75782518255916020019190600101906107cc565b5b5090506107f591906107f9565b5090565b5b808211156108125760008160009055506001016107fa565b5090565b6000604051905090565b600080fd5b600080fd5b6000819050919050565b61083d8161082a565b811461084857600080fd5b50565b60008135905061085a81610834565b92915050565b60006020828403121561087657610875610820565b5b60006108848482850161084b565b91505092915050565b600073ffffffffffffffffffffffffffffffffffffffff82169050919050565b60006108b88261088d565b9050919050565b6108c8816108ad565b82525050565b600081519050919050565b600082825260208201905092915050565b60005b838110156109085780820151818401526020810190506108ed565b83811115610917576000848401525b50505050565b6000601f19601f8301169050919050565b6000610939826108ce565b61094381856108d9565b93506109538185602086016108ea565b61095c8161091d565b840191505092915050565b6109708161082a565b82525050565b600060a08201905061098b60008301886108bf565b818103602083015261099d818761092e565b905081810360408301526109b1818661092e565b90506109c06060830185610967565b6109cd6080830184610967565b9695505050505050565b600080fd5b600080fd5b7f4e487b7100000000000000000000000000000000000000000000000000000000600052604160045260246000fd5b610a198261091d565b810181811067ffffffffffffffff82111715610a3857610a376109e1565b5b80604052505050565b6000610a4b610816565b9050610a578282610a10565b919050565b600067ffffffffffffffff821115610a7757610a766109e1565b5b610a808261091d565b9050602081019050919050565b82818337600083830152505050565b6000610aaf610aaa84610a5c565b610a41565b905082815260208101848484011115610acb57610aca6109dc565b5b610ad6848285610a8d565b509392505050565b600082601f830112610af357610af26109d7565b5b8135610b03848260208601610a9c565b91505092915050565b600060208284031215610b2257610b21610820565b5b600082013567ffffffffffffffff811115610b4057610b3f610825565b5b610b4c84828501610ade565b91505092915050565b6000602082019050610b6a6000830184610967565b92915050565b60008060008060808587031215610b8a57610b89610820565b5b600085013567ffffffffffffffff811115610ba857610ba7610825565b5b610bb487828801610ade565b945050602085013567ffffffffffffffff811115610bd557610bd4610825565b5b610be187828801610ade565b9350506040610bf28782880161084b565b9250506060610c038782880161084b565b91505092959194509250565b610c18816108ad565b8114610c2357600080fd5b50565b600081359050610c3581610c0f565b92915050565b60008060408385031215610c5257610c51610820565b5b6000610c6085828601610c26565b9250506020610c718582860161084b565b9150509250929050565b7f4e487b7100000000000000000000000000000000000000000000000000000000600052602260045260246000fd5b60006002820490506001821680610cc257607f821691505b60208210811415610cd657610cd5610c7b565b5b50919050565b7f4e487b7100000000000000000000000000000000000000000000000000000000600052601160045260246000fd5b6000610d168261082a565b9150610d218361082a565b925082821015610d3457610d33610cdc565b5b828203905092915050565b7f4e487b7100000000000000000000000000000000000000000000000000000000600052603260045260246000fd5b7f4e487b7100000000000000000000000000000000000000000000000000000000600052603160045260246000fd5b6000602082019050610db260008301846108bf565b92915050565b60008115159050919050565b610dcd81610db8565b8114610dd857600080fd5b50565b600081519050610dea81610dc4565b92915050565b600060208284031215610e0657610e05610820565b5b6000610e1484828501610ddb565b91505092915050565b7f596f7520617265206e6f7420612062616e6b0000000000000000000000000000600082015250565b6000610e536012836108d9565b9150610e5e82610e1d565b602082019050919050565b60006020820190508181036000830152610e8281610e46565b9050919050565b6000604082019050610e9e60008301856108bf565b8181036020830152610eb0818461092e565b90509392505050565b6000610ec48261082a565b91507fffffffffffffffffffffffffffffffffffffffffffffffffffffffffffffffff821415610ef757610ef6610cdc565b5b60018201905091905056fea26469706673582212206fd36b75c47a6642607960ff67d579a06579f9ac8e2b098a0dfefd83ba9b6ece64736f6c63430008090033",
  "immutableReferences": {},
  "source": "// SPDX-License-Identifier: UNLICENSED\n\npragma solidity ^0.8.0;\n\nimport \"@openzeppelin/contracts/utils/Context.sol\";\n\ncontract PointsExchange is Context {\n    PE_RPToken private _rp;\n    mapping (address => string) _exchangeRates; // Existing points issuer's address => 100 \n                                               // means 100 xx points -> 1 RP \n\n    struct Proposal {\n        address proposer;\n        string wantPoint;\n        string givePoint;\n        uint256 wantAmount;\n        uint256 giveAmount;\n    }\n    uint256 public proposalId = 0;\n    mapping (uint256 => Proposal) public proposals;\n    mapping (address => uint256[]) public proposalIds;\n    mapping (uint256 => uint256) proposalIdToIndexes;\n    event ChangeExchangeRate(address bank, string rate);\n\n    modifier onlyBank() {\n        require(_rp._banks(_msgSender()), \"You are not a bank\");\n        _;\n    }\n\n    constructor(address RPTokenAddr) {\n        _rp = PE_RPToken(RPTokenAddr);\n    }\n\n    function changeExchangeRate(string memory rate) public onlyBank {\n        _exchangeRates[_msgSender()] = rate;\n        emit ChangeExchangeRate(_msgSender(), rate);\n    }\n\n    function propose(string memory wantPoint, string memory givePoint, uint256 wantAmount, uint256 giveAmount) public {\n        proposals[++proposalId] = Proposal(_msgSender(), wantPoint, givePoint, wantAmount, giveAmount);\n        proposalIds[_msgSender()].push(proposalId);\n        proposalIdToIndexes[proposalId] = proposalIds[_msgSender()].length-1;\n    }\n\n    function accept(uint256 id) public {\n        uint256[] storage proposerProposalIds = proposalIds[proposals[id].proposer];\n        proposerProposalIds[proposalIdToIndexes[id]] = proposerProposalIds[proposerProposalIds.length-1];\n        proposerProposalIds.pop();\n        delete proposalIdToIndexes[id];\n    }\n\n}\n\ncontract PE_RPToken {\n    function _banks(address) public view returns (bool) {}\n}\n",
  "sourcePath": "/Users/hc/Projects/BCOIP PRO/src/contracts/PointsExchange.sol",
  "compiler": {
    "name": "solc",
    "version": "0.8.9+commit.e5eed63a.Emscripten.clang"
  },
  "schemaVersion": "3.4.3",
  "updatedAt": "2021-11-08T06:02:37.744Z",
  "networkType": "ethereum",
  "devdoc": {
    "kind": "dev",
    "methods": {},
    "version": 1
  },
  "userdoc": {
    "kind": "user",
    "methods": {},
    "version": 1
  }
}