{
  "contractName": "PointsExchange",
  "abi": [
    {
      "inputs": [
        {
          "internalType": "address",
          "name": "RPTokenAddr",
          "type": "address"
        }
      ],
      "stateMutability": "nonpayable",
      "type": "constructor"
    },
    {
      "anonymous": false,
      "inputs": [
        {
          "indexed": true,
          "internalType": "address",
          "name": "bank",
          "type": "address"
        },
        {
          "indexed": true,
          "internalType": "address",
          "name": "user",
          "type": "address"
        },
        {
          "indexed": false,
          "internalType": "string",
          "name": "name",
          "type": "string"
        },
        {
          "indexed": false,
          "internalType": "uint256",
          "name": "oldAmount",
          "type": "uint256"
        },
        {
          "indexed": false,
          "internalType": "uint256",
          "name": "amount",
          "type": "uint256"
        }
      ],
      "name": "ExchangeOther",
      "type": "event"
    },
    {
      "anonymous": false,
      "inputs": [
        {
          "indexed": true,
          "internalType": "address",
          "name": "bank",
          "type": "address"
        },
        {
          "indexed": true,
          "internalType": "address",
          "name": "user",
          "type": "address"
        },
        {
          "indexed": false,
          "internalType": "string",
          "name": "name",
          "type": "string"
        },
        {
          "indexed": false,
          "internalType": "uint256",
          "name": "oldAmount",
          "type": "uint256"
        },
        {
          "indexed": false,
          "internalType": "uint256",
          "name": "amount",
          "type": "uint256"
        }
      ],
      "name": "ExchangeRP",
      "type": "event"
    },
    {
      "inputs": [],
      "name": "_owner",
      "outputs": [
        {
          "internalType": "address",
          "name": "",
          "type": "address"
        }
      ],
      "stateMutability": "view",
      "type": "function",
      "constant": true
    },
    {
      "inputs": [],
      "name": "_rateCount",
      "outputs": [
        {
          "internalType": "uint256",
          "name": "",
          "type": "uint256"
        }
      ],
      "stateMutability": "view",
      "type": "function",
      "constant": true
    },
    {
      "inputs": [
        {
          "internalType": "uint256",
          "name": "",
          "type": "uint256"
        }
      ],
      "name": "_rates",
      "outputs": [
        {
          "internalType": "uint256",
          "name": "id",
          "type": "uint256"
        },
        {
          "internalType": "string",
          "name": "imgHash",
          "type": "string"
        },
        {
          "internalType": "string",
          "name": "name",
          "type": "string"
        },
        {
          "internalType": "uint256",
          "name": "otherPoint",
          "type": "uint256"
        },
        {
          "internalType": "uint256",
          "name": "RP",
          "type": "uint256"
        },
        {
          "internalType": "address",
          "name": "bank",
          "type": "address"
        },
        {
          "internalType": "uint256",
          "name": "keysIdx",
          "type": "uint256"
        }
      ],
      "stateMutability": "view",
      "type": "function",
      "constant": true
    },
    {
      "inputs": [
        {
          "internalType": "string",
          "name": "imgHash",
          "type": "string"
        },
        {
          "internalType": "string",
          "name": "name",
          "type": "string"
        },
        {
          "internalType": "uint256",
          "name": "otherPoint",
          "type": "uint256"
        },
        {
          "internalType": "uint256",
          "name": "rp",
          "type": "uint256"
        }
      ],
      "name": "addRPRate",
      "outputs": [],
      "stateMutability": "nonpayable",
      "type": "function"
    },
    {
      "inputs": [
        {
          "internalType": "uint256",
          "name": "id",
          "type": "uint256"
        }
      ],
      "name": "removeRPRate",
      "outputs": [],
      "stateMutability": "nonpayable",
      "type": "function"
    },
    {
      "inputs": [
        {
          "internalType": "uint256",
          "name": "id",
          "type": "uint256"
        },
        {
          "internalType": "uint256",
          "name": "otherPoint",
          "type": "uint256"
        },
        {
          "internalType": "uint256",
          "name": "rp",
          "type": "uint256"
        }
      ],
      "name": "updateRPRate",
      "outputs": [],
      "stateMutability": "nonpayable",
      "type": "function"
    },
    {
      "inputs": [
        {
          "internalType": "address",
          "name": "bank",
          "type": "address"
        },
        {
          "internalType": "address",
          "name": "user",
          "type": "address"
        },
        {
          "internalType": "string",
          "name": "name",
          "type": "string"
        },
        {
          "internalType": "uint256",
          "name": "oldAmount",
          "type": "uint256"
        },
        {
          "internalType": "uint256",
          "name": "amount",
          "type": "uint256"
        }
      ],
      "name": "exchangeRP",
      "outputs": [],
      "stateMutability": "nonpayable",
      "type": "function"
    },
    {
      "inputs": [
        {
          "internalType": "address",
          "name": "bank",
          "type": "address"
        },
        {
          "internalType": "address",
          "name": "user",
          "type": "address"
        },
        {
          "internalType": "string",
          "name": "name",
          "type": "string"
        },
        {
          "internalType": "uint256",
          "name": "oldAmount",
          "type": "uint256"
        },
        {
          "internalType": "uint256",
          "name": "amount",
          "type": "uint256"
        }
      ],
      "name": "exchangeOther",
      "outputs": [],
      "stateMutability": "nonpayable",
      "type": "function"
    },
    {
      "inputs": [],
      "name": "getIssuerKeys",
      "outputs": [
        {
          "internalType": "uint256[]",
          "name": "",
          "type": "uint256[]"
        }
      ],
      "stateMutability": "view",
      "type": "function",
      "constant": true
    }
  ],
  "bytecode": "0x608060405260006002553480156200001657600080fd5b50604051620021583803806200215883398181016040528101906200003c919062000145565b6200004c620000d360201b60201c565b6000806101000a81548173ffffffffffffffffffffffffffffffffffffffff021916908373ffffffffffffffffffffffffffffffffffffffff16021790555080600160006101000a81548173ffffffffffffffffffffffffffffffffffffffff021916908373ffffffffffffffffffffffffffffffffffffffff1602179055505062000177565b600033905090565b600080fd5b600073ffffffffffffffffffffffffffffffffffffffff82169050919050565b60006200010d82620000e0565b9050919050565b6200011f8162000100565b81146200012b57600080fd5b50565b6000815190506200013f8162000114565b92915050565b6000602082840312156200015e576200015d620000db565b5b60006200016e848285016200012e565b91505092915050565b611fd180620001876000396000f3fe608060405234801561001057600080fd5b50600436106100935760003560e01c8063b2bdfa7b11610066578063b2bdfa7b1461010c578063b6f072121461012a578063c090cc9a14610146578063c497d9de14610162578063e29e22ed1461017e57610093565b806304425356146100985780630868f1a9146100b4578063361b1149146100d257806396ea5c5d146100f0575b600080fd5b6100b260048036038101906100ad919061140e565b6101b4565b005b6100bc6103c1565b6040516100c99190611470565b60405180910390f35b6100da6103c7565b6040516100e79190611549565b60405180910390f35b61010a6004803603810190610105919061170f565b610545565b005b6101146106eb565b60405161012191906117b5565b60405180910390f35b610144600480360381019061013f91906117d0565b61070f565b005b610160600480360381019061015b919061170f565b610aee565b005b61017c6004803603810190610177919061186f565b610c96565b005b6101986004803603810190610193919061186f565b611167565b6040516101ab9796959493929190611924565b60405180910390f35b600160009054906101000a900473ffffffffffffffffffffffffffffffffffffffff1673ffffffffffffffffffffffffffffffffffffffff166349d407c96101fa6112d9565b6040518263ffffffff1660e01b815260040161021691906117b5565b602060405180830381865afa158015610233573d6000803e3d6000fd5b505050506040513d601f19601f8201168201806040525081019061025791906119d9565b610296576040517f08c379a000000000000000000000000000000000000000000000000000000000815260040161028d90611a52565b60405180910390fd5b6002548311156102db576040517f08c379a00000000000000000000000000000000000000000000000000000000081526004016102d290611abe565b60405180910390fd5b6102e36112d9565b73ffffffffffffffffffffffffffffffffffffffff166003600085815260200190815260200160002060050160009054906101000a900473ffffffffffffffffffffffffffffffffffffffff1673ffffffffffffffffffffffffffffffffffffffff1614610386576040517f08c379a000000000000000000000000000000000000000000000000000000000815260040161037d90611b50565b60405180910390fd5b816003600085815260200190815260200160002060030181905550806003600085815260200190815260200160002060040181905550505050565b60025481565b6060600160009054906101000a900473ffffffffffffffffffffffffffffffffffffffff1673ffffffffffffffffffffffffffffffffffffffff166349d407c961040f6112d9565b6040518263ffffffff1660e01b815260040161042b91906117b5565b602060405180830381865afa158015610448573d6000803e3d6000fd5b505050506040513d601f19601f8201168201806040525081019061046c91906119d9565b6104ab576040517f08c379a00000000000000000000000000000000000000000000000000000000081526004016104a290611a52565b60405180910390fd5b600460006104b76112d9565b73ffffffffffffffffffffffffffffffffffffffff1673ffffffffffffffffffffffffffffffffffffffff16815260200190815260200160002080548060200260200160405190810160405280929190818152602001828054801561053b57602002820191906000526020600020905b815481526020019060010190808311610527575b5050505050905090565b60008054906101000a900473ffffffffffffffffffffffffffffffffffffffff1673ffffffffffffffffffffffffffffffffffffffff166105846112d9565b73ffffffffffffffffffffffffffffffffffffffff16146105da576040517f08c379a00000000000000000000000000000000000000000000000000000000081526004016105d190611bbc565b60405180910390fd5b600160009054906101000a900473ffffffffffffffffffffffffffffffffffffffff1673ffffffffffffffffffffffffffffffffffffffff1663a9059cbb85836040518363ffffffff1660e01b8152600401610637929190611bdc565b6020604051808303816000875af1158015610656573d6000803e3d6000fd5b505050506040513d601f19601f8201168201806040525081019061067a91906119d9565b508373ffffffffffffffffffffffffffffffffffffffff168573ffffffffffffffffffffffffffffffffffffffff167fb16c968e3510b8344e3525f4b73752ebf324e7830272aef63b7779e449f04a1d8585856040516106dc93929190611c05565b60405180910390a35050505050565b60008054906101000a900473ffffffffffffffffffffffffffffffffffffffff1681565b600160009054906101000a900473ffffffffffffffffffffffffffffffffffffffff1673ffffffffffffffffffffffffffffffffffffffff166349d407c96107556112d9565b6040518263ffffffff1660e01b815260040161077191906117b5565b602060405180830381865afa15801561078e573d6000803e3d6000fd5b505050506040513d601f19601f820116820180604052508101906107b291906119d9565b6107f1576040517f08c379a00000000000000000000000000000000000000000000000000000000081526004016107e890611a52565b60405180910390fd5b6000845111610835576040517f08c379a000000000000000000000000000000000000000000000000000000000815260040161082c90611cb5565b60405180910390fd5b6000835111610879576040517f08c379a000000000000000000000000000000000000000000000000000000000815260040161087090611d47565b60405180910390fd5b600082116108bc576040517f08c379a00000000000000000000000000000000000000000000000000000000081526004016108b390611dd9565b60405180910390fd5b600081116108ff576040517f08c379a00000000000000000000000000000000000000000000000000000000081526004016108f690611dd9565b60405180910390fd5b6004600061090b6112d9565b73ffffffffffffffffffffffffffffffffffffffff1673ffffffffffffffffffffffffffffffffffffffff16815260200190815260200160002060026000815461095490611e28565b91905081905590806001815401808255809150506001900390600052602060002001600090919091909150556040518060e0016040528060025481526020018581526020018481526020018381526020018281526020016109b36112d9565b73ffffffffffffffffffffffffffffffffffffffff1681526020016001600460006109dc6112d9565b73ffffffffffffffffffffffffffffffffffffffff1673ffffffffffffffffffffffffffffffffffffffff16815260200190815260200160002080549050610a249190611e71565b815250600360006002548152602001908152602001600020600082015181600001556020820151816001019080519060200190610a629291906112e1565b506040820151816002019080519060200190610a7f9291906112e1565b50606082015181600301556080820151816004015560a08201518160050160006101000a81548173ffffffffffffffffffffffffffffffffffffffff021916908373ffffffffffffffffffffffffffffffffffffffff16021790555060c0820151816006015590505050505050565b60008054906101000a900473ffffffffffffffffffffffffffffffffffffffff1673ffffffffffffffffffffffffffffffffffffffff16610b2d6112d9565b73ffffffffffffffffffffffffffffffffffffffff1614610b83576040517f08c379a0000000000000000000000000000000000000000000000000000000008152600401610b7a90611bbc565b60405180910390fd5b600160009054906101000a900473ffffffffffffffffffffffffffffffffffffffff1673ffffffffffffffffffffffffffffffffffffffff16633fae1eab8686856040518463ffffffff1660e01b8152600401610be293929190611ea5565b6020604051808303816000875af1158015610c01573d6000803e3d6000fd5b505050506040513d601f19601f82011682018060405250810190610c2591906119d9565b508373ffffffffffffffffffffffffffffffffffffffff168573ffffffffffffffffffffffffffffffffffffffff167f7a71765d31d64bbac7de2a4340f4110bb77ac888b1ba8e245f85440195a740f4858585604051610c8793929190611c05565b60405180910390a35050505050565b600160009054906101000a900473ffffffffffffffffffffffffffffffffffffffff1673ffffffffffffffffffffffffffffffffffffffff166349d407c9610cdc6112d9565b6040518263ffffffff1660e01b8152600401610cf891906117b5565b602060405180830381865afa158015610d15573d6000803e3d6000fd5b505050506040513d601f19601f82011682018060405250810190610d3991906119d9565b610d78576040517f08c379a0000000000000000000000000000000000000000000000000000000008152600401610d6f90611a52565b60405180910390fd5b600254811115610dbd576040517f08c379a0000000000000000000000000000000000000000000000000000000008152600401610db490611abe565b60405180910390fd5b6000600360008381526020019081526020016000206040518060e001604052908160008201548152602001600182018054610df790611f0b565b80601f0160208091040260200160405190810160405280929190818152602001828054610e2390611f0b565b8015610e705780601f10610e4557610100808354040283529160200191610e70565b820191906000526020600020905b815481529060010190602001808311610e5357829003601f168201915b50505050508152602001600282018054610e8990611f0b565b80601f0160208091040260200160405190810160405280929190818152602001828054610eb590611f0b565b8015610f025780601f10610ed757610100808354040283529160200191610f02565b820191906000526020600020905b815481529060010190602001808311610ee557829003601f168201915b5050505050815260200160038201548152602001600482015481526020016005820160009054906101000a900473ffffffffffffffffffffffffffffffffffffffff1673ffffffffffffffffffffffffffffffffffffffff1673ffffffffffffffffffffffffffffffffffffffff1681526020016006820154815250509050610f896112d9565b73ffffffffffffffffffffffffffffffffffffffff168160a0015173ffffffffffffffffffffffffffffffffffffffff1614610ffa576040517f08c379a0000000000000000000000000000000000000000000000000000000008152600401610ff190611b50565b60405180910390fd5b6000600460006110086112d9565b73ffffffffffffffffffffffffffffffffffffffff1673ffffffffffffffffffffffffffffffffffffffff168152602001908152602001600020905060008260c001519050600082600184805490506110619190611e71565b8154811061107257611071611f3d565b5b906000526020600020015490508083838154811061109357611092611f3d565b5b9060005260206000200181905550816003600083815260200190815260200160002060060181905550828054806110cd576110cc611f6c565b5b600190038181906000526020600020016000905590556003600086815260200190815260200160002060008082016000905560018201600061110f9190611367565b60028201600061111f9190611367565b600382016000905560048201600090556005820160006101000a81549073ffffffffffffffffffffffffffffffffffffffff0219169055600682016000905550505050505050565b600360205280600052604060002060009150905080600001549080600101805461119090611f0b565b80601f01602080910402602001604051908101604052809291908181526020018280546111bc90611f0b565b80156112095780601f106111de57610100808354040283529160200191611209565b820191906000526020600020905b8154815290600101906020018083116111ec57829003601f168201915b50505050509080600201805461121e90611f0b565b80601f016020809104026020016040519081016040528092919081815260200182805461124a90611f0b565b80156112975780601f1061126c57610100808354040283529160200191611297565b820191906000526020600020905b81548152906001019060200180831161127a57829003601f168201915b5050505050908060030154908060040154908060050160009054906101000a900473ffffffffffffffffffffffffffffffffffffffff16908060060154905087565b600033905090565b8280546112ed90611f0b565b90600052602060002090601f01602090048101928261130f5760008555611356565b82601f1061132857805160ff1916838001178555611356565b82800160010185558215611356579182015b8281111561135557825182559160200191906001019061133a565b5b50905061136391906113a7565b5090565b50805461137390611f0b565b6000825580601f1061138557506113a4565b601f0160209004906000526020600020908101906113a391906113a7565b5b50565b5b808211156113c05760008160009055506001016113a8565b5090565b6000604051905090565b600080fd5b600080fd5b6000819050919050565b6113eb816113d8565b81146113f657600080fd5b50565b600081359050611408816113e2565b92915050565b600080600060608486031215611427576114266113ce565b5b6000611435868287016113f9565b9350506020611446868287016113f9565b9250506040611457868287016113f9565b9150509250925092565b61146a816113d8565b82525050565b60006020820190506114856000830184611461565b92915050565b600081519050919050565b600082825260208201905092915050565b6000819050602082019050919050565b6114c0816113d8565b82525050565b60006114d283836114b7565b60208301905092915050565b6000602082019050919050565b60006114f68261148b565b6115008185611496565b935061150b836114a7565b8060005b8381101561153c57815161152388826114c6565b975061152e836114de565b92505060018101905061150f565b5085935050505092915050565b6000602082019050818103600083015261156381846114eb565b905092915050565b600073ffffffffffffffffffffffffffffffffffffffff82169050919050565b60006115968261156b565b9050919050565b6115a68161158b565b81146115b157600080fd5b50565b6000813590506115c38161159d565b92915050565b600080fd5b600080fd5b6000601f19601f8301169050919050565b7f4e487b7100000000000000000000000000000000000000000000000000000000600052604160045260246000fd5b61161c826115d3565b810181811067ffffffffffffffff8211171561163b5761163a6115e4565b5b80604052505050565b600061164e6113c4565b905061165a8282611613565b919050565b600067ffffffffffffffff82111561167a576116796115e4565b5b611683826115d3565b9050602081019050919050565b82818337600083830152505050565b60006116b26116ad8461165f565b611644565b9050828152602081018484840111156116ce576116cd6115ce565b5b6116d9848285611690565b509392505050565b600082601f8301126116f6576116f56115c9565b5b813561170684826020860161169f565b91505092915050565b600080600080600060a0868803121561172b5761172a6113ce565b5b6000611739888289016115b4565b955050602061174a888289016115b4565b945050604086013567ffffffffffffffff81111561176b5761176a6113d3565b5b611777888289016116e1565b9350506060611788888289016113f9565b9250506080611799888289016113f9565b9150509295509295909350565b6117af8161158b565b82525050565b60006020820190506117ca60008301846117a6565b92915050565b600080600080608085870312156117ea576117e96113ce565b5b600085013567ffffffffffffffff811115611808576118076113d3565b5b611814878288016116e1565b945050602085013567ffffffffffffffff811115611835576118346113d3565b5b611841878288016116e1565b9350506040611852878288016113f9565b9250506060611863878288016113f9565b91505092959194509250565b600060208284031215611885576118846113ce565b5b6000611893848285016113f9565b91505092915050565b600081519050919050565b600082825260208201905092915050565b60005b838110156118d65780820151818401526020810190506118bb565b838111156118e5576000848401525b50505050565b60006118f68261189c565b61190081856118a7565b93506119108185602086016118b8565b611919816115d3565b840191505092915050565b600060e082019050611939600083018a611461565b818103602083015261194b81896118eb565b9050818103604083015261195f81886118eb565b905061196e6060830187611461565b61197b6080830186611461565b61198860a08301856117a6565b61199560c0830184611461565b98975050505050505050565b60008115159050919050565b6119b6816119a1565b81146119c157600080fd5b50565b6000815190506119d3816119ad565b92915050565b6000602082840312156119ef576119ee6113ce565b5b60006119fd848285016119c4565b91505092915050565b7f596f7520617265206e6f7420612062616e6b0000000000000000000000000000600082015250565b6000611a3c6012836118a7565b9150611a4782611a06565b602082019050919050565b60006020820190508181036000830152611a6b81611a2f565b9050919050565b7f506f696e747345786368616e67653a204e6f2073756368207261746500000000600082015250565b6000611aa8601c836118a7565b9150611ab382611a72565b602082019050919050565b60006020820190508181036000830152611ad781611a9b565b9050919050565b7f506f696e747345786368616e67653a20596f752063616e6e6f742072656d6f7660008201527f65206f746865722062616e6b7327207261746500000000000000000000000000602082015250565b6000611b3a6033836118a7565b9150611b4582611ade565b604082019050919050565b60006020820190508181036000830152611b6981611b2d565b9050919050565b7f596f7520617265206e6f74206120636f6e7472616374206f776e657200000000600082015250565b6000611ba6601c836118a7565b9150611bb182611b70565b602082019050919050565b60006020820190508181036000830152611bd581611b99565b9050919050565b6000604082019050611bf160008301856117a6565b611bfe6020830184611461565b9392505050565b60006060820190508181036000830152611c1f81866118eb565b9050611c2e6020830185611461565b611c3b6040830184611461565b949350505050565b7f506f696e747345786368616e67653a20506f696e747320696d6167652068617360008201527f682063616e6e6f7420626520656d707479000000000000000000000000000000602082015250565b6000611c9f6031836118a7565b9150611caa82611c43565b604082019050919050565b60006020820190508181036000830152611cce81611c92565b9050919050565b7f506f696e747345786368616e67653a20506f696e7473206e616d652063616e6e60008201527f6f7420626520656d707479000000000000000000000000000000000000000000602082015250565b6000611d31602b836118a7565b9150611d3c82611cd5565b604082019050919050565b60006020820190508181036000830152611d6081611d24565b9050919050565b7f506f696e747345786368616e67653a20506f696e74732065786368616e67652060008201527f726174652063616e6e6f7420626520656d707479000000000000000000000000602082015250565b6000611dc36034836118a7565b9150611dce82611d67565b604082019050919050565b60006020820190508181036000830152611df281611db6565b9050919050565b7f4e487b7100000000000000000000000000000000000000000000000000000000600052601160045260246000fd5b6000611e33826113d8565b91507fffffffffffffffffffffffffffffffffffffffffffffffffffffffffffffffff821415611e6657611e65611df9565b5b600182019050919050565b6000611e7c826113d8565b9150611e87836113d8565b925082821015611e9a57611e99611df9565b5b828203905092915050565b6000606082019050611eba60008301866117a6565b611ec760208301856117a6565b611ed46040830184611461565b949350505050565b7f4e487b7100000000000000000000000000000000000000000000000000000000600052602260045260246000fd5b60006002820490506001821680611f2357607f821691505b60208210811415611f3757611f36611edc565b5b50919050565b7f4e487b7100000000000000000000000000000000000000000000000000000000600052603260045260246000fd5b7f4e487b7100000000000000000000000000000000000000000000000000000000600052603160045260246000fdfea2646970667358221220426e2f925824396575d0c9db6b1604205324a0c87dac01eb41d88e45b7cb50d264736f6c634300080b0033",
  "immutableReferences": {},
  "source": "// SPDX-License-Identifier: UNLICENSED\n\npragma solidity ^0.8.0;\n\nimport \"@openzeppelin/contracts/utils/Context.sol\";\n\ncontract PointsExchange is Context {\n    address public _owner;\n    PE_RPToken private _rp;\n\n    uint public _rateCount = 0;\n\tmapping(uint => Rate) public _rates;\n\tmapping (address => uint[]) private _issuerKeys;\n\n    struct Rate {\n        uint id;\n        string imgHash;\n        string name;\n        uint otherPoint;\n        uint RP;\n        address bank;\n        uint keysIdx;\n    }\n    /* struct Proposal {\n        address proposer;\n        string wantPoint;\n        string givePoint;\n        uint256 wantAmount;\n        uint256 giveAmount;\n    }\n    uint256 public proposalId = 0;\n    mapping(uint256 => Proposal) public proposals;\n    mapping(address => uint256[]) public proposalIds;\n    mapping(uint256 => uint256) proposalIdToIndexes; */\n    // event UpdateRPRate(address indexed bank, uint oldAsset, uint newAsset);\n    event ExchangeRP(address indexed bank, address indexed user, string name, uint oldAmount, uint amount);\n    event ExchangeOther(address indexed bank, address indexed user, string name, uint oldAmount, uint amount);\n\n    modifier onlyOwner() {\n        require(_msgSender() == _owner, \"You are not a contract owner\");\n        _;\n    }\n\n    modifier onlyBank() {\n        require(_rp._banks(_msgSender()), \"You are not a bank\");\n        _;\n    }\n\n    constructor(address RPTokenAddr) {\n        _owner = _msgSender();\n        _rp = PE_RPToken(RPTokenAddr);\n    }\n\n    function addRPRate(string memory imgHash, string memory name, uint otherPoint, uint rp) public onlyBank {\n        // require(bytes(_rpRates[_msgSender()].name).length == 0, \"PointsExchange: You can only add points exchange rate for RP once\");\n        require(bytes(imgHash).length > 0, \"PointsExchange: Points image hash cannot be empty\");\n        require(bytes(name).length > 0, \"PointsExchange: Points name cannot be empty\");\n\t\trequire(otherPoint > 0, \"PointsExchange: Points exchange rate cannot be empty\");\n        require(rp > 0, \"PointsExchange: Points exchange rate cannot be empty\");\n        _issuerKeys[_msgSender()].push(++_rateCount);\n\t\t_rates[_rateCount] = Rate(_rateCount, imgHash, name, otherPoint, rp, _msgSender(), _issuerKeys[_msgSender()].length - 1);\n    }\n\n    function removeRPRate(uint id) public onlyBank {\n        require(id <= _rateCount, \"PointsExchange: No such rate\");\n\t\tRate memory rate = _rates[id];\n\t\trequire(rate.bank == _msgSender(), \"PointsExchange: You cannot remove other banks' rate\");\n\t\tuint[] storage keys = _issuerKeys[_msgSender()];\n        uint rowToDelete = rate.keysIdx;\n        uint keyToMove = keys[keys.length-1];\n        keys[rowToDelete] = keyToMove;\n        _rates[keyToMove].keysIdx = rowToDelete;\n        keys.pop();\n\t\tdelete _rates[id];\n    }\n\n    function updateRPRate(uint id, uint otherPoint, uint rp) public onlyBank {\n        require(id <= _rateCount, \"PointsExchange: No such rate\");\n\t\trequire(_rates[id].bank == _msgSender(), \"PointsExchange: You cannot remove other banks' rate\");\n        _rates[id].otherPoint = otherPoint;\n        _rates[id].RP = rp;\n\n        // emit UpdateRPRate(_msgSender(), otherPoint, rp);\n    }\n\n    function exchangeRP(address bank, address user, string memory name, uint oldAmount, uint amount) public onlyOwner {\n        _rp.transfer(user, amount);\n        emit ExchangeRP(bank, user, name, oldAmount, amount);\n    }\n\n    function exchangeOther(address bank, address user, string memory name, uint oldAmount, uint amount) public onlyOwner {\n        _rp.recycle(bank, user, oldAmount);\n        emit ExchangeOther(bank, user, name, oldAmount, amount);\n    }\n\n    // Get Issuer Keys\n\tfunction getIssuerKeys() public view onlyBank returns (uint[] memory) {\n\t\treturn _issuerKeys[_msgSender()];\n\t}\n\n    /* function propose(\n        string memory wantPoint,\n        string memory givePoint,\n        uint256 wantAmount,\n        uint256 giveAmount\n    ) public {\n        proposals[++proposalId] = Proposal(\n            _msgSender(),\n            wantPoint,\n            givePoint,\n            wantAmount,\n            giveAmount\n        );\n        proposalIds[_msgSender()].push(proposalId);\n        proposalIdToIndexes[proposalId] = proposalIds[_msgSender()].length - 1;\n    }\n\n    function accept(uint256 id) public {\n        uint256[] storage proposerProposalIds = proposalIds[\n            proposals[id].proposer\n        ];\n        proposerProposalIds[proposalIdToIndexes[id]] = proposerProposalIds[\n            proposerProposalIds.length - 1\n        ];\n        proposerProposalIds.pop();\n        delete proposalIdToIndexes[id];\n    } */\n}\n\ncontract PE_RPToken {\n    function _banks(address) public view returns (bool) {}\n    function transfer(address recipient, uint256 amount) public virtual returns (bool) {}\n    function recycle(address bank, address user, uint256 amount) public returns (bool) {}\n}\n",
  "sourcePath": "/Users/hc/Documents/Thesis/BCOIP PRO/src/contracts/PointsExchange.sol",
  "compiler": {
    "name": "solc",
    "version": "0.8.11+commit.d7f03943.Emscripten.clang"
  },
  "schemaVersion": "3.4.3",
  "updatedAt": "2022-02-13T03:17:38.373Z",
  "networkType": "ethereum",
  "devdoc": {
    "kind": "dev",
    "methods": {},
    "version": 1
  },
  "userdoc": {
    "kind": "user",
    "methods": {},
    "version": 1
  }
}