{
  "contractName": "PointsExchange",
  "abi": [
    {
      "inputs": [
        {
          "internalType": "address",
          "name": "RPTokenAddr",
          "type": "address"
        }
      ],
      "stateMutability": "nonpayable",
      "type": "constructor"
    },
    {
      "anonymous": false,
      "inputs": [
        {
          "indexed": false,
          "internalType": "address",
          "name": "bank",
          "type": "address"
        },
        {
          "indexed": false,
          "internalType": "string",
          "name": "rate",
          "type": "string"
        }
      ],
      "name": "ChangeExchangeRate",
      "type": "event"
    },
    {
      "inputs": [],
      "name": "proposalId",
      "outputs": [
        {
          "internalType": "uint256",
          "name": "",
          "type": "uint256"
        }
      ],
      "stateMutability": "view",
      "type": "function",
      "constant": true
    },
    {
      "inputs": [
        {
          "internalType": "address",
          "name": "",
          "type": "address"
        },
        {
          "internalType": "uint256",
          "name": "",
          "type": "uint256"
        }
      ],
      "name": "proposalIds",
      "outputs": [
        {
          "internalType": "uint256",
          "name": "",
          "type": "uint256"
        }
      ],
      "stateMutability": "view",
      "type": "function",
      "constant": true
    },
    {
      "inputs": [
        {
          "internalType": "uint256",
          "name": "",
          "type": "uint256"
        }
      ],
      "name": "proposals",
      "outputs": [
        {
          "internalType": "address",
          "name": "proposer",
          "type": "address"
        },
        {
          "internalType": "string",
          "name": "wantPoint",
          "type": "string"
        },
        {
          "internalType": "string",
          "name": "givePoint",
          "type": "string"
        },
        {
          "internalType": "uint256",
          "name": "wantAmount",
          "type": "uint256"
        },
        {
          "internalType": "uint256",
          "name": "giveAmount",
          "type": "uint256"
        }
      ],
      "stateMutability": "view",
      "type": "function",
      "constant": true
    },
    {
      "inputs": [
        {
          "internalType": "string",
          "name": "rate",
          "type": "string"
        }
      ],
      "name": "changeExchangeRate",
      "outputs": [],
      "stateMutability": "nonpayable",
      "type": "function"
    },
    {
      "inputs": [
        {
          "internalType": "string",
          "name": "wantPoint",
          "type": "string"
        },
        {
          "internalType": "string",
          "name": "givePoint",
          "type": "string"
        },
        {
          "internalType": "uint256",
          "name": "wantAmount",
          "type": "uint256"
        },
        {
          "internalType": "uint256",
          "name": "giveAmount",
          "type": "uint256"
        }
      ],
      "name": "propose",
      "outputs": [],
      "stateMutability": "nonpayable",
      "type": "function"
    },
    {
      "inputs": [
        {
          "internalType": "uint256",
          "name": "id",
          "type": "uint256"
        }
      ],
      "name": "accept",
      "outputs": [],
      "stateMutability": "nonpayable",
      "type": "function"
    }
  ],
  "bytecode": "0x6080604052600060035534801561001557600080fd5b506040516200104838038062001048833981810160405281019061003991906100e2565b806000806101000a81548173ffffffffffffffffffffffffffffffffffffffff021916908373ffffffffffffffffffffffffffffffffffffffff1602179055505061010f565b600080fd5b600073ffffffffffffffffffffffffffffffffffffffff82169050919050565b60006100af82610084565b9050919050565b6100bf816100a4565b81146100ca57600080fd5b50565b6000815190506100dc816100b6565b92915050565b6000602082840312156100f8576100f761007f565b5b6000610106848285016100cd565b91505092915050565b610f29806200011f6000396000f3fe608060405234801561001057600080fd5b50600436106100625760003560e01c8063013cf08b1461006757806319b05f491461009b57806325de0f75146100b75780632dfca445146100d35780639c3a49ba146100f1578063e1a3ca171461010d575b600080fd5b610081600480360381019061007c9190610851565b61013d565b604051610092959493929190610967565b60405180910390f35b6100b560048036038101906100b09190610851565b6102a3565b005b6100d160048036038101906100cc9190610afd565b6103c0565b005b6100db61053e565b6040516100e89190610b46565b60405180910390f35b61010b60048036038101906101069190610b61565b610544565b005b61012760048036038101906101229190610c2c565b61072b565b6040516101349190610b46565b60405180910390f35b60046020528060005260406000206000915090508060000160009054906101000a900473ffffffffffffffffffffffffffffffffffffffff169080600101805461018690610c9b565b80601f01602080910402602001604051908101604052809291908181526020018280546101b290610c9b565b80156101ff5780601f106101d4576101008083540402835291602001916101ff565b820191906000526020600020905b8154815290600101906020018083116101e257829003601f168201915b50505050509080600201805461021490610c9b565b80601f016020809104026020016040519081016040528092919081815260200182805461024090610c9b565b801561028d5780601f106102625761010080835404028352916020019161028d565b820191906000526020600020905b81548152906001019060200180831161027057829003601f168201915b5050505050908060030154908060040154905085565b6000600560006004600085815260200190815260200160002060000160009054906101000a900473ffffffffffffffffffffffffffffffffffffffff1673ffffffffffffffffffffffffffffffffffffffff1673ffffffffffffffffffffffffffffffffffffffff1681526020019081526020016000209050806001828054905061032e9190610cfc565b8154811061033f5761033e610d30565b5b9060005260206000200154816006600085815260200190815260200160002054815481106103705761036f610d30565b5b90600052602060002001819055508080548061038f5761038e610d5f565b5b6001900381819060005260206000200160009055905560066000838152602001908152602001600020600090555050565b60008054906101000a900473ffffffffffffffffffffffffffffffffffffffff1673ffffffffffffffffffffffffffffffffffffffff166349d407c961040461075c565b6040518263ffffffff1660e01b81526004016104209190610d8e565b602060405180830381865afa15801561043d573d6000803e3d6000fd5b505050506040513d601f19601f820116820180604052508101906104619190610de1565b6104a0576040517f08c379a000000000000000000000000000000000000000000000000000000000815260040161049790610e5a565b60405180910390fd5b80600160006104ad61075c565b73ffffffffffffffffffffffffffffffffffffffff1673ffffffffffffffffffffffffffffffffffffffff16815260200190815260200160002090805190602001906104fa929190610764565b507fd0492565e1a9316ca7b5713fff1ef8364eb9eb5b1600297ed675e4d930743f2a61052461075c565b82604051610533929190610e7a565b60405180910390a150565b60035481565b6040518060a0016040528061055761075c565b73ffffffffffffffffffffffffffffffffffffffff168152602001858152602001848152602001838152602001828152506004600060036000815461059b90610eaa565b919050819055815260200190815260200160002060008201518160000160006101000a81548173ffffffffffffffffffffffffffffffffffffffff021916908373ffffffffffffffffffffffffffffffffffffffff1602179055506020820151816001019080519060200190610612929190610764565b50604082015181600201908051906020019061062f929190610764565b5060608201518160030155608082015181600401559050506005600061065361075c565b73ffffffffffffffffffffffffffffffffffffffff1673ffffffffffffffffffffffffffffffffffffffff16815260200190815260200160002060035490806001815401808255809150506001900390600052602060002001600090919091909150556001600560006106c461075c565b73ffffffffffffffffffffffffffffffffffffffff1673ffffffffffffffffffffffffffffffffffffffff1681526020019081526020016000208054905061070c9190610cfc565b6006600060035481526020019081526020016000208190555050505050565b6005602052816000526040600020818154811061074757600080fd5b90600052602060002001600091509150505481565b600033905090565b82805461077090610c9b565b90600052602060002090601f01602090048101928261079257600085556107d9565b82601f106107ab57805160ff19168380011785556107d9565b828001600101855582156107d9579182015b828111156107d85782518255916020019190600101906107bd565b5b5090506107e691906107ea565b5090565b5b808211156108035760008160009055506001016107eb565b5090565b6000604051905090565b600080fd5b600080fd5b6000819050919050565b61082e8161081b565b811461083957600080fd5b50565b60008135905061084b81610825565b92915050565b60006020828403121561086757610866610811565b5b60006108758482850161083c565b91505092915050565b600073ffffffffffffffffffffffffffffffffffffffff82169050919050565b60006108a98261087e565b9050919050565b6108b98161089e565b82525050565b600081519050919050565b600082825260208201905092915050565b60005b838110156108f95780820151818401526020810190506108de565b83811115610908576000848401525b50505050565b6000601f19601f8301169050919050565b600061092a826108bf565b61093481856108ca565b93506109448185602086016108db565b61094d8161090e565b840191505092915050565b6109618161081b565b82525050565b600060a08201905061097c60008301886108b0565b818103602083015261098e818761091f565b905081810360408301526109a2818661091f565b90506109b16060830185610958565b6109be6080830184610958565b9695505050505050565b600080fd5b600080fd5b7f4e487b7100000000000000000000000000000000000000000000000000000000600052604160045260246000fd5b610a0a8261090e565b810181811067ffffffffffffffff82111715610a2957610a286109d2565b5b80604052505050565b6000610a3c610807565b9050610a488282610a01565b919050565b600067ffffffffffffffff821115610a6857610a676109d2565b5b610a718261090e565b9050602081019050919050565b82818337600083830152505050565b6000610aa0610a9b84610a4d565b610a32565b905082815260208101848484011115610abc57610abb6109cd565b5b610ac7848285610a7e565b509392505050565b600082601f830112610ae457610ae36109c8565b5b8135610af4848260208601610a8d565b91505092915050565b600060208284031215610b1357610b12610811565b5b600082013567ffffffffffffffff811115610b3157610b30610816565b5b610b3d84828501610acf565b91505092915050565b6000602082019050610b5b6000830184610958565b92915050565b60008060008060808587031215610b7b57610b7a610811565b5b600085013567ffffffffffffffff811115610b9957610b98610816565b5b610ba587828801610acf565b945050602085013567ffffffffffffffff811115610bc657610bc5610816565b5b610bd287828801610acf565b9350506040610be38782880161083c565b9250506060610bf48782880161083c565b91505092959194509250565b610c098161089e565b8114610c1457600080fd5b50565b600081359050610c2681610c00565b92915050565b60008060408385031215610c4357610c42610811565b5b6000610c5185828601610c17565b9250506020610c628582860161083c565b9150509250929050565b7f4e487b7100000000000000000000000000000000000000000000000000000000600052602260045260246000fd5b60006002820490506001821680610cb357607f821691505b60208210811415610cc757610cc6610c6c565b5b50919050565b7f4e487b7100000000000000000000000000000000000000000000000000000000600052601160045260246000fd5b6000610d078261081b565b9150610d128361081b565b925082821015610d2557610d24610ccd565b5b828203905092915050565b7f4e487b7100000000000000000000000000000000000000000000000000000000600052603260045260246000fd5b7f4e487b7100000000000000000000000000000000000000000000000000000000600052603160045260246000fd5b6000602082019050610da360008301846108b0565b92915050565b60008115159050919050565b610dbe81610da9565b8114610dc957600080fd5b50565b600081519050610ddb81610db5565b92915050565b600060208284031215610df757610df6610811565b5b6000610e0584828501610dcc565b91505092915050565b7f596f7520617265206e6f7420612062616e6b0000000000000000000000000000600082015250565b6000610e446012836108ca565b9150610e4f82610e0e565b602082019050919050565b60006020820190508181036000830152610e7381610e37565b9050919050565b6000604082019050610e8f60008301856108b0565b8181036020830152610ea1818461091f565b90509392505050565b6000610eb58261081b565b91507fffffffffffffffffffffffffffffffffffffffffffffffffffffffffffffffff821415610ee857610ee7610ccd565b5b60018201905091905056fea2646970667358221220cc4d18feb76a9612a0ee12c272a70bb6d95f1992ba9d53a52d43caf3cc56c27764736f6c634300080b0033",
  "immutableReferences": {},
  "source": "// SPDX-License-Identifier: UNLICENSED\n\npragma solidity ^0.8.0;\n\nimport \"@openzeppelin/contracts/utils/Context.sol\";\n\ncontract PointsExchange is Context {\n    PE_RPToken private _rp;\n\n    // Existing points issuer's address => 100\n    // means 100 xx points -> 1 RP\n    mapping(address => string) _other2rp; \n    // Existing points issuer's address => 100\n    // means 1 RP -> 100 xx points\n    mapping(address => string) _rp2other; \n\n    struct Proposal {\n        address proposer;\n        string wantPoint;\n        string givePoint;\n        uint256 wantAmount;\n        uint256 giveAmount;\n    }\n    uint256 public proposalId = 0;\n    mapping(uint256 => Proposal) public proposals;\n    mapping(address => uint256[]) public proposalIds;\n    mapping(uint256 => uint256) proposalIdToIndexes;\n    event ChangeExchangeRate(address bank, string rate);\n\n    modifier onlyBank() {\n        require(_rp._banks(_msgSender()), \"You are not a bank\");\n        _;\n    }\n\n    constructor(address RPTokenAddr) {\n        _rp = PE_RPToken(RPTokenAddr);\n    }\n\n    function changeExchangeRate(string memory rate) public onlyBank {\n        _other2rp[_msgSender()] = rate;\n        emit ChangeExchangeRate(_msgSender(), rate);\n    }\n\n    function propose(\n        string memory wantPoint,\n        string memory givePoint,\n        uint256 wantAmount,\n        uint256 giveAmount\n    ) public {\n        proposals[++proposalId] = Proposal(\n            _msgSender(),\n            wantPoint,\n            givePoint,\n            wantAmount,\n            giveAmount\n        );\n        proposalIds[_msgSender()].push(proposalId);\n        proposalIdToIndexes[proposalId] = proposalIds[_msgSender()].length - 1;\n    }\n\n    function accept(uint256 id) public {\n        uint256[] storage proposerProposalIds = proposalIds[\n            proposals[id].proposer\n        ];\n        proposerProposalIds[proposalIdToIndexes[id]] = proposerProposalIds[\n            proposerProposalIds.length - 1\n        ];\n        proposerProposalIds.pop();\n        delete proposalIdToIndexes[id];\n    }\n}\n\ncontract PE_RPToken {\n    function _banks(address) public view returns (bool) {}\n}\n",
  "sourcePath": "/Users/hc/Projects/BCOIP PRO/src/contracts/PointsExchange.sol",
  "compiler": {
    "name": "solc",
    "version": "0.8.11+commit.d7f03943.Emscripten.clang"
  },
  "schemaVersion": "3.4.3",
  "updatedAt": "2021-12-30T14:30:35.397Z",
  "networkType": "ethereum",
  "devdoc": {
    "kind": "dev",
    "methods": {},
    "version": 1
  },
  "userdoc": {
    "kind": "user",
    "methods": {},
    "version": 1
  }
}