{
  "contractName": "PointsExchange",
  "abi": [
    {
      "inputs": [
        {
          "internalType": "address",
          "name": "RPTokenAddr",
          "type": "address"
        }
      ],
      "stateMutability": "nonpayable",
      "type": "constructor"
    },
    {
      "anonymous": false,
      "inputs": [
        {
          "indexed": true,
          "internalType": "address",
          "name": "issuer",
          "type": "address"
        },
        {
          "indexed": true,
          "internalType": "address",
          "name": "user",
          "type": "address"
        },
        {
          "indexed": false,
          "internalType": "string",
          "name": "name",
          "type": "string"
        },
        {
          "indexed": false,
          "internalType": "uint256",
          "name": "oldAmount",
          "type": "uint256"
        },
        {
          "indexed": false,
          "internalType": "uint256",
          "name": "amount",
          "type": "uint256"
        }
      ],
      "name": "ExchangeRP",
      "type": "event"
    },
    {
      "inputs": [
        {
          "internalType": "address",
          "name": "",
          "type": "address"
        },
        {
          "internalType": "uint256",
          "name": "",
          "type": "uint256"
        }
      ],
      "name": "_issuerRates",
      "outputs": [
        {
          "internalType": "uint256",
          "name": "id",
          "type": "uint256"
        },
        {
          "internalType": "string",
          "name": "imgHash",
          "type": "string"
        },
        {
          "internalType": "string",
          "name": "name",
          "type": "string"
        },
        {
          "internalType": "uint256",
          "name": "otherPoint",
          "type": "uint256"
        },
        {
          "internalType": "uint256",
          "name": "RP",
          "type": "uint256"
        },
        {
          "internalType": "address",
          "name": "bank",
          "type": "address"
        },
        {
          "internalType": "uint256",
          "name": "keysIdx",
          "type": "uint256"
        }
      ],
      "stateMutability": "view",
      "type": "function",
      "constant": true
    },
    {
      "inputs": [],
      "name": "_owner",
      "outputs": [
        {
          "internalType": "address",
          "name": "",
          "type": "address"
        }
      ],
      "stateMutability": "view",
      "type": "function",
      "constant": true
    },
    {
      "inputs": [],
      "name": "_rateCount",
      "outputs": [
        {
          "internalType": "uint256",
          "name": "",
          "type": "uint256"
        }
      ],
      "stateMutability": "view",
      "type": "function",
      "constant": true
    },
    {
      "inputs": [
        {
          "internalType": "uint256",
          "name": "",
          "type": "uint256"
        }
      ],
      "name": "_rates",
      "outputs": [
        {
          "internalType": "uint256",
          "name": "id",
          "type": "uint256"
        },
        {
          "internalType": "string",
          "name": "imgHash",
          "type": "string"
        },
        {
          "internalType": "string",
          "name": "name",
          "type": "string"
        },
        {
          "internalType": "uint256",
          "name": "otherPoint",
          "type": "uint256"
        },
        {
          "internalType": "uint256",
          "name": "RP",
          "type": "uint256"
        },
        {
          "internalType": "address",
          "name": "bank",
          "type": "address"
        },
        {
          "internalType": "uint256",
          "name": "keysIdx",
          "type": "uint256"
        }
      ],
      "stateMutability": "view",
      "type": "function",
      "constant": true
    },
    {
      "inputs": [
        {
          "internalType": "string",
          "name": "imgHash",
          "type": "string"
        },
        {
          "internalType": "string",
          "name": "name",
          "type": "string"
        },
        {
          "internalType": "uint256",
          "name": "otherPoint",
          "type": "uint256"
        },
        {
          "internalType": "uint256",
          "name": "rp",
          "type": "uint256"
        }
      ],
      "name": "addRPRate",
      "outputs": [],
      "stateMutability": "nonpayable",
      "type": "function"
    },
    {
      "inputs": [
        {
          "internalType": "uint256",
          "name": "id",
          "type": "uint256"
        }
      ],
      "name": "removeRPRate",
      "outputs": [],
      "stateMutability": "nonpayable",
      "type": "function"
    },
    {
      "inputs": [
        {
          "internalType": "uint256",
          "name": "id",
          "type": "uint256"
        },
        {
          "internalType": "uint256",
          "name": "otherPoint",
          "type": "uint256"
        },
        {
          "internalType": "uint256",
          "name": "rp",
          "type": "uint256"
        }
      ],
      "name": "updateRPRate",
      "outputs": [],
      "stateMutability": "nonpayable",
      "type": "function"
    },
    {
      "inputs": [
        {
          "internalType": "address",
          "name": "issuer",
          "type": "address"
        },
        {
          "internalType": "address",
          "name": "user",
          "type": "address"
        },
        {
          "internalType": "string",
          "name": "name",
          "type": "string"
        },
        {
          "internalType": "uint256",
          "name": "oldAmount",
          "type": "uint256"
        },
        {
          "internalType": "uint256",
          "name": "amount",
          "type": "uint256"
        }
      ],
      "name": "exchangeRP",
      "outputs": [],
      "stateMutability": "nonpayable",
      "type": "function"
    },
    {
      "inputs": [],
      "name": "getIssuerKeys",
      "outputs": [
        {
          "internalType": "uint256[]",
          "name": "",
          "type": "uint256[]"
        }
      ],
      "stateMutability": "view",
      "type": "function",
      "constant": true
    }
  ],
  "bytecode": "0x608060405260006002553480156200001657600080fd5b50604051620021623803806200216283398181016040528101906200003c919062000145565b6200004c620000d360201b60201c565b6000806101000a81548173ffffffffffffffffffffffffffffffffffffffff021916908373ffffffffffffffffffffffffffffffffffffffff16021790555080600160006101000a81548173ffffffffffffffffffffffffffffffffffffffff021916908373ffffffffffffffffffffffffffffffffffffffff1602179055505062000177565b600033905090565b600080fd5b600073ffffffffffffffffffffffffffffffffffffffff82169050919050565b60006200010d82620000e0565b9050919050565b6200011f8162000100565b81146200012b57600080fd5b50565b6000815190506200013f8162000114565b92915050565b6000602082840312156200015e576200015d620000db565b5b60006200016e848285016200012e565b91505092915050565b611fdb80620001876000396000f3fe608060405234801561001057600080fd5b50600436106100935760003560e01c806396ea5c5d1161006657806396ea5c5d14610126578063b2bdfa7b14610142578063b6f0721214610160578063c497d9de1461017c578063e29e22ed1461019857610093565b806304425356146100985780630868f1a9146100b4578063361b1149146100d25780636ebdc4e2146100f0575b600080fd5b6100b260048036038101906100ad919061140f565b6101ce565b005b6100bc6103db565b6040516100c99190611471565b60405180910390f35b6100da6103e1565b6040516100e7919061154a565b60405180910390f35b61010a600480360381019061010591906115ca565b61055f565b60405161011d97969594939291906116b2565b60405180910390f35b610140600480360381019061013b9190611864565b6106ee565b005b61014a610894565b60405161015791906118fb565b60405180910390f35b61017a60048036038101906101759190611916565b6108b8565b005b610196600480360381019061019191906119b5565b610c97565b005b6101b260048036038101906101ad91906119b5565b611168565b6040516101c597969594939291906116b2565b60405180910390f35b600160009054906101000a900473ffffffffffffffffffffffffffffffffffffffff1673ffffffffffffffffffffffffffffffffffffffff166349d407c96102146112da565b6040518263ffffffff1660e01b815260040161023091906118fb565b602060405180830381865afa15801561024d573d6000803e3d6000fd5b505050506040513d601f19601f820116820180604052508101906102719190611a1a565b6102b0576040517f08c379a00000000000000000000000000000000000000000000000000000000081526004016102a790611a93565b60405180910390fd5b6002548311156102f5576040517f08c379a00000000000000000000000000000000000000000000000000000000081526004016102ec90611aff565b60405180910390fd5b6102fd6112da565b73ffffffffffffffffffffffffffffffffffffffff166003600085815260200190815260200160002060050160009054906101000a900473ffffffffffffffffffffffffffffffffffffffff1673ffffffffffffffffffffffffffffffffffffffff16146103a0576040517f08c379a000000000000000000000000000000000000000000000000000000000815260040161039790611b91565b60405180910390fd5b816003600085815260200190815260200160002060030181905550806003600085815260200190815260200160002060040181905550505050565b60025481565b6060600160009054906101000a900473ffffffffffffffffffffffffffffffffffffffff1673ffffffffffffffffffffffffffffffffffffffff166349d407c96104296112da565b6040518263ffffffff1660e01b815260040161044591906118fb565b602060405180830381865afa158015610462573d6000803e3d6000fd5b505050506040513d601f19601f820116820180604052508101906104869190611a1a565b6104c5576040517f08c379a00000000000000000000000000000000000000000000000000000000081526004016104bc90611a93565b60405180910390fd5b600460006104d16112da565b73ffffffffffffffffffffffffffffffffffffffff1673ffffffffffffffffffffffffffffffffffffffff16815260200190815260200160002080548060200260200160405190810160405280929190818152602001828054801561055557602002820191906000526020600020905b815481526020019060010190808311610541575b5050505050905090565b6005602052816000526040600020818154811061057b57600080fd5b9060005260206000209060070201600091509150508060000154908060010180546105a590611be0565b80601f01602080910402602001604051908101604052809291908181526020018280546105d190611be0565b801561061e5780601f106105f35761010080835404028352916020019161061e565b820191906000526020600020905b81548152906001019060200180831161060157829003601f168201915b50505050509080600201805461063390611be0565b80601f016020809104026020016040519081016040528092919081815260200182805461065f90611be0565b80156106ac5780601f10610681576101008083540402835291602001916106ac565b820191906000526020600020905b81548152906001019060200180831161068f57829003601f168201915b5050505050908060030154908060040154908060050160009054906101000a900473ffffffffffffffffffffffffffffffffffffffff16908060060154905087565b60008054906101000a900473ffffffffffffffffffffffffffffffffffffffff1673ffffffffffffffffffffffffffffffffffffffff1661072d6112da565b73ffffffffffffffffffffffffffffffffffffffff1614610783576040517f08c379a000000000000000000000000000000000000000000000000000000000815260040161077a90611c5e565b60405180910390fd5b600160009054906101000a900473ffffffffffffffffffffffffffffffffffffffff1673ffffffffffffffffffffffffffffffffffffffff1663a9059cbb85836040518363ffffffff1660e01b81526004016107e0929190611c7e565b6020604051808303816000875af11580156107ff573d6000803e3d6000fd5b505050506040513d601f19601f820116820180604052508101906108239190611a1a565b508373ffffffffffffffffffffffffffffffffffffffff168573ffffffffffffffffffffffffffffffffffffffff167fb16c968e3510b8344e3525f4b73752ebf324e7830272aef63b7779e449f04a1d85858560405161088593929190611ca7565b60405180910390a35050505050565b60008054906101000a900473ffffffffffffffffffffffffffffffffffffffff1681565b600160009054906101000a900473ffffffffffffffffffffffffffffffffffffffff1673ffffffffffffffffffffffffffffffffffffffff166349d407c96108fe6112da565b6040518263ffffffff1660e01b815260040161091a91906118fb565b602060405180830381865afa158015610937573d6000803e3d6000fd5b505050506040513d601f19601f8201168201806040525081019061095b9190611a1a565b61099a576040517f08c379a000000000000000000000000000000000000000000000000000000000815260040161099190611a93565b60405180910390fd5b60008451116109de576040517f08c379a00000000000000000000000000000000000000000000000000000000081526004016109d590611d57565b60405180910390fd5b6000835111610a22576040517f08c379a0000000000000000000000000000000000000000000000000000000008152600401610a1990611de9565b60405180910390fd5b60008211610a65576040517f08c379a0000000000000000000000000000000000000000000000000000000008152600401610a5c90611e7b565b60405180910390fd5b60008111610aa8576040517f08c379a0000000000000000000000000000000000000000000000000000000008152600401610a9f90611e7b565b60405180910390fd5b60046000610ab46112da565b73ffffffffffffffffffffffffffffffffffffffff1673ffffffffffffffffffffffffffffffffffffffff168152602001908152602001600020600260008154610afd90611eca565b91905081905590806001815401808255809150506001900390600052602060002001600090919091909150556040518060e001604052806002548152602001858152602001848152602001838152602001828152602001610b5c6112da565b73ffffffffffffffffffffffffffffffffffffffff168152602001600160046000610b856112da565b73ffffffffffffffffffffffffffffffffffffffff1673ffffffffffffffffffffffffffffffffffffffff16815260200190815260200160002080549050610bcd9190611f13565b815250600360006002548152602001908152602001600020600082015181600001556020820151816001019080519060200190610c0b9291906112e2565b506040820151816002019080519060200190610c289291906112e2565b50606082015181600301556080820151816004015560a08201518160050160006101000a81548173ffffffffffffffffffffffffffffffffffffffff021916908373ffffffffffffffffffffffffffffffffffffffff16021790555060c0820151816006015590505050505050565b600160009054906101000a900473ffffffffffffffffffffffffffffffffffffffff1673ffffffffffffffffffffffffffffffffffffffff166349d407c9610cdd6112da565b6040518263ffffffff1660e01b8152600401610cf991906118fb565b602060405180830381865afa158015610d16573d6000803e3d6000fd5b505050506040513d601f19601f82011682018060405250810190610d3a9190611a1a565b610d79576040517f08c379a0000000000000000000000000000000000000000000000000000000008152600401610d7090611a93565b60405180910390fd5b600254811115610dbe576040517f08c379a0000000000000000000000000000000000000000000000000000000008152600401610db590611aff565b60405180910390fd5b6000600360008381526020019081526020016000206040518060e001604052908160008201548152602001600182018054610df890611be0565b80601f0160208091040260200160405190810160405280929190818152602001828054610e2490611be0565b8015610e715780601f10610e4657610100808354040283529160200191610e71565b820191906000526020600020905b815481529060010190602001808311610e5457829003601f168201915b50505050508152602001600282018054610e8a90611be0565b80601f0160208091040260200160405190810160405280929190818152602001828054610eb690611be0565b8015610f035780601f10610ed857610100808354040283529160200191610f03565b820191906000526020600020905b815481529060010190602001808311610ee657829003601f168201915b5050505050815260200160038201548152602001600482015481526020016005820160009054906101000a900473ffffffffffffffffffffffffffffffffffffffff1673ffffffffffffffffffffffffffffffffffffffff1673ffffffffffffffffffffffffffffffffffffffff1681526020016006820154815250509050610f8a6112da565b73ffffffffffffffffffffffffffffffffffffffff168160a0015173ffffffffffffffffffffffffffffffffffffffff1614610ffb576040517f08c379a0000000000000000000000000000000000000000000000000000000008152600401610ff290611b91565b60405180910390fd5b6000600460006110096112da565b73ffffffffffffffffffffffffffffffffffffffff1673ffffffffffffffffffffffffffffffffffffffff168152602001908152602001600020905060008260c001519050600082600184805490506110629190611f13565b8154811061107357611072611f47565b5b906000526020600020015490508083838154811061109457611093611f47565b5b9060005260206000200181905550816003600083815260200190815260200160002060060181905550828054806110ce576110cd611f76565b5b60019003818190600052602060002001600090559055600360008681526020019081526020016000206000808201600090556001820160006111109190611368565b6002820160006111209190611368565b600382016000905560048201600090556005820160006101000a81549073ffffffffffffffffffffffffffffffffffffffff0219169055600682016000905550505050505050565b600360205280600052604060002060009150905080600001549080600101805461119190611be0565b80601f01602080910402602001604051908101604052809291908181526020018280546111bd90611be0565b801561120a5780601f106111df5761010080835404028352916020019161120a565b820191906000526020600020905b8154815290600101906020018083116111ed57829003601f168201915b50505050509080600201805461121f90611be0565b80601f016020809104026020016040519081016040528092919081815260200182805461124b90611be0565b80156112985780601f1061126d57610100808354040283529160200191611298565b820191906000526020600020905b81548152906001019060200180831161127b57829003601f168201915b5050505050908060030154908060040154908060050160009054906101000a900473ffffffffffffffffffffffffffffffffffffffff16908060060154905087565b600033905090565b8280546112ee90611be0565b90600052602060002090601f0160209004810192826113105760008555611357565b82601f1061132957805160ff1916838001178555611357565b82800160010185558215611357579182015b8281111561135657825182559160200191906001019061133b565b5b50905061136491906113a8565b5090565b50805461137490611be0565b6000825580601f1061138657506113a5565b601f0160209004906000526020600020908101906113a491906113a8565b5b50565b5b808211156113c15760008160009055506001016113a9565b5090565b6000604051905090565b600080fd5b600080fd5b6000819050919050565b6113ec816113d9565b81146113f757600080fd5b50565b600081359050611409816113e3565b92915050565b600080600060608486031215611428576114276113cf565b5b6000611436868287016113fa565b9350506020611447868287016113fa565b9250506040611458868287016113fa565b9150509250925092565b61146b816113d9565b82525050565b60006020820190506114866000830184611462565b92915050565b600081519050919050565b600082825260208201905092915050565b6000819050602082019050919050565b6114c1816113d9565b82525050565b60006114d383836114b8565b60208301905092915050565b6000602082019050919050565b60006114f78261148c565b6115018185611497565b935061150c836114a8565b8060005b8381101561153d57815161152488826114c7565b975061152f836114df565b925050600181019050611510565b5085935050505092915050565b6000602082019050818103600083015261156481846114ec565b905092915050565b600073ffffffffffffffffffffffffffffffffffffffff82169050919050565b60006115978261156c565b9050919050565b6115a78161158c565b81146115b257600080fd5b50565b6000813590506115c48161159e565b92915050565b600080604083850312156115e1576115e06113cf565b5b60006115ef858286016115b5565b9250506020611600858286016113fa565b9150509250929050565b600081519050919050565b600082825260208201905092915050565b60005b83811015611644578082015181840152602081019050611629565b83811115611653576000848401525b50505050565b6000601f19601f8301169050919050565b60006116758261160a565b61167f8185611615565b935061168f818560208601611626565b61169881611659565b840191505092915050565b6116ac8161158c565b82525050565b600060e0820190506116c7600083018a611462565b81810360208301526116d9818961166a565b905081810360408301526116ed818861166a565b90506116fc6060830187611462565b6117096080830186611462565b61171660a08301856116a3565b61172360c0830184611462565b98975050505050505050565b600080fd5b600080fd5b7f4e487b7100000000000000000000000000000000000000000000000000000000600052604160045260246000fd5b61177182611659565b810181811067ffffffffffffffff821117156117905761178f611739565b5b80604052505050565b60006117a36113c5565b90506117af8282611768565b919050565b600067ffffffffffffffff8211156117cf576117ce611739565b5b6117d882611659565b9050602081019050919050565b82818337600083830152505050565b6000611807611802846117b4565b611799565b90508281526020810184848401111561182357611822611734565b5b61182e8482856117e5565b509392505050565b600082601f83011261184b5761184a61172f565b5b813561185b8482602086016117f4565b91505092915050565b600080600080600060a086880312156118805761187f6113cf565b5b600061188e888289016115b5565b955050602061189f888289016115b5565b945050604086013567ffffffffffffffff8111156118c0576118bf6113d4565b5b6118cc88828901611836565b93505060606118dd888289016113fa565b92505060806118ee888289016113fa565b9150509295509295909350565b600060208201905061191060008301846116a3565b92915050565b600080600080608085870312156119305761192f6113cf565b5b600085013567ffffffffffffffff81111561194e5761194d6113d4565b5b61195a87828801611836565b945050602085013567ffffffffffffffff81111561197b5761197a6113d4565b5b61198787828801611836565b9350506040611998878288016113fa565b92505060606119a9878288016113fa565b91505092959194509250565b6000602082840312156119cb576119ca6113cf565b5b60006119d9848285016113fa565b91505092915050565b60008115159050919050565b6119f7816119e2565b8114611a0257600080fd5b50565b600081519050611a14816119ee565b92915050565b600060208284031215611a3057611a2f6113cf565b5b6000611a3e84828501611a05565b91505092915050565b7f596f7520617265206e6f7420612062616e6b0000000000000000000000000000600082015250565b6000611a7d601283611615565b9150611a8882611a47565b602082019050919050565b60006020820190508181036000830152611aac81611a70565b9050919050565b7f506f696e747345786368616e67653a204e6f2073756368207261746500000000600082015250565b6000611ae9601c83611615565b9150611af482611ab3565b602082019050919050565b60006020820190508181036000830152611b1881611adc565b9050919050565b7f506f696e747345786368616e67653a20596f752063616e6e6f742072656d6f7660008201527f65206f746865722062616e6b7327207261746500000000000000000000000000602082015250565b6000611b7b603383611615565b9150611b8682611b1f565b604082019050919050565b60006020820190508181036000830152611baa81611b6e565b9050919050565b7f4e487b7100000000000000000000000000000000000000000000000000000000600052602260045260246000fd5b60006002820490506001821680611bf857607f821691505b60208210811415611c0c57611c0b611bb1565b5b50919050565b7f596f7520617265206e6f74206120636f6e7472616374206f776e657200000000600082015250565b6000611c48601c83611615565b9150611c5382611c12565b602082019050919050565b60006020820190508181036000830152611c7781611c3b565b9050919050565b6000604082019050611c9360008301856116a3565b611ca06020830184611462565b9392505050565b60006060820190508181036000830152611cc1818661166a565b9050611cd06020830185611462565b611cdd6040830184611462565b949350505050565b7f506f696e747345786368616e67653a20506f696e747320696d6167652068617360008201527f682063616e6e6f7420626520656d707479000000000000000000000000000000602082015250565b6000611d41603183611615565b9150611d4c82611ce5565b604082019050919050565b60006020820190508181036000830152611d7081611d34565b9050919050565b7f506f696e747345786368616e67653a20506f696e7473206e616d652063616e6e60008201527f6f7420626520656d707479000000000000000000000000000000000000000000602082015250565b6000611dd3602b83611615565b9150611dde82611d77565b604082019050919050565b60006020820190508181036000830152611e0281611dc6565b9050919050565b7f506f696e747345786368616e67653a20506f696e74732065786368616e67652060008201527f726174652063616e6e6f7420626520656d707479000000000000000000000000602082015250565b6000611e65603483611615565b9150611e7082611e09565b604082019050919050565b60006020820190508181036000830152611e9481611e58565b9050919050565b7f4e487b7100000000000000000000000000000000000000000000000000000000600052601160045260246000fd5b6000611ed5826113d9565b91507fffffffffffffffffffffffffffffffffffffffffffffffffffffffffffffffff821415611f0857611f07611e9b565b5b600182019050919050565b6000611f1e826113d9565b9150611f29836113d9565b925082821015611f3c57611f3b611e9b565b5b828203905092915050565b7f4e487b7100000000000000000000000000000000000000000000000000000000600052603260045260246000fd5b7f4e487b7100000000000000000000000000000000000000000000000000000000600052603160045260246000fdfea2646970667358221220c42a1c2459b80d2c6a726dfc8886ee1ad367c60c6a85cc94fa75ff5b5e0b68a964736f6c634300080b0033",
  "immutableReferences": {},
  "source": "// SPDX-License-Identifier: UNLICENSED\n\npragma solidity ^0.8.0;\n\nimport \"@openzeppelin/contracts/utils/Context.sol\";\n\ncontract PointsExchange is Context {\n    address public _owner;\n    PE_RPToken private _rp;\n\n    uint public _rateCount = 0;\n\tmapping(uint => Rate) public _rates;\n\tmapping (address => uint[]) private _issuerKeys;\n\n\tmapping(address => Rate[]) public _issuerRates;\n\taddress[] private _existingIssuers; \n\n    struct Rate {\n        uint id;\n        string imgHash;\n        string name;\n        uint otherPoint;\n        uint RP;\n        address bank;\n        uint keysIdx;\n    }\n    /* struct Proposal {\n        address proposer;\n        string wantPoint;\n        string givePoint;\n        uint256 wantAmount;\n        uint256 giveAmount;\n    }\n    uint256 public proposalId = 0;\n    mapping(uint256 => Proposal) public proposals;\n    mapping(address => uint256[]) public proposalIds;\n    mapping(uint256 => uint256) proposalIdToIndexes; */\n    // event UpdateRPRate(address indexed bank, uint oldAsset, uint newAsset);\n    event ExchangeRP(address indexed issuer, address indexed user, string name, uint oldAmount, uint amount);\n\n    modifier onlyOwner() {\n        require(_msgSender() == _owner, \"You are not a contract owner\");\n        _;\n    }\n\n    modifier onlyBank() {\n        require(_rp._banks(_msgSender()), \"You are not a bank\");\n        _;\n    }\n\n    constructor(address RPTokenAddr) {\n        _owner = _msgSender();\n        _rp = PE_RPToken(RPTokenAddr);\n    }\n\n    function addRPRate(string memory imgHash, string memory name, uint otherPoint, uint rp) public onlyBank {\n        // require(bytes(_rpRates[_msgSender()].name).length == 0, \"PointsExchange: You can only add points exchange rate for RP once\");\n        require(bytes(imgHash).length > 0, \"PointsExchange: Points image hash cannot be empty\");\n        require(bytes(name).length > 0, \"PointsExchange: Points name cannot be empty\");\n\t\trequire(otherPoint > 0, \"PointsExchange: Points exchange rate cannot be empty\");\n        require(rp > 0, \"PointsExchange: Points exchange rate cannot be empty\");\n        _issuerKeys[_msgSender()].push(++_rateCount);\n\t\t_rates[_rateCount] = Rate(_rateCount, imgHash, name, otherPoint, rp, _msgSender(), _issuerKeys[_msgSender()].length - 1);\n    }\n\n    function removeRPRate(uint id) public onlyBank {\n        require(id <= _rateCount, \"PointsExchange: No such rate\");\n\t\tRate memory rate = _rates[id];\n\t\trequire(rate.bank == _msgSender(), \"PointsExchange: You cannot remove other banks' rate\");\n\t\tuint[] storage keys = _issuerKeys[_msgSender()];\n        uint rowToDelete = rate.keysIdx;\n        uint keyToMove = keys[keys.length-1];\n        keys[rowToDelete] = keyToMove;\n        _rates[keyToMove].keysIdx = rowToDelete;\n        keys.pop();\n\t\tdelete _rates[id];\n    }\n\n    function updateRPRate(uint id, uint otherPoint, uint rp) public onlyBank {\n        require(id <= _rateCount, \"PointsExchange: No such rate\");\n\t\trequire(_rates[id].bank == _msgSender(), \"PointsExchange: You cannot remove other banks' rate\");\n        _rates[id].otherPoint = otherPoint;\n        _rates[id].RP = rp;\n\n        // emit UpdateRPRate(_msgSender(), otherPoint, rp);\n    }\n\n    function exchangeRP(address issuer, address user, string memory name, uint oldAmount, uint amount) public onlyOwner{\n        _rp.transfer(user, amount);\n        emit ExchangeRP(issuer, user, name, oldAmount, amount);\n    }\n\n    // Get Issuer Keys\n\tfunction getIssuerKeys() public view onlyBank returns (uint[] memory) {\n\t\treturn _issuerKeys[_msgSender()];\n\t}\n\n    /* function propose(\n        string memory wantPoint,\n        string memory givePoint,\n        uint256 wantAmount,\n        uint256 giveAmount\n    ) public {\n        proposals[++proposalId] = Proposal(\n            _msgSender(),\n            wantPoint,\n            givePoint,\n            wantAmount,\n            giveAmount\n        );\n        proposalIds[_msgSender()].push(proposalId);\n        proposalIdToIndexes[proposalId] = proposalIds[_msgSender()].length - 1;\n    }\n\n    function accept(uint256 id) public {\n        uint256[] storage proposerProposalIds = proposalIds[\n            proposals[id].proposer\n        ];\n        proposerProposalIds[proposalIdToIndexes[id]] = proposerProposalIds[\n            proposerProposalIds.length - 1\n        ];\n        proposerProposalIds.pop();\n        delete proposalIdToIndexes[id];\n    } */\n}\n\ncontract PE_RPToken {\n    function _banks(address) public view returns (bool) {}\n    function transfer(address recipient, uint256 amount) public virtual returns (bool) {}\n}\n",
  "sourcePath": "/Users/hc/Documents/Thesis/BCOIP PRO/src/contracts/PointsExchange.sol",
  "compiler": {
    "name": "solc",
    "version": "0.8.11+commit.d7f03943.Emscripten.clang"
  },
  "schemaVersion": "3.4.3",
  "updatedAt": "2022-02-09T10:33:36.573Z",
  "networkType": "ethereum",
  "devdoc": {
    "kind": "dev",
    "methods": {},
    "version": 1
  },
  "userdoc": {
    "kind": "user",
    "methods": {},
    "version": 1
  }
}