{
  "contractName": "PointsExchange",
  "abi": [
    {
      "inputs": [
        {
          "internalType": "address",
          "name": "RPTokenAddr",
          "type": "address"
        }
      ],
      "stateMutability": "nonpayable",
      "type": "constructor"
    },
    {
      "anonymous": false,
      "inputs": [
        {
          "indexed": true,
          "internalType": "address",
          "name": "merchant",
          "type": "address"
        },
        {
          "indexed": false,
          "internalType": "string",
          "name": "rate",
          "type": "string"
        }
      ],
      "name": "ChangeOtherRate",
      "type": "event"
    },
    {
      "anonymous": false,
      "inputs": [
        {
          "indexed": true,
          "internalType": "address",
          "name": "issuer",
          "type": "address"
        },
        {
          "indexed": true,
          "internalType": "address",
          "name": "user",
          "type": "address"
        },
        {
          "indexed": false,
          "internalType": "string",
          "name": "name",
          "type": "string"
        },
        {
          "indexed": false,
          "internalType": "uint256",
          "name": "oldAmount",
          "type": "uint256"
        },
        {
          "indexed": false,
          "internalType": "uint256",
          "name": "amount",
          "type": "uint256"
        }
      ],
      "name": "ExchangeRP",
      "type": "event"
    },
    {
      "anonymous": false,
      "inputs": [
        {
          "indexed": true,
          "internalType": "address",
          "name": "bank",
          "type": "address"
        },
        {
          "indexed": false,
          "internalType": "uint256",
          "name": "oldAsset",
          "type": "uint256"
        },
        {
          "indexed": false,
          "internalType": "uint256",
          "name": "newAsset",
          "type": "uint256"
        }
      ],
      "name": "UpdateRPRate",
      "type": "event"
    },
    {
      "inputs": [],
      "name": "_owner",
      "outputs": [
        {
          "internalType": "address",
          "name": "",
          "type": "address"
        }
      ],
      "stateMutability": "view",
      "type": "function",
      "constant": true
    },
    {
      "inputs": [
        {
          "internalType": "address",
          "name": "",
          "type": "address"
        }
      ],
      "name": "_rpRates",
      "outputs": [
        {
          "internalType": "string",
          "name": "imgHash",
          "type": "string"
        },
        {
          "internalType": "string",
          "name": "name",
          "type": "string"
        },
        {
          "internalType": "uint256",
          "name": "oldAsset",
          "type": "uint256"
        },
        {
          "internalType": "uint256",
          "name": "newAsset",
          "type": "uint256"
        },
        {
          "internalType": "uint256",
          "name": "keysIdx",
          "type": "uint256"
        }
      ],
      "stateMutability": "view",
      "type": "function",
      "constant": true
    },
    {
      "inputs": [
        {
          "internalType": "string",
          "name": "imgHash",
          "type": "string"
        },
        {
          "internalType": "string",
          "name": "name",
          "type": "string"
        },
        {
          "internalType": "uint256",
          "name": "oldAsset",
          "type": "uint256"
        },
        {
          "internalType": "uint256",
          "name": "newAsset",
          "type": "uint256"
        }
      ],
      "name": "addRPRate",
      "outputs": [],
      "stateMutability": "nonpayable",
      "type": "function"
    },
    {
      "inputs": [],
      "name": "removeRPRate",
      "outputs": [],
      "stateMutability": "nonpayable",
      "type": "function"
    },
    {
      "inputs": [
        {
          "internalType": "uint256",
          "name": "oldAsset",
          "type": "uint256"
        },
        {
          "internalType": "uint256",
          "name": "newAsset",
          "type": "uint256"
        }
      ],
      "name": "updateRPRate",
      "outputs": [],
      "stateMutability": "nonpayable",
      "type": "function"
    },
    {
      "inputs": [
        {
          "internalType": "address",
          "name": "issuer",
          "type": "address"
        },
        {
          "internalType": "address",
          "name": "user",
          "type": "address"
        },
        {
          "internalType": "string",
          "name": "name",
          "type": "string"
        },
        {
          "internalType": "uint256",
          "name": "oldAmount",
          "type": "uint256"
        },
        {
          "internalType": "uint256",
          "name": "amount",
          "type": "uint256"
        }
      ],
      "name": "exchangeRP",
      "outputs": [],
      "stateMutability": "nonpayable",
      "type": "function"
    },
    {
      "inputs": [],
      "name": "getExistingIssuer2RPs",
      "outputs": [
        {
          "internalType": "address[]",
          "name": "",
          "type": "address[]"
        }
      ],
      "stateMutability": "view",
      "type": "function",
      "constant": true
    }
  ],
  "bytecode": "0x60806040523480156200001157600080fd5b5060405162001c4938038062001c49833981810160405281019062000037919062000140565b62000047620000ce60201b60201c565b6000806101000a81548173ffffffffffffffffffffffffffffffffffffffff021916908373ffffffffffffffffffffffffffffffffffffffff16021790555080600160006101000a81548173ffffffffffffffffffffffffffffffffffffffff021916908373ffffffffffffffffffffffffffffffffffffffff1602179055505062000172565b600033905090565b600080fd5b600073ffffffffffffffffffffffffffffffffffffffff82169050919050565b60006200010882620000db565b9050919050565b6200011a81620000fb565b81146200012657600080fd5b50565b6000815190506200013a816200010f565b92915050565b600060208284031215620001595762000158620000d6565b5b6000620001698482850162000129565b91505092915050565b611ac780620001826000396000f3fe608060405234801561001057600080fd5b506004361061007d5760003560e01c8063b2bdfa7b1161005b578063b2bdfa7b146100d8578063b6f07212146100f6578063d623b7d814610112578063e80b2768146101465761007d565b80632499688d146100825780636da6b1ba146100a057806396ea5c5d146100bc575b600080fd5b61008a610150565b6040516100979190610fff565b60405180910390f35b6100ba60048036038101906100b5919061106b565b6101de565b005b6100d660048036038101906100d1919061121d565b6103b7565b005b6100e061055d565b6040516100ed91906112c3565b60405180910390f35b610110600480360381019061010b91906112de565b610581565b005b61012c6004803603810190610127919061137d565b610952565b60405161013d959493929190611441565b60405180910390f35b61014e610a98565b005b606060038054806020026020016040519081016040528092919081815260200182805480156101d457602002820191906000526020600020905b8160009054906101000a900473ffffffffffffffffffffffffffffffffffffffff1673ffffffffffffffffffffffffffffffffffffffff168152602001906001019080831161018a575b5050505050905090565b600160009054906101000a900473ffffffffffffffffffffffffffffffffffffffff1673ffffffffffffffffffffffffffffffffffffffff166349d407c9610224610e24565b6040518263ffffffff1660e01b815260040161024091906112c3565b602060405180830381865afa15801561025d573d6000803e3d6000fd5b505050506040513d601f19601f8201168201806040525081019061028191906114da565b6102c0576040517f08c379a00000000000000000000000000000000000000000000000000000000081526004016102b790611553565b60405180910390fd5b81600260006102cd610e24565b73ffffffffffffffffffffffffffffffffffffffff1673ffffffffffffffffffffffffffffffffffffffff16815260200190815260200160002060020181905550806002600061031b610e24565b73ffffffffffffffffffffffffffffffffffffffff1673ffffffffffffffffffffffffffffffffffffffff16815260200190815260200160002060030181905550610364610e24565b73ffffffffffffffffffffffffffffffffffffffff167fa0aeecc66fc1fb0edbe81ad51ee7374f89eadff562f02201754984705c89ed6583836040516103ab929190611573565b60405180910390a25050565b60008054906101000a900473ffffffffffffffffffffffffffffffffffffffff1673ffffffffffffffffffffffffffffffffffffffff166103f6610e24565b73ffffffffffffffffffffffffffffffffffffffff161461044c576040517f08c379a0000000000000000000000000000000000000000000000000000000008152600401610443906115e8565b60405180910390fd5b600160009054906101000a900473ffffffffffffffffffffffffffffffffffffffff1673ffffffffffffffffffffffffffffffffffffffff1663a9059cbb85836040518363ffffffff1660e01b81526004016104a9929190611608565b6020604051808303816000875af11580156104c8573d6000803e3d6000fd5b505050506040513d601f19601f820116820180604052508101906104ec91906114da565b508373ffffffffffffffffffffffffffffffffffffffff168573ffffffffffffffffffffffffffffffffffffffff167fb16c968e3510b8344e3525f4b73752ebf324e7830272aef63b7779e449f04a1d85858560405161054e93929190611631565b60405180910390a35050505050565b60008054906101000a900473ffffffffffffffffffffffffffffffffffffffff1681565b600160009054906101000a900473ffffffffffffffffffffffffffffffffffffffff1673ffffffffffffffffffffffffffffffffffffffff166349d407c96105c7610e24565b6040518263ffffffff1660e01b81526004016105e391906112c3565b602060405180830381865afa158015610600573d6000803e3d6000fd5b505050506040513d601f19601f8201168201806040525081019061062491906114da565b610663576040517f08c379a000000000000000000000000000000000000000000000000000000000815260040161065a90611553565b60405180910390fd5b600060026000610671610e24565b73ffffffffffffffffffffffffffffffffffffffff1673ffffffffffffffffffffffffffffffffffffffff16815260200190815260200160002060010180546106b99061169e565b9050146106fb576040517f08c379a00000000000000000000000000000000000000000000000000000000081526004016106f290611768565b60405180910390fd5b600084511161073f576040517f08c379a0000000000000000000000000000000000000000000000000000000008152600401610736906117fa565b60405180910390fd5b6000835111610783576040517f08c379a000000000000000000000000000000000000000000000000000000000815260040161077a9061188c565b60405180910390fd5b600082116107c6576040517f08c379a00000000000000000000000000000000000000000000000000000000081526004016107bd9061191e565b60405180910390fd5b60008111610809576040517f08c379a00000000000000000000000000000000000000000000000000000000081526004016108009061191e565b60405180910390fd5b6003610813610e24565b9080600181540180825580915050600190039060005260206000200160009091909190916101000a81548173ffffffffffffffffffffffffffffffffffffffff021916908373ffffffffffffffffffffffffffffffffffffffff1602179055506040518060a0016040528085815260200184815260200183815260200182815260200160016003805490506108a8919061196d565b815250600260006108b7610e24565b73ffffffffffffffffffffffffffffffffffffffff1673ffffffffffffffffffffffffffffffffffffffff168152602001908152602001600020600082015181600001908051906020019061090d929190610e2c565b50602082015181600101908051906020019061092a929190610e2c565b5060408201518160020155606082015181600301556080820151816004015590505050505050565b60026020528060005260406000206000915090508060000180546109759061169e565b80601f01602080910402602001604051908101604052809291908181526020018280546109a19061169e565b80156109ee5780601f106109c3576101008083540402835291602001916109ee565b820191906000526020600020905b8154815290600101906020018083116109d157829003601f168201915b505050505090806001018054610a039061169e565b80601f0160208091040260200160405190810160405280929190818152602001828054610a2f9061169e565b8015610a7c5780601f10610a5157610100808354040283529160200191610a7c565b820191906000526020600020905b815481529060010190602001808311610a5f57829003601f168201915b5050505050908060020154908060030154908060040154905085565b600160009054906101000a900473ffffffffffffffffffffffffffffffffffffffff1673ffffffffffffffffffffffffffffffffffffffff166349d407c9610ade610e24565b6040518263ffffffff1660e01b8152600401610afa91906112c3565b602060405180830381865afa158015610b17573d6000803e3d6000fd5b505050506040513d601f19601f82011682018060405250810190610b3b91906114da565b610b7a576040517f08c379a0000000000000000000000000000000000000000000000000000000008152600401610b7190611553565b60405180910390fd5b600060026000610b88610e24565b73ffffffffffffffffffffffffffffffffffffffff1673ffffffffffffffffffffffffffffffffffffffff1681526020019081526020016000206001018054610bd09061169e565b905011610c12576040517f08c379a0000000000000000000000000000000000000000000000000000000008152600401610c0990611a13565b60405180910390fd5b600060026000610c20610e24565b73ffffffffffffffffffffffffffffffffffffffff1673ffffffffffffffffffffffffffffffffffffffff168152602001908152602001600020600401549050600060036001600380549050610c76919061196d565b81548110610c8757610c86611a33565b5b9060005260206000200160009054906101000a900473ffffffffffffffffffffffffffffffffffffffff1690508060038381548110610cc957610cc8611a33565b5b9060005260206000200160006101000a81548173ffffffffffffffffffffffffffffffffffffffff021916908373ffffffffffffffffffffffffffffffffffffffff16021790555081600260008373ffffffffffffffffffffffffffffffffffffffff1673ffffffffffffffffffffffffffffffffffffffff168152602001908152602001600020600401819055506003805480610d6a57610d69611a62565b5b6001900381819060005260206000200160006101000a81549073ffffffffffffffffffffffffffffffffffffffff0219169055905560026000610dab610e24565b73ffffffffffffffffffffffffffffffffffffffff1673ffffffffffffffffffffffffffffffffffffffff16815260200190815260200160002060008082016000610df69190610eb2565b600182016000610e069190610eb2565b60028201600090556003820160009055600482016000905550505050565b600033905090565b828054610e389061169e565b90600052602060002090601f016020900481019282610e5a5760008555610ea1565b82601f10610e7357805160ff1916838001178555610ea1565b82800160010185558215610ea1579182015b82811115610ea0578251825591602001919060010190610e85565b5b509050610eae9190610ef2565b5090565b508054610ebe9061169e565b6000825580601f10610ed05750610eef565b601f016020900490600052602060002090810190610eee9190610ef2565b5b50565b5b80821115610f0b576000816000905550600101610ef3565b5090565b600081519050919050565b600082825260208201905092915050565b6000819050602082019050919050565b600073ffffffffffffffffffffffffffffffffffffffff82169050919050565b6000610f6682610f3b565b9050919050565b610f7681610f5b565b82525050565b6000610f888383610f6d565b60208301905092915050565b6000602082019050919050565b6000610fac82610f0f565b610fb68185610f1a565b9350610fc183610f2b565b8060005b83811015610ff2578151610fd98882610f7c565b9750610fe483610f94565b925050600181019050610fc5565b5085935050505092915050565b600060208201905081810360008301526110198184610fa1565b905092915050565b6000604051905090565b600080fd5b600080fd5b6000819050919050565b61104881611035565b811461105357600080fd5b50565b6000813590506110658161103f565b92915050565b600080604083850312156110825761108161102b565b5b600061109085828601611056565b92505060206110a185828601611056565b9150509250929050565b6110b481610f5b565b81146110bf57600080fd5b50565b6000813590506110d1816110ab565b92915050565b600080fd5b600080fd5b6000601f19601f8301169050919050565b7f4e487b7100000000000000000000000000000000000000000000000000000000600052604160045260246000fd5b61112a826110e1565b810181811067ffffffffffffffff82111715611149576111486110f2565b5b80604052505050565b600061115c611021565b90506111688282611121565b919050565b600067ffffffffffffffff821115611188576111876110f2565b5b611191826110e1565b9050602081019050919050565b82818337600083830152505050565b60006111c06111bb8461116d565b611152565b9050828152602081018484840111156111dc576111db6110dc565b5b6111e784828561119e565b509392505050565b600082601f830112611204576112036110d7565b5b81356112148482602086016111ad565b91505092915050565b600080600080600060a086880312156112395761123861102b565b5b6000611247888289016110c2565b9550506020611258888289016110c2565b945050604086013567ffffffffffffffff81111561127957611278611030565b5b611285888289016111ef565b935050606061129688828901611056565b92505060806112a788828901611056565b9150509295509295909350565b6112bd81610f5b565b82525050565b60006020820190506112d860008301846112b4565b92915050565b600080600080608085870312156112f8576112f761102b565b5b600085013567ffffffffffffffff81111561131657611315611030565b5b611322878288016111ef565b945050602085013567ffffffffffffffff81111561134357611342611030565b5b61134f878288016111ef565b935050604061136087828801611056565b925050606061137187828801611056565b91505092959194509250565b6000602082840312156113935761139261102b565b5b60006113a1848285016110c2565b91505092915050565b600081519050919050565b600082825260208201905092915050565b60005b838110156113e45780820151818401526020810190506113c9565b838111156113f3576000848401525b50505050565b6000611404826113aa565b61140e81856113b5565b935061141e8185602086016113c6565b611427816110e1565b840191505092915050565b61143b81611035565b82525050565b600060a082019050818103600083015261145b81886113f9565b9050818103602083015261146f81876113f9565b905061147e6040830186611432565b61148b6060830185611432565b6114986080830184611432565b9695505050505050565b60008115159050919050565b6114b7816114a2565b81146114c257600080fd5b50565b6000815190506114d4816114ae565b92915050565b6000602082840312156114f0576114ef61102b565b5b60006114fe848285016114c5565b91505092915050565b7f596f7520617265206e6f7420612062616e6b0000000000000000000000000000600082015250565b600061153d6012836113b5565b915061154882611507565b602082019050919050565b6000602082019050818103600083015261156c81611530565b9050919050565b60006040820190506115886000830185611432565b6115956020830184611432565b9392505050565b7f596f7520617265206e6f74206120636f6e7472616374206f776e657200000000600082015250565b60006115d2601c836113b5565b91506115dd8261159c565b602082019050919050565b60006020820190508181036000830152611601816115c5565b9050919050565b600060408201905061161d60008301856112b4565b61162a6020830184611432565b9392505050565b6000606082019050818103600083015261164b81866113f9565b905061165a6020830185611432565b6116676040830184611432565b949350505050565b7f4e487b7100000000000000000000000000000000000000000000000000000000600052602260045260246000fd5b600060028204905060018216806116b657607f821691505b602082108114156116ca576116c961166f565b5b50919050565b7f506f696e747345786368616e67653a20596f752063616e206f6e6c792061646460008201527f20706f696e74732065786368616e6765207261746520666f72205250206f6e6360208201527f6500000000000000000000000000000000000000000000000000000000000000604082015250565b60006117526041836113b5565b915061175d826116d0565b606082019050919050565b6000602082019050818103600083015261178181611745565b9050919050565b7f506f696e747345786368616e67653a20506f696e747320696d6167652068617360008201527f682063616e6e6f7420626520656d707479000000000000000000000000000000602082015250565b60006117e46031836113b5565b91506117ef82611788565b604082019050919050565b60006020820190508181036000830152611813816117d7565b9050919050565b7f506f696e747345786368616e67653a20506f696e7473206e616d652063616e6e60008201527f6f7420626520656d707479000000000000000000000000000000000000000000602082015250565b6000611876602b836113b5565b91506118818261181a565b604082019050919050565b600060208201905081810360008301526118a581611869565b9050919050565b7f506f696e747345786368616e67653a20506f696e74732065786368616e67652060008201527f726174652063616e6e6f7420626520656d707479000000000000000000000000602082015250565b60006119086034836113b5565b9150611913826118ac565b604082019050919050565b60006020820190508181036000830152611937816118fb565b9050919050565b7f4e487b7100000000000000000000000000000000000000000000000000000000600052601160045260246000fd5b600061197882611035565b915061198383611035565b9250828210156119965761199561193e565b5b828203905092915050565b7f506f696e747345786368616e67653a20596f7520646964206e6f74206164642060008201527f706f696e74732065786368616e6765207261746520666f722052500000000000602082015250565b60006119fd603b836113b5565b9150611a08826119a1565b604082019050919050565b60006020820190508181036000830152611a2c816119f0565b9050919050565b7f4e487b7100000000000000000000000000000000000000000000000000000000600052603260045260246000fd5b7f4e487b7100000000000000000000000000000000000000000000000000000000600052603160045260246000fdfea26469706673582212209c72ed9a93f814409e414d418bce86e2131424f7a01ee271a97f84d87bce11b764736f6c634300080b0033",
  "immutableReferences": {},
  "source": "// SPDX-License-Identifier: UNLICENSED\n\npragma solidity ^0.8.0;\n\nimport \"@openzeppelin/contracts/utils/Context.sol\";\n\ncontract PointsExchange is Context {\n    address public _owner;\n    PE_RPToken private _rp;\n\n\tmapping(address => Rate) public _rpRates;\n\taddress[] private _existingIssuer2RPs;\n\n\n    mapping(address => string) _rp2other; \n\n    struct Rate {\n        string imgHash;\n        string name;\n        uint oldAsset;\n        uint newAsset;\n        uint keysIdx;\n    }\n    /* struct Proposal {\n        address proposer;\n        string wantPoint;\n        string givePoint;\n        uint256 wantAmount;\n        uint256 giveAmount;\n    }\n    uint256 public proposalId = 0;\n    mapping(uint256 => Proposal) public proposals;\n    mapping(address => uint256[]) public proposalIds;\n    mapping(uint256 => uint256) proposalIdToIndexes; */\n    event UpdateRPRate(address indexed bank, uint oldAsset, uint newAsset);\n    event ExchangeRP(address indexed issuer, address indexed user, string name, uint oldAmount, uint amount);\n    event ChangeOtherRate(address indexed merchant, string rate);\n\n    modifier onlyOwner() {\n        require(_msgSender() == _owner, \"You are not a contract owner\");\n        _;\n    }\n\n    modifier onlyBank() {\n        require(_rp._banks(_msgSender()), \"You are not a bank\");\n        _;\n    }\n\n    constructor(address RPTokenAddr) {\n        _owner = _msgSender();\n        _rp = PE_RPToken(RPTokenAddr);\n    }\n\n    function addRPRate(string memory imgHash, string memory name, uint oldAsset, uint newAsset) public onlyBank {\n        require(bytes(_rpRates[_msgSender()].name).length == 0, \"PointsExchange: You can only add points exchange rate for RP once\");\n        require(bytes(imgHash).length > 0, \"PointsExchange: Points image hash cannot be empty\");\n        require(bytes(name).length > 0, \"PointsExchange: Points name cannot be empty\");\n\t\trequire(oldAsset > 0, \"PointsExchange: Points exchange rate cannot be empty\");\n        require(newAsset > 0, \"PointsExchange: Points exchange rate cannot be empty\");\n        _existingIssuer2RPs.push(_msgSender());\n        _rpRates[_msgSender()] = Rate(imgHash, name, oldAsset, newAsset, _existingIssuer2RPs.length-1);\n    }\n\n    function removeRPRate() public onlyBank {\n        require(bytes(_rpRates[_msgSender()].name).length > 0, \"PointsExchange: You did not add points exchange rate for RP\");\n        uint rowToDelete = _rpRates[_msgSender()].keysIdx;\n        address keyToMove = _existingIssuer2RPs[_existingIssuer2RPs.length-1];\n        _existingIssuer2RPs[rowToDelete] = keyToMove;\n        _rpRates[keyToMove].keysIdx = rowToDelete;\n        _existingIssuer2RPs.pop();\n        delete _rpRates[_msgSender()];\n    }\n\n    function updateRPRate(uint oldAsset, uint newAsset) public onlyBank {\n        _rpRates[_msgSender()].oldAsset = oldAsset;\n        _rpRates[_msgSender()].newAsset = newAsset;\n\n        emit UpdateRPRate(_msgSender(), oldAsset, newAsset);\n    }\n\n    function exchangeRP(address issuer, address user, string memory name, uint oldAmount, uint amount) public onlyOwner{\n        _rp.transfer(user, amount);\n        emit ExchangeRP(issuer, user, name, oldAmount, amount);\n    }\n\n    function getExistingIssuer2RPs() public view returns (address[] memory) {\n        return _existingIssuer2RPs;\n    }\n\n    /* function propose(\n        string memory wantPoint,\n        string memory givePoint,\n        uint256 wantAmount,\n        uint256 giveAmount\n    ) public {\n        proposals[++proposalId] = Proposal(\n            _msgSender(),\n            wantPoint,\n            givePoint,\n            wantAmount,\n            giveAmount\n        );\n        proposalIds[_msgSender()].push(proposalId);\n        proposalIdToIndexes[proposalId] = proposalIds[_msgSender()].length - 1;\n    }\n\n    function accept(uint256 id) public {\n        uint256[] storage proposerProposalIds = proposalIds[\n            proposals[id].proposer\n        ];\n        proposerProposalIds[proposalIdToIndexes[id]] = proposerProposalIds[\n            proposerProposalIds.length - 1\n        ];\n        proposerProposalIds.pop();\n        delete proposalIdToIndexes[id];\n    } */\n}\n\ncontract PE_RPToken {\n    function _banks(address) public view returns (bool) {}\n    function transfer(address recipient, uint256 amount) public virtual returns (bool) {}\n}\n",
  "sourcePath": "/Users/hc/Projects/BCOIP PRO/src/contracts/PointsExchange.sol",
  "compiler": {
    "name": "solc",
    "version": "0.8.11+commit.d7f03943.Emscripten.clang"
  },
  "schemaVersion": "3.4.3",
  "updatedAt": "2022-01-09T06:15:07.149Z",
  "networkType": "ethereum",
  "devdoc": {
    "kind": "dev",
    "methods": {},
    "version": 1
  },
  "userdoc": {
    "kind": "user",
    "methods": {},
    "version": 1
  }
}