{
  "contractName": "PointsExchange",
  "abi": [
    {
      "inputs": [
        {
          "internalType": "address",
          "name": "RPTokenAddr",
          "type": "address"
        }
      ],
      "stateMutability": "nonpayable",
      "type": "constructor"
    },
    {
      "anonymous": false,
      "inputs": [
        {
          "indexed": true,
          "internalType": "address",
          "name": "merchant",
          "type": "address"
        },
        {
          "indexed": false,
          "internalType": "string",
          "name": "rate",
          "type": "string"
        }
      ],
      "name": "ChangeOtherRate",
      "type": "event"
    },
    {
      "anonymous": false,
      "inputs": [
        {
          "indexed": true,
          "internalType": "address",
          "name": "issuer",
          "type": "address"
        },
        {
          "indexed": true,
          "internalType": "address",
          "name": "user",
          "type": "address"
        },
        {
          "indexed": false,
          "internalType": "string",
          "name": "name",
          "type": "string"
        },
        {
          "indexed": false,
          "internalType": "uint256",
          "name": "oldAmount",
          "type": "uint256"
        },
        {
          "indexed": false,
          "internalType": "uint256",
          "name": "amount",
          "type": "uint256"
        }
      ],
      "name": "ExchangeRP",
      "type": "event"
    },
    {
      "anonymous": false,
      "inputs": [
        {
          "indexed": true,
          "internalType": "address",
          "name": "bank",
          "type": "address"
        },
        {
          "indexed": false,
          "internalType": "uint256",
          "name": "oldAsset",
          "type": "uint256"
        },
        {
          "indexed": false,
          "internalType": "uint256",
          "name": "newAsset",
          "type": "uint256"
        }
      ],
      "name": "UpdateRPRate",
      "type": "event"
    },
    {
      "inputs": [],
      "name": "_owner",
      "outputs": [
        {
          "internalType": "address",
          "name": "",
          "type": "address"
        }
      ],
      "stateMutability": "view",
      "type": "function",
      "constant": true
    },
    {
      "inputs": [
        {
          "internalType": "address",
          "name": "",
          "type": "address"
        }
      ],
      "name": "_rpRates",
      "outputs": [
        {
          "internalType": "string",
          "name": "imgHash",
          "type": "string"
        },
        {
          "internalType": "string",
          "name": "name",
          "type": "string"
        },
        {
          "internalType": "uint256",
          "name": "oldAsset",
          "type": "uint256"
        },
        {
          "internalType": "uint256",
          "name": "newAsset",
          "type": "uint256"
        },
        {
          "internalType": "uint256",
          "name": "keysIdx",
          "type": "uint256"
        }
      ],
      "stateMutability": "view",
      "type": "function",
      "constant": true
    },
    {
      "inputs": [
        {
          "internalType": "string",
          "name": "imgHash",
          "type": "string"
        },
        {
          "internalType": "string",
          "name": "name",
          "type": "string"
        },
        {
          "internalType": "uint256",
          "name": "oldAsset",
          "type": "uint256"
        },
        {
          "internalType": "uint256",
          "name": "newAsset",
          "type": "uint256"
        }
      ],
      "name": "addRPRate",
      "outputs": [],
      "stateMutability": "nonpayable",
      "type": "function"
    },
    {
      "inputs": [],
      "name": "removeRPRate",
      "outputs": [],
      "stateMutability": "nonpayable",
      "type": "function"
    },
    {
      "inputs": [
        {
          "internalType": "uint256",
          "name": "oldAsset",
          "type": "uint256"
        },
        {
          "internalType": "uint256",
          "name": "newAsset",
          "type": "uint256"
        }
      ],
      "name": "updateRPRate",
      "outputs": [],
      "stateMutability": "nonpayable",
      "type": "function"
    },
    {
      "inputs": [
        {
          "internalType": "address",
          "name": "issuer",
          "type": "address"
        },
        {
          "internalType": "address",
          "name": "user",
          "type": "address"
        },
        {
          "internalType": "string",
          "name": "name",
          "type": "string"
        },
        {
          "internalType": "uint256",
          "name": "oldAmount",
          "type": "uint256"
        },
        {
          "internalType": "uint256",
          "name": "amount",
          "type": "uint256"
        }
      ],
      "name": "exchangeRP",
      "outputs": [],
      "stateMutability": "nonpayable",
      "type": "function"
    },
    {
      "inputs": [],
      "name": "getExistingIssuer2RPs",
      "outputs": [
        {
          "internalType": "address[]",
          "name": "",
          "type": "address[]"
        }
      ],
      "stateMutability": "view",
      "type": "function",
      "constant": true
    }
  ],
  "bytecode": "0x60806040523480156200001157600080fd5b5060405162001af938038062001af9833981810160405281019062000037919062000140565b62000047620000ce60201b60201c565b6000806101000a81548173ffffffffffffffffffffffffffffffffffffffff021916908373ffffffffffffffffffffffffffffffffffffffff16021790555080600160006101000a81548173ffffffffffffffffffffffffffffffffffffffff021916908373ffffffffffffffffffffffffffffffffffffffff1602179055505062000172565b600033905090565b600080fd5b600073ffffffffffffffffffffffffffffffffffffffff82169050919050565b60006200010882620000db565b9050919050565b6200011a81620000fb565b81146200012657600080fd5b50565b6000815190506200013a816200010f565b92915050565b600060208284031215620001595762000158620000d6565b5b6000620001698482850162000129565b91505092915050565b61197780620001826000396000f3fe608060405234801561001057600080fd5b506004361061007d5760003560e01c8063b2bdfa7b1161005b578063b2bdfa7b146100d8578063b6f07212146100f6578063d623b7d814610112578063e80b2768146101465761007d565b80632499688d146100825780636da6b1ba146100a057806396ea5c5d146100bc575b600080fd5b61008a610150565b6040516100979190610f67565b60405180910390f35b6100ba60048036038101906100b59190610fd3565b6101de565b005b6100d660048036038101906100d19190611185565b6103b7565b005b6100e061055d565b6040516100ed919061122b565b60405180910390f35b610110600480360381019061010b9190611246565b610581565b005b61012c600480360381019061012791906112e5565b6108ba565b60405161013d9594939291906113a9565b60405180910390f35b61014e610a00565b005b606060038054806020026020016040519081016040528092919081815260200182805480156101d457602002820191906000526020600020905b8160009054906101000a900473ffffffffffffffffffffffffffffffffffffffff1673ffffffffffffffffffffffffffffffffffffffff168152602001906001019080831161018a575b5050505050905090565b600160009054906101000a900473ffffffffffffffffffffffffffffffffffffffff1673ffffffffffffffffffffffffffffffffffffffff166349d407c9610224610d8c565b6040518263ffffffff1660e01b8152600401610240919061122b565b602060405180830381865afa15801561025d573d6000803e3d6000fd5b505050506040513d601f19601f820116820180604052508101906102819190611442565b6102c0576040517f08c379a00000000000000000000000000000000000000000000000000000000081526004016102b7906114bb565b60405180910390fd5b81600260006102cd610d8c565b73ffffffffffffffffffffffffffffffffffffffff1673ffffffffffffffffffffffffffffffffffffffff16815260200190815260200160002060020181905550806002600061031b610d8c565b73ffffffffffffffffffffffffffffffffffffffff1673ffffffffffffffffffffffffffffffffffffffff16815260200190815260200160002060030181905550610364610d8c565b73ffffffffffffffffffffffffffffffffffffffff167fa0aeecc66fc1fb0edbe81ad51ee7374f89eadff562f02201754984705c89ed6583836040516103ab9291906114db565b60405180910390a25050565b60008054906101000a900473ffffffffffffffffffffffffffffffffffffffff1673ffffffffffffffffffffffffffffffffffffffff166103f6610d8c565b73ffffffffffffffffffffffffffffffffffffffff161461044c576040517f08c379a000000000000000000000000000000000000000000000000000000000815260040161044390611550565b60405180910390fd5b600160009054906101000a900473ffffffffffffffffffffffffffffffffffffffff1673ffffffffffffffffffffffffffffffffffffffff1663a9059cbb85836040518363ffffffff1660e01b81526004016104a9929190611570565b6020604051808303816000875af11580156104c8573d6000803e3d6000fd5b505050506040513d601f19601f820116820180604052508101906104ec9190611442565b508373ffffffffffffffffffffffffffffffffffffffff168573ffffffffffffffffffffffffffffffffffffffff167fb16c968e3510b8344e3525f4b73752ebf324e7830272aef63b7779e449f04a1d85858560405161054e93929190611599565b60405180910390a35050505050565b60008054906101000a900473ffffffffffffffffffffffffffffffffffffffff1681565b600160009054906101000a900473ffffffffffffffffffffffffffffffffffffffff1673ffffffffffffffffffffffffffffffffffffffff166349d407c96105c7610d8c565b6040518263ffffffff1660e01b81526004016105e3919061122b565b602060405180830381865afa158015610600573d6000803e3d6000fd5b505050506040513d601f19601f820116820180604052508101906106249190611442565b610663576040517f08c379a000000000000000000000000000000000000000000000000000000000815260040161065a906114bb565b60405180910390fd5b60008451116106a7576040517f08c379a000000000000000000000000000000000000000000000000000000000815260040161069e90611649565b60405180910390fd5b60008351116106eb576040517f08c379a00000000000000000000000000000000000000000000000000000000081526004016106e2906116db565b60405180910390fd5b6000821161072e576040517f08c379a00000000000000000000000000000000000000000000000000000000081526004016107259061176d565b60405180910390fd5b60008111610771576040517f08c379a00000000000000000000000000000000000000000000000000000000081526004016107689061176d565b60405180910390fd5b600361077b610d8c565b9080600181540180825580915050600190039060005260206000200160009091909190916101000a81548173ffffffffffffffffffffffffffffffffffffffff021916908373ffffffffffffffffffffffffffffffffffffffff1602179055506040518060a00160405280858152602001848152602001838152602001828152602001600160038054905061081091906117bc565b8152506002600061081f610d8c565b73ffffffffffffffffffffffffffffffffffffffff1673ffffffffffffffffffffffffffffffffffffffff1681526020019081526020016000206000820151816000019080519060200190610875929190610d94565b506020820151816001019080519060200190610892929190610d94565b5060408201518160020155606082015181600301556080820151816004015590505050505050565b60026020528060005260406000206000915090508060000180546108dd9061181f565b80601f01602080910402602001604051908101604052809291908181526020018280546109099061181f565b80156109565780601f1061092b57610100808354040283529160200191610956565b820191906000526020600020905b81548152906001019060200180831161093957829003601f168201915b50505050509080600101805461096b9061181f565b80601f01602080910402602001604051908101604052809291908181526020018280546109979061181f565b80156109e45780601f106109b9576101008083540402835291602001916109e4565b820191906000526020600020905b8154815290600101906020018083116109c757829003601f168201915b5050505050908060020154908060030154908060040154905085565b600160009054906101000a900473ffffffffffffffffffffffffffffffffffffffff1673ffffffffffffffffffffffffffffffffffffffff166349d407c9610a46610d8c565b6040518263ffffffff1660e01b8152600401610a62919061122b565b602060405180830381865afa158015610a7f573d6000803e3d6000fd5b505050506040513d601f19601f82011682018060405250810190610aa39190611442565b610ae2576040517f08c379a0000000000000000000000000000000000000000000000000000000008152600401610ad9906114bb565b60405180910390fd5b600060026000610af0610d8c565b73ffffffffffffffffffffffffffffffffffffffff1673ffffffffffffffffffffffffffffffffffffffff1681526020019081526020016000206001018054610b389061181f565b905011610b7a576040517f08c379a0000000000000000000000000000000000000000000000000000000008152600401610b71906118c3565b60405180910390fd5b600060026000610b88610d8c565b73ffffffffffffffffffffffffffffffffffffffff1673ffffffffffffffffffffffffffffffffffffffff168152602001908152602001600020600401549050600060036001600380549050610bde91906117bc565b81548110610bef57610bee6118e3565b5b9060005260206000200160009054906101000a900473ffffffffffffffffffffffffffffffffffffffff1690508060038381548110610c3157610c306118e3565b5b9060005260206000200160006101000a81548173ffffffffffffffffffffffffffffffffffffffff021916908373ffffffffffffffffffffffffffffffffffffffff16021790555081600260008373ffffffffffffffffffffffffffffffffffffffff1673ffffffffffffffffffffffffffffffffffffffff168152602001908152602001600020600401819055506003805480610cd257610cd1611912565b5b6001900381819060005260206000200160006101000a81549073ffffffffffffffffffffffffffffffffffffffff0219169055905560026000610d13610d8c565b73ffffffffffffffffffffffffffffffffffffffff1673ffffffffffffffffffffffffffffffffffffffff16815260200190815260200160002060008082016000610d5e9190610e1a565b600182016000610d6e9190610e1a565b60028201600090556003820160009055600482016000905550505050565b600033905090565b828054610da09061181f565b90600052602060002090601f016020900481019282610dc25760008555610e09565b82601f10610ddb57805160ff1916838001178555610e09565b82800160010185558215610e09579182015b82811115610e08578251825591602001919060010190610ded565b5b509050610e169190610e5a565b5090565b508054610e269061181f565b6000825580601f10610e385750610e57565b601f016020900490600052602060002090810190610e569190610e5a565b5b50565b5b80821115610e73576000816000905550600101610e5b565b5090565b600081519050919050565b600082825260208201905092915050565b6000819050602082019050919050565b600073ffffffffffffffffffffffffffffffffffffffff82169050919050565b6000610ece82610ea3565b9050919050565b610ede81610ec3565b82525050565b6000610ef08383610ed5565b60208301905092915050565b6000602082019050919050565b6000610f1482610e77565b610f1e8185610e82565b9350610f2983610e93565b8060005b83811015610f5a578151610f418882610ee4565b9750610f4c83610efc565b925050600181019050610f2d565b5085935050505092915050565b60006020820190508181036000830152610f818184610f09565b905092915050565b6000604051905090565b600080fd5b600080fd5b6000819050919050565b610fb081610f9d565b8114610fbb57600080fd5b50565b600081359050610fcd81610fa7565b92915050565b60008060408385031215610fea57610fe9610f93565b5b6000610ff885828601610fbe565b925050602061100985828601610fbe565b9150509250929050565b61101c81610ec3565b811461102757600080fd5b50565b60008135905061103981611013565b92915050565b600080fd5b600080fd5b6000601f19601f8301169050919050565b7f4e487b7100000000000000000000000000000000000000000000000000000000600052604160045260246000fd5b61109282611049565b810181811067ffffffffffffffff821117156110b1576110b061105a565b5b80604052505050565b60006110c4610f89565b90506110d08282611089565b919050565b600067ffffffffffffffff8211156110f0576110ef61105a565b5b6110f982611049565b9050602081019050919050565b82818337600083830152505050565b6000611128611123846110d5565b6110ba565b90508281526020810184848401111561114457611143611044565b5b61114f848285611106565b509392505050565b600082601f83011261116c5761116b61103f565b5b813561117c848260208601611115565b91505092915050565b600080600080600060a086880312156111a1576111a0610f93565b5b60006111af8882890161102a565b95505060206111c08882890161102a565b945050604086013567ffffffffffffffff8111156111e1576111e0610f98565b5b6111ed88828901611157565b93505060606111fe88828901610fbe565b925050608061120f88828901610fbe565b9150509295509295909350565b61122581610ec3565b82525050565b6000602082019050611240600083018461121c565b92915050565b600080600080608085870312156112605761125f610f93565b5b600085013567ffffffffffffffff81111561127e5761127d610f98565b5b61128a87828801611157565b945050602085013567ffffffffffffffff8111156112ab576112aa610f98565b5b6112b787828801611157565b93505060406112c887828801610fbe565b92505060606112d987828801610fbe565b91505092959194509250565b6000602082840312156112fb576112fa610f93565b5b60006113098482850161102a565b91505092915050565b600081519050919050565b600082825260208201905092915050565b60005b8381101561134c578082015181840152602081019050611331565b8381111561135b576000848401525b50505050565b600061136c82611312565b611376818561131d565b935061138681856020860161132e565b61138f81611049565b840191505092915050565b6113a381610f9d565b82525050565b600060a08201905081810360008301526113c38188611361565b905081810360208301526113d78187611361565b90506113e6604083018661139a565b6113f3606083018561139a565b611400608083018461139a565b9695505050505050565b60008115159050919050565b61141f8161140a565b811461142a57600080fd5b50565b60008151905061143c81611416565b92915050565b60006020828403121561145857611457610f93565b5b60006114668482850161142d565b91505092915050565b7f596f7520617265206e6f7420612062616e6b0000000000000000000000000000600082015250565b60006114a560128361131d565b91506114b08261146f565b602082019050919050565b600060208201905081810360008301526114d481611498565b9050919050565b60006040820190506114f0600083018561139a565b6114fd602083018461139a565b9392505050565b7f596f7520617265206e6f74206120636f6e7472616374206f776e657200000000600082015250565b600061153a601c8361131d565b915061154582611504565b602082019050919050565b600060208201905081810360008301526115698161152d565b9050919050565b6000604082019050611585600083018561121c565b611592602083018461139a565b9392505050565b600060608201905081810360008301526115b38186611361565b90506115c2602083018561139a565b6115cf604083018461139a565b949350505050565b7f506f696e747345786368616e67653a20506f696e747320696d6167652068617360008201527f682063616e6e6f7420626520656d707479000000000000000000000000000000602082015250565b600061163360318361131d565b915061163e826115d7565b604082019050919050565b6000602082019050818103600083015261166281611626565b9050919050565b7f506f696e747345786368616e67653a20506f696e7473206e616d652063616e6e60008201527f6f7420626520656d707479000000000000000000000000000000000000000000602082015250565b60006116c5602b8361131d565b91506116d082611669565b604082019050919050565b600060208201905081810360008301526116f4816116b8565b9050919050565b7f506f696e747345786368616e67653a20506f696e74732065786368616e67652060008201527f726174652063616e6e6f7420626520656d707479000000000000000000000000602082015250565b600061175760348361131d565b9150611762826116fb565b604082019050919050565b600060208201905081810360008301526117868161174a565b9050919050565b7f4e487b7100000000000000000000000000000000000000000000000000000000600052601160045260246000fd5b60006117c782610f9d565b91506117d283610f9d565b9250828210156117e5576117e461178d565b5b828203905092915050565b7f4e487b7100000000000000000000000000000000000000000000000000000000600052602260045260246000fd5b6000600282049050600182168061183757607f821691505b6020821081141561184b5761184a6117f0565b5b50919050565b7f506f696e747345786368616e67653a20596f7520646964206e6f74206164642060008201527f706f696e74732065786368616e6765207261746520666f722052500000000000602082015250565b60006118ad603b8361131d565b91506118b882611851565b604082019050919050565b600060208201905081810360008301526118dc816118a0565b9050919050565b7f4e487b7100000000000000000000000000000000000000000000000000000000600052603260045260246000fd5b7f4e487b7100000000000000000000000000000000000000000000000000000000600052603160045260246000fdfea26469706673582212205f006f76353de5d4407727103812a687710be3eb7e6636e0c4252f558c11d36f64736f6c634300080b0033",
  "immutableReferences": {},
  "source": "// SPDX-License-Identifier: UNLICENSED\n\npragma solidity ^0.8.0;\n\nimport \"@openzeppelin/contracts/utils/Context.sol\";\n\ncontract PointsExchange is Context {\n    address public _owner;\n    PE_RPToken private _rp;\n\n\tmapping(address => Rate) public _rpRates;\n\taddress[] private _existingIssuer2RPs;\n\n\n    mapping(address => string) _rp2other; \n\n    struct Rate {\n        string imgHash;\n        string name;\n        uint oldAsset;\n        uint newAsset;\n        uint keysIdx;\n    }\n    /* struct Proposal {\n        address proposer;\n        string wantPoint;\n        string givePoint;\n        uint256 wantAmount;\n        uint256 giveAmount;\n    }\n    uint256 public proposalId = 0;\n    mapping(uint256 => Proposal) public proposals;\n    mapping(address => uint256[]) public proposalIds;\n    mapping(uint256 => uint256) proposalIdToIndexes; */\n    event UpdateRPRate(address indexed bank, uint oldAsset, uint newAsset);\n    event ExchangeRP(address indexed issuer, address indexed user, string name, uint oldAmount, uint amount);\n    event ChangeOtherRate(address indexed merchant, string rate);\n\n    modifier onlyOwner() {\n        require(_msgSender() == _owner, \"You are not a contract owner\");\n        _;\n    }\n\n    modifier onlyBank() {\n        require(_rp._banks(_msgSender()), \"You are not a bank\");\n        _;\n    }\n\n    constructor(address RPTokenAddr) {\n        _owner = _msgSender();\n        _rp = PE_RPToken(RPTokenAddr);\n    }\n\n    function addRPRate(string memory imgHash, string memory name, uint oldAsset, uint newAsset) public onlyBank {\n        require(bytes(imgHash).length > 0, \"PointsExchange: Points image hash cannot be empty\");\n        require(bytes(name).length > 0, \"PointsExchange: Points name cannot be empty\");\n\t\trequire(oldAsset > 0, \"PointsExchange: Points exchange rate cannot be empty\");\n        require(newAsset > 0, \"PointsExchange: Points exchange rate cannot be empty\");\n        _existingIssuer2RPs.push(_msgSender());\n        _rpRates[_msgSender()] = Rate(imgHash, name, oldAsset, newAsset, _existingIssuer2RPs.length-1);\n    }\n\n    function removeRPRate() public onlyBank {\n        require(bytes(_rpRates[_msgSender()].name).length > 0, \"PointsExchange: You did not add points exchange rate for RP\");\n        uint rowToDelete = _rpRates[_msgSender()].keysIdx;\n        address keyToMove = _existingIssuer2RPs[_existingIssuer2RPs.length-1];\n        _existingIssuer2RPs[rowToDelete] = keyToMove;\n        _rpRates[keyToMove].keysIdx = rowToDelete;\n        _existingIssuer2RPs.pop();\n        delete _rpRates[_msgSender()];\n    }\n\n    function updateRPRate(uint oldAsset, uint newAsset) public onlyBank {\n        _rpRates[_msgSender()].oldAsset = oldAsset;\n        _rpRates[_msgSender()].newAsset = newAsset;\n\n        emit UpdateRPRate(_msgSender(), oldAsset, newAsset);\n    }\n\n    function exchangeRP(address issuer, address user, string memory name, uint oldAmount, uint amount) public onlyOwner{\n        _rp.transfer(user, amount);\n        emit ExchangeRP(issuer, user, name, oldAmount, amount);\n    }\n\n    function getExistingIssuer2RPs() public view returns (address[] memory) {\n        return _existingIssuer2RPs;\n    }\n\n    /* function propose(\n        string memory wantPoint,\n        string memory givePoint,\n        uint256 wantAmount,\n        uint256 giveAmount\n    ) public {\n        proposals[++proposalId] = Proposal(\n            _msgSender(),\n            wantPoint,\n            givePoint,\n            wantAmount,\n            giveAmount\n        );\n        proposalIds[_msgSender()].push(proposalId);\n        proposalIdToIndexes[proposalId] = proposalIds[_msgSender()].length - 1;\n    }\n\n    function accept(uint256 id) public {\n        uint256[] storage proposerProposalIds = proposalIds[\n            proposals[id].proposer\n        ];\n        proposerProposalIds[proposalIdToIndexes[id]] = proposerProposalIds[\n            proposerProposalIds.length - 1\n        ];\n        proposerProposalIds.pop();\n        delete proposalIdToIndexes[id];\n    } */\n}\n\ncontract PE_RPToken {\n    function _banks(address) public view returns (bool) {}\n    function transfer(address recipient, uint256 amount) public virtual returns (bool) {}\n}\n",
  "sourcePath": "/Users/hc/Projects/BCOIP PRO/src/contracts/PointsExchange.sol",
  "compiler": {
    "name": "solc",
    "version": "0.8.11+commit.d7f03943.Emscripten.clang"
  },
  "schemaVersion": "3.4.3",
  "updatedAt": "2022-01-06T07:38:02.142Z",
  "networkType": "ethereum",
  "devdoc": {
    "kind": "dev",
    "methods": {},
    "version": 1
  },
  "userdoc": {
    "kind": "user",
    "methods": {},
    "version": 1
  }
}