{
  "contractName": "PointsExchange",
  "abi": [
    {
      "inputs": [
        {
          "internalType": "address",
          "name": "RPTokenAddr",
          "type": "address"
        }
      ],
      "stateMutability": "nonpayable",
      "type": "constructor"
    },
    {
      "anonymous": false,
      "inputs": [
        {
          "indexed": false,
          "internalType": "address",
          "name": "bank",
          "type": "address"
        },
        {
          "indexed": false,
          "internalType": "string",
          "name": "rate",
          "type": "string"
        }
      ],
      "name": "ChangeExchangeRate",
      "type": "event"
    },
    {
      "inputs": [],
      "name": "proposalId",
      "outputs": [
        {
          "internalType": "uint256",
          "name": "",
          "type": "uint256"
        }
      ],
      "stateMutability": "view",
      "type": "function"
    },
    {
      "inputs": [
        {
          "internalType": "string",
          "name": "rate",
          "type": "string"
        }
      ],
      "name": "changeExchangeRate",
      "outputs": [],
      "stateMutability": "nonpayable",
      "type": "function"
    },
    {
      "inputs": [
        {
          "internalType": "string",
          "name": "wantPoint",
          "type": "string"
        },
        {
          "internalType": "string",
          "name": "givePoint",
          "type": "string"
        },
        {
          "internalType": "uint256",
          "name": "wantAmount",
          "type": "uint256"
        },
        {
          "internalType": "uint256",
          "name": "giveAmount",
          "type": "uint256"
        }
      ],
      "name": "propose",
      "outputs": [],
      "stateMutability": "nonpayable",
      "type": "function"
    }
  ],
  "bytecode": "0x6080604052600060025534801561001557600080fd5b50604051610b04380380610b04833981810160405281019061003791906100e0565b806000806101000a81548173ffffffffffffffffffffffffffffffffffffffff021916908373ffffffffffffffffffffffffffffffffffffffff1602179055505061010d565b600080fd5b600073ffffffffffffffffffffffffffffffffffffffff82169050919050565b60006100ad82610082565b9050919050565b6100bd816100a2565b81146100c857600080fd5b50565b6000815190506100da816100b4565b92915050565b6000602082840312156100f6576100f561007d565b5b6000610104848285016100cb565b91505092915050565b6109e88061011c6000396000f3fe608060405234801561001057600080fd5b50600436106100415760003560e01c806325de0f75146100465780632dfca445146100625780639c3a49ba14610080575b600080fd5b610060600480360381019061005b91906105ac565b61009c565b005b61006a610229565b604051610077919061060e565b60405180910390f35b61009a60048036038101906100959190610655565b61022f565b005b60008054906101000a900473ffffffffffffffffffffffffffffffffffffffff1673ffffffffffffffffffffffffffffffffffffffff166349d407c96100e06103a7565b6040518263ffffffff1660e01b81526004016100fc9190610735565b60206040518083038186803b15801561011457600080fd5b505afa158015610128573d6000803e3d6000fd5b505050506040513d601f19601f8201168201806040525081019061014c9190610788565b61018b576040517f08c379a000000000000000000000000000000000000000000000000000000000815260040161018290610812565b60405180910390fd5b80600160006101986103a7565b73ffffffffffffffffffffffffffffffffffffffff1673ffffffffffffffffffffffffffffffffffffffff16815260200190815260200160002090805190602001906101e59291906103af565b507fd0492565e1a9316ca7b5713fff1ef8364eb9eb5b1600297ed675e4d930743f2a61020f6103a7565b8260405161021e9291906108a9565b60405180910390a150565b60025481565b6040518060a001604052806102426103a7565b73ffffffffffffffffffffffffffffffffffffffff168152602001858152602001848152602001838152602001828152506003600060026000815461028690610908565b919050819055815260200190815260200160002060008201518160000160006101000a81548173ffffffffffffffffffffffffffffffffffffffff021916908373ffffffffffffffffffffffffffffffffffffffff16021790555060208201518160010190805190602001906102fd9291906103af565b50604082015181600201908051906020019061031a9291906103af565b5060608201518160030155608082015181600401559050506004600061033e6103a7565b73ffffffffffffffffffffffffffffffffffffffff1673ffffffffffffffffffffffffffffffffffffffff168152602001908152602001600020600254908060018154018082558091505060019003906000526020600020016000909190919091505550505050565b600033905090565b8280546103bb90610980565b90600052602060002090601f0160209004810192826103dd5760008555610424565b82601f106103f657805160ff1916838001178555610424565b82800160010185558215610424579182015b82811115610423578251825591602001919060010190610408565b5b5090506104319190610435565b5090565b5b8082111561044e576000816000905550600101610436565b5090565b6000604051905090565b600080fd5b600080fd5b600080fd5b600080fd5b6000601f19601f8301169050919050565b7f4e487b7100000000000000000000000000000000000000000000000000000000600052604160045260246000fd5b6104b982610470565b810181811067ffffffffffffffff821117156104d8576104d7610481565b5b80604052505050565b60006104eb610452565b90506104f782826104b0565b919050565b600067ffffffffffffffff82111561051757610516610481565b5b61052082610470565b9050602081019050919050565b82818337600083830152505050565b600061054f61054a846104fc565b6104e1565b90508281526020810184848401111561056b5761056a61046b565b5b61057684828561052d565b509392505050565b600082601f83011261059357610592610466565b5b81356105a384826020860161053c565b91505092915050565b6000602082840312156105c2576105c161045c565b5b600082013567ffffffffffffffff8111156105e0576105df610461565b5b6105ec8482850161057e565b91505092915050565b6000819050919050565b610608816105f5565b82525050565b600060208201905061062360008301846105ff565b92915050565b610632816105f5565b811461063d57600080fd5b50565b60008135905061064f81610629565b92915050565b6000806000806080858703121561066f5761066e61045c565b5b600085013567ffffffffffffffff81111561068d5761068c610461565b5b6106998782880161057e565b945050602085013567ffffffffffffffff8111156106ba576106b9610461565b5b6106c68782880161057e565b93505060406106d787828801610640565b92505060606106e887828801610640565b91505092959194509250565b600073ffffffffffffffffffffffffffffffffffffffff82169050919050565b600061071f826106f4565b9050919050565b61072f81610714565b82525050565b600060208201905061074a6000830184610726565b92915050565b60008115159050919050565b61076581610750565b811461077057600080fd5b50565b6000815190506107828161075c565b92915050565b60006020828403121561079e5761079d61045c565b5b60006107ac84828501610773565b91505092915050565b600082825260208201905092915050565b7f596f7520617265206e6f7420612062616e6b0000000000000000000000000000600082015250565b60006107fc6012836107b5565b9150610807826107c6565b602082019050919050565b6000602082019050818103600083015261082b816107ef565b9050919050565b600081519050919050565b60005b8381101561085b578082015181840152602081019050610840565b8381111561086a576000848401525b50505050565b600061087b82610832565b61088581856107b5565b935061089581856020860161083d565b61089e81610470565b840191505092915050565b60006040820190506108be6000830185610726565b81810360208301526108d08184610870565b90509392505050565b7f4e487b7100000000000000000000000000000000000000000000000000000000600052601160045260246000fd5b6000610913826105f5565b91507fffffffffffffffffffffffffffffffffffffffffffffffffffffffffffffffff821415610946576109456108d9565b5b600182019050919050565b7f4e487b7100000000000000000000000000000000000000000000000000000000600052602260045260246000fd5b6000600282049050600182168061099857607f821691505b602082108114156109ac576109ab610951565b5b5091905056fea26469706673582212205a4aa93d4211cce8571100d4e1ee60199b53ca6259fb5111dc4fc3f16c5ed2e964736f6c63430008090033",
  "immutableReferences": {},
  "source": "// SPDX-License-Identifier: UNLICENSED\n\npragma solidity ^0.8.0;\n\nimport \"@openzeppelin/contracts/utils/Context.sol\";\n\ncontract PointsExchange is Context {\n    PE_RPToken private _rp;\n    mapping (address => string) _exchangeRates; // Existing points issuer's address => 100 \n                                               // means 100 xx points -> 1 RP \n\n    struct Proposal {\n        address proposer;\n        string wantPoint;\n        string givePoint;\n        uint256 wantAmount;\n        uint256 giveAmount;\n    }\n    uint256 public proposalId = 0;\n    mapping (uint256 => Proposal) proposals;\n    mapping (address => uint256[]) proposalIds;\n    event ChangeExchangeRate(address bank, string rate);\n\n    modifier onlyBank() {\n        require(_rp._banks(_msgSender()), \"You are not a bank\");\n        _;\n    }\n\n    constructor(address RPTokenAddr) {\n        _rp = PE_RPToken(RPTokenAddr);\n    }\n\n    function changeExchangeRate(string memory rate) public onlyBank {\n        _exchangeRates[_msgSender()] = rate;\n        emit ChangeExchangeRate(_msgSender(), rate);\n    }\n\n    function propose(string memory wantPoint, string memory givePoint, uint256 wantAmount, uint256 giveAmount) public {\n        proposals[++proposalId] = Proposal(_msgSender(), wantPoint, givePoint, wantAmount, giveAmount);\n        proposalIds[_msgSender()].push(proposalId);\n    }\n}\n\ncontract PE_RPToken {\n    function _banks(address) public view returns (bool) {}\n}\n",
  "sourcePath": "/Users/hc/Projects/BCOIP PRO/src/contracts/PointsExchange.sol",
  "compiler": {
    "name": "solc",
    "version": "0.8.9+commit.e5eed63a.Emscripten.clang"
  },
  "schemaVersion": "3.4.3",
  "updatedAt": "2021-11-06T11:07:59.400Z",
  "devdoc": {
    "kind": "dev",
    "methods": {},
    "version": 1
  },
  "userdoc": {
    "kind": "user",
    "methods": {},
    "version": 1
  }
}