{
  "contractName": "ProductManager",
  "abi": [
    {
      "inputs": [
        {
          "internalType": "address",
          "name": "RPTokenAddr",
          "type": "address"
        }
      ],
      "stateMutability": "nonpayable",
      "type": "constructor"
    },
    {
      "anonymous": false,
      "inputs": [
        {
          "indexed": false,
          "internalType": "uint256",
          "name": "id",
          "type": "uint256"
        },
        {
          "indexed": false,
          "internalType": "string",
          "name": "imgHash",
          "type": "string"
        },
        {
          "indexed": false,
          "internalType": "string",
          "name": "name",
          "type": "string"
        },
        {
          "indexed": false,
          "internalType": "string",
          "name": "description",
          "type": "string"
        },
        {
          "indexed": false,
          "internalType": "uint256",
          "name": "price",
          "type": "uint256"
        },
        {
          "indexed": false,
          "internalType": "address",
          "name": "merchant",
          "type": "address"
        }
      ],
      "name": "ProductCreated",
      "type": "event"
    },
    {
      "anonymous": false,
      "inputs": [
        {
          "indexed": false,
          "internalType": "uint256",
          "name": "id",
          "type": "uint256"
        },
        {
          "indexed": false,
          "internalType": "string",
          "name": "imgHash",
          "type": "string"
        },
        {
          "indexed": false,
          "internalType": "string",
          "name": "name",
          "type": "string"
        },
        {
          "indexed": false,
          "internalType": "string",
          "name": "description",
          "type": "string"
        },
        {
          "indexed": false,
          "internalType": "uint256",
          "name": "price",
          "type": "uint256"
        },
        {
          "indexed": false,
          "internalType": "address",
          "name": "merchant",
          "type": "address"
        }
      ],
      "name": "ProductRemoved",
      "type": "event"
    },
    {
      "inputs": [],
      "name": "_RPToken",
      "outputs": [
        {
          "internalType": "address",
          "name": "",
          "type": "address"
        }
      ],
      "stateMutability": "view",
      "type": "function",
      "constant": true
    },
    {
      "inputs": [],
      "name": "_productCount",
      "outputs": [
        {
          "internalType": "uint256",
          "name": "",
          "type": "uint256"
        }
      ],
      "stateMutability": "view",
      "type": "function",
      "constant": true
    },
    {
      "inputs": [
        {
          "internalType": "uint256",
          "name": "",
          "type": "uint256"
        }
      ],
      "name": "_products",
      "outputs": [
        {
          "internalType": "uint256",
          "name": "id",
          "type": "uint256"
        },
        {
          "internalType": "string",
          "name": "imgHash",
          "type": "string"
        },
        {
          "internalType": "string",
          "name": "name",
          "type": "string"
        },
        {
          "internalType": "string",
          "name": "description",
          "type": "string"
        },
        {
          "internalType": "uint256",
          "name": "price",
          "type": "uint256"
        },
        {
          "internalType": "address",
          "name": "merchant",
          "type": "address"
        },
        {
          "internalType": "uint256",
          "name": "keysIdx",
          "type": "uint256"
        }
      ],
      "stateMutability": "view",
      "type": "function",
      "constant": true
    },
    {
      "inputs": [
        {
          "internalType": "string",
          "name": "imgHash",
          "type": "string"
        },
        {
          "internalType": "string",
          "name": "name",
          "type": "string"
        },
        {
          "internalType": "string",
          "name": "description",
          "type": "string"
        },
        {
          "internalType": "uint256",
          "name": "price",
          "type": "uint256"
        }
      ],
      "name": "uploadProduct",
      "outputs": [],
      "stateMutability": "nonpayable",
      "type": "function"
    },
    {
      "inputs": [
        {
          "internalType": "uint256",
          "name": "id",
          "type": "uint256"
        }
      ],
      "name": "removeProduct",
      "outputs": [],
      "stateMutability": "nonpayable",
      "type": "function"
    },
    {
      "inputs": [
        {
          "internalType": "address",
          "name": "user",
          "type": "address"
        },
        {
          "internalType": "address",
          "name": "merchant",
          "type": "address"
        },
        {
          "internalType": "string",
          "name": "name",
          "type": "string"
        },
        {
          "internalType": "uint256",
          "name": "quantity",
          "type": "uint256"
        },
        {
          "internalType": "uint256",
          "name": "amount",
          "type": "uint256"
        }
      ],
      "name": "createOrder",
      "outputs": [],
      "stateMutability": "nonpayable",
      "type": "function"
    },
    {
      "inputs": [
        {
          "internalType": "address",
          "name": "user",
          "type": "address"
        },
        {
          "internalType": "address",
          "name": "merchant",
          "type": "address"
        },
        {
          "internalType": "uint256",
          "name": "idx",
          "type": "uint256"
        }
      ],
      "name": "finishOrder",
      "outputs": [],
      "stateMutability": "nonpayable",
      "type": "function"
    },
    {
      "inputs": [],
      "name": "getMerchantKeys",
      "outputs": [
        {
          "internalType": "uint256[]",
          "name": "",
          "type": "uint256[]"
        }
      ],
      "stateMutability": "view",
      "type": "function",
      "constant": true
    },
    {
      "inputs": [
        {
          "internalType": "address",
          "name": "user",
          "type": "address"
        },
        {
          "internalType": "address",
          "name": "merchant",
          "type": "address"
        }
      ],
      "name": "getOrders",
      "outputs": [
        {
          "components": [
            {
              "internalType": "string",
              "name": "name",
              "type": "string"
            },
            {
              "internalType": "uint256",
              "name": "quantity",
              "type": "uint256"
            },
            {
              "internalType": "uint256",
              "name": "amount",
              "type": "uint256"
            },
            {
              "internalType": "bool",
              "name": "isFinished",
              "type": "bool"
            }
          ],
          "internalType": "struct ProductManager.Order[]",
          "name": "",
          "type": "tuple[]"
        }
      ],
      "stateMutability": "view",
      "type": "function",
      "constant": true
    },
    {
      "inputs": [],
      "name": "getOrderParties",
      "outputs": [
        {
          "internalType": "address[]",
          "name": "",
          "type": "address[]"
        }
      ],
      "stateMutability": "view",
      "type": "function",
      "constant": true
    }
  ],
  "bytecode": "0x608060405260006002553480156200001657600080fd5b50604051620028e3380380620028e383398181016040528101906200003c91906200012e565b806000806101000a81548173ffffffffffffffffffffffffffffffffffffffff021916908373ffffffffffffffffffffffffffffffffffffffff16021790555080600160006101000a81548173ffffffffffffffffffffffffffffffffffffffff021916908373ffffffffffffffffffffffffffffffffffffffff1602179055505062000160565b600080fd5b600073ffffffffffffffffffffffffffffffffffffffff82169050919050565b6000620000f682620000c9565b9050919050565b6200010881620000e9565b81146200011457600080fd5b50565b6000815190506200012881620000fd565b92915050565b600060208284031215620001475762000146620000c4565b5b6000620001578482850162000117565b91505092915050565b61277380620001706000396000f3fe608060405234801561001057600080fd5b506004361061009e5760003560e01c8063ae0238a511610066578063ae0238a51461014b578063b832eddc14610169578063c2456fce14610185578063d9280df0146101a3578063f40a2233146101d35761009e565b806334e95172146100a35780635ee95cae146100c15780636a937074146100dd578063726a9c33146100f95780639be164d314610115575b600080fd5b6100ab6101f1565b6040516100b8919061192f565b60405180910390f35b6100db60048036038101906100d6919061199b565b6102c3565b005b6100f760048036038101906100f29190611b0e565b61087b565b005b610113600480360381019061010e9190611bf5565b610c74565b005b61012f600480360381019061012a919061199b565b610e4e565b6040516101429796959493929190611cee565b60405180910390f35b610153611048565b6040516101609190611d72565b60405180910390f35b610183600480360381019061017e9190611d8d565b61104e565b005b61018d611399565b60405161019a9190611e24565b60405180910390f35b6101bd60048036038101906101b89190611e3f565b6113bd565b6040516101ca9190612018565b60405180910390f35b6101db6115d6565b6040516101e891906120e9565b60405180910390f35b6060600660006101ff611754565b73ffffffffffffffffffffffffffffffffffffffff1673ffffffffffffffffffffffffffffffffffffffff1681526020019081526020016000208054806020026020016040519081016040528092919081815260200182805480156102b957602002820191906000526020600020905b8160009054906101000a900473ffffffffffffffffffffffffffffffffffffffff1673ffffffffffffffffffffffffffffffffffffffff168152602001906001019080831161026f575b5050505050905090565b600160009054906101000a900473ffffffffffffffffffffffffffffffffffffffff1673ffffffffffffffffffffffffffffffffffffffff16630a76d08d610309611754565b6040518263ffffffff1660e01b81526004016103259190611e24565b602060405180830381865afa158015610342573d6000803e3d6000fd5b505050506040513d601f19601f820116820180604052508101906103669190612137565b6103a5576040517f08c379a000000000000000000000000000000000000000000000000000000000815260040161039c906121b0565b60405180910390fd5b6002548111156103ea576040517f08c379a00000000000000000000000000000000000000000000000000000000081526004016103e19061221c565b60405180910390fd5b6000600360008381526020019081526020016000206040518060e0016040529081600082015481526020016001820180546104249061226b565b80601f01602080910402602001604051908101604052809291908181526020018280546104509061226b565b801561049d5780601f106104725761010080835404028352916020019161049d565b820191906000526020600020905b81548152906001019060200180831161048057829003601f168201915b505050505081526020016002820180546104b69061226b565b80601f01602080910402602001604051908101604052809291908181526020018280546104e29061226b565b801561052f5780601f106105045761010080835404028352916020019161052f565b820191906000526020600020905b81548152906001019060200180831161051257829003601f168201915b505050505081526020016003820180546105489061226b565b80601f01602080910402602001604051908101604052809291908181526020018280546105749061226b565b80156105c15780601f10610596576101008083540402835291602001916105c1565b820191906000526020600020905b8154815290600101906020018083116105a457829003601f168201915b50505050508152602001600482015481526020016005820160009054906101000a900473ffffffffffffffffffffffffffffffffffffffff1673ffffffffffffffffffffffffffffffffffffffff1673ffffffffffffffffffffffffffffffffffffffff168152602001600682015481525050905061063e611754565b73ffffffffffffffffffffffffffffffffffffffff168160a0015173ffffffffffffffffffffffffffffffffffffffff16146106af576040517f08c379a00000000000000000000000000000000000000000000000000000000081526004016106a69061230f565b60405180910390fd5b6000600460006106bd611754565b73ffffffffffffffffffffffffffffffffffffffff1673ffffffffffffffffffffffffffffffffffffffff168152602001908152602001600020905060008260c00151905060008260018480549050610716919061235e565b8154811061072757610726612392565b5b906000526020600020015490508083838154811061074857610747612392565b5b906000526020600020018190555081600360008381526020019081526020016000206006018190555082805480610782576107816123c1565b5b60019003818190600052602060002001600090559055600360008681526020019081526020016000206000808201600090556001820160006107c4919061175c565b6002820160006107d4919061175c565b6003820160006107e4919061175c565b60048201600090556005820160006101000a81549073ffffffffffffffffffffffffffffffffffffffff0219169055600682016000905550507f348019a4e7222e227751087954aec61763e6fc00f4e5d796d9f5fa8052f0249760025485602001518660400151876060015188608001518960a0015160405161086c969594939291906123f0565b60405180910390a15050505050565b600160009054906101000a900473ffffffffffffffffffffffffffffffffffffffff1673ffffffffffffffffffffffffffffffffffffffff16630a76d08d6108c1611754565b6040518263ffffffff1660e01b81526004016108dd9190611e24565b602060405180830381865afa1580156108fa573d6000803e3d6000fd5b505050506040513d601f19601f8201168201806040525081019061091e9190612137565b61095d576040517f08c379a0000000000000000000000000000000000000000000000000000000008152600401610954906121b0565b60405180910390fd5b60008451116109a1576040517f08c379a0000000000000000000000000000000000000000000000000000000008152600401610998906124d8565b60405180910390fd5b60008351116109e5576040517f08c379a00000000000000000000000000000000000000000000000000000000081526004016109dc9061256a565b60405180910390fd5b60008111610a28576040517f08c379a0000000000000000000000000000000000000000000000000000000008152600401610a1f906125fc565b60405180910390fd5b60046000610a34611754565b73ffffffffffffffffffffffffffffffffffffffff1673ffffffffffffffffffffffffffffffffffffffff168152602001908152602001600020600260008154610a7d9061261c565b91905081905590806001815401808255809150506001900390600052602060002001600090919091909150556040518060e001604052806002548152602001858152602001848152602001838152602001828152602001610adc611754565b73ffffffffffffffffffffffffffffffffffffffff168152602001600160046000610b05611754565b73ffffffffffffffffffffffffffffffffffffffff1673ffffffffffffffffffffffffffffffffffffffff16815260200190815260200160002080549050610b4d919061235e565b815250600360006002548152602001908152602001600020600082015181600001556020820151816001019080519060200190610b8b92919061179c565b506040820151816002019080519060200190610ba892919061179c565b506060820151816003019080519060200190610bc592919061179c565b506080820151816004015560a08201518160050160006101000a81548173ffffffffffffffffffffffffffffffffffffffff021916908373ffffffffffffffffffffffffffffffffffffffff16021790555060c082015181600601559050507fee5451dfb711aa7973ca592e1f9fb5f457e40e47fa7dc59e57ff115ffde7db2f60025485858585610c54611754565b604051610c66969594939291906123f0565b60405180910390a150505050565b60008054906101000a900473ffffffffffffffffffffffffffffffffffffffff1673ffffffffffffffffffffffffffffffffffffffff16610cb3611754565b73ffffffffffffffffffffffffffffffffffffffff1614610cd357600080fd5b6000600560008573ffffffffffffffffffffffffffffffffffffffff1673ffffffffffffffffffffffffffffffffffffffff16815260200190815260200160002060008473ffffffffffffffffffffffffffffffffffffffff1673ffffffffffffffffffffffffffffffffffffffff168152602001908152602001600020905080805490508210610d99576040517f08c379a0000000000000000000000000000000000000000000000000000000008152600401610d90906126b1565b60405180910390fd5b808281548110610dac57610dab612392565b5b906000526020600020906004020160030160009054906101000a900460ff1615610e0b576040517f08c379a0000000000000000000000000000000000000000000000000000000008152600401610e029061271d565b60405180910390fd5b6001818381548110610e2057610e1f612392565b5b906000526020600020906004020160030160006101000a81548160ff02191690831515021790555050505050565b6003602052806000526040600020600091509050806000015490806001018054610e779061226b565b80601f0160208091040260200160405190810160405280929190818152602001828054610ea39061226b565b8015610ef05780601f10610ec557610100808354040283529160200191610ef0565b820191906000526020600020905b815481529060010190602001808311610ed357829003601f168201915b505050505090806002018054610f059061226b565b80601f0160208091040260200160405190810160405280929190818152602001828054610f319061226b565b8015610f7e5780601f10610f5357610100808354040283529160200191610f7e565b820191906000526020600020905b815481529060010190602001808311610f6157829003601f168201915b505050505090806003018054610f939061226b565b80601f0160208091040260200160405190810160405280929190818152602001828054610fbf9061226b565b801561100c5780601f10610fe15761010080835404028352916020019161100c565b820191906000526020600020905b815481529060010190602001808311610fef57829003601f168201915b5050505050908060040154908060050160009054906101000a900473ffffffffffffffffffffffffffffffffffffffff16908060060154905087565b60025481565b60008054906101000a900473ffffffffffffffffffffffffffffffffffffffff1673ffffffffffffffffffffffffffffffffffffffff1661108d611754565b73ffffffffffffffffffffffffffffffffffffffff16146110ad57600080fd5b6000600560008773ffffffffffffffffffffffffffffffffffffffff1673ffffffffffffffffffffffffffffffffffffffff16815260200190815260200160002060008673ffffffffffffffffffffffffffffffffffffffff1673ffffffffffffffffffffffffffffffffffffffff16815260200190815260200160002080549050141561127657600660008673ffffffffffffffffffffffffffffffffffffffff1673ffffffffffffffffffffffffffffffffffffffff168152602001908152602001600020849080600181540180825580915050600190039060005260206000200160009091909190916101000a81548173ffffffffffffffffffffffffffffffffffffffff021916908373ffffffffffffffffffffffffffffffffffffffff160217905550600660008573ffffffffffffffffffffffffffffffffffffffff1673ffffffffffffffffffffffffffffffffffffffff168152602001908152602001600020859080600181540180825580915050600190039060005260206000200160009091909190916101000a81548173ffffffffffffffffffffffffffffffffffffffff021916908373ffffffffffffffffffffffffffffffffffffffff1602179055505b600560008673ffffffffffffffffffffffffffffffffffffffff1673ffffffffffffffffffffffffffffffffffffffff16815260200190815260200160002060008573ffffffffffffffffffffffffffffffffffffffff1673ffffffffffffffffffffffffffffffffffffffff1681526020019081526020016000206040518060800160405280858152602001848152602001838152602001600015158152509080600181540180825580915050600190039060005260206000209060040201600090919091909150600082015181600001908051906020019061135b92919061179c565b50602082015181600101556040820151816002015560608201518160030160006101000a81548160ff02191690831515021790555050505050505050565b60008054906101000a900473ffffffffffffffffffffffffffffffffffffffff1681565b60608273ffffffffffffffffffffffffffffffffffffffff166113de611754565b73ffffffffffffffffffffffffffffffffffffffff16148061143257508173ffffffffffffffffffffffffffffffffffffffff1661141a611754565b73ffffffffffffffffffffffffffffffffffffffff16145b61143b57600080fd5b600560008473ffffffffffffffffffffffffffffffffffffffff1673ffffffffffffffffffffffffffffffffffffffff16815260200190815260200160002060008373ffffffffffffffffffffffffffffffffffffffff1673ffffffffffffffffffffffffffffffffffffffff168152602001908152602001600020805480602002602001604051908101604052809291908181526020016000905b828210156115ca578382906000526020600020906004020160405180608001604052908160008201805461150a9061226b565b80601f01602080910402602001604051908101604052809291908181526020018280546115369061226b565b80156115835780601f1061155857610100808354040283529160200191611583565b820191906000526020600020905b81548152906001019060200180831161156657829003601f168201915b5050505050815260200160018201548152602001600282015481526020016003820160009054906101000a900460ff161515151581525050815260200190600101906114d7565b50505050905092915050565b6060600160009054906101000a900473ffffffffffffffffffffffffffffffffffffffff1673ffffffffffffffffffffffffffffffffffffffff16630a76d08d61161e611754565b6040518263ffffffff1660e01b815260040161163a9190611e24565b602060405180830381865afa158015611657573d6000803e3d6000fd5b505050506040513d601f19601f8201168201806040525081019061167b9190612137565b6116ba576040517f08c379a00000000000000000000000000000000000000000000000000000000081526004016116b1906121b0565b60405180910390fd5b600460006116c6611754565b73ffffffffffffffffffffffffffffffffffffffff1673ffffffffffffffffffffffffffffffffffffffff16815260200190815260200160002080548060200260200160405190810160405280929190818152602001828054801561174a57602002820191906000526020600020905b815481526020019060010190808311611736575b5050505050905090565b600033905090565b5080546117689061226b565b6000825580601f1061177a5750611799565b601f0160209004906000526020600020908101906117989190611822565b5b50565b8280546117a89061226b565b90600052602060002090601f0160209004810192826117ca5760008555611811565b82601f106117e357805160ff1916838001178555611811565b82800160010185558215611811579182015b828111156118105782518255916020019190600101906117f5565b5b50905061181e9190611822565b5090565b5b8082111561183b576000816000905550600101611823565b5090565b600081519050919050565b600082825260208201905092915050565b6000819050602082019050919050565b600073ffffffffffffffffffffffffffffffffffffffff82169050919050565b60006118968261186b565b9050919050565b6118a68161188b565b82525050565b60006118b8838361189d565b60208301905092915050565b6000602082019050919050565b60006118dc8261183f565b6118e6818561184a565b93506118f18361185b565b8060005b8381101561192257815161190988826118ac565b9750611914836118c4565b9250506001810190506118f5565b5085935050505092915050565b6000602082019050818103600083015261194981846118d1565b905092915050565b6000604051905090565b600080fd5b600080fd5b6000819050919050565b61197881611965565b811461198357600080fd5b50565b6000813590506119958161196f565b92915050565b6000602082840312156119b1576119b061195b565b5b60006119bf84828501611986565b91505092915050565b600080fd5b600080fd5b6000601f19601f8301169050919050565b7f4e487b7100000000000000000000000000000000000000000000000000000000600052604160045260246000fd5b611a1b826119d2565b810181811067ffffffffffffffff82111715611a3a57611a396119e3565b5b80604052505050565b6000611a4d611951565b9050611a598282611a12565b919050565b600067ffffffffffffffff821115611a7957611a786119e3565b5b611a82826119d2565b9050602081019050919050565b82818337600083830152505050565b6000611ab1611aac84611a5e565b611a43565b905082815260208101848484011115611acd57611acc6119cd565b5b611ad8848285611a8f565b509392505050565b600082601f830112611af557611af46119c8565b5b8135611b05848260208601611a9e565b91505092915050565b60008060008060808587031215611b2857611b2761195b565b5b600085013567ffffffffffffffff811115611b4657611b45611960565b5b611b5287828801611ae0565b945050602085013567ffffffffffffffff811115611b7357611b72611960565b5b611b7f87828801611ae0565b935050604085013567ffffffffffffffff811115611ba057611b9f611960565b5b611bac87828801611ae0565b9250506060611bbd87828801611986565b91505092959194509250565b611bd28161188b565b8114611bdd57600080fd5b50565b600081359050611bef81611bc9565b92915050565b600080600060608486031215611c0e57611c0d61195b565b5b6000611c1c86828701611be0565b9350506020611c2d86828701611be0565b9250506040611c3e86828701611986565b9150509250925092565b611c5181611965565b82525050565b600081519050919050565b600082825260208201905092915050565b60005b83811015611c91578082015181840152602081019050611c76565b83811115611ca0576000848401525b50505050565b6000611cb182611c57565b611cbb8185611c62565b9350611ccb818560208601611c73565b611cd4816119d2565b840191505092915050565b611ce88161188b565b82525050565b600060e082019050611d03600083018a611c48565b8181036020830152611d158189611ca6565b90508181036040830152611d298188611ca6565b90508181036060830152611d3d8187611ca6565b9050611d4c6080830186611c48565b611d5960a0830185611cdf565b611d6660c0830184611c48565b98975050505050505050565b6000602082019050611d876000830184611c48565b92915050565b600080600080600060a08688031215611da957611da861195b565b5b6000611db788828901611be0565b9550506020611dc888828901611be0565b945050604086013567ffffffffffffffff811115611de957611de8611960565b5b611df588828901611ae0565b9350506060611e0688828901611986565b9250506080611e1788828901611986565b9150509295509295909350565b6000602082019050611e396000830184611cdf565b92915050565b60008060408385031215611e5657611e5561195b565b5b6000611e6485828601611be0565b9250506020611e7585828601611be0565b9150509250929050565b600081519050919050565b600082825260208201905092915050565b6000819050602082019050919050565b600082825260208201905092915050565b6000611ec782611c57565b611ed18185611eab565b9350611ee1818560208601611c73565b611eea816119d2565b840191505092915050565b611efe81611965565b82525050565b60008115159050919050565b611f1981611f04565b82525050565b60006080830160008301518482036000860152611f3c8282611ebc565b9150506020830151611f516020860182611ef5565b506040830151611f646040860182611ef5565b506060830151611f776060860182611f10565b508091505092915050565b6000611f8e8383611f1f565b905092915050565b6000602082019050919050565b6000611fae82611e7f565b611fb88185611e8a565b935083602082028501611fca85611e9b565b8060005b858110156120065784840389528151611fe78582611f82565b9450611ff283611f96565b925060208a01995050600181019050611fce565b50829750879550505050505092915050565b600060208201905081810360008301526120328184611fa3565b905092915050565b600081519050919050565b600082825260208201905092915050565b6000819050602082019050919050565b60006120728383611ef5565b60208301905092915050565b6000602082019050919050565b60006120968261203a565b6120a08185612045565b93506120ab83612056565b8060005b838110156120dc5781516120c38882612066565b97506120ce8361207e565b9250506001810190506120af565b5085935050505092915050565b60006020820190508181036000830152612103818461208b565b905092915050565b61211481611f04565b811461211f57600080fd5b50565b6000815190506121318161210b565b92915050565b60006020828403121561214d5761214c61195b565b5b600061215b84828501612122565b91505092915050565b7f596f7520617265206e6f742061206d65726368616e7400000000000000000000600082015250565b600061219a601683611c62565b91506121a582612164565b602082019050919050565b600060208201905081810360008301526121c98161218d565b9050919050565b7f50726f647563743a204e6f20737563682070726f647563740000000000000000600082015250565b6000612206601883611c62565b9150612211826121d0565b602082019050919050565b60006020820190508181036000830152612235816121f9565b9050919050565b7f4e487b7100000000000000000000000000000000000000000000000000000000600052602260045260246000fd5b6000600282049050600182168061228357607f821691505b602082108114156122975761229661223c565b5b50919050565b7f50726f647563743a20596f752063616e6e6f742072656d6f7665206f7468657260008201527f206d65726368616e7473272070726f6475637400000000000000000000000000602082015250565b60006122f9603383611c62565b91506123048261229d565b604082019050919050565b60006020820190508181036000830152612328816122ec565b9050919050565b7f4e487b7100000000000000000000000000000000000000000000000000000000600052601160045260246000fd5b600061236982611965565b915061237483611965565b9250828210156123875761238661232f565b5b828203905092915050565b7f4e487b7100000000000000000000000000000000000000000000000000000000600052603260045260246000fd5b7f4e487b7100000000000000000000000000000000000000000000000000000000600052603160045260246000fd5b600060c0820190506124056000830189611c48565b81810360208301526124178188611ca6565b9050818103604083015261242b8187611ca6565b9050818103606083015261243f8186611ca6565b905061244e6080830185611c48565b61245b60a0830184611cdf565b979650505050505050565b7f50726f647563743a2050726f6475637420696d61676520686173682063616e6e60008201527f6f7420626520656d707479000000000000000000000000000000000000000000602082015250565b60006124c2602b83611c62565b91506124cd82612466565b604082019050919050565b600060208201905081810360008301526124f1816124b5565b9050919050565b7f50726f647563743a2050726f64756374206e616d652063616e6e6f742062652060008201527f656d707479000000000000000000000000000000000000000000000000000000602082015250565b6000612554602583611c62565b915061255f826124f8565b604082019050919050565b6000602082019050818103600083015261258381612547565b9050919050565b7f50726f647563743a2050726f64756374207072696365206d757374206265206760008201527f726561746572207468616e207a65726f00000000000000000000000000000000602082015250565b60006125e6603083611c62565b91506125f18261258a565b604082019050919050565b60006020820190508181036000830152612615816125d9565b9050919050565b600061262782611965565b91507fffffffffffffffffffffffffffffffffffffffffffffffffffffffffffffffff82141561265a5761265961232f565b5b600182019050919050565b7f50726f647563743a204e6f2073756368206f7264657200000000000000000000600082015250565b600061269b601683611c62565b91506126a682612665565b602082019050919050565b600060208201905081810360008301526126ca8161268e565b9050919050565b7f50726f647563743a20546865206f726465722069732066696e69736865640000600082015250565b6000612707601e83611c62565b9150612712826126d1565b602082019050919050565b60006020820190508181036000830152612736816126fa565b905091905056fea2646970667358221220ba69d215c217b625702aa316d595b755defc4e6c6ed940f914d108dd8c04c68164736f6c634300080b0033",
  "immutableReferences": {},
  "source": "// SPDX-License-Identifier: UNLICENSED\n\npragma solidity ^0.8.0;\n\nimport \"@openzeppelin/contracts/utils/Context.sol\";\n\ncontract ProductManager is Context{\n\n\taddress public _RPToken;\n    PM_RPToken private _rp;\n\tuint public _productCount = 0;\n\tmapping(uint => Product) public _products;\n\tmapping (address => uint[]) private _merchantKeys;\n\n\tmapping(address => mapping(address => Order[])) private _orders;\n    mapping(address => address[]) private _orderParites;\n\n\t// Store Products\n\tstruct Product {\n\t\tuint id;\n\t\tstring imgHash;\n\t\tstring name;\n\t\tstring description;\n\t\tuint price;\n\t\taddress merchant;\n\t\tuint keysIdx;\n\t}\n\n\tstruct Order {\n\t\tstring name;\n\t\tuint quantity;\n\t\tuint amount;\n\t\tbool isFinished;\n\t}\n\t\n\tevent ProductCreated(\n\t\tuint id,\n\t\tstring imgHash,\n\t\tstring name,\n\t\tstring description,\n\t\tuint price,\n\t\taddress merchant\n\t);\n\n\tevent ProductRemoved(\n\t\tuint id,\n\t\tstring imgHash,\n\t\tstring name,\n\t\tstring description,\n\t\tuint price,\n\t\taddress merchant\n\t);\n\n\tmodifier onlyMerchant() {\n        require(_rp._merchants(_msgSender()), \"You are not a merchant\");\n        _;\n    }\n\t\n\tconstructor (address RPTokenAddr) {\n\t\t_RPToken = RPTokenAddr;\n        _rp = PM_RPToken(RPTokenAddr);\n\t}\n\n\t// Create Products\n\tfunction uploadProduct(string memory imgHash, string memory name, string memory description, uint price) public onlyMerchant {\n\t\trequire(bytes(imgHash).length > 0, \"Product: Product image hash cannot be empty\");\n\t\trequire(bytes(name).length > 0, \"Product: Product name cannot be empty\");\n\t\trequire(price > 0, \"Product: Product price must be greater than zero\");\n\t\t_merchantKeys[_msgSender()].push(++_productCount);\n\t\t_products[_productCount] = Product(_productCount, imgHash, name, description, price, _msgSender(), _merchantKeys[_msgSender()].length - 1);\n\t\t\n\t\temit ProductCreated(_productCount, imgHash, name, description, price, _msgSender());\n\t}\n\t// Remove Products\n\tfunction removeProduct(uint id) public onlyMerchant {\n\t\trequire(id <= _productCount, \"Product: No such product\");\n\t\tProduct memory product = _products[id];\n\t\trequire(product.merchant == _msgSender(), \"Product: You cannot remove other merchants' product\");\n\t\tuint[] storage keys = _merchantKeys[_msgSender()];\n        uint rowToDelete = product.keysIdx;\n        uint keyToMove = keys[keys.length-1];\n        keys[rowToDelete] = keyToMove;\n        _products[keyToMove].keysIdx = rowToDelete;\n        keys.pop();\n\t\tdelete _products[id];\n\n\t\temit ProductRemoved(_productCount, product.imgHash, product.name, product.description, product.price, product.merchant);\n\t}\n\t// Create Orders\n\tfunction createOrder(address user, address merchant, string memory name, uint quantity, uint amount) public {\n\t\trequire(_msgSender() == _RPToken);\n\t\tif (_orders[user][merchant].length == 0) {\n\t\t\t_orderParites[user].push(merchant);\n\t\t\t_orderParites[merchant].push(user);\n\t\t}\n\t\t_orders[user][merchant].push(Order(name, quantity, amount, false));\n\t}\n\t// Finish Orders\n\tfunction finishOrder(address user, address merchant, uint idx) public {\n\t\trequire(_msgSender() == _RPToken);\n\t\tOrder[] storage orders = _orders[user][merchant];\n\t\trequire(idx < orders.length, \"Product: No such order\");\n\t\trequire(!orders[idx].isFinished, \"Product: The order is finished\");\n\t\torders[idx].isFinished = true;\n\t}\n\t// Get Merchant Keys\n\tfunction getMerchantKeys() public view onlyMerchant returns (uint[] memory) {\n\t\treturn _merchantKeys[_msgSender()];\n\t}\n\t// Get Orders\n\tfunction getOrders(address user, address merchant) public view returns (Order[] memory) {\n\t\trequire(_msgSender() == user || _msgSender() == merchant);\n\t\treturn _orders[user][merchant];\n\t}\n\t// Get Order Parties\n\tfunction getOrderParties() public view returns (address[] memory){\n\t\treturn _orderParites[_msgSender()];\n\t}\n}\n\ncontract PM_RPToken {\n    function _merchants(address) public view returns (bool) {}\n}",
  "sourcePath": "/Users/hc/Projects/BCOIP PRO/src/contracts/ProductManager.sol",
  "compiler": {
    "name": "solc",
    "version": "0.8.11+commit.d7f03943.Emscripten.clang"
  },
  "schemaVersion": "3.4.3",
  "updatedAt": "2021-12-24T07:57:31.143Z",
  "networkType": "ethereum",
  "devdoc": {
    "kind": "dev",
    "methods": {},
    "version": 1
  },
  "userdoc": {
    "kind": "user",
    "methods": {},
    "version": 1
  }
}