{
  "contractName": "ProductManager",
  "abi": [
    {
      "inputs": [
        {
          "internalType": "address",
          "name": "RPTokenAddr",
          "type": "address"
        }
      ],
      "stateMutability": "nonpayable",
      "type": "constructor"
    },
    {
      "anonymous": false,
      "inputs": [
        {
          "indexed": false,
          "internalType": "uint256",
          "name": "id",
          "type": "uint256"
        },
        {
          "indexed": false,
          "internalType": "string",
          "name": "imgHash",
          "type": "string"
        },
        {
          "indexed": false,
          "internalType": "string",
          "name": "name",
          "type": "string"
        },
        {
          "indexed": false,
          "internalType": "string",
          "name": "description",
          "type": "string"
        },
        {
          "indexed": false,
          "internalType": "uint256",
          "name": "price",
          "type": "uint256"
        },
        {
          "indexed": false,
          "internalType": "address",
          "name": "merchant",
          "type": "address"
        }
      ],
      "name": "ProductCreated",
      "type": "event"
    },
    {
      "anonymous": false,
      "inputs": [
        {
          "indexed": false,
          "internalType": "uint256",
          "name": "id",
          "type": "uint256"
        },
        {
          "indexed": false,
          "internalType": "string",
          "name": "imgHash",
          "type": "string"
        },
        {
          "indexed": false,
          "internalType": "string",
          "name": "name",
          "type": "string"
        },
        {
          "indexed": false,
          "internalType": "string",
          "name": "description",
          "type": "string"
        },
        {
          "indexed": false,
          "internalType": "uint256",
          "name": "price",
          "type": "uint256"
        },
        {
          "indexed": false,
          "internalType": "address",
          "name": "merchant",
          "type": "address"
        }
      ],
      "name": "ProductRemoved",
      "type": "event"
    },
    {
      "inputs": [],
      "name": "_RPToken",
      "outputs": [
        {
          "internalType": "address",
          "name": "",
          "type": "address"
        }
      ],
      "stateMutability": "view",
      "type": "function",
      "constant": true
    },
    {
      "inputs": [],
      "name": "_productCount",
      "outputs": [
        {
          "internalType": "uint256",
          "name": "",
          "type": "uint256"
        }
      ],
      "stateMutability": "view",
      "type": "function",
      "constant": true
    },
    {
      "inputs": [
        {
          "internalType": "uint256",
          "name": "",
          "type": "uint256"
        }
      ],
      "name": "_products",
      "outputs": [
        {
          "internalType": "uint256",
          "name": "id",
          "type": "uint256"
        },
        {
          "internalType": "string",
          "name": "imgHash",
          "type": "string"
        },
        {
          "internalType": "string",
          "name": "name",
          "type": "string"
        },
        {
          "internalType": "string",
          "name": "description",
          "type": "string"
        },
        {
          "internalType": "uint256",
          "name": "price",
          "type": "uint256"
        },
        {
          "internalType": "address",
          "name": "merchant",
          "type": "address"
        },
        {
          "internalType": "uint256",
          "name": "keysIdx",
          "type": "uint256"
        }
      ],
      "stateMutability": "view",
      "type": "function",
      "constant": true
    },
    {
      "inputs": [
        {
          "internalType": "string",
          "name": "imgHash",
          "type": "string"
        },
        {
          "internalType": "string",
          "name": "name",
          "type": "string"
        },
        {
          "internalType": "string",
          "name": "description",
          "type": "string"
        },
        {
          "internalType": "uint256",
          "name": "price",
          "type": "uint256"
        }
      ],
      "name": "uploadProduct",
      "outputs": [],
      "stateMutability": "nonpayable",
      "type": "function"
    },
    {
      "inputs": [
        {
          "internalType": "uint256",
          "name": "id",
          "type": "uint256"
        }
      ],
      "name": "removeProduct",
      "outputs": [],
      "stateMutability": "nonpayable",
      "type": "function"
    },
    {
      "inputs": [
        {
          "internalType": "address",
          "name": "user",
          "type": "address"
        },
        {
          "internalType": "address",
          "name": "merchant",
          "type": "address"
        },
        {
          "internalType": "string",
          "name": "name",
          "type": "string"
        },
        {
          "internalType": "uint256",
          "name": "quantity",
          "type": "uint256"
        },
        {
          "internalType": "uint256",
          "name": "amount",
          "type": "uint256"
        }
      ],
      "name": "createOrder",
      "outputs": [],
      "stateMutability": "nonpayable",
      "type": "function"
    },
    {
      "inputs": [
        {
          "internalType": "address",
          "name": "user",
          "type": "address"
        },
        {
          "internalType": "address",
          "name": "merchant",
          "type": "address"
        },
        {
          "internalType": "uint256",
          "name": "idx",
          "type": "uint256"
        }
      ],
      "name": "finishOrder",
      "outputs": [],
      "stateMutability": "nonpayable",
      "type": "function"
    },
    {
      "inputs": [],
      "name": "getMerchantKeys",
      "outputs": [
        {
          "internalType": "uint256[]",
          "name": "",
          "type": "uint256[]"
        }
      ],
      "stateMutability": "view",
      "type": "function",
      "constant": true
    },
    {
      "inputs": [
        {
          "internalType": "address",
          "name": "user",
          "type": "address"
        },
        {
          "internalType": "address",
          "name": "merchant",
          "type": "address"
        }
      ],
      "name": "getOrders",
      "outputs": [
        {
          "components": [
            {
              "internalType": "string",
              "name": "name",
              "type": "string"
            },
            {
              "internalType": "uint256",
              "name": "quantity",
              "type": "uint256"
            },
            {
              "internalType": "uint256",
              "name": "amount",
              "type": "uint256"
            },
            {
              "internalType": "bool",
              "name": "isFinished",
              "type": "bool"
            },
            {
              "internalType": "uint256",
              "name": "timestamp",
              "type": "uint256"
            }
          ],
          "internalType": "struct ProductManager.Order[]",
          "name": "",
          "type": "tuple[]"
        }
      ],
      "stateMutability": "view",
      "type": "function",
      "constant": true
    },
    {
      "inputs": [],
      "name": "getOrderParties",
      "outputs": [
        {
          "internalType": "address[]",
          "name": "",
          "type": "address[]"
        }
      ],
      "stateMutability": "view",
      "type": "function",
      "constant": true
    }
  ],
  "bytecode": "0x608060405260006002553480156200001657600080fd5b50604051620029103803806200291083398181016040528101906200003c91906200012e565b806000806101000a81548173ffffffffffffffffffffffffffffffffffffffff021916908373ffffffffffffffffffffffffffffffffffffffff16021790555080600160006101000a81548173ffffffffffffffffffffffffffffffffffffffff021916908373ffffffffffffffffffffffffffffffffffffffff1602179055505062000160565b600080fd5b600073ffffffffffffffffffffffffffffffffffffffff82169050919050565b6000620000f682620000c9565b9050919050565b6200010881620000e9565b81146200011457600080fd5b50565b6000815190506200012881620000fd565b92915050565b600060208284031215620001475762000146620000c4565b5b6000620001578482850162000117565b91505092915050565b6127a080620001706000396000f3fe608060405234801561001057600080fd5b506004361061009e5760003560e01c8063ae0238a511610066578063ae0238a51461014b578063b832eddc14610169578063c2456fce14610185578063d9280df0146101a3578063f40a2233146101d35761009e565b806334e95172146100a35780635ee95cae146100c15780636a937074146100dd578063726a9c33146100f95780639be164d314610115575b600080fd5b6100ab6101f1565b6040516100b89190611949565b60405180910390f35b6100db60048036038101906100d691906119b5565b6102c3565b005b6100f760048036038101906100f29190611b28565b61087b565b005b610113600480360381019061010e9190611c0f565b610c74565b005b61012f600480360381019061012a91906119b5565b610e4e565b6040516101429796959493929190611d08565b60405180910390f35b610153611048565b6040516101609190611d8c565b60405180910390f35b610183600480360381019061017e9190611da7565b61104e565b005b61018d6113a9565b60405161019a9190611e3e565b60405180910390f35b6101bd60048036038101906101b89190611e59565b6113cd565b6040516101ca9190612045565b60405180910390f35b6101db6115f0565b6040516101e89190612116565b60405180910390f35b6060600660006101ff61176e565b73ffffffffffffffffffffffffffffffffffffffff1673ffffffffffffffffffffffffffffffffffffffff1681526020019081526020016000208054806020026020016040519081016040528092919081815260200182805480156102b957602002820191906000526020600020905b8160009054906101000a900473ffffffffffffffffffffffffffffffffffffffff1673ffffffffffffffffffffffffffffffffffffffff168152602001906001019080831161026f575b5050505050905090565b600160009054906101000a900473ffffffffffffffffffffffffffffffffffffffff1673ffffffffffffffffffffffffffffffffffffffff16630a76d08d61030961176e565b6040518263ffffffff1660e01b81526004016103259190611e3e565b602060405180830381865afa158015610342573d6000803e3d6000fd5b505050506040513d601f19601f820116820180604052508101906103669190612164565b6103a5576040517f08c379a000000000000000000000000000000000000000000000000000000000815260040161039c906121dd565b60405180910390fd5b6002548111156103ea576040517f08c379a00000000000000000000000000000000000000000000000000000000081526004016103e190612249565b60405180910390fd5b6000600360008381526020019081526020016000206040518060e00160405290816000820154815260200160018201805461042490612298565b80601f016020809104026020016040519081016040528092919081815260200182805461045090612298565b801561049d5780601f106104725761010080835404028352916020019161049d565b820191906000526020600020905b81548152906001019060200180831161048057829003601f168201915b505050505081526020016002820180546104b690612298565b80601f01602080910402602001604051908101604052809291908181526020018280546104e290612298565b801561052f5780601f106105045761010080835404028352916020019161052f565b820191906000526020600020905b81548152906001019060200180831161051257829003601f168201915b5050505050815260200160038201805461054890612298565b80601f016020809104026020016040519081016040528092919081815260200182805461057490612298565b80156105c15780601f10610596576101008083540402835291602001916105c1565b820191906000526020600020905b8154815290600101906020018083116105a457829003601f168201915b50505050508152602001600482015481526020016005820160009054906101000a900473ffffffffffffffffffffffffffffffffffffffff1673ffffffffffffffffffffffffffffffffffffffff1673ffffffffffffffffffffffffffffffffffffffff168152602001600682015481525050905061063e61176e565b73ffffffffffffffffffffffffffffffffffffffff168160a0015173ffffffffffffffffffffffffffffffffffffffff16146106af576040517f08c379a00000000000000000000000000000000000000000000000000000000081526004016106a69061233c565b60405180910390fd5b6000600460006106bd61176e565b73ffffffffffffffffffffffffffffffffffffffff1673ffffffffffffffffffffffffffffffffffffffff168152602001908152602001600020905060008260c00151905060008260018480549050610716919061238b565b81548110610727576107266123bf565b5b9060005260206000200154905080838381548110610748576107476123bf565b5b906000526020600020018190555081600360008381526020019081526020016000206006018190555082805480610782576107816123ee565b5b60019003818190600052602060002001600090559055600360008681526020019081526020016000206000808201600090556001820160006107c49190611776565b6002820160006107d49190611776565b6003820160006107e49190611776565b60048201600090556005820160006101000a81549073ffffffffffffffffffffffffffffffffffffffff0219169055600682016000905550507f348019a4e7222e227751087954aec61763e6fc00f4e5d796d9f5fa8052f0249760025485602001518660400151876060015188608001518960a0015160405161086c9695949392919061241d565b60405180910390a15050505050565b600160009054906101000a900473ffffffffffffffffffffffffffffffffffffffff1673ffffffffffffffffffffffffffffffffffffffff16630a76d08d6108c161176e565b6040518263ffffffff1660e01b81526004016108dd9190611e3e565b602060405180830381865afa1580156108fa573d6000803e3d6000fd5b505050506040513d601f19601f8201168201806040525081019061091e9190612164565b61095d576040517f08c379a0000000000000000000000000000000000000000000000000000000008152600401610954906121dd565b60405180910390fd5b60008451116109a1576040517f08c379a000000000000000000000000000000000000000000000000000000000815260040161099890612505565b60405180910390fd5b60008351116109e5576040517f08c379a00000000000000000000000000000000000000000000000000000000081526004016109dc90612597565b60405180910390fd5b60008111610a28576040517f08c379a0000000000000000000000000000000000000000000000000000000008152600401610a1f90612629565b60405180910390fd5b60046000610a3461176e565b73ffffffffffffffffffffffffffffffffffffffff1673ffffffffffffffffffffffffffffffffffffffff168152602001908152602001600020600260008154610a7d90612649565b91905081905590806001815401808255809150506001900390600052602060002001600090919091909150556040518060e001604052806002548152602001858152602001848152602001838152602001828152602001610adc61176e565b73ffffffffffffffffffffffffffffffffffffffff168152602001600160046000610b0561176e565b73ffffffffffffffffffffffffffffffffffffffff1673ffffffffffffffffffffffffffffffffffffffff16815260200190815260200160002080549050610b4d919061238b565b815250600360006002548152602001908152602001600020600082015181600001556020820151816001019080519060200190610b8b9291906117b6565b506040820151816002019080519060200190610ba89291906117b6565b506060820151816003019080519060200190610bc59291906117b6565b506080820151816004015560a08201518160050160006101000a81548173ffffffffffffffffffffffffffffffffffffffff021916908373ffffffffffffffffffffffffffffffffffffffff16021790555060c082015181600601559050507fee5451dfb711aa7973ca592e1f9fb5f457e40e47fa7dc59e57ff115ffde7db2f60025485858585610c5461176e565b604051610c669695949392919061241d565b60405180910390a150505050565b60008054906101000a900473ffffffffffffffffffffffffffffffffffffffff1673ffffffffffffffffffffffffffffffffffffffff16610cb361176e565b73ffffffffffffffffffffffffffffffffffffffff1614610cd357600080fd5b6000600560008573ffffffffffffffffffffffffffffffffffffffff1673ffffffffffffffffffffffffffffffffffffffff16815260200190815260200160002060008473ffffffffffffffffffffffffffffffffffffffff1673ffffffffffffffffffffffffffffffffffffffff168152602001908152602001600020905080805490508210610d99576040517f08c379a0000000000000000000000000000000000000000000000000000000008152600401610d90906126de565b60405180910390fd5b808281548110610dac57610dab6123bf565b5b906000526020600020906005020160030160009054906101000a900460ff1615610e0b576040517f08c379a0000000000000000000000000000000000000000000000000000000008152600401610e029061274a565b60405180910390fd5b6001818381548110610e2057610e1f6123bf565b5b906000526020600020906005020160030160006101000a81548160ff02191690831515021790555050505050565b6003602052806000526040600020600091509050806000015490806001018054610e7790612298565b80601f0160208091040260200160405190810160405280929190818152602001828054610ea390612298565b8015610ef05780601f10610ec557610100808354040283529160200191610ef0565b820191906000526020600020905b815481529060010190602001808311610ed357829003601f168201915b505050505090806002018054610f0590612298565b80601f0160208091040260200160405190810160405280929190818152602001828054610f3190612298565b8015610f7e5780601f10610f5357610100808354040283529160200191610f7e565b820191906000526020600020905b815481529060010190602001808311610f6157829003601f168201915b505050505090806003018054610f9390612298565b80601f0160208091040260200160405190810160405280929190818152602001828054610fbf90612298565b801561100c5780601f10610fe15761010080835404028352916020019161100c565b820191906000526020600020905b815481529060010190602001808311610fef57829003601f168201915b5050505050908060040154908060050160009054906101000a900473ffffffffffffffffffffffffffffffffffffffff16908060060154905087565b60025481565b60008054906101000a900473ffffffffffffffffffffffffffffffffffffffff1673ffffffffffffffffffffffffffffffffffffffff1661108d61176e565b73ffffffffffffffffffffffffffffffffffffffff16146110ad57600080fd5b6000600560008773ffffffffffffffffffffffffffffffffffffffff1673ffffffffffffffffffffffffffffffffffffffff16815260200190815260200160002060008673ffffffffffffffffffffffffffffffffffffffff1673ffffffffffffffffffffffffffffffffffffffff16815260200190815260200160002080549050141561127657600660008673ffffffffffffffffffffffffffffffffffffffff1673ffffffffffffffffffffffffffffffffffffffff168152602001908152602001600020849080600181540180825580915050600190039060005260206000200160009091909190916101000a81548173ffffffffffffffffffffffffffffffffffffffff021916908373ffffffffffffffffffffffffffffffffffffffff160217905550600660008573ffffffffffffffffffffffffffffffffffffffff1673ffffffffffffffffffffffffffffffffffffffff168152602001908152602001600020859080600181540180825580915050600190039060005260206000200160009091909190916101000a81548173ffffffffffffffffffffffffffffffffffffffff021916908373ffffffffffffffffffffffffffffffffffffffff1602179055505b600560008673ffffffffffffffffffffffffffffffffffffffff1673ffffffffffffffffffffffffffffffffffffffff16815260200190815260200160002060008573ffffffffffffffffffffffffffffffffffffffff1673ffffffffffffffffffffffffffffffffffffffff1681526020019081526020016000206040518060a0016040528085815260200184815260200183815260200160001515815260200142815250908060018154018082558091505060019003906000526020600020906005020160009091909190915060008201518160000190805190602001906113619291906117b6565b50602082015181600101556040820151816002015560608201518160030160006101000a81548160ff0219169083151502179055506080820151816004015550505050505050565b60008054906101000a900473ffffffffffffffffffffffffffffffffffffffff1681565b60608273ffffffffffffffffffffffffffffffffffffffff166113ee61176e565b73ffffffffffffffffffffffffffffffffffffffff16148061144257508173ffffffffffffffffffffffffffffffffffffffff1661142a61176e565b73ffffffffffffffffffffffffffffffffffffffff16145b61144b57600080fd5b600560008473ffffffffffffffffffffffffffffffffffffffff1673ffffffffffffffffffffffffffffffffffffffff16815260200190815260200160002060008373ffffffffffffffffffffffffffffffffffffffff1673ffffffffffffffffffffffffffffffffffffffff168152602001908152602001600020805480602002602001604051908101604052809291908181526020016000905b828210156115e457838290600052602060002090600502016040518060a001604052908160008201805461151a90612298565b80601f016020809104026020016040519081016040528092919081815260200182805461154690612298565b80156115935780601f1061156857610100808354040283529160200191611593565b820191906000526020600020905b81548152906001019060200180831161157657829003601f168201915b5050505050815260200160018201548152602001600282015481526020016003820160009054906101000a900460ff16151515158152602001600482015481525050815260200190600101906114e7565b50505050905092915050565b6060600160009054906101000a900473ffffffffffffffffffffffffffffffffffffffff1673ffffffffffffffffffffffffffffffffffffffff16630a76d08d61163861176e565b6040518263ffffffff1660e01b81526004016116549190611e3e565b602060405180830381865afa158015611671573d6000803e3d6000fd5b505050506040513d601f19601f820116820180604052508101906116959190612164565b6116d4576040517f08c379a00000000000000000000000000000000000000000000000000000000081526004016116cb906121dd565b60405180910390fd5b600460006116e061176e565b73ffffffffffffffffffffffffffffffffffffffff1673ffffffffffffffffffffffffffffffffffffffff16815260200190815260200160002080548060200260200160405190810160405280929190818152602001828054801561176457602002820191906000526020600020905b815481526020019060010190808311611750575b5050505050905090565b600033905090565b50805461178290612298565b6000825580601f1061179457506117b3565b601f0160209004906000526020600020908101906117b2919061183c565b5b50565b8280546117c290612298565b90600052602060002090601f0160209004810192826117e4576000855561182b565b82601f106117fd57805160ff191683800117855561182b565b8280016001018555821561182b579182015b8281111561182a57825182559160200191906001019061180f565b5b509050611838919061183c565b5090565b5b8082111561185557600081600090555060010161183d565b5090565b600081519050919050565b600082825260208201905092915050565b6000819050602082019050919050565b600073ffffffffffffffffffffffffffffffffffffffff82169050919050565b60006118b082611885565b9050919050565b6118c0816118a5565b82525050565b60006118d283836118b7565b60208301905092915050565b6000602082019050919050565b60006118f682611859565b6119008185611864565b935061190b83611875565b8060005b8381101561193c57815161192388826118c6565b975061192e836118de565b92505060018101905061190f565b5085935050505092915050565b6000602082019050818103600083015261196381846118eb565b905092915050565b6000604051905090565b600080fd5b600080fd5b6000819050919050565b6119928161197f565b811461199d57600080fd5b50565b6000813590506119af81611989565b92915050565b6000602082840312156119cb576119ca611975565b5b60006119d9848285016119a0565b91505092915050565b600080fd5b600080fd5b6000601f19601f8301169050919050565b7f4e487b7100000000000000000000000000000000000000000000000000000000600052604160045260246000fd5b611a35826119ec565b810181811067ffffffffffffffff82111715611a5457611a536119fd565b5b80604052505050565b6000611a6761196b565b9050611a738282611a2c565b919050565b600067ffffffffffffffff821115611a9357611a926119fd565b5b611a9c826119ec565b9050602081019050919050565b82818337600083830152505050565b6000611acb611ac684611a78565b611a5d565b905082815260208101848484011115611ae757611ae66119e7565b5b611af2848285611aa9565b509392505050565b600082601f830112611b0f57611b0e6119e2565b5b8135611b1f848260208601611ab8565b91505092915050565b60008060008060808587031215611b4257611b41611975565b5b600085013567ffffffffffffffff811115611b6057611b5f61197a565b5b611b6c87828801611afa565b945050602085013567ffffffffffffffff811115611b8d57611b8c61197a565b5b611b9987828801611afa565b935050604085013567ffffffffffffffff811115611bba57611bb961197a565b5b611bc687828801611afa565b9250506060611bd7878288016119a0565b91505092959194509250565b611bec816118a5565b8114611bf757600080fd5b50565b600081359050611c0981611be3565b92915050565b600080600060608486031215611c2857611c27611975565b5b6000611c3686828701611bfa565b9350506020611c4786828701611bfa565b9250506040611c58868287016119a0565b9150509250925092565b611c6b8161197f565b82525050565b600081519050919050565b600082825260208201905092915050565b60005b83811015611cab578082015181840152602081019050611c90565b83811115611cba576000848401525b50505050565b6000611ccb82611c71565b611cd58185611c7c565b9350611ce5818560208601611c8d565b611cee816119ec565b840191505092915050565b611d02816118a5565b82525050565b600060e082019050611d1d600083018a611c62565b8181036020830152611d2f8189611cc0565b90508181036040830152611d438188611cc0565b90508181036060830152611d578187611cc0565b9050611d666080830186611c62565b611d7360a0830185611cf9565b611d8060c0830184611c62565b98975050505050505050565b6000602082019050611da16000830184611c62565b92915050565b600080600080600060a08688031215611dc357611dc2611975565b5b6000611dd188828901611bfa565b9550506020611de288828901611bfa565b945050604086013567ffffffffffffffff811115611e0357611e0261197a565b5b611e0f88828901611afa565b9350506060611e20888289016119a0565b9250506080611e31888289016119a0565b9150509295509295909350565b6000602082019050611e536000830184611cf9565b92915050565b60008060408385031215611e7057611e6f611975565b5b6000611e7e85828601611bfa565b9250506020611e8f85828601611bfa565b9150509250929050565b600081519050919050565b600082825260208201905092915050565b6000819050602082019050919050565b600082825260208201905092915050565b6000611ee182611c71565b611eeb8185611ec5565b9350611efb818560208601611c8d565b611f04816119ec565b840191505092915050565b611f188161197f565b82525050565b60008115159050919050565b611f3381611f1e565b82525050565b600060a0830160008301518482036000860152611f568282611ed6565b9150506020830151611f6b6020860182611f0f565b506040830151611f7e6040860182611f0f565b506060830151611f916060860182611f2a565b506080830151611fa46080860182611f0f565b508091505092915050565b6000611fbb8383611f39565b905092915050565b6000602082019050919050565b6000611fdb82611e99565b611fe58185611ea4565b935083602082028501611ff785611eb5565b8060005b8581101561203357848403895281516120148582611faf565b945061201f83611fc3565b925060208a01995050600181019050611ffb565b50829750879550505050505092915050565b6000602082019050818103600083015261205f8184611fd0565b905092915050565b600081519050919050565b600082825260208201905092915050565b6000819050602082019050919050565b600061209f8383611f0f565b60208301905092915050565b6000602082019050919050565b60006120c382612067565b6120cd8185612072565b93506120d883612083565b8060005b838110156121095781516120f08882612093565b97506120fb836120ab565b9250506001810190506120dc565b5085935050505092915050565b6000602082019050818103600083015261213081846120b8565b905092915050565b61214181611f1e565b811461214c57600080fd5b50565b60008151905061215e81612138565b92915050565b60006020828403121561217a57612179611975565b5b60006121888482850161214f565b91505092915050565b7f596f7520617265206e6f742061206d65726368616e7400000000000000000000600082015250565b60006121c7601683611c7c565b91506121d282612191565b602082019050919050565b600060208201905081810360008301526121f6816121ba565b9050919050565b7f50726f647563743a204e6f20737563682070726f647563740000000000000000600082015250565b6000612233601883611c7c565b915061223e826121fd565b602082019050919050565b6000602082019050818103600083015261226281612226565b9050919050565b7f4e487b7100000000000000000000000000000000000000000000000000000000600052602260045260246000fd5b600060028204905060018216806122b057607f821691505b602082108114156122c4576122c3612269565b5b50919050565b7f50726f647563743a20596f752063616e6e6f742072656d6f7665206f7468657260008201527f206d65726368616e7473272070726f6475637400000000000000000000000000602082015250565b6000612326603383611c7c565b9150612331826122ca565b604082019050919050565b6000602082019050818103600083015261235581612319565b9050919050565b7f4e487b7100000000000000000000000000000000000000000000000000000000600052601160045260246000fd5b60006123968261197f565b91506123a18361197f565b9250828210156123b4576123b361235c565b5b828203905092915050565b7f4e487b7100000000000000000000000000000000000000000000000000000000600052603260045260246000fd5b7f4e487b7100000000000000000000000000000000000000000000000000000000600052603160045260246000fd5b600060c0820190506124326000830189611c62565b81810360208301526124448188611cc0565b905081810360408301526124588187611cc0565b9050818103606083015261246c8186611cc0565b905061247b6080830185611c62565b61248860a0830184611cf9565b979650505050505050565b7f50726f647563743a2050726f6475637420696d61676520686173682063616e6e60008201527f6f7420626520656d707479000000000000000000000000000000000000000000602082015250565b60006124ef602b83611c7c565b91506124fa82612493565b604082019050919050565b6000602082019050818103600083015261251e816124e2565b9050919050565b7f50726f647563743a2050726f64756374206e616d652063616e6e6f742062652060008201527f656d707479000000000000000000000000000000000000000000000000000000602082015250565b6000612581602583611c7c565b915061258c82612525565b604082019050919050565b600060208201905081810360008301526125b081612574565b9050919050565b7f50726f647563743a2050726f64756374207072696365206d757374206265206760008201527f726561746572207468616e207a65726f00000000000000000000000000000000602082015250565b6000612613603083611c7c565b915061261e826125b7565b604082019050919050565b6000602082019050818103600083015261264281612606565b9050919050565b60006126548261197f565b91507fffffffffffffffffffffffffffffffffffffffffffffffffffffffffffffffff8214156126875761268661235c565b5b600182019050919050565b7f50726f647563743a204e6f2073756368206f7264657200000000000000000000600082015250565b60006126c8601683611c7c565b91506126d382612692565b602082019050919050565b600060208201905081810360008301526126f7816126bb565b9050919050565b7f50726f647563743a20546865206f726465722069732066696e69736865640000600082015250565b6000612734601e83611c7c565b915061273f826126fe565b602082019050919050565b6000602082019050818103600083015261276381612727565b905091905056fea264697066735822122042f9e7e9cbdbb40d0671e9f9a2e5deb41eaf0ebf29d23b354a553e4d49fd313c64736f6c634300080b0033",
  "immutableReferences": {},
  "source": "// SPDX-License-Identifier: UNLICENSED\n\npragma solidity ^0.8.0;\n\nimport \"@openzeppelin/contracts/utils/Context.sol\";\n\ncontract ProductManager is Context{\n\n\taddress public _RPToken;\n    PM_RPToken private _rp;\n\tuint public _productCount = 0;\n\tmapping(uint => Product) public _products;\n\tmapping (address => uint[]) private _merchantKeys;\n\n\tmapping(address => mapping(address => Order[])) private _orders;\n    mapping(address => address[]) private _orderParites;\n\n\t// Store Products\n\tstruct Product {\n\t\tuint id;\n\t\tstring imgHash;\n\t\tstring name;\n\t\tstring description;\n\t\tuint price;\n\t\taddress merchant;\n\t\tuint keysIdx;\n\t}\n\n\tstruct Order {\n\t\tstring name;\n\t\tuint quantity;\n\t\tuint amount;\n\t\tbool isFinished;\n\t\tuint timestamp;\n\t}\n\t\n\tevent ProductCreated(\n\t\tuint id,\n\t\tstring imgHash,\n\t\tstring name,\n\t\tstring description,\n\t\tuint price,\n\t\taddress merchant\n\t);\n\n\tevent ProductRemoved(\n\t\tuint id,\n\t\tstring imgHash,\n\t\tstring name,\n\t\tstring description,\n\t\tuint price,\n\t\taddress merchant\n\t);\n\n\tmodifier onlyMerchant() {\n        require(_rp._merchants(_msgSender()), \"You are not a merchant\");\n        _;\n    }\n\t\n\tconstructor (address RPTokenAddr) {\n\t\t_RPToken = RPTokenAddr;\n        _rp = PM_RPToken(RPTokenAddr);\n\t}\n\n\t// Create Products\n\tfunction uploadProduct(string memory imgHash, string memory name, string memory description, uint price) public onlyMerchant {\n\t\trequire(bytes(imgHash).length > 0, \"Product: Product image hash cannot be empty\");\n\t\trequire(bytes(name).length > 0, \"Product: Product name cannot be empty\");\n\t\trequire(price > 0, \"Product: Product price must be greater than zero\");\n\t\t_merchantKeys[_msgSender()].push(++_productCount);\n\t\t_products[_productCount] = Product(_productCount, imgHash, name, description, price, _msgSender(), _merchantKeys[_msgSender()].length - 1);\n\t\t\n\t\temit ProductCreated(_productCount, imgHash, name, description, price, _msgSender());\n\t}\n\t// Remove Products\n\tfunction removeProduct(uint id) public onlyMerchant {\n\t\trequire(id <= _productCount, \"Product: No such product\");\n\t\tProduct memory product = _products[id];\n\t\trequire(product.merchant == _msgSender(), \"Product: You cannot remove other merchants' product\");\n\t\tuint[] storage keys = _merchantKeys[_msgSender()];\n        uint rowToDelete = product.keysIdx;\n        uint keyToMove = keys[keys.length-1];\n        keys[rowToDelete] = keyToMove;\n        _products[keyToMove].keysIdx = rowToDelete;\n        keys.pop();\n\t\tdelete _products[id];\n\n\t\temit ProductRemoved(_productCount, product.imgHash, product.name, product.description, product.price, product.merchant);\n\t}\n\t// Create Orders\n\tfunction createOrder(address user, address merchant, string memory name, uint quantity, uint amount) public {\n\t\trequire(_msgSender() == _RPToken);\n\t\tif (_orders[user][merchant].length == 0) {\n\t\t\t_orderParites[user].push(merchant);\n\t\t\t_orderParites[merchant].push(user);\n\t\t}\n\t\t_orders[user][merchant].push(Order(name, quantity, amount, false, block.timestamp));\n\t}\n\t// Finish Orders\n\tfunction finishOrder(address user, address merchant, uint idx) public {\n\t\trequire(_msgSender() == _RPToken);\n\t\tOrder[] storage orders = _orders[user][merchant];\n\t\trequire(idx < orders.length, \"Product: No such order\");\n\t\trequire(!orders[idx].isFinished, \"Product: The order is finished\");\n\t\torders[idx].isFinished = true;\n\t}\n\t// Get Merchant Keys\n\tfunction getMerchantKeys() public view onlyMerchant returns (uint[] memory) {\n\t\treturn _merchantKeys[_msgSender()];\n\t}\n\t// Get Orders\n\tfunction getOrders(address user, address merchant) public view returns (Order[] memory) {\n\t\trequire(_msgSender() == user || _msgSender() == merchant);\n\t\treturn _orders[user][merchant];\n\t}\n\t// Get Order Parties\n\tfunction getOrderParties() public view returns (address[] memory){\n\t\treturn _orderParites[_msgSender()];\n\t}\n}\n\ncontract PM_RPToken {\n    function _merchants(address) public view returns (bool) {}\n}",
  "sourcePath": "/Users/hc/Projects/BCOIP PRO/src/contracts/ProductManager.sol",
  "compiler": {
    "name": "solc",
    "version": "0.8.11+commit.d7f03943.Emscripten.clang"
  },
  "schemaVersion": "3.4.3",
  "updatedAt": "2021-12-25T03:49:53.123Z",
  "networkType": "ethereum",
  "devdoc": {
    "kind": "dev",
    "methods": {},
    "version": 1
  },
  "userdoc": {
    "kind": "user",
    "methods": {},
    "version": 1
  }
}