{
  "contractName": "ProductManager",
  "abi": [
    {
      "inputs": [
        {
          "internalType": "address",
          "name": "RPTokenAddr",
          "type": "address"
        }
      ],
      "stateMutability": "nonpayable",
      "type": "constructor"
    },
    {
      "inputs": [],
      "name": "_productCount",
      "outputs": [
        {
          "internalType": "uint256",
          "name": "",
          "type": "uint256"
        }
      ],
      "stateMutability": "view",
      "type": "function",
      "constant": true
    },
    {
      "inputs": [
        {
          "internalType": "uint256",
          "name": "",
          "type": "uint256"
        }
      ],
      "name": "_products",
      "outputs": [
        {
          "internalType": "uint256",
          "name": "id",
          "type": "uint256"
        },
        {
          "internalType": "string",
          "name": "imgHash",
          "type": "string"
        },
        {
          "internalType": "string",
          "name": "name",
          "type": "string"
        },
        {
          "internalType": "string",
          "name": "description",
          "type": "string"
        },
        {
          "internalType": "uint256",
          "name": "price",
          "type": "uint256"
        },
        {
          "internalType": "address",
          "name": "merchant",
          "type": "address"
        },
        {
          "internalType": "uint256",
          "name": "keysIdx",
          "type": "uint256"
        }
      ],
      "stateMutability": "view",
      "type": "function",
      "constant": true
    },
    {
      "inputs": [
        {
          "internalType": "string",
          "name": "imgHash",
          "type": "string"
        },
        {
          "internalType": "string",
          "name": "name",
          "type": "string"
        },
        {
          "internalType": "string",
          "name": "description",
          "type": "string"
        },
        {
          "internalType": "uint256",
          "name": "price",
          "type": "uint256"
        }
      ],
      "name": "uploadProduct",
      "outputs": [],
      "stateMutability": "nonpayable",
      "type": "function"
    },
    {
      "inputs": [
        {
          "internalType": "uint256",
          "name": "id",
          "type": "uint256"
        }
      ],
      "name": "removeProduct",
      "outputs": [],
      "stateMutability": "nonpayable",
      "type": "function"
    },
    {
      "inputs": [
        {
          "internalType": "address",
          "name": "user",
          "type": "address"
        },
        {
          "internalType": "address",
          "name": "merchant",
          "type": "address"
        },
        {
          "internalType": "string",
          "name": "name",
          "type": "string"
        },
        {
          "internalType": "uint256",
          "name": "quantity",
          "type": "uint256"
        },
        {
          "internalType": "uint256",
          "name": "amount",
          "type": "uint256"
        }
      ],
      "name": "createOrder",
      "outputs": [],
      "stateMutability": "nonpayable",
      "type": "function"
    },
    {
      "inputs": [
        {
          "internalType": "address",
          "name": "user",
          "type": "address"
        },
        {
          "internalType": "address",
          "name": "merchant",
          "type": "address"
        },
        {
          "internalType": "uint256",
          "name": "idx",
          "type": "uint256"
        }
      ],
      "name": "finishOrder",
      "outputs": [],
      "stateMutability": "nonpayable",
      "type": "function"
    },
    {
      "inputs": [],
      "name": "getMerchantKeys",
      "outputs": [
        {
          "internalType": "uint256[]",
          "name": "",
          "type": "uint256[]"
        }
      ],
      "stateMutability": "view",
      "type": "function",
      "constant": true
    },
    {
      "inputs": [
        {
          "internalType": "address",
          "name": "user",
          "type": "address"
        },
        {
          "internalType": "address",
          "name": "merchant",
          "type": "address"
        }
      ],
      "name": "getOrders",
      "outputs": [
        {
          "components": [
            {
              "internalType": "string",
              "name": "name",
              "type": "string"
            },
            {
              "internalType": "uint256",
              "name": "quantity",
              "type": "uint256"
            },
            {
              "internalType": "uint256",
              "name": "amount",
              "type": "uint256"
            },
            {
              "internalType": "bool",
              "name": "isFinished",
              "type": "bool"
            },
            {
              "internalType": "uint256",
              "name": "timestamp",
              "type": "uint256"
            }
          ],
          "internalType": "struct ProductManager.Order[]",
          "name": "",
          "type": "tuple[]"
        }
      ],
      "stateMutability": "view",
      "type": "function",
      "constant": true
    },
    {
      "inputs": [],
      "name": "getOrderParties",
      "outputs": [
        {
          "internalType": "address[]",
          "name": "",
          "type": "address[]"
        }
      ],
      "stateMutability": "view",
      "type": "function",
      "constant": true
    }
  ],
  "bytecode": "0x608060405260006001553480156200001657600080fd5b50604051620027653803806200276583398181016040528101906200003c9190620000ed565b806000806101000a81548173ffffffffffffffffffffffffffffffffffffffff021916908373ffffffffffffffffffffffffffffffffffffffff160217905550506200011f565b600080fd5b600073ffffffffffffffffffffffffffffffffffffffff82169050919050565b6000620000b58262000088565b9050919050565b620000c781620000a8565b8114620000d357600080fd5b50565b600081519050620000e781620000bc565b92915050565b60006020828403121562000106576200010562000083565b5b60006200011684828501620000d6565b91505092915050565b612636806200012f6000396000f3fe608060405234801561001057600080fd5b50600436106100935760003560e01c80639be164d3116100665780639be164d31461010a578063ae0238a514610140578063b832eddc1461015e578063d9280df01461017a578063f40a2233146101aa57610093565b806334e95172146100985780635ee95cae146100b65780636a937074146100d2578063726a9c33146100ee575b600080fd5b6100a06101c8565b6040516100ad9190611855565b60405180910390f35b6100d060048036038101906100cb91906118c1565b61029a565b005b6100ec60048036038101906100e79190611a34565b6107f9565b005b61010860048036038101906101039190611b1b565b610ba6565b005b610124600480360381019061011f91906118c1565b610d80565b6040516101379796959493929190611c14565b60405180910390f35b610148610f7a565b6040516101559190611c98565b60405180910390f35b61017860048036038101906101739190611cb3565b610f80565b005b610194600480360381019061018f9190611d4a565b6112db565b6040516101a19190611f36565b60405180910390f35b6101b26114fe565b6040516101bf9190612007565b60405180910390f35b6060600560006101d661167a565b73ffffffffffffffffffffffffffffffffffffffff1673ffffffffffffffffffffffffffffffffffffffff16815260200190815260200160002080548060200260200160405190810160405280929190818152602001828054801561029057602002820191906000526020600020905b8160009054906101000a900473ffffffffffffffffffffffffffffffffffffffff1673ffffffffffffffffffffffffffffffffffffffff1681526020019060010190808311610246575b5050505050905090565b60008054906101000a900473ffffffffffffffffffffffffffffffffffffffff1673ffffffffffffffffffffffffffffffffffffffff16630a76d08d6102de61167a565b6040518263ffffffff1660e01b81526004016102fa9190612029565b602060405180830381865afa158015610317573d6000803e3d6000fd5b505050506040513d601f19601f8201168201806040525081019061033b9190612070565b61037a576040517f08c379a0000000000000000000000000000000000000000000000000000000008152600401610371906120e9565b60405180910390fd5b6001548111156103bf576040517f08c379a00000000000000000000000000000000000000000000000000000000081526004016103b690612155565b60405180910390fd5b6000600260008381526020019081526020016000206040518060e0016040529081600082015481526020016001820180546103f9906121a4565b80601f0160208091040260200160405190810160405280929190818152602001828054610425906121a4565b80156104725780601f1061044757610100808354040283529160200191610472565b820191906000526020600020905b81548152906001019060200180831161045557829003601f168201915b5050505050815260200160028201805461048b906121a4565b80601f01602080910402602001604051908101604052809291908181526020018280546104b7906121a4565b80156105045780601f106104d957610100808354040283529160200191610504565b820191906000526020600020905b8154815290600101906020018083116104e757829003601f168201915b5050505050815260200160038201805461051d906121a4565b80601f0160208091040260200160405190810160405280929190818152602001828054610549906121a4565b80156105965780601f1061056b57610100808354040283529160200191610596565b820191906000526020600020905b81548152906001019060200180831161057957829003601f168201915b50505050508152602001600482015481526020016005820160009054906101000a900473ffffffffffffffffffffffffffffffffffffffff1673ffffffffffffffffffffffffffffffffffffffff1673ffffffffffffffffffffffffffffffffffffffff168152602001600682015481525050905061061361167a565b73ffffffffffffffffffffffffffffffffffffffff168160a0015173ffffffffffffffffffffffffffffffffffffffff1614610684576040517f08c379a000000000000000000000000000000000000000000000000000000000815260040161067b90612248565b60405180910390fd5b60006003600061069261167a565b73ffffffffffffffffffffffffffffffffffffffff1673ffffffffffffffffffffffffffffffffffffffff168152602001908152602001600020905060008260c001519050600082600184805490506106eb9190612297565b815481106106fc576106fb6122cb565b5b906000526020600020015490508083838154811061071d5761071c6122cb565b5b906000526020600020018190555081600260008381526020019081526020016000206006018190555082805480610757576107566122fa565b5b60019003818190600052602060002001600090559055600260008681526020019081526020016000206000808201600090556001820160006107999190611682565b6002820160006107a99190611682565b6003820160006107b99190611682565b60048201600090556005820160006101000a81549073ffffffffffffffffffffffffffffffffffffffff0219169055600682016000905550505050505050565b60008054906101000a900473ffffffffffffffffffffffffffffffffffffffff1673ffffffffffffffffffffffffffffffffffffffff16630a76d08d61083d61167a565b6040518263ffffffff1660e01b81526004016108599190612029565b602060405180830381865afa158015610876573d6000803e3d6000fd5b505050506040513d601f19601f8201168201806040525081019061089a9190612070565b6108d9576040517f08c379a00000000000000000000000000000000000000000000000000000000081526004016108d0906120e9565b60405180910390fd5b600084511161091d576040517f08c379a00000000000000000000000000000000000000000000000000000000081526004016109149061239b565b60405180910390fd5b6000835111610961576040517f08c379a00000000000000000000000000000000000000000000000000000000081526004016109589061242d565b60405180910390fd5b600081116109a4576040517f08c379a000000000000000000000000000000000000000000000000000000000815260040161099b906124bf565b60405180910390fd5b600360006109b061167a565b73ffffffffffffffffffffffffffffffffffffffff1673ffffffffffffffffffffffffffffffffffffffff1681526020019081526020016000206001600081546109f9906124df565b91905081905590806001815401808255809150506001900390600052602060002001600090919091909150556040518060e001604052806001548152602001858152602001848152602001838152602001828152602001610a5861167a565b73ffffffffffffffffffffffffffffffffffffffff168152602001600160036000610a8161167a565b73ffffffffffffffffffffffffffffffffffffffff1673ffffffffffffffffffffffffffffffffffffffff16815260200190815260200160002080549050610ac99190612297565b815250600260006001548152602001908152602001600020600082015181600001556020820151816001019080519060200190610b079291906116c2565b506040820151816002019080519060200190610b249291906116c2565b506060820151816003019080519060200190610b419291906116c2565b506080820151816004015560a08201518160050160006101000a81548173ffffffffffffffffffffffffffffffffffffffff021916908373ffffffffffffffffffffffffffffffffffffffff16021790555060c0820151816006015590505050505050565b60008054906101000a900473ffffffffffffffffffffffffffffffffffffffff1673ffffffffffffffffffffffffffffffffffffffff16610be561167a565b73ffffffffffffffffffffffffffffffffffffffff1614610c0557600080fd5b6000600460008573ffffffffffffffffffffffffffffffffffffffff1673ffffffffffffffffffffffffffffffffffffffff16815260200190815260200160002060008473ffffffffffffffffffffffffffffffffffffffff1673ffffffffffffffffffffffffffffffffffffffff168152602001908152602001600020905080805490508210610ccb576040517f08c379a0000000000000000000000000000000000000000000000000000000008152600401610cc290612574565b60405180910390fd5b808281548110610cde57610cdd6122cb565b5b906000526020600020906005020160030160009054906101000a900460ff1615610d3d576040517f08c379a0000000000000000000000000000000000000000000000000000000008152600401610d34906125e0565b60405180910390fd5b6001818381548110610d5257610d516122cb565b5b906000526020600020906005020160030160006101000a81548160ff02191690831515021790555050505050565b6002602052806000526040600020600091509050806000015490806001018054610da9906121a4565b80601f0160208091040260200160405190810160405280929190818152602001828054610dd5906121a4565b8015610e225780601f10610df757610100808354040283529160200191610e22565b820191906000526020600020905b815481529060010190602001808311610e0557829003601f168201915b505050505090806002018054610e37906121a4565b80601f0160208091040260200160405190810160405280929190818152602001828054610e63906121a4565b8015610eb05780601f10610e8557610100808354040283529160200191610eb0565b820191906000526020600020905b815481529060010190602001808311610e9357829003601f168201915b505050505090806003018054610ec5906121a4565b80601f0160208091040260200160405190810160405280929190818152602001828054610ef1906121a4565b8015610f3e5780601f10610f1357610100808354040283529160200191610f3e565b820191906000526020600020905b815481529060010190602001808311610f2157829003601f168201915b5050505050908060040154908060050160009054906101000a900473ffffffffffffffffffffffffffffffffffffffff16908060060154905087565b60015481565b60008054906101000a900473ffffffffffffffffffffffffffffffffffffffff1673ffffffffffffffffffffffffffffffffffffffff16610fbf61167a565b73ffffffffffffffffffffffffffffffffffffffff1614610fdf57600080fd5b6000600460008773ffffffffffffffffffffffffffffffffffffffff1673ffffffffffffffffffffffffffffffffffffffff16815260200190815260200160002060008673ffffffffffffffffffffffffffffffffffffffff1673ffffffffffffffffffffffffffffffffffffffff1681526020019081526020016000208054905014156111a857600560008673ffffffffffffffffffffffffffffffffffffffff1673ffffffffffffffffffffffffffffffffffffffff168152602001908152602001600020849080600181540180825580915050600190039060005260206000200160009091909190916101000a81548173ffffffffffffffffffffffffffffffffffffffff021916908373ffffffffffffffffffffffffffffffffffffffff160217905550600560008573ffffffffffffffffffffffffffffffffffffffff1673ffffffffffffffffffffffffffffffffffffffff168152602001908152602001600020859080600181540180825580915050600190039060005260206000200160009091909190916101000a81548173ffffffffffffffffffffffffffffffffffffffff021916908373ffffffffffffffffffffffffffffffffffffffff1602179055505b600460008673ffffffffffffffffffffffffffffffffffffffff1673ffffffffffffffffffffffffffffffffffffffff16815260200190815260200160002060008573ffffffffffffffffffffffffffffffffffffffff1673ffffffffffffffffffffffffffffffffffffffff1681526020019081526020016000206040518060a0016040528085815260200184815260200183815260200160001515815260200142815250908060018154018082558091505060019003906000526020600020906005020160009091909190915060008201518160000190805190602001906112939291906116c2565b50602082015181600101556040820151816002015560608201518160030160006101000a81548160ff0219169083151502179055506080820151816004015550505050505050565b60608273ffffffffffffffffffffffffffffffffffffffff166112fc61167a565b73ffffffffffffffffffffffffffffffffffffffff16148061135057508173ffffffffffffffffffffffffffffffffffffffff1661133861167a565b73ffffffffffffffffffffffffffffffffffffffff16145b61135957600080fd5b600460008473ffffffffffffffffffffffffffffffffffffffff1673ffffffffffffffffffffffffffffffffffffffff16815260200190815260200160002060008373ffffffffffffffffffffffffffffffffffffffff1673ffffffffffffffffffffffffffffffffffffffff168152602001908152602001600020805480602002602001604051908101604052809291908181526020016000905b828210156114f257838290600052602060002090600502016040518060a0016040529081600082018054611428906121a4565b80601f0160208091040260200160405190810160405280929190818152602001828054611454906121a4565b80156114a15780601f10611476576101008083540402835291602001916114a1565b820191906000526020600020905b81548152906001019060200180831161148457829003601f168201915b5050505050815260200160018201548152602001600282015481526020016003820160009054906101000a900460ff16151515158152602001600482015481525050815260200190600101906113f5565b50505050905092915050565b606060008054906101000a900473ffffffffffffffffffffffffffffffffffffffff1673ffffffffffffffffffffffffffffffffffffffff16630a76d08d61154461167a565b6040518263ffffffff1660e01b81526004016115609190612029565b602060405180830381865afa15801561157d573d6000803e3d6000fd5b505050506040513d601f19601f820116820180604052508101906115a19190612070565b6115e0576040517f08c379a00000000000000000000000000000000000000000000000000000000081526004016115d7906120e9565b60405180910390fd5b600360006115ec61167a565b73ffffffffffffffffffffffffffffffffffffffff1673ffffffffffffffffffffffffffffffffffffffff16815260200190815260200160002080548060200260200160405190810160405280929190818152602001828054801561167057602002820191906000526020600020905b81548152602001906001019080831161165c575b5050505050905090565b600033905090565b50805461168e906121a4565b6000825580601f106116a057506116bf565b601f0160209004906000526020600020908101906116be9190611748565b5b50565b8280546116ce906121a4565b90600052602060002090601f0160209004810192826116f05760008555611737565b82601f1061170957805160ff1916838001178555611737565b82800160010185558215611737579182015b8281111561173657825182559160200191906001019061171b565b5b5090506117449190611748565b5090565b5b80821115611761576000816000905550600101611749565b5090565b600081519050919050565b600082825260208201905092915050565b6000819050602082019050919050565b600073ffffffffffffffffffffffffffffffffffffffff82169050919050565b60006117bc82611791565b9050919050565b6117cc816117b1565b82525050565b60006117de83836117c3565b60208301905092915050565b6000602082019050919050565b600061180282611765565b61180c8185611770565b935061181783611781565b8060005b8381101561184857815161182f88826117d2565b975061183a836117ea565b92505060018101905061181b565b5085935050505092915050565b6000602082019050818103600083015261186f81846117f7565b905092915050565b6000604051905090565b600080fd5b600080fd5b6000819050919050565b61189e8161188b565b81146118a957600080fd5b50565b6000813590506118bb81611895565b92915050565b6000602082840312156118d7576118d6611881565b5b60006118e5848285016118ac565b91505092915050565b600080fd5b600080fd5b6000601f19601f8301169050919050565b7f4e487b7100000000000000000000000000000000000000000000000000000000600052604160045260246000fd5b611941826118f8565b810181811067ffffffffffffffff821117156119605761195f611909565b5b80604052505050565b6000611973611877565b905061197f8282611938565b919050565b600067ffffffffffffffff82111561199f5761199e611909565b5b6119a8826118f8565b9050602081019050919050565b82818337600083830152505050565b60006119d76119d284611984565b611969565b9050828152602081018484840111156119f3576119f26118f3565b5b6119fe8482856119b5565b509392505050565b600082601f830112611a1b57611a1a6118ee565b5b8135611a2b8482602086016119c4565b91505092915050565b60008060008060808587031215611a4e57611a4d611881565b5b600085013567ffffffffffffffff811115611a6c57611a6b611886565b5b611a7887828801611a06565b945050602085013567ffffffffffffffff811115611a9957611a98611886565b5b611aa587828801611a06565b935050604085013567ffffffffffffffff811115611ac657611ac5611886565b5b611ad287828801611a06565b9250506060611ae3878288016118ac565b91505092959194509250565b611af8816117b1565b8114611b0357600080fd5b50565b600081359050611b1581611aef565b92915050565b600080600060608486031215611b3457611b33611881565b5b6000611b4286828701611b06565b9350506020611b5386828701611b06565b9250506040611b64868287016118ac565b9150509250925092565b611b778161188b565b82525050565b600081519050919050565b600082825260208201905092915050565b60005b83811015611bb7578082015181840152602081019050611b9c565b83811115611bc6576000848401525b50505050565b6000611bd782611b7d565b611be18185611b88565b9350611bf1818560208601611b99565b611bfa816118f8565b840191505092915050565b611c0e816117b1565b82525050565b600060e082019050611c29600083018a611b6e565b8181036020830152611c3b8189611bcc565b90508181036040830152611c4f8188611bcc565b90508181036060830152611c638187611bcc565b9050611c726080830186611b6e565b611c7f60a0830185611c05565b611c8c60c0830184611b6e565b98975050505050505050565b6000602082019050611cad6000830184611b6e565b92915050565b600080600080600060a08688031215611ccf57611cce611881565b5b6000611cdd88828901611b06565b9550506020611cee88828901611b06565b945050604086013567ffffffffffffffff811115611d0f57611d0e611886565b5b611d1b88828901611a06565b9350506060611d2c888289016118ac565b9250506080611d3d888289016118ac565b9150509295509295909350565b60008060408385031215611d6157611d60611881565b5b6000611d6f85828601611b06565b9250506020611d8085828601611b06565b9150509250929050565b600081519050919050565b600082825260208201905092915050565b6000819050602082019050919050565b600082825260208201905092915050565b6000611dd282611b7d565b611ddc8185611db6565b9350611dec818560208601611b99565b611df5816118f8565b840191505092915050565b611e098161188b565b82525050565b60008115159050919050565b611e2481611e0f565b82525050565b600060a0830160008301518482036000860152611e478282611dc7565b9150506020830151611e5c6020860182611e00565b506040830151611e6f6040860182611e00565b506060830151611e826060860182611e1b565b506080830151611e956080860182611e00565b508091505092915050565b6000611eac8383611e2a565b905092915050565b6000602082019050919050565b6000611ecc82611d8a565b611ed68185611d95565b935083602082028501611ee885611da6565b8060005b85811015611f245784840389528151611f058582611ea0565b9450611f1083611eb4565b925060208a01995050600181019050611eec565b50829750879550505050505092915050565b60006020820190508181036000830152611f508184611ec1565b905092915050565b600081519050919050565b600082825260208201905092915050565b6000819050602082019050919050565b6000611f908383611e00565b60208301905092915050565b6000602082019050919050565b6000611fb482611f58565b611fbe8185611f63565b9350611fc983611f74565b8060005b83811015611ffa578151611fe18882611f84565b9750611fec83611f9c565b925050600181019050611fcd565b5085935050505092915050565b600060208201905081810360008301526120218184611fa9565b905092915050565b600060208201905061203e6000830184611c05565b92915050565b61204d81611e0f565b811461205857600080fd5b50565b60008151905061206a81612044565b92915050565b60006020828403121561208657612085611881565b5b60006120948482850161205b565b91505092915050565b7f596f7520617265206e6f742061206d65726368616e7400000000000000000000600082015250565b60006120d3601683611b88565b91506120de8261209d565b602082019050919050565b60006020820190508181036000830152612102816120c6565b9050919050565b7f50726f647563743a204e6f20737563682070726f647563740000000000000000600082015250565b600061213f601883611b88565b915061214a82612109565b602082019050919050565b6000602082019050818103600083015261216e81612132565b9050919050565b7f4e487b7100000000000000000000000000000000000000000000000000000000600052602260045260246000fd5b600060028204905060018216806121bc57607f821691505b602082108114156121d0576121cf612175565b5b50919050565b7f50726f647563743a20596f752063616e6e6f742072656d6f7665206f7468657260008201527f206d65726368616e7473272070726f6475637400000000000000000000000000602082015250565b6000612232603383611b88565b915061223d826121d6565b604082019050919050565b6000602082019050818103600083015261226181612225565b9050919050565b7f4e487b7100000000000000000000000000000000000000000000000000000000600052601160045260246000fd5b60006122a28261188b565b91506122ad8361188b565b9250828210156122c0576122bf612268565b5b828203905092915050565b7f4e487b7100000000000000000000000000000000000000000000000000000000600052603260045260246000fd5b7f4e487b7100000000000000000000000000000000000000000000000000000000600052603160045260246000fd5b7f50726f647563743a2050726f6475637420696d61676520686173682063616e6e60008201527f6f7420626520656d707479000000000000000000000000000000000000000000602082015250565b6000612385602b83611b88565b915061239082612329565b604082019050919050565b600060208201905081810360008301526123b481612378565b9050919050565b7f50726f647563743a2050726f64756374206e616d652063616e6e6f742062652060008201527f656d707479000000000000000000000000000000000000000000000000000000602082015250565b6000612417602583611b88565b9150612422826123bb565b604082019050919050565b600060208201905081810360008301526124468161240a565b9050919050565b7f50726f647563743a2050726f64756374207072696365206d757374206265206760008201527f726561746572207468616e207a65726f00000000000000000000000000000000602082015250565b60006124a9603083611b88565b91506124b48261244d565b604082019050919050565b600060208201905081810360008301526124d88161249c565b9050919050565b60006124ea8261188b565b91507fffffffffffffffffffffffffffffffffffffffffffffffffffffffffffffffff82141561251d5761251c612268565b5b600182019050919050565b7f50726f647563743a204e6f2073756368206f7264657200000000000000000000600082015250565b600061255e601683611b88565b915061256982612528565b602082019050919050565b6000602082019050818103600083015261258d81612551565b9050919050565b7f50726f647563743a20546865206f726465722069732066696e69736865640000600082015250565b60006125ca601e83611b88565b91506125d582612594565b602082019050919050565b600060208201905081810360008301526125f9816125bd565b905091905056fea2646970667358221220abc8fc31b760bb5cbe474a2be0c1406a192406552adabafacc0ade5e862205f264736f6c634300080c0033",
  "immutableReferences": {},
  "source": "// SPDX-License-Identifier: UNLICENSED\n\npragma solidity ^0.8.0;\n\nimport \"@openzeppelin/contracts/utils/Context.sol\";\n\ncontract ProductManager is Context{\n\n    PM_RPToken private _rp;\n\tuint public _productCount = 0;\n\tmapping(uint => Product) public _products;\n\tmapping (address => uint[]) private _merchantKeys;\n\n\tmapping(address => mapping(address => Order[])) private _orders;\n    mapping(address => address[]) private _orderParites;\n\n\t// Store Products\n\tstruct Product {\n\t\tuint id;\n\t\tstring imgHash;\n\t\tstring name;\n\t\tstring description;\n\t\tuint price;\n\t\taddress merchant;\n\t\tuint keysIdx;\n\t}\n\n\tstruct Order {\n\t\tstring name;\n\t\tuint quantity;\n\t\tuint amount;\n\t\tbool isFinished;\n\t\tuint timestamp;\n\t}\n\t\n\t/* event ProductCreated(\n\t\tuint id,\n\t\tstring imgHash,\n\t\tstring name,\n\t\tstring description,\n\t\tuint price,\n\t\taddress merchant\n\t);\n\n\tevent ProductRemoved(\n\t\tuint id,\n\t\tstring imgHash,\n\t\tstring name,\n\t\tstring description,\n\t\tuint price,\n\t\taddress merchant\n\t); */\n\n\tmodifier onlyMerchant() {\n        require(_rp._merchants(_msgSender()), \"You are not a merchant\");\n        _;\n    }\n\t\n\tconstructor (address RPTokenAddr) {\n        _rp = PM_RPToken(RPTokenAddr);\n\t}\n\n\t// Create Products\n\tfunction uploadProduct(string memory imgHash, string memory name, string memory description, uint price) public onlyMerchant {\n\t\trequire(bytes(imgHash).length > 0, \"Product: Product image hash cannot be empty\");\n\t\trequire(bytes(name).length > 0, \"Product: Product name cannot be empty\");\n\t\trequire(price > 0, \"Product: Product price must be greater than zero\");\n\t\t_merchantKeys[_msgSender()].push(++_productCount);\n\t\t_products[_productCount] = Product(_productCount, imgHash, name, description, price, _msgSender(), _merchantKeys[_msgSender()].length - 1);\n\t\t\n\t\t// emit ProductCreated(_productCount, imgHash, name, description, price, _msgSender());\n\t}\n\t// Remove Products\n\tfunction removeProduct(uint id) public onlyMerchant {\n\t\trequire(id <= _productCount, \"Product: No such product\");\n\t\tProduct memory product = _products[id];\n\t\trequire(product.merchant == _msgSender(), \"Product: You cannot remove other merchants' product\");\n\t\tuint[] storage keys = _merchantKeys[_msgSender()];\n        uint rowToDelete = product.keysIdx;\n        uint keyToMove = keys[keys.length-1];\n        keys[rowToDelete] = keyToMove;\n        _products[keyToMove].keysIdx = rowToDelete;\n        keys.pop();\n\t\tdelete _products[id];\n\n\t\t// emit ProductRemoved(_productCount, product.imgHash, product.name, product.description, product.price, product.merchant);\n\t}\n\t// Create Orders\n\tfunction createOrder(address user, address merchant, string memory name, uint quantity, uint amount) public {\n\t\trequire(_msgSender() == address(_rp));\n\t\tif (_orders[user][merchant].length == 0) {\n\t\t\t_orderParites[user].push(merchant);\n\t\t\t_orderParites[merchant].push(user);\n\t\t}\n\t\t_orders[user][merchant].push(Order(name, quantity, amount, false, block.timestamp));\n\t}\n\t// Finish Orders\n\tfunction finishOrder(address user, address merchant, uint idx) public {\n\t\trequire(_msgSender() == address(_rp));\n\t\tOrder[] storage orders = _orders[user][merchant];\n\t\trequire(idx < orders.length, \"Product: No such order\");\n\t\trequire(!orders[idx].isFinished, \"Product: The order is finished\");\n\t\torders[idx].isFinished = true;\n\t}\n\t// Get Merchant Keys\n\tfunction getMerchantKeys() public view onlyMerchant returns (uint[] memory) {\n\t\treturn _merchantKeys[_msgSender()];\n\t}\n\t// Get Orders\n\tfunction getOrders(address user, address merchant) public view returns (Order[] memory) {\n\t\trequire(_msgSender() == user || _msgSender() == merchant);\n\t\treturn _orders[user][merchant];\n\t}\n\t// Get Order Parties\n\tfunction getOrderParties() public view returns (address[] memory){\n\t\treturn _orderParites[_msgSender()];\n\t}\n}\n\ncontract PM_RPToken {\n    function _merchants(address) public view returns (bool) {}\n}",
  "sourcePath": "/Users/hc/Documents/Thesis/BCLP/src/contracts/ProductManager.sol",
  "compiler": {
    "name": "solc",
    "version": "0.8.12+commit.f00d7308.Emscripten.clang"
  },
  "schemaVersion": "3.4.3",
  "updatedAt": "2022-03-23T04:54:13.441Z",
  "networkType": "ethereum",
  "devdoc": {
    "kind": "dev",
    "methods": {},
    "version": 1
  },
  "userdoc": {
    "kind": "user",
    "methods": {},
    "version": 1
  }
}