{
  "contractName": "RP_BankLiability",
  "abi": [
    {
      "inputs": [
        {
          "internalType": "address",
          "name": "",
          "type": "address"
        },
        {
          "internalType": "uint256",
          "name": "",
          "type": "uint256"
        }
      ],
      "name": "increaseLiability",
      "outputs": [],
      "stateMutability": "nonpayable",
      "type": "function"
    },
    {
      "inputs": [
        {
          "internalType": "address",
          "name": "",
          "type": "address"
        },
        {
          "internalType": "uint256",
          "name": "",
          "type": "uint256"
        }
      ],
      "name": "decreaseLiability",
      "outputs": [],
      "stateMutability": "nonpayable",
      "type": "function"
    }
  ],
  "bytecode": "0x608060405234801561001057600080fd5b5061018a806100206000396000f3fe608060405234801561001057600080fd5b50600436106100365760003560e01c80639c23c86a1461003b578063b9ff644a14610057575b600080fd5b61005560048036038101906100509190610114565b610073565b005b610071600480360381019061006c9190610114565b610077565b005b5050565b5050565b600080fd5b600073ffffffffffffffffffffffffffffffffffffffff82169050919050565b60006100ab82610080565b9050919050565b6100bb816100a0565b81146100c657600080fd5b50565b6000813590506100d8816100b2565b92915050565b6000819050919050565b6100f1816100de565b81146100fc57600080fd5b50565b60008135905061010e816100e8565b92915050565b6000806040838503121561012b5761012a61007b565b5b6000610139858286016100c9565b925050602061014a858286016100ff565b915050925092905056fea2646970667358221220fc01ccd1d475d39933901f5b3977ddbd69fb8829f1e5d4c2ea5c1a204a38b02164736f6c634300080b0033",
  "immutableReferences": {},
  "source": "// SPDX-License-Identifier: MIT\n\npragma solidity ^0.8.0;\n\nimport \"@openzeppelin/contracts/token/ERC20/IERC20.sol\";\nimport \"@openzeppelin/contracts/token/ERC20/extensions/IERC20Metadata.sol\";\nimport \"@openzeppelin/contracts/utils/Context.sol\";\n\n/**\n * @dev Implementation of the {IERC20} interface.\n *\n * This implementation is agnostic to the way tokens are created. This means\n * that a supply mechanism has to be added in a derived contract using {_mint}.\n * For a generic mechanism see {ERC20PresetMinterPauser}.\n *\n * TIP: For a detailed writeup see our guide\n * https://forum.zeppelin.solutions/t/how-to-implement-erc20-supply-mechanisms/226[How\n * to implement supply mechanisms].\n *\n * We have followed general OpenZeppelin guidelines: functions revert instead\n * of returning `false` on failure. This behavior is nonetheless conventional\n * and does not conflict with the expectations of ERC20 applications.\n *\n * Additionally, an {Approval} event is emitted on calls to {transferFrom}.\n * This allows applications to reconstruct the allowance for all accounts just\n * by listening to said events. Other implementations of the EIP may not emit\n * these events, as it isn't required by the specification.\n *\n * Finally, the non-standard {decreaseAllowance} and {increaseAllowance}\n * functions have been added to mitigate the well-known issues around setting\n * allowances. See {IERC20-approve}.\n */\ncontract RPToken is Context, IERC20, IERC20Metadata {\n    address public _owner;\n    RP_BankLiability private _bl;\n    RP_ProductManager private _pm;\n\n    mapping (address => bool) public _banks;\n    mapping (address => bool) public _issuers;\n    mapping (address => bool) public _users;\n    mapping (address => bool) public _merchants;\n\n    mapping (address => uint256) private _balances;\n    \n    mapping (address => mapping (address => uint256)) private _allowances;\n    \n    uint256 private _totalSupply;\n\n    string private _name;\n    string private _symbol;\n    \n    event Realize(address indexed merchant, address indexed bank, uint amount);\n\n    modifier onlyOwner() {\n        require(_msgSender() == _owner, \"You are not a contract owner\");\n        _;\n    }\n    \n    modifier onlyBank() {\n        require(_banks[_msgSender()], \"You are not a bank\");\n        _;\n    }\n    \n    modifier onlyIssuer() {\n        require(_issuers[_msgSender()], \"You are not an issuer\");\n        _;\n    }\n    \n    modifier onlyUser() {\n        require(_users[_msgSender()], \"You are not a user\");\n        _;\n    }\n    \n    modifier onlyMerchant() {\n        require(_merchants[_msgSender()], \"You are not a merchant\");\n        _;\n    }\n\n    /**\n     * @dev Sets the values for {name} and {symbol}.\n     *\n     * The defaut value of {decimals} is 18. To select a different value for\n     * {decimals} you should overload it.\n     *\n     * All two of these values are immutable: they can only be set once during\n     * construction.\n     */\n    constructor (string memory name_, string memory symbol_) {\n        _name = name_;\n        _symbol = symbol_;\n        _owner = _msgSender();\n    }\n\n    /**\n     * @dev Returns the name of the token.\n     */\n    function name() public view virtual override returns (string memory) {\n        return _name;\n    }\n\n    /**\n     * @dev Returns the symbol of the token, usually a shorter version of the\n     * name.\n     */\n    function symbol() public view virtual override returns (string memory) {\n        return _symbol;\n    }\n\n    /**\n     * @dev Returns the number of decimals used to get its user representation.\n     * For example, if `decimals` equals `2`, a balance of `505` tokens should\n     * be displayed to a user as `5,05` (`505 / 10 ** 2`).\n     *\n     * Tokens usually opt for a value of 18, imitating the relationship between\n     * Ether and Wei. This is the value {ERC20} uses, unless this function is\n     * overridden;\n     *\n     * NOTE: This information is only used for _display_ purposes: it in\n     * no way affects any of the arithmetic of the contract, including\n     * {IERC20-balanceOf} and {IERC20-transfer}.\n     */\n    function decimals() public view virtual override returns (uint8) {\n        return 0;\n    }\n\n    /**\n     * @dev See {IERC20-totalSupply}.\n     */\n    function totalSupply() public view virtual override returns (uint256) {\n        return _totalSupply;\n    }\n\n    /**\n     * @dev See {IERC20-balanceOf}.\n     */\n    function balanceOf(address account) public view virtual override returns (uint256) {\n        return _balances[account];\n    }\n\n    /**\n     * @dev See {IERC20-transfer}.\n     *\n     * Requirements:\n     *\n     * - `recipient` cannot be the zero address.\n     * - the caller must have a balance of at least `amount`.\n     */\n    function transfer(address recipient, uint256 amount) public virtual override returns (bool) {\n        require((isBank(_msgSender()) && isIssuer(recipient)) \n        || (isIssuer(_msgSender()) && isUser(recipient)) \n        || (isUser(_msgSender()) && isMerchant(recipient)) \n        || (isMerchant(_msgSender()) && isBank(recipient)));\n        _transfer(_msgSender(), recipient, amount);\n        return true;\n    }\n\n    /**\n     * @dev See {IERC20-allowance}.\n     */\n    function allowance(address owner, address spender) public view virtual override returns (uint256) {\n        return _allowances[owner][spender];\n    }\n\n    /**\n     * @dev See {IERC20-approve}.\n     *\n     * Requirements:\n     *\n     * - `spender` cannot be the zero address.\n     */\n    function approve(address spender, uint256 amount) public virtual override returns (bool) {\n        _approve(_msgSender(), spender, amount);\n        return true;\n    }\n\n    /**\n     * @dev See {IERC20-transferFrom}.\n     *\n     * Emits an {Approval} event indicating the updated allowance. This is not\n     * required by the EIP. See the note at the beginning of {ERC20}.\n     *\n     * Requirements:\n     *\n     * - `sender` and `recipient` cannot be the zero address.\n     * - `sender` must have a balance of at least `amount`.\n     * - the caller must have allowance for ``sender``'s tokens of at least\n     * `amount`.\n     */\n    function transferFrom(address sender, address recipient, uint256 amount) public virtual override returns (bool) {\n        _transfer(sender, recipient, amount);\n\n        uint256 currentAllowance = _allowances[sender][_msgSender()];\n        require(currentAllowance >= amount, \"ERC20: transfer amount exceeds allowance\");\n        _approve(sender, _msgSender(), currentAllowance - amount);\n\n        return true;\n    }\n\n    /**\n     * @dev Atomically increases the allowance granted to `spender` by the caller.\n     *\n     * This is an alternative to {approve} that can be used as a mitigation for\n     * problems described in {IERC20-approve}.\n     *\n     * Emits an {Approval} event indicating the updated allowance.\n     *\n     * Requirements:\n     *\n     * - `spender` cannot be the zero address.\n     */\n    function increaseAllowance(address spender, uint256 addedValue) public virtual returns (bool) {\n        _approve(_msgSender(), spender, _allowances[_msgSender()][spender] + addedValue);\n        return true;\n    }\n\n    /**\n     * @dev Atomically decreases the allowance granted to `spender` by the caller.\n     *\n     * This is an alternative to {approve} that can be used as a mitigation for\n     * problems described in {IERC20-approve}.\n     *\n     * Emits an {Approval} event indicating the updated allowance.\n     *\n     * Requirements:\n     *\n     * - `spender` cannot be the zero address.\n     * - `spender` must have allowance for the caller of at least\n     * `subtractedValue`.\n     */\n    function decreaseAllowance(address spender, uint256 subtractedValue) public virtual returns (bool) {\n        uint256 currentAllowance = _allowances[_msgSender()][spender];\n        require(currentAllowance >= subtractedValue, \"ERC20: decreased allowance below zero\");\n        _approve(_msgSender(), spender, currentAllowance - subtractedValue);\n\n        return true;\n    }\n\n    /**\n     * @dev Moves tokens `amount` from `sender` to `recipient`.\n     *\n     * This is internal function is equivalent to {transfer}, and can be used to\n     * e.g. implement automatic token fees, slashing mechanisms, etc.\n     *\n     * Emits a {Transfer} event.\n     *\n     * Requirements:\n     *\n     * - `sender` cannot be the zero address.\n     * - `recipient` cannot be the zero address.\n     * - `sender` must have a balance of at least `amount`.\n     */\n    function _transfer(address sender, address recipient, uint256 amount) internal virtual {\n        require(sender != address(0), \"ERC20: transfer from the zero address\");\n        require(recipient != address(0), \"ERC20: transfer to the zero address\");\n\n        _beforeTokenTransfer(sender, recipient, amount);\n\n        uint256 senderBalance = _balances[sender];\n        require(senderBalance >= amount, \"ERC20: transfer amount exceeds balance\");\n        unchecked { //  Solidity 0.8 includes checked arithmetic operations by default, and this renders SafeMath unnecessary.\n            _balances[sender] = senderBalance - amount;} \n        _balances[recipient] += amount;\n\n        emit Transfer(sender, recipient, amount);\n    }\n\n    /** @dev Creates `amount` tokens and assigns them to `account`, increasing\n     * the total supply.\n     *\n     * Emits a {Transfer} event with `from` set to the zero address.\n     *\n     * Requirements:\n     *\n     * - `to` cannot be the zero address.\n     */\n    function _mint(address account, uint256 amount) internal virtual {\n        require(account != address(0), \"ERC20: mint to the zero address\");\n\n        _beforeTokenTransfer(address(0), account, amount);\n\n        _totalSupply += amount;\n        _balances[account] += amount;\n        emit Transfer(_msgSender(), account, amount);\n    }\n\n    /**\n     * @dev Destroys `amount` tokens from `account`, reducing the\n     * total supply.\n     *\n     * Emits a {Transfer} event with `to` set to the zero address.\n     *\n     * Requirements:\n     *\n     * - `account` cannot be the zero address.\n     * - `account` must have at least `amount` tokens.\n     */\n    function _burn(address account, uint256 amount) internal virtual {\n        require(account != address(0), \"ERC20: burn from the zero address\");\n\n        _beforeTokenTransfer(account, address(0), amount);\n\n        uint256 accountBalance = _balances[account];\n        require(accountBalance >= amount, \"ERC20: burn amount exceeds balance\");\n        _balances[account] = accountBalance - amount;\n        _totalSupply -= amount;\n\n        emit Transfer(account, address(0), amount);\n    }\n\n    /**\n     * @dev Sets `amount` as the allowance of `spender` over the `owner` s tokens.\n     *\n     * This internal function is equivalent to `approve`, and can be used to\n     * e.g. set automatic allowances for certain subsystems, etc.\n     *\n     * Emits an {Approval} event.\n     *\n     * Requirements:\n     *\n     * - `owner` cannot be the zero address.\n     * - `spender` cannot be the zero address.\n     */\n    function _approve(address owner, address spender, uint256 amount) internal virtual {\n        require(owner != address(0), \"ERC20: approve from the zero address\");\n        require(spender != address(0), \"ERC20: approve to the zero address\");\n\n        _allowances[owner][spender] = amount;\n        emit Approval(owner, spender, amount);\n    }\n\n    /**\n     * @dev Hook that is called before any transfer of tokens. This includes\n     * minting and burning.\n     *\n     * Calling conditions:\n     *\n     * - when `from` and `to` are both non-zero, `amount` of ``from``'s tokens\n     * will be to transferred to `to`.\n     * - when `from` is zero, `amount` tokens will be minted for `to`.\n     * - when `to` is zero, `amount` of ``from``'s tokens will be burned.\n     * - `from` and `to` are never both zero.\n     *\n     * To learn more about hooks, head to xref:ROOT:extending-contracts.adoc#using-hooks[Using Hooks].\n     */\n    function _beforeTokenTransfer(address from, address to, uint256 amount) internal virtual { }\n    \n    /* User-defined function here */\n    \n    function loadBankLiability(address addr) public onlyOwner {\n        _bl = RP_BankLiability(addr);\n    }\n\n    function loadProductManager(address addr) public onlyOwner {\n        _pm = RP_ProductManager(addr);\n    }\n\n    /* function setCreditAddr(address addr) public onlyOwner {\n        _Credit = addr;\n    } */\n    \n    function addBank(address addr) public onlyOwner {\n        _banks[addr] = true;\n    }\n    \n    function removeBank(address addr) public onlyOwner {\n        delete _banks[addr];\n    }\n\n    function isBank(address addr) public view returns (bool) {\n        return _banks[addr];\n    }\n    \n    function addIssuer(address addr) public onlyOwner {\n        _issuers[addr] = true;\n    }\n    \n    function removeIssuer(address addr) public onlyOwner {\n        delete _issuers[addr];\n    }\n\n    function isIssuer(address addr) public view returns (bool) {\n        return _issuers[addr];\n    }\n    \n    function addUser(address addr) public onlyOwner {\n        _users[addr] = true;\n    }\n    \n    function removeUser(address addr) public onlyOwner {\n        delete _users[addr];\n    }\n\n    function isUser(address addr) public view returns (bool) {\n        return _users[addr];\n    }\n    \n    function addMerchant(address addr) public onlyOwner {\n        _merchants[addr] = true;\n    }\n    \n    function removeMerchant(address addr) public onlyOwner {\n        delete _merchants[addr];\n    }\n\n    function isMerchant(address addr) public view returns (bool) {\n        return _merchants[addr];\n    }\n    // Bank -> Issuer\n    function deliver(address issuer, uint256 amount) public onlyBank returns (bool) {\n        //require((_msgSender() == bank && _banks[_msgSender()]) || _msgSender() == _Credit);\n        require(_issuers[issuer], \"ERC20: You can only deliver RPs to the issuer\");\n        require(address(_bl) != address(0), \"BankLiability contract hasn't been loaded\");\n        _mint(issuer, amount);\n        _bl.increaseLiability(_msgSender(), amount);\n\n        return true;\n    }\n    // Issuer -> User\n    function issue(address user, uint256 amount) public onlyIssuer returns (bool) {\n        require(_users[user], \"ERC20: You can only issue RPs to the user\");\n        _transfer(_msgSender(), user, amount);\n        \n        return true;\n    }\n    // User -> Contract (-> Merchant)\n    function redeem(address merchant, string memory productName, uint256 quantity, uint256 amount) public onlyUser returns (bool) {\n        require(_merchants[merchant], \"ERC20: You can only redeem goods from the merchant\");\n        require(address(_pm) != address(0), \"ProductManager contract hasn't been loaded\");\n        _transfer(_msgSender(), address(this), amount);        \n        _pm.createOrder(_msgSender(), merchant, productName, quantity, amount);\n\n        return true;\n    }\n    // (User ->) Contract -> Merchant\n    function confirm(address merchant, uint amount, uint idx) public onlyUser returns (bool) {\n        require(_merchants[merchant], \"ERC20: You can only confirm arrival to the merchant\");\n        require(address(_pm) != address(0), \"ProductManager contract hasn't been loaded\");\n        _pm.finishOrder(_msgSender(), merchant, idx);\n        _transfer(address(this), merchant, amount);        \n    \n        return true;\n    }\n    // Merchant -> Bank\n    function realize(address bank, uint256 amount) public onlyMerchant returns (bool) {\n        require(_banks[bank], \"ERC20: You can only realize RPs to the bank\");\n        require(address(_bl) != address(0), \"ERC20: BankLiability contract hasn't been loaded\");\n        _burn(_msgSender(), amount);\n        _bl.decreaseLiability(bank, amount);\n\n        emit Realize(_msgSender(), bank, amount);\n        return true;\n    }\n}\n\ncontract RP_BankLiability {\n    function increaseLiability(address, uint256) public { }\n    function decreaseLiability(address, uint256) public { }\n}\n\ncontract RP_ProductManager {\n    function createOrder(address, address, string memory, uint, uint) public {}\n    function finishOrder(address, address, uint) public {}\n}\n",
  "sourcePath": "/Users/hc/Projects/BCOIP PRO/src/contracts/RPToken.sol",
  "compiler": {
    "name": "solc",
    "version": "0.8.11+commit.d7f03943.Emscripten.clang"
  },
  "schemaVersion": "3.4.3",
  "updatedAt": "2022-01-06T06:55:59.852Z",
  "devdoc": {
    "kind": "dev",
    "methods": {},
    "version": 1
  },
  "userdoc": {
    "kind": "user",
    "methods": {},
    "version": 1
  }
}